{"abi":[{"type":"constructor","inputs":[{"name":"_mezoIntegration","type":"address","internalType":"address"},{"name":"_yieldAggregator","type":"address","internalType":"address"},{"name":"_wbtc","type":"address","internalType":"address"},{"name":"_musd","type":"address","internalType":"address"},{"name":"_feeCollector","type":"address","internalType":"address"}],"stateMutability":"nonpayable"},{"type":"function","name":"MAX_MEMBERS_LIMIT","inputs":[],"outputs":[{"name":"","type":"uint256","internalType":"uint256"}],"stateMutability":"view"},{"type":"function","name":"MAX_POOL_SIZE","inputs":[],"outputs":[{"name":"","type":"uint256","internalType":"uint256"}],"stateMutability":"view"},{"type":"function","name":"MEZO_INTEGRATION","inputs":[],"outputs":[{"name":"","type":"address","internalType":"contract IMezoIntegration"}],"stateMutability":"view"},{"type":"function","name":"MIN_CONTRIBUTION","inputs":[],"outputs":[{"name":"","type":"uint256","internalType":"uint256"}],"stateMutability":"view"},{"type":"function","name":"MIN_POOL_SIZE","inputs":[],"outputs":[{"name":"","type":"uint256","internalType":"uint256"}],"stateMutability":"view"},{"type":"function","name":"MUSD","inputs":[],"outputs":[{"name":"","type":"address","internalType":"contract IERC20"}],"stateMutability":"view"},{"type":"function","name":"WBTC","inputs":[],"outputs":[{"name":"","type":"address","internalType":"contract IERC20"}],"stateMutability":"view"},{"type":"function","name":"YIELD_AGGREGATOR","inputs":[],"outputs":[{"name":"","type":"address","internalType":"contract IYieldAggregator"}],"stateMutability":"view"},{"type":"function","name":"calculateMemberYield","inputs":[{"name":"poolId","type":"uint256","internalType":"uint256"},{"name":"member","type":"address","internalType":"address"}],"outputs":[{"name":"pendingYield","type":"uint256","internalType":"uint256"}],"stateMutability":"view"},{"type":"function","name":"claimYield","inputs":[{"name":"poolId","type":"uint256","internalType":"uint256"}],"outputs":[],"stateMutability":"nonpayable"},{"type":"function","name":"closePool","inputs":[{"name":"poolId","type":"uint256","internalType":"uint256"}],"outputs":[],"stateMutability":"nonpayable"},{"type":"function","name":"createPool","inputs":[{"name":"name","type":"string","internalType":"string"},{"name":"minContribution","type":"uint256","internalType":"uint256"},{"name":"maxContribution","type":"uint256","internalType":"uint256"},{"name":"maxMembers","type":"uint256","internalType":"uint256"}],"outputs":[{"name":"poolId","type":"uint256","internalType":"uint256"}],"stateMutability":"nonpayable"},{"type":"function","name":"feeCollector","inputs":[],"outputs":[{"name":"","type":"address","internalType":"address"}],"stateMutability":"view"},{"type":"function","name":"getMemberInfo","inputs":[{"name":"poolId","type":"uint256","internalType":"uint256"},{"name":"member","type":"address","internalType":"address"}],"outputs":[{"name":"info","type":"tuple","internalType":"struct CooperativePool.MemberInfo","components":[{"name":"btcContributed","type":"uint256","internalType":"uint256"},{"name":"shares","type":"uint256","internalType":"uint256"},{"name":"yieldClaimed","type":"uint256","internalType":"uint256"},{"name":"joinedAt","type":"uint256","internalType":"uint256"},{"name":"active","type":"bool","internalType":"bool"}]}],"stateMutability":"view"},{"type":"function","name":"getPoolInfo","inputs":[{"name":"poolId","type":"uint256","internalType":"uint256"}],"outputs":[{"name":"info","type":"tuple","internalType":"struct CooperativePool.PoolInfo","components":[{"name":"poolId","type":"uint256","internalType":"uint256"},{"name":"name","type":"string","internalType":"string"},{"name":"creator","type":"address","internalType":"address"},{"name":"minContribution","type":"uint256","internalType":"uint256"},{"name":"maxContribution","type":"uint256","internalType":"uint256"},{"name":"maxMembers","type":"uint256","internalType":"uint256"},{"name":"currentMembers","type":"uint256","internalType":"uint256"},{"name":"totalBtcDeposited","type":"uint256","internalType":"uint256"},{"name":"totalMusdMinted","type":"uint256","internalType":"uint256"},{"name":"totalYieldGenerated","type":"uint256","internalType":"uint256"},{"name":"createdAt","type":"uint256","internalType":"uint256"},{"name":"status","type":"uint8","internalType":"enum CooperativePool.PoolStatus"},{"name":"allowNewMembers","type":"bool","internalType":"bool"}]}],"stateMutability":"view"},{"type":"function","name":"getPoolMembers","inputs":[{"name":"poolId","type":"uint256","internalType":"uint256"}],"outputs":[{"name":"members","type":"address[]","internalType":"address[]"}],"stateMutability":"view"},{"type":"function","name":"getPoolStats","inputs":[{"name":"poolId","type":"uint256","internalType":"uint256"}],"outputs":[{"name":"totalBtc","type":"uint256","internalType":"uint256"},{"name":"totalMusd","type":"uint256","internalType":"uint256"},{"name":"totalYield","type":"uint256","internalType":"uint256"},{"name":"avgApr","type":"uint256","internalType":"uint256"}],"stateMutability":"view"},{"type":"function","name":"getTotalShares","inputs":[{"name":"poolId","type":"uint256","internalType":"uint256"}],"outputs":[{"name":"totalShares","type":"uint256","internalType":"uint256"}],"stateMutability":"view"},{"type":"function","name":"joinPool","inputs":[{"name":"poolId","type":"uint256","internalType":"uint256"},{"name":"btcAmount","type":"uint256","internalType":"uint256"}],"outputs":[],"stateMutability":"nonpayable"},{"type":"function","name":"leavePool","inputs":[{"name":"poolId","type":"uint256","internalType":"uint256"}],"outputs":[],"stateMutability":"nonpayable"},{"type":"function","name":"owner","inputs":[],"outputs":[{"name":"","type":"address","internalType":"address"}],"stateMutability":"view"},{"type":"function","name":"pause","inputs":[],"outputs":[],"stateMutability":"nonpayable"},{"type":"function","name":"paused","inputs":[],"outputs":[{"name":"","type":"bool","internalType":"bool"}],"stateMutability":"view"},{"type":"function","name":"performanceFee","inputs":[],"outputs":[{"name":"","type":"uint256","internalType":"uint256"}],"stateMutability":"view"},{"type":"function","name":"poolCounter","inputs":[],"outputs":[{"name":"","type":"uint256","internalType":"uint256"}],"stateMutability":"view"},{"type":"function","name":"poolMembers","inputs":[{"name":"","type":"uint256","internalType":"uint256"},{"name":"","type":"address","internalType":"address"}],"outputs":[{"name":"btcContributed","type":"uint256","internalType":"uint256"},{"name":"shares","type":"uint256","internalType":"uint256"},{"name":"yieldClaimed","type":"uint256","internalType":"uint256"},{"name":"joinedAt","type":"uint256","internalType":"uint256"},{"name":"active","type":"bool","internalType":"bool"}],"stateMutability":"view"},{"type":"function","name":"poolMembersList","inputs":[{"name":"","type":"uint256","internalType":"uint256"},{"name":"","type":"uint256","internalType":"uint256"}],"outputs":[{"name":"","type":"address","internalType":"address"}],"stateMutability":"view"},{"type":"function","name":"pools","inputs":[{"name":"","type":"uint256","internalType":"uint256"}],"outputs":[{"name":"poolId","type":"uint256","internalType":"uint256"},{"name":"name","type":"string","internalType":"string"},{"name":"creator","type":"address","internalType":"address"},{"name":"minContribution","type":"uint256","internalType":"uint256"},{"name":"maxContribution","type":"uint256","internalType":"uint256"},{"name":"maxMembers","type":"uint256","internalType":"uint256"},{"name":"currentMembers","type":"uint256","internalType":"uint256"},{"name":"totalBtcDeposited","type":"uint256","internalType":"uint256"},{"name":"totalMusdMinted","type":"uint256","internalType":"uint256"},{"name":"totalYieldGenerated","type":"uint256","internalType":"uint256"},{"name":"createdAt","type":"uint256","internalType":"uint256"},{"name":"status","type":"uint8","internalType":"enum CooperativePool.PoolStatus"},{"name":"allowNewMembers","type":"bool","internalType":"bool"}],"stateMutability":"view"},{"type":"function","name":"renounceOwnership","inputs":[],"outputs":[],"stateMutability":"nonpayable"},{"type":"function","name":"setFeeCollector","inputs":[{"name":"newCollector","type":"address","internalType":"address"}],"outputs":[],"stateMutability":"nonpayable"},{"type":"function","name":"setPerformanceFee","inputs":[{"name":"newFee","type":"uint256","internalType":"uint256"}],"outputs":[],"stateMutability":"nonpayable"},{"type":"function","name":"transferOwnership","inputs":[{"name":"newOwner","type":"address","internalType":"address"}],"outputs":[],"stateMutability":"nonpayable"},{"type":"function","name":"unpause","inputs":[],"outputs":[],"stateMutability":"nonpayable"},{"type":"event","name":"MemberJoined","inputs":[{"name":"poolId","type":"uint256","indexed":true,"internalType":"uint256"},{"name":"member","type":"address","indexed":true,"internalType":"address"},{"name":"btcAmount","type":"uint256","indexed":false,"internalType":"uint256"},{"name":"shares","type":"uint256","indexed":false,"internalType":"uint256"}],"anonymous":false},{"type":"event","name":"MemberLeft","inputs":[{"name":"poolId","type":"uint256","indexed":true,"internalType":"uint256"},{"name":"member","type":"address","indexed":true,"internalType":"address"},{"name":"btcAmount","type":"uint256","indexed":false,"internalType":"uint256"},{"name":"yieldAmount","type":"uint256","indexed":false,"internalType":"uint256"}],"anonymous":false},{"type":"event","name":"OwnershipTransferred","inputs":[{"name":"previousOwner","type":"address","indexed":true,"internalType":"address"},{"name":"newOwner","type":"address","indexed":true,"internalType":"address"}],"anonymous":false},{"type":"event","name":"Paused","inputs":[{"name":"account","type":"address","indexed":false,"internalType":"address"}],"anonymous":false},{"type":"event","name":"PoolClosed","inputs":[{"name":"poolId","type":"uint256","indexed":true,"internalType":"uint256"},{"name":"finalBalance","type":"uint256","indexed":false,"internalType":"uint256"}],"anonymous":false},{"type":"event","name":"PoolCreated","inputs":[{"name":"poolId","type":"uint256","indexed":true,"internalType":"uint256"},{"name":"creator","type":"address","indexed":true,"internalType":"address"},{"name":"name","type":"string","indexed":false,"internalType":"string"},{"name":"minContribution","type":"uint256","indexed":false,"internalType":"uint256"},{"name":"maxMembers","type":"uint256","indexed":false,"internalType":"uint256"}],"anonymous":false},{"type":"event","name":"PoolStatusUpdated","inputs":[{"name":"poolId","type":"uint256","indexed":true,"internalType":"uint256"},{"name":"newStatus","type":"uint8","indexed":false,"internalType":"enum CooperativePool.PoolStatus"}],"anonymous":false},{"type":"event","name":"Unpaused","inputs":[{"name":"account","type":"address","indexed":false,"internalType":"address"}],"anonymous":false},{"type":"event","name":"YieldClaimed","inputs":[{"name":"poolId","type":"uint256","indexed":true,"internalType":"uint256"},{"name":"member","type":"address","indexed":true,"internalType":"address"},{"name":"yieldAmount","type":"uint256","indexed":false,"internalType":"uint256"}],"anonymous":false},{"type":"event","name":"YieldDistributed","inputs":[{"name":"poolId","type":"uint256","indexed":true,"internalType":"uint256"},{"name":"totalYield","type":"uint256","indexed":false,"internalType":"uint256"},{"name":"membersCount","type":"uint256","indexed":false,"internalType":"uint256"}],"anonymous":false},{"type":"error","name":"AddressEmptyCode","inputs":[{"name":"target","type":"address","internalType":"address"}]},{"type":"error","name":"AddressInsufficientBalance","inputs":[{"name":"account","type":"address","internalType":"address"}]},{"type":"error","name":"AlreadyMember","inputs":[]},{"type":"error","name":"ContributionTooHigh","inputs":[]},{"type":"error","name":"ContributionTooLow","inputs":[]},{"type":"error","name":"EnforcedPause","inputs":[]},{"type":"error","name":"ExpectedPause","inputs":[]},{"type":"error","name":"FailedInnerCall","inputs":[]},{"type":"error","name":"InsufficientPoolSize","inputs":[]},{"type":"error","name":"InvalidAddress","inputs":[]},{"type":"error","name":"InvalidAmount","inputs":[]},{"type":"error","name":"InvalidFee","inputs":[]},{"type":"error","name":"InvalidMaxMembers","inputs":[]},{"type":"error","name":"InvalidPoolId","inputs":[]},{"type":"error","name":"NoYieldToClaim","inputs":[]},{"type":"error","name":"NotMember","inputs":[]},{"type":"error","name":"OwnableInvalidOwner","inputs":[{"name":"owner","type":"address","internalType":"address"}]},{"type":"error","name":"OwnableUnauthorizedAccount","inputs":[{"name":"account","type":"address","internalType":"address"}]},{"type":"error","name":"PoolFull","inputs":[]},{"type":"error","name":"PoolNotAcceptingMembers","inputs":[]},{"type":"error","name":"PoolNotActive","inputs":[]},{"type":"error","name":"ReentrancyGuardReentrantCall","inputs":[]},{"type":"error","name":"SafeERC20FailedOperation","inputs":[{"name":"token","type":"address","internalType":"address"}]}],"bytecode":{"object":"0x6101003461021d57601f61319138819003918201601f19168301916001600160401b038311848410176102225780849260a09460405283398101031261021d5761004881610238565b9061005560208201610238565b9061006260408201610238565b9061007b608061007460608401610238565b9201610238565b913315610204576000549360018060a01b03948560018060a01b031997338984161760005560405192823391167f8be0079c531659141344cd1fd0a4f28419497f9722a3daafe3b4186f6b6457e0600080a36001805560ff196002541660025560646007551690811580156101fa575b80156101f0575b80156101e6575b80156101dc575b6101cd5750608052841660a052831660c052821660e052600880549093169116179055604051612f44908161024d82396080518181816101b401528181610db0015261212b015260a051818181610ed101528181610f950152818161121e0152818161151101528181611897015281816121c10152612969015260c051818181610bf90152818161166201528181611f8e0152612152015260e051818181610c7e01528181610d4201528181610dd80152818161100c015281816116b30152818161176a01526121e80152f35b63e6c4247b60e01b8152600490fd5b5086861615610100565b50868516156100f9565b50868416156100f2565b50868316156100eb565b604051631e4fbdf760e01b815260006004820152602490fd5b600080fd5b634e487b7160e01b600052604160045260246000fd5b51906001600160a01b038216820361021d5756fe6080604052600436101561001257600080fd5b60003560e01c8063108c849214611eb25780631db8e04f14611e965780631e67939e14611db85780632f380b3514611bbd578063368e950f14611b9957806337de615f14611ad85780633f4ba83a14611a3857806340650c9114611a1657806340bd2e23146116d757806343a82621146116865780634dede3de146116355780635c975abb14611612578063601acc921461158b5780636791799d146113fc57806370897b23146113a8578063715018a61461132a5780638456cb59146112b257806385fff8581461129457806387788782146112765780638da5cb5b1461124257806396f3556b146111f15780639ca53f8214610ad85780639e3079cb14610aba578063a208298b146105d1578063a42dce801461053c578063ac4afa381461044e578063b1219e731461037c578063bdffaf7b1461035a578063c415b95c14610326578063c60b6e2d146102cf578063ef5207d3146102a1578063f2fde38b146101dd5763fc2c01f81461018757600080fd5b346101d85760006003193601126101d857602060405173ffffffffffffffffffffffffffffffffffffffff7f0000000000000000000000000000000000000000000000000000000000000000168152f35b600080fd5b346101d85760206003193601126101d8576101f6612407565b6101fe6127b7565b73ffffffffffffffffffffffffffffffffffffffff80911690811561027057600054827fffffffffffffffffffffffff0000000000000000000000000000000000000000821617600055167f8be0079c531659141344cd1fd0a4f28419497f9722a3daafe3b4186f6b6457e0600080a3005b60246040517f1e4fbdf700000000000000000000000000000000000000000000000000000000815260006004820152fd5b346101d85760406003193601126101d85760206102c76102bf6123e4565b600435612808565b604051908152f35b346101d8576102dd366123ce565b90600052600660205260406000209081548110156101d85761031673ffffffffffffffffffffffffffffffffffffffff91602093612660565b9190546040519260031b1c168152f35b346101d85760006003193601126101d857602073ffffffffffffffffffffffffffffffffffffffff60085416604051908152f35b346101d85760006003193601126101d8576020604051662386f26fc100008152f35b346101d8576020806003193601126101d85760043560005260068152604060002060405190818382549182815201908192600052846000209060005b868282106104245786866103ce828803836124ce565b604051928392818401908285525180915260408401929160005b8281106103f757505050500390f35b835173ffffffffffffffffffffffffffffffffffffffff16855286955093810193928101926001016103e8565b835473ffffffffffffffffffffffffffffffffffffffff16855290930192600192830192016103b8565b346101d85760206003193601126101d85760043560005260046020526040600020805461047d6001830161259c565b9160ff73ffffffffffffffffffffffffffffffffffffffff60028301541691600381015490600481015460058201546006830154600784015490600885015492600986015494600b600a880154970154976104eb6040519d8e9d8e6101a0918152816020820152019061242a565b9a60408d015260608c015260808b015260a08a015260c089015260e088015261010087015261012086015261014085015261052c6101608501838316612488565b60081c1615156101808301520390f35b346101d85760206003193601126101d85773ffffffffffffffffffffffffffffffffffffffff61056a612407565b6105726127b7565b1680156105a7577fffffffffffffffffffffffff00000000000000000000000000000000000000006008541617600855600080f35b60046040517fe6c4247b000000000000000000000000000000000000000000000000000000008152fd5b346101d85760806003193601126101d85760043567ffffffffffffffff81116101d857366023820112156101d857806004013561060d8161250f565b9161061b60405193846124ce565b81835236602483830101116101d857816000926024602093018386013783010152610644612781565b66038d7ea4c6800060243510610a905760243560443510610a6657606435158015610a5b575b610a31576106796003546126a7565b806003556040519161068a836124b1565b8183528060208401523360408401526024356060840152604435608084015260643560a0840152600060c0840152600060e0840152600061010084015260006101208401524261014084015260006101608401526001610180840152816000526004602052604060002083518155602084015180519067ffffffffffffffff8211610a025761071c6001840154612549565b601f81116109bb575b50602090601f83116001146108ee57600b939291600091836108e3575b50507fffffffffffffffffffffffffffffffffffffffffffffffffffffffffffffffff8260011b9260031b1c19161760018201555b6002810173ffffffffffffffffffffffffffffffffffffffff6040870151167fffffffffffffffffffffffff0000000000000000000000000000000000000000825416179055606085015160038201556080850151600482015560a0850151600582015560c0850151600682015560e0850151600782015561010085015160088201556101208501516009820155610140850151600a8201550161016084015160038110156108b4576020947fffffffffffffffffffffffffffffffffffffffffffffffffffffffffffff000060ff61ff006101808654940151151560081b169316911617179055817f6b2cd9245bdaf1bd7efb949be8dda6f04eb47f617845ff6b94eea67f6ce424a86108966040519360608552606085019061242a565b926024358682015260643560408201528033940390a3604051908152f35b7f4e487b7100000000000000000000000000000000000000000000000000000000600052602160045260246000fd5b015190508780610742565b906001840160005260206000209160005b7fffffffffffffffffffffffffffffffffffffffffffffffffffffffffffffffe0851681106109a35750918391600193837fffffffffffffffffffffffffffffffffffffffffffffffffffffffffffffffe0600b9897161061096c575b505050811b016001820155610777565b01517fffffffffffffffffffffffffffffffffffffffffffffffffffffffffffffffff60f88460031b161c1916905587808061095c565b919260206001819286850151815501940192016108ff565b600184016000526020600020601f840160051c8101602085106109fb575b601f830160051c820181106109ef575050610725565b600081556001016109d9565b50806109d9565b7f4e487b7100000000000000000000000000000000000000000000000000000000600052604160045260246000fd5b60046040517f15f6ef65000000000000000000000000000000000000000000000000000000008152fd5b50606480351161066a565b60046040517f2c5211c6000000000000000000000000000000000000000000000000000000008152fd5b60046040517fd8eb236a000000000000000000000000000000000000000000000000000000008152fd5b346101d85760006003193601126101d8576020600354604051908152f35b346101d85760206003193601126101d857610af1612746565b6004356000526004602052604060002060056020526040600020336000526020526040600020908054156111c7576004820180549260ff84161561119d57610b3b33600435612808565b92815494610b4a600435612ade565b91600184015491670de0b6b3a7640000928381029080820485149015171561116e5784610b7691612700565b9160088101967fffffffffffffffffffffffffffffffffffffffffffffffffffffffffffffff00885493169055600681018054801561116e577fffffffffffffffffffffffffffffffffffffffffffffffffffffffffffffffff019055610be4600787549201918254612739565b905580610cdc575b505050505050610c1d82337f0000000000000000000000000000000000000000000000000000000000000000612a77565b80610c5e575b604051918252602082015233907fd235bbedc714340f7a334376fcda1e9b0c8dcbb7e3918a16494a8718835e6bc4604060043592a360018055005b612710610c6d600754836126ed565b04610c788183612739565b90610ca57f0000000000000000000000000000000000000000000000000000000000000000923384612a77565b80610cb2575b5050610c23565b610cd59173ffffffffffffffffffffffffffffffffffffffff6008541690612a77565b8280610cab565b610cea9293949597506126ed565b0493610cf7858254612739565b90556040517f70a0823100000000000000000000000000000000000000000000000000000000815230600482015260208160248173ffffffffffffffffffffffffffffffffffffffff7f0000000000000000000000000000000000000000000000000000000000000000165afa908115610e7c5760009161113c575b50610d7e84866126d4565b9283821080611133575b610e88575b50505050906020600091602473ffffffffffffffffffffffffffffffffffffffff7f00000000000000000000000000000000000000000000000000000000000000001691610dfc81847f0000000000000000000000000000000000000000000000000000000000000000612c27565b60405194859384927f7c695cc100000000000000000000000000000000000000000000000000000000845260048401525af1908115610e7c57600091610e4a575b5090828080808080610bec565b90506020813d602011610e74575b81610e65602093836124ce565b810103126101d8575182610e3d565b3d9150610e58565b6040513d6000823e3d90fd5b6040517f5b7c2dad00000000000000000000000000000000000000000000000000000000815230600482015260408160248173ffffffffffffffffffffffffffffffffffffffff7f0000000000000000000000000000000000000000000000000000000000000000165afa908115610e7c576000906000926110f4575b50610f2b926001610f1d610f319794610f26946126d4565b910154906126ed565b612700565b92612739565b90808210156110ed57505b80610f4a575b808080610d8d565b604051907f2e1a7d4d0000000000000000000000000000000000000000000000000000000082526004820152602081602481600073ffffffffffffffffffffffffffffffffffffffff7f0000000000000000000000000000000000000000000000000000000000000000165af190816110c2575b506110b7576040517f70a0823100000000000000000000000000000000000000000000000000000000815230600482015260208160248173ffffffffffffffffffffffffffffffffffffffff7f0000000000000000000000000000000000000000000000000000000000000000165afa918215610e7c578391600093611080575b5081831061107257611055602092600094612739565b90808210841461106b57505b925b929150610f42565b9050611061565b505050600060208192611063565b915091506020813d6020116110af575b8161109d602093836124ce565b810103126101d857829051918461103f565b3d9150611090565b906020600091611063565b602090813d83116110e6575b6110d881836124ce565b810103126101d85783610fbe565b503d6110ce565b9050610f3c565b949150506040843d60401161112b575b81611111604093836124ce565b810103126101d85783516020909401519093610f2b610f05565b3d9150611104565b50841515610d88565b90506020813d602011611166575b81611157602093836124ce565b810103126101d8575185610d73565b3d915061114a565b7f4e487b7100000000000000000000000000000000000000000000000000000000600052601160045260246000fd5b60046040517f291fc442000000000000000000000000000000000000000000000000000000008152fd5b60046040517f0afa7ee8000000000000000000000000000000000000000000000000000000008152fd5b346101d85760006003193601126101d857602060405173ffffffffffffffffffffffffffffffffffffffff7f0000000000000000000000000000000000000000000000000000000000000000168152f35b346101d85760006003193601126101d857602073ffffffffffffffffffffffffffffffffffffffff60005416604051908152f35b346101d85760006003193601126101d8576020600754604051908152f35b346101d85760206003193601126101d85760206102c7600435612ade565b346101d85760006003193601126101d8576112cb6127b7565b6112d3612781565b60017fffffffffffffffffffffffffffffffffffffffffffffffffffffffffffffff0060025416176002557f62e78cea01bee320cd4e420270b5ea74000d11b0c9f74754ebdbfc544b05a2586020604051338152a1005b346101d85760006003193601126101d8576113436127b7565b600073ffffffffffffffffffffffffffffffffffffffff81547fffffffffffffffffffffffff000000000000000000000000000000000000000081168355167f8be0079c531659141344cd1fd0a4f28419497f9722a3daafe3b4186f6b6457e08280a3005b346101d85760206003193601126101d8576004356113c46127b7565b6103e881116113d257600755005b60046040517f58d620b3000000000000000000000000000000000000000000000000000000008152fd5b346101d8576020806003193601126101d85760049081356000528181526040600020906040519161142c836124b1565b8054835261143c6001820161259c565b8284015273ffffffffffffffffffffffffffffffffffffffff9081600282015416604085015260038101546060850152848101546080850152600581015460a0850152600681015460c085015282600782015460e08601908152600883015495610100810196875261018060ff600b6009870154966101208501978852600a81015461014086015201546114d682821661016086016126e1565b60081c161515910152519451915192604051968780927f5011ec7a0000000000000000000000000000000000000000000000000000000082527f0000000000000000000000000000000000000000000000000000000000000000165afa928315610e7c5760009361155b575b6080955060405194855284015260408301526060820152f35b80935085813d8311611584575b61157281836124ce565b810103126101d8576080945192611542565b503d611568565b346101d85760406003193601126101d8576115a46123e4565b600435600052600560205273ffffffffffffffffffffffffffffffffffffffff6040600020911660005260205260a06040600020805490600181015490600281015460ff60046003840154930154169260405194855260208501526040840152606083015215156080820152f35b346101d85760006003193601126101d857602060ff600254166040519015158152f35b346101d85760006003193601126101d857602060405173ffffffffffffffffffffffffffffffffffffffff7f0000000000000000000000000000000000000000000000000000000000000000168152f35b346101d85760006003193601126101d857602060405173ffffffffffffffffffffffffffffffffffffffff7f0000000000000000000000000000000000000000000000000000000000000000168152f35b346101d8576020806003193601126101d8576004356116f4612746565b806000526004825260406000209060058352604060002033600052835260406000209154156111c75760ff6004830154161561119d576117343382612808565b92831561193a57612710938461174c600754836126ed565b0460026117598284612739565b95016117668382546126d4565b90557f00000000000000000000000000000000000000000000000000000000000000009573ffffffffffffffffffffffffffffffffffffffff92838816906040517f70a0823100000000000000000000000000000000000000000000000000000000918282523060048301528782602481875afa918215610e7c576000926119e7575b50808210611854575b505050505084956118267f1448cb68839238fd008abe5bad73d996f9849e020313466fa9f3476d98006df295963383612a77565b8161183e575b5050506040519384523393a360018055005b61184c926008541690612a77565b84808061182c565b906118659199939592949899612739565b506040517f406cf22900000000000000000000000000000000000000000000000000000000815286808260048160008b7f0000000000000000000000000000000000000000000000000000000000000000165af191826119be575b5050611991575050839060246040518094819382523060048301525afa908115610e7c57600091611964575b50801561193a5761192c7f1448cb68839238fd008abe5bad73d996f9849e020313466fa9f3476d98006df294611924600754846126ed565b048092612739565b955b959493878080806117f2565b60046040517fb2b8dcdc000000000000000000000000000000000000000000000000000000008152fd5b90508281813d831161198a575b61197b81836124ce565b810103126101d85751866118ec565b503d611971565b92509690507f1448cb68839238fd008abe5bad73d996f9849e020313466fa9f3476d98006df2945061192e565b813d83116119e0575b6119d181836124ce565b810103126101d857868b6118c0565b503d6119c7565b9091508781813d8311611a0f575b6119ff81836124ce565b810103126101d85751908b6117e9565b503d6119f5565b346101d85760006003193601126101d857602060405166038d7ea4c680008152f35b346101d85760006003193601126101d857611a516127b7565b60025460ff811615611aae577fffffffffffffffffffffffffffffffffffffffffffffffffffffffffffffff00166002557f5db9ee0a495bf2e6ff9c91a7834c1ba4fdd244a5e8aa4e537bd38aeae4b073aa6020604051338152a1005b60046040517f8dfc202b000000000000000000000000000000000000000000000000000000008152fd5b346101d85760206003193601126101d85760043580600052600460205260406000208054156111c75773ffffffffffffffffffffffffffffffffffffffff806002830154163314159081611b8a575b506105a7576020600782600b7faf7faf29a251efa1bcf2b47dab1a72baa0906a2e4ff957e6cb6d4f7c642161ab940160027fffffffffffffffffffffffffffffffffffffffffffffffffffffffffffff00008254161790550154604051908152a2005b90506000541633141583611b27565b346101d85760006003193601126101d857602060405168056bc75e2d631000008152f35b346101d85760206003193601126101d8576000610180604051611bdf816124b1565b828152606060208201528260408201528260608201528260808201528260a08201528260c08201528260e08201528261010082015282610120820152826101408201528261016082015201526004356000526004602052604060002060ff600b60405192611c4c846124b1565b80548452611c5c6001820161259c565b602085015273ffffffffffffffffffffffffffffffffffffffff60028201541660408501526003810154606085015260048101546080850152600581015460a0850152600681015460c0850152600781015460e085015260088101546101008501526009810154610120850152600a8101546101408501520154611ce682821661016085016126e1565b60081c16151561018082015260405180916020825280516020830152610180611d2060208301516101a060408601526101c085019061242a565b9173ffffffffffffffffffffffffffffffffffffffff604082015116606085015260608101516080850152608081015160a085015260a081015160c085015260c081015160e085015260e0810151610100850152610100810151610120850152610120810151610140850152610140810151610160850152611daa61016082015183860190612488565b015115156101a08301520390f35b346101d85760406003193601126101d857611dd16123e4565b60006080604051611de181612495565b8281528260208201528260408201528260608201520152600435600052600560205273ffffffffffffffffffffffffffffffffffffffff6040600020911660005260205260a06040600020604051611e3881612495565b81549182825260018101546020830190815260028201549060408401918252608060ff600460038601549560608801968752015416940193151584526040519485525160208501525160408401525160608301525115156080820152f35b346101d85760006003193601126101d857602060405160648152f35b346101d857611ec0366123ce565b90611ec9612746565b611ed1612781565b80600052600460205260406000208054156111c75760ff600b82015460081c16156123a45760068101546005820154111561237a5781600052600560205260406000203360005260205260ff600460406000200154166123505760038101548310610a90576004810154831161232657611fb26040517f23b872dd00000000000000000000000000000000000000000000000000000000602082015233602482015230604482015284606482015260648152611f8c81612495565b7f0000000000000000000000000000000000000000000000000000000000000000612da5565b60405190611fbf82612495565b838252836020830152600060408301524260608301526001608083015282600052600560205260406000203360005260205260806004604060002084518155602085015160018201556040850151600282015560608501516003820155019201511515917fffffffffffffffffffffffffffffffffffffffffffffffffffffffffffffff009260ff8483541691161790558260005260066020526040600020805468010000000000000000811015610a025761208b81662386f26fc10000936001600794018155612660565b939080549460031b73ffffffffffffffffffffffffffffffffffffffff958633831b921b19161790556120c160068201546126a7565b6006820155016120d28682546126d4565b8091551015612116575b50506040519180835260208301527fd1c23df765b8db6e8e7b2077d1e985dc2c7b79dcd08cc1a6dc48b566bddeea7360403393a360018055005b600090838252600460205260408220906020817f00000000000000000000000000000000000000000000000000000000000000001661217688827f0000000000000000000000000000000000000000000000000000000000000000612c27565b6024604051809681937f45fd04650000000000000000000000000000000000000000000000000000000083528b60048401525af1928315610e7c576000936122f2575b5060006040827f00000000000000000000000000000000000000000000000000000000000000001661220c86827f0000000000000000000000000000000000000000000000000000000000000000612c27565b60248251809481937fb6b55f250000000000000000000000000000000000000000000000000000000083528960048401525af18015610e7c576122b9575b5050600b9161225e600883019182546126d4565b9055019081549060ff821660038110156108b4571561227e575b506120dc565b60019116179055807ff23f81825d004be688e56e2e60f70dfa6e0007947618aa870d4c32693cbedf33602060405160018152a2828080612278565b6040813d6040116122ea575b816122d2604093836124ce565b810103126101d85751908116036101d857858061224a565b3d91506122c5565b9092506020813d60201161231e575b8161230e602093836124ce565b810103126101d8575191866121b9565b3d9150612301565b60046040517fbca119a6000000000000000000000000000000000000000000000000000000008152fd5b60046040517f810074be000000000000000000000000000000000000000000000000000000008152fd5b60046040517f9e80781c000000000000000000000000000000000000000000000000000000008152fd5b60046040517fd3f4a639000000000000000000000000000000000000000000000000000000008152fd5b60031960409101126101d8576004359060243590565b6024359073ffffffffffffffffffffffffffffffffffffffff821682036101d857565b6004359073ffffffffffffffffffffffffffffffffffffffff821682036101d857565b919082519283825260005b8481106124745750507fffffffffffffffffffffffffffffffffffffffffffffffffffffffffffffffe0601f8460006020809697860101520116010190565b602081830181015184830182015201612435565b9060038210156108b45752565b60a0810190811067ffffffffffffffff821117610a0257604052565b6101a0810190811067ffffffffffffffff821117610a0257604052565b90601f7fffffffffffffffffffffffffffffffffffffffffffffffffffffffffffffffe0910116810190811067ffffffffffffffff821117610a0257604052565b67ffffffffffffffff8111610a0257601f017fffffffffffffffffffffffffffffffffffffffffffffffffffffffffffffffe01660200190565b90600182811c92168015612592575b602083101461256357565b7f4e487b7100000000000000000000000000000000000000000000000000000000600052602260045260246000fd5b91607f1691612558565b906040519182600082546125af81612549565b9081845260209460019160018116908160001461261f57506001146125e0575b5050506125de925003836124ce565b565b600090815285812095935091905b8183106126075750506125de93508201013880806125cf565b855488840185015294850194879450918301916125ee565b9150506125de9593507fffffffffffffffffffffffffffffffffffffffffffffffffffffffffffffff0091501682840152151560051b8201013880806125cf565b80548210156126785760005260206000200190600090565b7f4e487b7100000000000000000000000000000000000000000000000000000000600052603260045260246000fd5b7fffffffffffffffffffffffffffffffffffffffffffffffffffffffffffffffff811461116e5760010190565b9190820180921161116e57565b60038210156108b45752565b8181029291811591840414171561116e57565b811561270a570490565b7f4e487b7100000000000000000000000000000000000000000000000000000000600052601260045260246000fd5b9190820391821161116e57565b600260015414612757576002600155565b60046040517f3ee5aeb5000000000000000000000000000000000000000000000000000000008152fd5b60ff6002541661278d57565b60046040517fd93c0665000000000000000000000000000000000000000000000000000000008152fd5b73ffffffffffffffffffffffffffffffffffffffff6000541633036127d857565b60246040517f118cdaa7000000000000000000000000000000000000000000000000000000008152336004820152fd5b906000918083526020906005825260409081852073ffffffffffffffffffffffffffffffffffffffff809516865283528185209382519361284885612495565b8554855260018601549481810195865260ff6004600289015498878401998a5260038101546060850152015416159060808215910152612a6e57828752600481528387208451612897816124b1565b815481526128a76001830161259c565b8382015283600283015416868201526003820154606082015260048201546080820152600582015460a0820152600682015460c0820152600782015460e082015261018060ff600b60088501549461010085019586526009810154610120860152600a810154610140860152015461292582821661016086016126e1565b60081c1615159101525115612a6e57806024928551938480927f537bb1370000000000000000000000000000000000000000000000000000000082523060048301527f0000000000000000000000000000000000000000000000000000000000000000165afa938415612a6557508693612a2f575b50506129a590612ade565b918215612a28575191670de0b6b3a764000092838102908082048514901517156129fb576129dd92916129d791612700565b906126ed565b91519104818111156129f6576129f39250612739565b90565b505090565b6024867f4e487b710000000000000000000000000000000000000000000000000000000081526011600452fd5b5050505090565b9080929350813d8311612a5e575b612a4781836124ce565b81010312612a5a5751906129a53861299a565b8480fd5b503d612a3d565b513d88823e3d90fd5b50505050505090565b6040517fa9059cbb00000000000000000000000000000000000000000000000000000000602082015273ffffffffffffffffffffffffffffffffffffffff9290921660248301526044808301939093529181526125de91612ad96064836124ce565b612da5565b9060008092808452602090600682526040908186209082518083868295549384815201908a52868a20928a5b88828210612bfb57505050612b21925003836124ce565b865b8251811015612bf2578188526005808652848920908451831015612bc557868373ffffffffffffffffffffffffffffffffffffffff921b86010151168952855283882060808551612b7381612495565b8254815260ff6004600185015494858b85015260028101548a8501526003810154606085015201541615159182910152612bb1575b50600101612b23565b612bbe90600192976126d4565b9590612ba8565b60248a7f4e487b710000000000000000000000000000000000000000000000000000000081526032600452fd5b50505050509150565b855473ffffffffffffffffffffffffffffffffffffffff16845260019586019588955093019201612b0a565b6040517f095ea7b3000000000000000000000000000000000000000000000000000000006020820181815273ffffffffffffffffffffffffffffffffffffffff8516602484015260448084019690965294825294939092612c896064856124ce565b73ffffffffffffffffffffffffffffffffffffffff90818416600080809588519082855af190612cb7612e3e565b82612d5b575b5081612d50575b5015612cd4575b50505050509050565b60405196602088015216602486015280604486015260448552608085019085821067ffffffffffffffff831117612d235750612d189394612ad99160405282612da5565b803880808080612ccb565b807f4e487b7100000000000000000000000000000000000000000000000000000000602492526041600452fd5b90503b151538612cc4565b80519192508115918215612d73575b50509038612cbd565b612d869250602080918301019101612d8d565b3880612d6a565b908160209103126101d8575180151581036101d85790565b60008073ffffffffffffffffffffffffffffffffffffffff612ddc93169360208151910182865af1612dd5612e3e565b9083612e6e565b8051908115159182612e23575b5050612df25750565b602490604051907f5274afe70000000000000000000000000000000000000000000000000000000082526004820152fd5b612e369250602080918301019101612d8d565b153880612de9565b3d15612e69573d90612e4f8261250f565b91612e5d60405193846124ce565b82523d6000602084013e565b606090565b90612ead5750805115612e8357805190602001fd5b60046040517f1425ea42000000000000000000000000000000000000000000000000000000008152fd5b81511580612f05575b612ebe575090565b60249073ffffffffffffffffffffffffffffffffffffffff604051917f9996b315000000000000000000000000000000000000000000000000000000008352166004820152fd5b50803b15612eb656fea2646970667358221220b6a29d10bc3546b6b48cb2b4c08b57ac1431c658cada523699738954c45802e564736f6c63430008190033","linkReferences":{}},"methodIdentifiers":{"MAX_MEMBERS_LIMIT()":"1db8e04f","MAX_POOL_SIZE()":"368e950f","MEZO_INTEGRATION()":"fc2c01f8","MIN_CONTRIBUTION()":"40650c91","MIN_POOL_SIZE()":"bdffaf7b","MUSD()":"43a82621","WBTC()":"4dede3de","YIELD_AGGREGATOR()":"96f3556b","calculateMemberYield(uint256,address)":"ef5207d3","claimYield(uint256)":"40bd2e23","closePool(uint256)":"37de615f","createPool(string,uint256,uint256,uint256)":"a208298b","feeCollector()":"c415b95c","getMemberInfo(uint256,address)":"1e67939e","getPoolInfo(uint256)":"2f380b35","getPoolMembers(uint256)":"b1219e73","getPoolStats(uint256)":"6791799d","getTotalShares(uint256)":"85fff858","joinPool(uint256,uint256)":"108c8492","leavePool(uint256)":"9ca53f82","owner()":"8da5cb5b","pause()":"8456cb59","paused()":"5c975abb","performanceFee()":"87788782","poolCounter()":"9e3079cb","poolMembers(uint256,address)":"601acc92","poolMembersList(uint256,uint256)":"c60b6e2d","pools(uint256)":"ac4afa38","renounceOwnership()":"715018a6","setFeeCollector(address)":"a42dce80","setPerformanceFee(uint256)":"70897b23","transferOwnership(address)":"f2fde38b","unpause()":"3f4ba83a"},"id":46}