{"abi":[{"type":"constructor","inputs":[],"stateMutability":"nonpayable"},{"type":"receive","stateMutability":"payable"},{"type":"function","name":"MAX_MEMBERS_LIMIT","inputs":[],"outputs":[{"name":"","type":"uint256","internalType":"uint256"}],"stateMutability":"view"},{"type":"function","name":"MAX_POOL_SIZE","inputs":[],"outputs":[{"name":"","type":"uint256","internalType":"uint256"}],"stateMutability":"view"},{"type":"function","name":"MEZO_INTEGRATION","inputs":[],"outputs":[{"name":"","type":"address","internalType":"contract IMezoIntegration"}],"stateMutability":"view"},{"type":"function","name":"MIN_CONTRIBUTION","inputs":[],"outputs":[{"name":"","type":"uint256","internalType":"uint256"}],"stateMutability":"view"},{"type":"function","name":"MIN_POOL_SIZE","inputs":[],"outputs":[{"name":"","type":"uint256","internalType":"uint256"}],"stateMutability":"view"},{"type":"function","name":"MUSD","inputs":[],"outputs":[{"name":"","type":"address","internalType":"contract IERC20"}],"stateMutability":"view"},{"type":"function","name":"UPGRADE_INTERFACE_VERSION","inputs":[],"outputs":[{"name":"","type":"string","internalType":"string"}],"stateMutability":"view"},{"type":"function","name":"YIELD_AGGREGATOR","inputs":[],"outputs":[{"name":"","type":"address","internalType":"contract IYieldAggregator"}],"stateMutability":"view"},{"type":"function","name":"calculateMemberYield","inputs":[{"name":"poolId","type":"uint256","internalType":"uint256"},{"name":"member","type":"address","internalType":"address"}],"outputs":[{"name":"","type":"uint256","internalType":"uint256"}],"stateMutability":"view"},{"type":"function","name":"claimYield","inputs":[{"name":"poolId","type":"uint256","internalType":"uint256"}],"outputs":[],"stateMutability":"nonpayable"},{"type":"function","name":"closePool","inputs":[{"name":"poolId","type":"uint256","internalType":"uint256"}],"outputs":[],"stateMutability":"nonpayable"},{"type":"function","name":"createPool","inputs":[{"name":"name","type":"string","internalType":"string"},{"name":"minContribution","type":"uint256","internalType":"uint256"},{"name":"maxContribution","type":"uint256","internalType":"uint256"},{"name":"maxMembers","type":"uint256","internalType":"uint256"}],"outputs":[{"name":"poolId","type":"uint256","internalType":"uint256"}],"stateMutability":"nonpayable"},{"type":"function","name":"emergencyMode","inputs":[],"outputs":[{"name":"","type":"bool","internalType":"bool"}],"stateMutability":"view"},{"type":"function","name":"feeCollector","inputs":[],"outputs":[{"name":"","type":"address","internalType":"address"}],"stateMutability":"view"},{"type":"function","name":"getMemberInfo","inputs":[{"name":"poolId","type":"uint256","internalType":"uint256"},{"name":"member","type":"address","internalType":"address"}],"outputs":[{"name":"","type":"tuple","internalType":"struct CooperativePoolV3.MemberInfo","components":[{"name":"btcContributed","type":"uint128","internalType":"uint128"},{"name":"shares","type":"uint128","internalType":"uint128"},{"name":"joinedAt","type":"uint64","internalType":"uint64"},{"name":"active","type":"bool","internalType":"bool"},{"name":"yieldClaimed","type":"uint256","internalType":"uint256"}]}],"stateMutability":"view"},{"type":"function","name":"getPoolInfo","inputs":[{"name":"poolId","type":"uint256","internalType":"uint256"}],"outputs":[{"name":"","type":"tuple","internalType":"struct CooperativePoolV3.PoolInfo","components":[{"name":"minContribution","type":"uint128","internalType":"uint128"},{"name":"maxContribution","type":"uint128","internalType":"uint128"},{"name":"maxMembers","type":"uint64","internalType":"uint64"},{"name":"currentMembers","type":"uint64","internalType":"uint64"},{"name":"createdAt","type":"uint64","internalType":"uint64"},{"name":"status","type":"uint8","internalType":"enum CooperativePoolV3.PoolStatus"},{"name":"allowNewMembers","type":"bool","internalType":"bool"},{"name":"creator","type":"address","internalType":"address"},{"name":"name","type":"string","internalType":"string"},{"name":"totalBtcDeposited","type":"uint256","internalType":"uint256"},{"name":"totalMusdMinted","type":"uint256","internalType":"uint256"},{"name":"totalYieldGenerated","type":"uint256","internalType":"uint256"}]}],"stateMutability":"view"},{"type":"function","name":"getPoolMembers","inputs":[{"name":"poolId","type":"uint256","internalType":"uint256"}],"outputs":[{"name":"","type":"address[]","internalType":"address[]"}],"stateMutability":"view"},{"type":"function","name":"getPoolStats","inputs":[{"name":"poolId","type":"uint256","internalType":"uint256"}],"outputs":[{"name":"totalBtc","type":"uint256","internalType":"uint256"},{"name":"totalMusd","type":"uint256","internalType":"uint256"},{"name":"totalYield","type":"uint256","internalType":"uint256"},{"name":"avgApr","type":"uint256","internalType":"uint256"}],"stateMutability":"view"},{"type":"function","name":"getTotalShares","inputs":[{"name":"poolId","type":"uint256","internalType":"uint256"}],"outputs":[{"name":"","type":"uint256","internalType":"uint256"}],"stateMutability":"view"},{"type":"function","name":"initialize","inputs":[{"name":"_mezoIntegration","type":"address","internalType":"address"},{"name":"_yieldAggregator","type":"address","internalType":"address"},{"name":"_musd","type":"address","internalType":"address"},{"name":"_feeCollector","type":"address","internalType":"address"}],"outputs":[],"stateMutability":"nonpayable"},{"type":"function","name":"joinPool","inputs":[{"name":"poolId","type":"uint256","internalType":"uint256"}],"outputs":[],"stateMutability":"payable"},{"type":"function","name":"leavePool","inputs":[{"name":"poolId","type":"uint256","internalType":"uint256"}],"outputs":[],"stateMutability":"nonpayable"},{"type":"function","name":"owner","inputs":[],"outputs":[{"name":"","type":"address","internalType":"address"}],"stateMutability":"view"},{"type":"function","name":"pause","inputs":[],"outputs":[],"stateMutability":"nonpayable"},{"type":"function","name":"paused","inputs":[],"outputs":[{"name":"","type":"bool","internalType":"bool"}],"stateMutability":"view"},{"type":"function","name":"performanceFee","inputs":[],"outputs":[{"name":"","type":"uint256","internalType":"uint256"}],"stateMutability":"view"},{"type":"function","name":"poolCounter","inputs":[],"outputs":[{"name":"","type":"uint256","internalType":"uint256"}],"stateMutability":"view"},{"type":"function","name":"poolMembers","inputs":[{"name":"","type":"uint256","internalType":"uint256"},{"name":"","type":"address","internalType":"address"}],"outputs":[{"name":"btcContributed","type":"uint128","internalType":"uint128"},{"name":"shares","type":"uint128","internalType":"uint128"},{"name":"joinedAt","type":"uint64","internalType":"uint64"},{"name":"active","type":"bool","internalType":"bool"},{"name":"yieldClaimed","type":"uint256","internalType":"uint256"}],"stateMutability":"view"},{"type":"function","name":"poolMembersList","inputs":[{"name":"","type":"uint256","internalType":"uint256"},{"name":"","type":"uint256","internalType":"uint256"}],"outputs":[{"name":"","type":"address","internalType":"address"}],"stateMutability":"view"},{"type":"function","name":"pools","inputs":[{"name":"","type":"uint256","internalType":"uint256"}],"outputs":[{"name":"minContribution","type":"uint128","internalType":"uint128"},{"name":"maxContribution","type":"uint128","internalType":"uint128"},{"name":"maxMembers","type":"uint64","internalType":"uint64"},{"name":"currentMembers","type":"uint64","internalType":"uint64"},{"name":"createdAt","type":"uint64","internalType":"uint64"},{"name":"status","type":"uint8","internalType":"enum CooperativePoolV3.PoolStatus"},{"name":"allowNewMembers","type":"bool","internalType":"bool"},{"name":"creator","type":"address","internalType":"address"},{"name":"name","type":"string","internalType":"string"},{"name":"totalBtcDeposited","type":"uint256","internalType":"uint256"},{"name":"totalMusdMinted","type":"uint256","internalType":"uint256"},{"name":"totalYieldGenerated","type":"uint256","internalType":"uint256"}],"stateMutability":"view"},{"type":"function","name":"proxiableUUID","inputs":[],"outputs":[{"name":"","type":"bytes32","internalType":"bytes32"}],"stateMutability":"view"},{"type":"function","name":"renounceOwnership","inputs":[],"outputs":[],"stateMutability":"nonpayable"},{"type":"function","name":"setEmergencyMode","inputs":[{"name":"_enabled","type":"bool","internalType":"bool"}],"outputs":[],"stateMutability":"nonpayable"},{"type":"function","name":"setFeeCollector","inputs":[{"name":"newCollector","type":"address","internalType":"address"}],"outputs":[],"stateMutability":"nonpayable"},{"type":"function","name":"setPerformanceFee","inputs":[{"name":"newFee","type":"uint256","internalType":"uint256"}],"outputs":[],"stateMutability":"nonpayable"},{"type":"function","name":"transferOwnership","inputs":[{"name":"newOwner","type":"address","internalType":"address"}],"outputs":[],"stateMutability":"nonpayable"},{"type":"function","name":"unpause","inputs":[],"outputs":[],"stateMutability":"nonpayable"},{"type":"function","name":"upgradeToAndCall","inputs":[{"name":"newImplementation","type":"address","internalType":"address"},{"name":"data","type":"bytes","internalType":"bytes"}],"outputs":[],"stateMutability":"payable"},{"type":"function","name":"version","inputs":[],"outputs":[{"name":"","type":"string","internalType":"string"}],"stateMutability":"pure"},{"type":"event","name":"EmergencyModeUpdated","inputs":[{"name":"enabled","type":"bool","indexed":false,"internalType":"bool"}],"anonymous":false},{"type":"event","name":"FeeCollectorUpdated","inputs":[{"name":"oldCollector","type":"address","indexed":true,"internalType":"address"},{"name":"newCollector","type":"address","indexed":true,"internalType":"address"}],"anonymous":false},{"type":"event","name":"Initialized","inputs":[{"name":"version","type":"uint64","indexed":false,"internalType":"uint64"}],"anonymous":false},{"type":"event","name":"MemberJoined","inputs":[{"name":"poolId","type":"uint256","indexed":true,"internalType":"uint256"},{"name":"member","type":"address","indexed":true,"internalType":"address"},{"name":"btcAmount","type":"uint256","indexed":false,"internalType":"uint256"},{"name":"shares","type":"uint256","indexed":false,"internalType":"uint256"},{"name":"timestamp","type":"uint256","indexed":false,"internalType":"uint256"}],"anonymous":false},{"type":"event","name":"MemberLeft","inputs":[{"name":"poolId","type":"uint256","indexed":true,"internalType":"uint256"},{"name":"member","type":"address","indexed":true,"internalType":"address"},{"name":"btcAmount","type":"uint256","indexed":false,"internalType":"uint256"},{"name":"yieldAmount","type":"uint256","indexed":false,"internalType":"uint256"},{"name":"timestamp","type":"uint256","indexed":false,"internalType":"uint256"}],"anonymous":false},{"type":"event","name":"OwnershipTransferred","inputs":[{"name":"previousOwner","type":"address","indexed":true,"internalType":"address"},{"name":"newOwner","type":"address","indexed":true,"internalType":"address"}],"anonymous":false},{"type":"event","name":"Paused","inputs":[{"name":"account","type":"address","indexed":false,"internalType":"address"}],"anonymous":false},{"type":"event","name":"PerformanceFeeUpdated","inputs":[{"name":"oldFee","type":"uint256","indexed":false,"internalType":"uint256"},{"name":"newFee","type":"uint256","indexed":false,"internalType":"uint256"}],"anonymous":false},{"type":"event","name":"PoolClosed","inputs":[{"name":"poolId","type":"uint256","indexed":true,"internalType":"uint256"},{"name":"finalBalance","type":"uint256","indexed":false,"internalType":"uint256"}],"anonymous":false},{"type":"event","name":"PoolCreated","inputs":[{"name":"poolId","type":"uint256","indexed":true,"internalType":"uint256"},{"name":"creator","type":"address","indexed":true,"internalType":"address"},{"name":"name","type":"string","indexed":false,"internalType":"string"},{"name":"minContribution","type":"uint256","indexed":false,"internalType":"uint256"},{"name":"maxMembers","type":"uint256","indexed":false,"internalType":"uint256"},{"name":"timestamp","type":"uint256","indexed":false,"internalType":"uint256"}],"anonymous":false},{"type":"event","name":"PoolStatusUpdated","inputs":[{"name":"poolId","type":"uint256","indexed":true,"internalType":"uint256"},{"name":"newStatus","type":"uint8","indexed":false,"internalType":"enum CooperativePoolV3.PoolStatus"}],"anonymous":false},{"type":"event","name":"Unpaused","inputs":[{"name":"account","type":"address","indexed":false,"internalType":"address"}],"anonymous":false},{"type":"event","name":"Upgraded","inputs":[{"name":"implementation","type":"address","indexed":true,"internalType":"address"}],"anonymous":false},{"type":"event","name":"YieldClaimed","inputs":[{"name":"poolId","type":"uint256","indexed":true,"internalType":"uint256"},{"name":"member","type":"address","indexed":true,"internalType":"address"},{"name":"grossYield","type":"uint256","indexed":false,"internalType":"uint256"},{"name":"feeAmount","type":"uint256","indexed":false,"internalType":"uint256"},{"name":"netYield","type":"uint256","indexed":false,"internalType":"uint256"},{"name":"timestamp","type":"uint256","indexed":false,"internalType":"uint256"}],"anonymous":false},{"type":"error","name":"AddressEmptyCode","inputs":[{"name":"target","type":"address","internalType":"address"}]},{"type":"error","name":"AddressInsufficientBalance","inputs":[{"name":"account","type":"address","internalType":"address"}]},{"type":"error","name":"AlreadyMember","inputs":[]},{"type":"error","name":"ContributionTooHigh","inputs":[]},{"type":"error","name":"ContributionTooLow","inputs":[]},{"type":"error","name":"ERC1967InvalidImplementation","inputs":[{"name":"implementation","type":"address","internalType":"address"}]},{"type":"error","name":"ERC1967NonPayable","inputs":[]},{"type":"error","name":"EnforcedPause","inputs":[]},{"type":"error","name":"ExpectedPause","inputs":[]},{"type":"error","name":"FailedInnerCall","inputs":[]},{"type":"error","name":"FlashLoanDetected","inputs":[]},{"type":"error","name":"InsufficientPoolSize","inputs":[]},{"type":"error","name":"InvalidAddress","inputs":[]},{"type":"error","name":"InvalidAmount","inputs":[]},{"type":"error","name":"InvalidFee","inputs":[]},{"type":"error","name":"InvalidInitialization","inputs":[]},{"type":"error","name":"InvalidMaxMembers","inputs":[]},{"type":"error","name":"InvalidPoolId","inputs":[]},{"type":"error","name":"NoYieldToClaim","inputs":[]},{"type":"error","name":"NotInitializing","inputs":[]},{"type":"error","name":"NotMember","inputs":[]},{"type":"error","name":"OwnableInvalidOwner","inputs":[{"name":"owner","type":"address","internalType":"address"}]},{"type":"error","name":"OwnableUnauthorizedAccount","inputs":[{"name":"account","type":"address","internalType":"address"}]},{"type":"error","name":"PoolFull","inputs":[]},{"type":"error","name":"PoolNotAcceptingMembers","inputs":[]},{"type":"error","name":"PoolNotActive","inputs":[]},{"type":"error","name":"ReentrancyGuardReentrantCall","inputs":[]},{"type":"error","name":"SafeERC20FailedOperation","inputs":[{"name":"token","type":"address","internalType":"address"}]},{"type":"error","name":"UUPSUnauthorizedCallContext","inputs":[]},{"type":"error","name":"UUPSUnsupportedProxiableUUID","inputs":[{"name":"slot","type":"bytes32","internalType":"bytes32"}]},{"type":"error","name":"Unauthorized","inputs":[]}],"bytecode":{"object":"0x60a0806040523460c857306080527ff0c57e16840df040f15088dc2f81fe391c3923bec73e23a9662efc9c229c6a009081549060ff8260401c1660b957506001600160401b036002600160401b0319828216016075575b604051613b2e90816100ce8239608051818181611c4a0152611d220152f35b6001600160401b031990911681179091556040519081527fc7f505b2f371ae2175ee4913f4499e1f2633a7b5936321eed1cdaeb6115181d290602090a13880806056565b63f92ee8a960e01b8152600490fd5b600080fdfe608080604052600436101561001d575b50361561001b57600080fd5b005b60003560e01c9081630905f56014612de9575080631db8e04f14612dcd5780631e67939e14612cd05780632f380b3514612a8557806334e7a19f14612559578063368e950f1461253557806337de615f146124065780633f4ba83a1461234757806340650c911461232557806340bd2e2314611fa057806343a8262114611f6c5780634f1ef28614611cc457806352d1902d14611c2257806354fd4d5014611bc45780635c975abb14611b82578063601acc9214611ae25780636791799d1461195657806370897b23146118ce578063715018a61461182e5780638456cb591461179757806385fff85814611779578063877887821461175b5780638da5cb5b1461170857806396f3556b146116d45780639ca53f82146110045780639e3079cb14610fe6578063a208298b1461097f578063a42dce80146108ec578063ac4afa38146107ee578063ad3cb1cc1461078c578063b1219e73146106ba578063bdffaf7b14610698578063be32b3f814610600578063c415b95c146105cc578063c60b6e2d1461056d578063ef5207d31461053f578063f2fde38b14610516578063f8c8765e146102105763fc2c01f8146101d7573861000f565b3461020b57600060031936011261020b57602073ffffffffffffffffffffffffffffffffffffffff60005416604051908152f35b600080fd5b3461020b57608060031936011261020b57610229612e2f565b610231612e0c565b6044359073ffffffffffffffffffffffffffffffffffffffff9081831680930361020b576064359082821680920361020b577ff0c57e16840df040f15088dc2f81fe391c3923bec73e23a9662efc9c229c6a009384549360ff8560401c16159467ffffffffffffffff81169788158061050f575b6001809a149081610505575b1590816104fc575b506104d25781878a7fffffffffffffffffffffffffffffffffffffffffffffffff0000000000000000869516178a5561049d575b50169283158015610493575b801561048b575b8015610483575b610459576103136139ff565b61031b6139ff565b610324336131c4565b61032c6139ff565b6103346139ff565b61033c6139ff565b877f9b779b17422d0df92223018b32b4d1fa46e071723d6817e2486d003becc55f00556103676139ff565b61036f6139ff565b7fcd5ed15c6e187e77e9aee88184c21f4f2182ab5827cb3b7e07fbedcd63f033007fffffffffffffffffffffffffffffffffffffffffffffffffffffffffffffff0081541690557fffffffffffffffffffffffff00000000000000000000000000000000000000009384600054161760005516828754161786558160025416176002556008541617600855606460075561040557005b7fc7f505b2f371ae2175ee4913f4499e1f2633a7b5936321eed1cdaeb6115181d291817fffffffffffffffffffffffffffffffffffffffffffffff00ffffffffffffffff60209354169055604051908152a1005b60046040517fe6c4247b000000000000000000000000000000000000000000000000000000008152fd5b508415610307565b508215610300565b50818116156102f9565b7fffffffffffffffffffffffffffffffffffffffffffffff0000000000000000001668010000000000000001178855896102ed565b60046040517ff92ee8a9000000000000000000000000000000000000000000000000000000008152fd5b9050158a6102b9565b303b1591506102b1565b50866102a5565b3461020b57602060031936011261020b5761001b610532612e2f565b61053a613336565b6131c4565b3461020b57604060031936011261020b57602061056561055d612e0c565b6004356133a6565b604051908152f35b3461020b57604060031936011261020b576024356004356000526005602052604060002090815481101561020b576105bc73ffffffffffffffffffffffffffffffffffffffff916020936130db565b9190546040519260031b1c168152f35b3461020b57600060031936011261020b57602073ffffffffffffffffffffffffffffffffffffffff60085416604051908152f35b3461020b57602060031936011261020b5760043580151580910361020b5760207f2e5a1930def2f974808cd3dd28f6606d8d2cb5d7adb78f6761ea31062ced1a339161064a613336565b6008547fffffffffffffffffffffff00ffffffffffffffffffffffffffffffffffffffff74ff00000000000000000000000000000000000000008360a01b16911617600855604051908152a1005b3461020b57600060031936011261020b576020604051662386f26fc100008152f35b3461020b5760208060031936011261020b5760043560005260058152604060002060405190818382549182815201908192600052846000209060005b8682821061076257868661070c82880383612f12565b604051928392818401908285525180915260408401929160005b82811061073557505050500390f35b835173ffffffffffffffffffffffffffffffffffffffff1685528695509381019392810192600101610726565b835473ffffffffffffffffffffffffffffffffffffffff16855290930192600192830192016106f6565b3461020b57600060031936011261020b576107ea6040516107ac81612ef6565b600581527f352e302e300000000000000000000000000000000000000000000000000000006020820152604051918291602083526020830190612e5f565b0390f35b3461020b57602060031936011261020b576004356000526003602052604060002080549060018101549167ffffffffffffffff9173ffffffffffffffffffffffffffffffffffffffff600282015416906108d561084d60038301613017565b600483015494600660058501549401549460ff604051998a99610180946fffffffffffffffffffffffffffffffff81168c5260801c60208c015280821660408c0152808260401c1660608c01528160801c1660808b01526108b660a08b01838360c01c16612e52565b60c81c16151560c089015260e088015280610100880152860190612e5f565b926101208501526101408401526101608301520390f35b3461020b57602060031936011261020b57610905612e2f565b61090d613336565b73ffffffffffffffffffffffffffffffffffffffff80911690811561045957600854827fffffffffffffffffffffffff0000000000000000000000000000000000000000821617600855167f5d16ad41baeb009cd23eb8f6c7cde5c2e0cd5acf4a33926ab488875c37c37f38600080a3005b3461020b57608060031936011261020b5760043567ffffffffffffffff811161020b573660238201121561020b576109c1903690602481600401359101612f8d565b6109c96132e1565b66038d7ea4c6800060243510610fbc5760243560443510610f9257606435158015610f87575b610f5d576006547fffffffffffffffffffffffffffffffffffffffffffffffffffffffffffffffff8114610f2e576001810160065560405191610a3183612ed9565b6fffffffffffffffffffffffffffffffff6024351683526fffffffffffffffffffffffffffffffff60443516602084015267ffffffffffffffff6064351660408401526000606084015267ffffffffffffffff42166080840152600060a0840152600160c08401523360e08401528061010084015260006101208401526000610140840152600061016084015260018201600052600360205260406000206fffffffffffffffffffffffffffffffff8451167fffffffffffffffffffffffffffffffff00000000000000000000000000000000825416178155610b666fffffffffffffffffffffffffffffffff60208601511682906fffffffffffffffffffffffffffffffff7fffffffffffffffffffffffffffffffff0000000000000000000000000000000083549260801b169116179055565b60408481015160018301805460608801517fffffffffffffffffffffffffffffffff0000000000000000000000000000000090911667ffffffffffffffff93909316929092179190921b6fffffffffffffffff0000000000000000161781556080850151815460a0870151906003821015610eff5778ff000000000000000000000000000000000000000000000000907fffffffffffff00000000000000000000ffffffffffffffffffffffffffffffff77ffffffffffffffff0000000000000000000000000000000079ff0000000000000000000000000000000000000000000000000060c08c0151151560c81b169560801b169116179160c01b16171790556002810173ffffffffffffffffffffffffffffffffffffffff60e0860151167fffffffffffffffffffffffff000000000000000000000000000000000000000082541617905561010084015193845167ffffffffffffffff8111610ed057610cd26003840154612fc4565b95601f8711610e89575b602096508690601f8311600114610dbb5791806006949261016094600092610db0575b50507fffffffffffffffffffffffffffffffffffffffffffffffffffffffffffffffff8260011b9260031b1c19161760038501555b610120810151600485015561014081015160058501550151910155610d6460405191608083526080830190612e5f565b6024358483015260643560408301524260608301527f80eb862b1ebf91ef46e8085c1e47b348af9ad8f1248fb18302612a57ad3a2b5533928060018601930390a3600160405191018152f35b015190508980610cff565b9060038501600052876000209160005b7fffffffffffffffffffffffffffffffffffffffffffffffffffffffffffffffe085168110610e725750926006949260019261016095837fffffffffffffffffffffffffffffffffffffffffffffffffffffffffffffffe0811610610e3b575b505050811b016003850155610d34565b01517fffffffffffffffffffffffffffffffffffffffffffffffffffffffffffffffff60f88460031b161c19169055898080610e2b565b919289600181928685015181550194019201610dcb565b600384016000526020600020601f830160051c810160208410610ec9575b601f890160051c82018110610ebd575050610cdc565b60008155600101610ea7565b5080610ea7565b7f4e487b7100000000000000000000000000000000000000000000000000000000600052604160045260246000fd5b7f4e487b7100000000000000000000000000000000000000000000000000000000600052602160045260246000fd5b7f4e487b7100000000000000000000000000000000000000000000000000000000600052601160045260246000fd5b60046040517f15f6ef65000000000000000000000000000000000000000000000000000000008152fd5b5060648035116109ef565b60046040517f2c5211c6000000000000000000000000000000000000000000000000000000008152fd5b60046040517fd8eb236a000000000000000000000000000000000000000000000000000000008152fd5b3461020b57600060031936011261020b576020600654604051908152f35b3461020b5760208060031936011261020b57600435611021613287565b3332036116aa5780600052600382526040600020600483526040600020336000528352604060002092600182019367ffffffffffffffff9283865460801c1615611680576001820180549160ff8360401c16156116565761108233886133a6565b958454936fffffffffffffffffffffffffffffffff8516996110a38a613682565b9560801c93670de0b6b3a76400009485810290808204871490151715610f2e57876110cd9161314e565b9360058201967fffffffffffffffffffffffffffffffffffffffffffffff00ffffffffffffffff885495169055825460401c168015610f2e576004927fffffffffffffffffffffffffffffffffffffffffffffffffffffffffffffffff61116f92017fffffffffffffffffffffffffffffffff0000000000000000ffffffffffffffff6fffffffffffffffff000000000000000083549260401b169116179055565b0161117b8b8254613187565b9055806112dc575b505050505050600080808087335af161119a613194565b501561127e5781611201575b6040519384528301524260408301527fcee72beb0e6f4a1f6a05d4baeb9e2b59d489fbb1e016cc550ece105cf4a35d1360603393a360017f9b779b17422d0df92223018b32b4d1fa46e071723d6817e2486d003becc55f0055005b60085460a01c60ff16156112695760005b61121c8184613187565b9061124173ffffffffffffffffffffffffffffffffffffffff9233846002541661361b565b8061124e575b50506111a6565b81611262926002541690600854169061361b565b8480611247565b6127106112786007548461313b565b04611212565b606490604051907f08c379a00000000000000000000000000000000000000000000000000000000082526004820152601360248201527f425443207472616e73666572206661696c6564000000000000000000000000006044820152fd5b6112ec929394959796995061313b565b04906112f9828254613187565b905573ffffffffffffffffffffffffffffffffffffffff9384600254166040519388856024817f70a0823100000000000000000000000000000000000000000000000000000000958682523060048301525afa8015611413578995600091611627575b50611367878661312e565b908181108061161e575b61141f575b505050505060248461139483600096976002541683885416906137e8565b8454169160405194859384927f7c695cc100000000000000000000000000000000000000000000000000000000845260048401525af1908115611413576000916113e6575b5092848080808080611183565b90508381813d831161140c575b6113fd8183612f12565b8101031261020b5751846113d9565b503d6113f3565b6040513d6000823e3d90fd5b909192939550876001541692604051967f5b7c2dad000000000000000000000000000000000000000000000000000000008852306004890152604088602481885afa8015611413578c986000906000926115dd575b5061149b9261148b6114a19695936114969361312e565b905460801c9061313b565b61314e565b92613187565b90808210156115d657505b806114b9575b8080611376565b93809160246000949660405195869384927f2e1a7d4d00000000000000000000000000000000000000000000000000000000845260048401525af191826115ad575b50906115a05784600254169260246040518095819382523060048301525afa801561141357869260009161156c575b5060009382918281106115605760249261154391613187565b90808210861461155957505b945b9493886114b2565b905061154f565b50505060248394611551565b8381959492503d8311611599575b6115848183612f12565b8101031261020b57915190918591600061152a565b503d61157a565b9150602460009394611551565b813d83116115cf575b6115c08183612f12565b8101031261020b5786886114fb565b503d6115b6565b90506114ac565b9493995050506040833d604011611616575b816115fc60409383612f12565b8101031261020b578251928c01518c98929361149b611474565b3d91506115ef565b50871515611371565b86819792503d831161164f575b61163e8183612f12565b8101031261020b578894518a61135c565b503d611634565b60046040517f291fc442000000000000000000000000000000000000000000000000000000008152fd5b60046040517f0afa7ee8000000000000000000000000000000000000000000000000000000008152fd5b60046040517ff073bef9000000000000000000000000000000000000000000000000000000008152fd5b3461020b57600060031936011261020b57602073ffffffffffffffffffffffffffffffffffffffff60015416604051908152f35b3461020b57600060031936011261020b57602073ffffffffffffffffffffffffffffffffffffffff7f9016d09d72d40fdae2fd8ceac6b6234c7706214fd39c1cd1e609a0528c1993005416604051908152f35b3461020b57600060031936011261020b576020600754604051908152f35b3461020b57602060031936011261020b576020610565600435613682565b3461020b57600060031936011261020b576117b0613336565b6117b86132e1565b7fcd5ed15c6e187e77e9aee88184c21f4f2182ab5827cb3b7e07fbedcd63f0330060017fffffffffffffffffffffffffffffffffffffffffffffffffffffffffffffff008254161790557f62e78cea01bee320cd4e420270b5ea74000d11b0c9f74754ebdbfc544b05a2586020604051338152a1005b3461020b57600060031936011261020b57611847613336565b600073ffffffffffffffffffffffffffffffffffffffff7f9016d09d72d40fdae2fd8ceac6b6234c7706214fd39c1cd1e609a0528c1993008054907fffffffffffffffffffffffff000000000000000000000000000000000000000082169055167f8be0079c531659141344cd1fd0a4f28419497f9722a3daafe3b4186f6b6457e08280a3005b3461020b57602060031936011261020b576004356118ea613336565b6103e8811161192c5760407f607b1c943753982194530bf7133a5972ea2626e028005410efa54ab20035caf891600754908060075582519182526020820152a1005b60046040517f58d620b3000000000000000000000000000000000000000000000000000000008152fd5b3461020b5760208060031936011261020b576004356000526003815260406000209060046040519161198783612ed9565b83546fffffffffffffffffffffffffffffffff8116845260801c8184015260ff600185015467ffffffffffffffff8082166040870152808260401c1660608701528160801c1660808601526119e4828260c01c1660a08701613122565b60c81c16151560c08401526101608173ffffffffffffffffffffffffffffffffffffffff8060028801541660e0870152611a2060038801613017565b6101008701528487015495866101208201526006600589015498896101408401520154938491015260015416604051948580927f5011ec7a0000000000000000000000000000000000000000000000000000000082525afa91821561141357600092611ab0575b506107ea9250604051948594859094939260609260808301968352602083015260408201520152565b90915082813d8311611adb575b611ac78183612f12565b8101031261020b576107ea91519085611a87565b503d611abd565b3461020b57604060031936011261020b57611afb612e0c565b600435600052600460205273ffffffffffffffffffffffffffffffffffffffff6040600020911660005260205260a0604060002080549060ff6002600183015492015491604051936fffffffffffffffffffffffffffffffff8116855260801c602085015267ffffffffffffffff8116604085015260401c16151560608301526080820152f35b3461020b57600060031936011261020b57602060ff7fcd5ed15c6e187e77e9aee88184c21f4f2182ab5827cb3b7e07fbedcd63f0330054166040519015158152f35b3461020b57600060031936011261020b576107ea604051611be481612ef6565b600581527f332e302e300000000000000000000000000000000000000000000000000000006020820152604051918291602083526020830190612e5f565b3461020b57600060031936011261020b5773ffffffffffffffffffffffffffffffffffffffff7f0000000000000000000000000000000000000000000000000000000000000000163003611c9a5760206040517f360894a13ba1a3210667c828492db98dca3e2076cc3735a920a3ca505d382bbc8152f35b60046040517fe07c8dba000000000000000000000000000000000000000000000000000000008152fd5b604060031936011261020b57611cd8612e2f565b60243567ffffffffffffffff811161020b573660238201121561020b57611d09903690602481600401359101612f8d565b9073ffffffffffffffffffffffffffffffffffffffff807f000000000000000000000000000000000000000000000000000000000000000016803014908115611f3e575b50611c9a57611d5a613336565b8116906040517f52d1902d000000000000000000000000000000000000000000000000000000008152602081600481865afa60009181611f0a575b50611dcb57602483604051907f4c9c8ce30000000000000000000000000000000000000000000000000000000082526004820152fd5b7f360894a13ba1a3210667c828492db98dca3e2076cc3735a920a3ca505d382bbc92919290818103611ed95750823b15611ea857817fffffffffffffffffffffffff0000000000000000000000000000000000000000825416179055604051907fbc7cd75a20ee27fd9adebab32041f755214dbc6bffa90cc0225b39da2e5c2d3b600080a2825115611e76575060008083602061001b95519101845af4611e70613194565b91613a58565b91505034611e8057005b807fb398979f0000000000000000000000000000000000000000000000000000000060049252fd5b602482604051907f4c9c8ce30000000000000000000000000000000000000000000000000000000082526004820152fd5b602490604051907faa1d49a40000000000000000000000000000000000000000000000000000000082526004820152fd5b9091506020813d602011611f36575b81611f2660209383612f12565b8101031261020b57519085611d95565b3d9150611f19565b9050817f360894a13ba1a3210667c828492db98dca3e2076cc3735a920a3ca505d382bbc5416141584611d4d565b3461020b57600060031936011261020b57602073ffffffffffffffffffffffffffffffffffffffff60025416604051908152f35b3461020b5760208060031936011261020b57600435611fbd613287565b3332036116aa57806000526003825260406000209060048352604060002033600052835267ffffffffffffffff6001604060002093015460801c16156116805760ff600183015460401c16156116565761201733826133a6565b801561222f5760085460a01c60ff161561230f576000925b600261203b8584613187565b910161204883825461312e565b905573ffffffffffffffffffffffffffffffffffffffff806002541660405187816024817f70a0823100000000000000000000000000000000000000000000000000000000958682523060048301525afa80156114135785916000916122de575b5010612151575b507f5967f9351681addfbe9aced6e0ae2a6d23e30f182e8874546fe4d524544349cc939495506120e58233836002541661361b565b8580612136575b5050604080519283526020830195909552938101939093524260608401523392608090a360017f9b779b17422d0df92223018b32b4d1fa46e071723d6817e2486d003becc55f0055005b8161214a926002541690600854169061361b565b85856120ec565b92909394916000878087600154166004604051809581937f406cf2290000000000000000000000000000000000000000000000000000000083525af191826122b5575b5050612289575050508382600254169160246040518094819382523060048301525afa93841561141357600094612259575b5050821561222f576008547f5967f9351681addfbe9aced6e0ae2a6d23e30f182e8874546fe4d524544349cc91849160a01c60ff16156122175761220d60005b8096613187565b905b8594936120b0565b61220d6127106122296007548861313b565b04612206565b60046040517fb2b8dcdc000000000000000000000000000000000000000000000000000000008152fd5b9080929450813d8311612282575b6122718183612f12565b8101031261020b57519183806121c6565b503d612267565b91955091507f5967f9351681addfbe9aced6e0ae2a6d23e30f182e8874546fe4d524544349cc9261220f565b813d83116122d7575b6122c88183612f12565b8101031261020b578789612194565b503d6122be565b809250898092503d8311612308575b6122f78183612f12565b8101031261020b57849051896120a9565b503d6122ed565b61271061231e6007548361313b565b049261202f565b3461020b57600060031936011261020b57602060405166038d7ea4c680008152f35b3461020b57600060031936011261020b57612360613336565b7fcd5ed15c6e187e77e9aee88184c21f4f2182ab5827cb3b7e07fbedcd63f03300805460ff8116156123dc577fffffffffffffffffffffffffffffffffffffffffffffffffffffffffffffff001690557f5db9ee0a495bf2e6ff9c91a7834c1ba4fdd244a5e8aa4e537bd38aeae4b073aa6020604051338152a1005b60046040517f8dfc202b000000000000000000000000000000000000000000000000000000008152fd5b3461020b57602060031936011261020b57600435806000526003602052604060002060018101805467ffffffffffffffff8160801c16156116805773ffffffffffffffffffffffffffffffffffffffff806002850154163314159081612507575b506124dd577fffffffffffff0000ffffffffffffffffffffffffffffffffffffffffffffffff167802000000000000000000000000000000000000000000000000179055600401546040519081527faf7faf29a251efa1bcf2b47dab1a72baa0906a2e4ff957e6cb6d4f7c642161ab90602090a2005b60046040517f82b42900000000000000000000000000000000000000000000000000000000008152fd5b90507f9016d09d72d40fdae2fd8ceac6b6234c7706214fd39c1cd1e609a0528c199300541633141585612467565b3461020b57600060031936011261020b57602060405168056bc75e2d631000008152f35b60208060031936011261020b5760043590612572613287565b61257a6132e1565b3332036116aa57816000526003815260406000209160019283810180549067ffffffffffffffff91828160801c16156116805760ff8160c81c1615612a5b57828082169160401c161015612a31578254926fffffffffffffffffffffffffffffffff938481163410610fbc5760801c803411612a0757856000526004875260406000203360005287526040600020948886019160ff835460401c161560001461299657506fffffffffffffffffffffffffffffffff3490911690811660809190911b7fffffffffffffffffffffffffffffffff00000000000000000000000000000000161785556801000000000000000090818542167fffffffffffffffffffffffffffffffffffffffffffffff00000000000000000083541617179055600060028601558560005260058752604060002090815490811015610ed0576126c59189820181556130db565b81549060031b9073ffffffffffffffffffffffffffffffffffffffff33831b921b191617905582825460401c16928314610f2e5761274a60049288662386f26fc1000095017fffffffffffffffffffffffffffffffff0000000000000000ffffffffffffffff6fffffffffffffffff000000000000000083549260401b169116179055565b0161275634825461312e565b80915510156127be575b5460801c604051923484528301524260408301527f5b34f4a2a478e6a6c1b8fd6b222014a5074f6cd336b38fb09de1c86da0670e3a60603393a37f9b779b17422d0df92223018b32b4d1fa46e071723d6817e2486d003becc55f0055005b81600052600383526004604060002073ffffffffffffffffffffffffffffffffffffffff858160005416604051948580927f38c3549000000000000000000000000000000000000000000000000000000000825234905af190811561141357600091612966575b6000935061283c828260025416838b5416906137e8565b60408189541660248251809781937fb6b55f250000000000000000000000000000000000000000000000000000000083528760048401525af1938415611413578894612927575b50506128946005830191825461312e565b905501805460ff8160c01c166003811015610eff57156128b6575b5050612760565b7fffffffffffffff00ffffffffffffffffffffffffffffffffffffffffffffffff78010000000000000000000000000000000000000000000000009116179055817ff23f81825d004be688e56e2e60f70dfa6e0007947618aa870d4c32693cbedf3384604051878152a284806128af565b909193506040813d60401161295e575b8161294460409383612f12565b8101031261020b57519081160361020b5785918780612883565b3d9150612937565b90508583813d831161298f575b61297d8183612f12565b8101031261020b576000925190612825565b503d612973565b94509250508354916129aa3482851661312e565b938411612a07576fffffffffffffffffffffffffffffffff931692831660809390931b7fffffffffffffffffffffffffffffffff000000000000000000000000000000001692909217835550662386f26fc100009060049061274a565b60046040517fbca119a6000000000000000000000000000000000000000000000000000000008152fd5b60046040517f9e80781c000000000000000000000000000000000000000000000000000000008152fd5b60046040517fd3f4a639000000000000000000000000000000000000000000000000000000008152fd5b3461020b57602060031936011261020b576000610160604051612aa781612ed9565b8281528260208201528260408201528260608201528260808201528260a08201528260c08201528260e082015260606101008201528261012082015282610140820152015260043560005260036020526040600020600660405191612b0b83612ed9565b80546fffffffffffffffffffffffffffffffff8116845260801c602084015260ff600182015467ffffffffffffffff8116604086015267ffffffffffffffff8160401c16606086015267ffffffffffffffff8160801c166080860152612b79828260c01c1660a08701613122565b60c81c16151560c084015273ffffffffffffffffffffffffffffffffffffffff60028201541660e0840152612bb060038201613017565b6101008401526004810154610120840152600581015461014084015201546101608201526040518091602082526fffffffffffffffffffffffffffffffff81511660208301526fffffffffffffffffffffffffffffffff602082015116604083015267ffffffffffffffff604082015116606083015267ffffffffffffffff606082015116608083015267ffffffffffffffff60808201511660a0830152612c6060a082015160c0840190612e52565b60c0810151151560e083015273ffffffffffffffffffffffffffffffffffffffff60e082015116610100830152610100810151610160612caf61018092836101208701526101a0860190612e5f565b92610120810151610140860152610140810151828601520151908301520390f35b3461020b57604060031936011261020b57612ce9612e0c565b60006080604051612cf981612ebd565b8281528260208201528260408201528260608201520152600435600052600460205273ffffffffffffffffffffffffffffffffffffffff6040600020911660005260205260a06040600020604051612d5081612ebd565b81546fffffffffffffffffffffffffffffffff9081811693848452602084019160801c825260018101549267ffffffffffffffff92608060026040880194868816865260ff60608a019860401c16151588520154960195865260405196875251166020860152511660408401525115156060830152516080820152f35b3461020b57600060031936011261020b57602060405160648152f35b3461020b57600060031936011261020b5760209060ff60085460a01c1615158152f35b6024359073ffffffffffffffffffffffffffffffffffffffff8216820361020b57565b6004359073ffffffffffffffffffffffffffffffffffffffff8216820361020b57565b906003821015610eff5752565b919082519283825260005b848110612ea95750507fffffffffffffffffffffffffffffffffffffffffffffffffffffffffffffffe0601f8460006020809697860101520116010190565b602081830181015184830182015201612e6a565b60a0810190811067ffffffffffffffff821117610ed057604052565b610180810190811067ffffffffffffffff821117610ed057604052565b6040810190811067ffffffffffffffff821117610ed057604052565b90601f7fffffffffffffffffffffffffffffffffffffffffffffffffffffffffffffffe0910116810190811067ffffffffffffffff821117610ed057604052565b67ffffffffffffffff8111610ed057601f017fffffffffffffffffffffffffffffffffffffffffffffffffffffffffffffffe01660200190565b929192612f9982612f53565b91612fa76040519384612f12565b82948184528183011161020b578281602093846000960137010152565b90600182811c9216801561300d575b6020831014612fde57565b7f4e487b7100000000000000000000000000000000000000000000000000000000600052602260045260246000fd5b91607f1691612fd3565b9060405191826000825461302a81612fc4565b9081845260209460019160018116908160001461309a575060011461305b575b50505061305992500383612f12565b565b600090815285812095935091905b818310613082575050613059935082010138808061304a565b85548884018501529485019487945091830191613069565b9150506130599593507fffffffffffffffffffffffffffffffffffffffffffffffffffffffffffffff0091501682840152151560051b82010138808061304a565b80548210156130f35760005260206000200190600090565b7f4e487b7100000000000000000000000000000000000000000000000000000000600052603260045260246000fd5b6003821015610eff5752565b91908201809211610f2e57565b81810292918115918404141715610f2e57565b8115613158570490565b7f4e487b7100000000000000000000000000000000000000000000000000000000600052601260045260246000fd5b91908203918211610f2e57565b3d156131bf573d906131a582612f53565b916131b36040519384612f12565b82523d6000602084013e565b606090565b73ffffffffffffffffffffffffffffffffffffffff809116908115613256577f9016d09d72d40fdae2fd8ceac6b6234c7706214fd39c1cd1e609a0528c199300805490837fffffffffffffffffffffffff00000000000000000000000000000000000000008316179055167f8be0079c531659141344cd1fd0a4f28419497f9722a3daafe3b4186f6b6457e0600080a3565b60246040517f1e4fbdf700000000000000000000000000000000000000000000000000000000815260006004820152fd5b7f9b779b17422d0df92223018b32b4d1fa46e071723d6817e2486d003becc55f0060028154146132b75760029055565b60046040517f3ee5aeb5000000000000000000000000000000000000000000000000000000008152fd5b60ff7fcd5ed15c6e187e77e9aee88184c21f4f2182ab5827cb3b7e07fbedcd63f03300541661330c57565b60046040517fd93c0665000000000000000000000000000000000000000000000000000000008152fd5b73ffffffffffffffffffffffffffffffffffffffff7f9016d09d72d40fdae2fd8ceac6b6234c7706214fd39c1cd1e609a0528c1993005416330361337657565b60246040517f118cdaa7000000000000000000000000000000000000000000000000000000008152336004820152fd5b906000918083526020906004825260409081852073ffffffffffffffffffffffffffffffffffffffff80951686528352818520908251946133e686612ebd565b8254946fffffffffffffffffffffffffffffffff9384871688528188019660801c87526001810154906080600260ff67ffffffffffffffff948c8b8783169101528a1c161592831560608d01520154990198895261361057838952600382528589209060ff87519161345783612ed9565b8354888116845260801c858401526001840154908082168a85015280828b1c1660608501528160801c166080840152613498828260c01c1660a08501613122565b60c81c16151560c08201528360028301541660e08201526134bb60038301613017565b61010082015260048201546101208201526101606006600584015493846101408501520154910152156136065780602492600154168651938480927f537bb1370000000000000000000000000000000000000000000000000000000082523060048301525afa9485156135fd575087946135c7575b505061353b90613682565b9283156135bf57511691670de0b6b3a7640000928381029080820485149015171561359257613574929161356e9161314e565b9061313b565b915191048181111561358d5761358a9250613187565b90565b505090565b6024867f4e487b710000000000000000000000000000000000000000000000000000000081526011600452fd5b505050505090565b9080929450813d83116135f6575b6135df8183612f12565b810103126135f257519161353b38613530565b8580fd5b503d6135d5565b513d89823e3d90fd5b5050505050505090565b505050505050505090565b6040517fa9059cbb00000000000000000000000000000000000000000000000000000000602082015273ffffffffffffffffffffffffffffffffffffffff9290921660248301526044808301939093529181526130599161367d606483612f12565b613966565b90600080838152600560209160058352604091828220968351808987829b54938481520190865287862092865b898282106137bc575050506136c692500389612f12565b825b88518110156137b2578184526004808752858520908a51831015613786575073ffffffffffffffffffffffffffffffffffffffff8783861b8c010151168552865284842085519061371882612ebd565b8054916fffffffffffffffffffffffffffffffff83168152608092831c92838a830152600260ff600185015467ffffffffffffffff81168c8601528b1c161515938460608501520154910152613772575b506001016136c8565b61377f906001929861312e565b9690613769565b8560326024927f4e487b7100000000000000000000000000000000000000000000000000000000835252fd5b5050505050509150565b855473ffffffffffffffffffffffffffffffffffffffff1684526001958601958e9550930192016136af565b6040517f095ea7b3000000000000000000000000000000000000000000000000000000006020820181815273ffffffffffffffffffffffffffffffffffffffff851660248401526044808401969096529482529493909261384a606485612f12565b73ffffffffffffffffffffffffffffffffffffffff90818416600080809588519082855af190613878613194565b8261391c575b5081613911575b5015613895575b50505050509050565b60405196602088015216602486015280604486015260448552608085019085821067ffffffffffffffff8311176138e457506138d9939461367d9160405282613966565b80388080808061388c565b807f4e487b7100000000000000000000000000000000000000000000000000000000602492526041600452fd5b90503b151538613885565b80519192508115918215613934575b5050903861387e565b613947925060208091830101910161394e565b388061392b565b9081602091031261020b5751801515810361020b5790565b60008073ffffffffffffffffffffffffffffffffffffffff61399d93169360208151910182865af1613996613194565b9083613a58565b80519081151591826139e4575b50506139b35750565b602490604051907f5274afe70000000000000000000000000000000000000000000000000000000082526004820152fd5b6139f7925060208091830101910161394e565b1538806139aa565b60ff7ff0c57e16840df040f15088dc2f81fe391c3923bec73e23a9662efc9c229c6a005460401c1615613a2e57565b60046040517fd7e6bcf8000000000000000000000000000000000000000000000000000000008152fd5b90613a975750805115613a6d57805190602001fd5b60046040517f1425ea42000000000000000000000000000000000000000000000000000000008152fd5b81511580613aef575b613aa8575090565b60249073ffffffffffffffffffffffffffffffffffffffff604051917f9996b315000000000000000000000000000000000000000000000000000000008352166004820152fd5b50803b15613aa056fea2646970667358221220f3b79539b005102bbeea947eca984f10e2586e7838273bd976143365926fda0e64736f6c63430008190033","linkReferences":{}},"methodIdentifiers":{"MAX_MEMBERS_LIMIT()":"1db8e04f","MAX_POOL_SIZE()":"368e950f","MEZO_INTEGRATION()":"fc2c01f8","MIN_CONTRIBUTION()":"40650c91","MIN_POOL_SIZE()":"bdffaf7b","MUSD()":"43a82621","UPGRADE_INTERFACE_VERSION()":"ad3cb1cc","YIELD_AGGREGATOR()":"96f3556b","calculateMemberYield(uint256,address)":"ef5207d3","claimYield(uint256)":"40bd2e23","closePool(uint256)":"37de615f","createPool(string,uint256,uint256,uint256)":"a208298b","emergencyMode()":"0905f560","feeCollector()":"c415b95c","getMemberInfo(uint256,address)":"1e67939e","getPoolInfo(uint256)":"2f380b35","getPoolMembers(uint256)":"b1219e73","getPoolStats(uint256)":"6791799d","getTotalShares(uint256)":"85fff858","initialize(address,address,address,address)":"f8c8765e","joinPool(uint256)":"34e7a19f","leavePool(uint256)":"9ca53f82","owner()":"8da5cb5b","pause()":"8456cb59","paused()":"5c975abb","performanceFee()":"87788782","poolCounter()":"9e3079cb","poolMembers(uint256,address)":"601acc92","poolMembersList(uint256,uint256)":"c60b6e2d","pools(uint256)":"ac4afa38","proxiableUUID()":"52d1902d","renounceOwnership()":"715018a6","setEmergencyMode(bool)":"be32b3f8","setFeeCollector(address)":"a42dce80","setPerformanceFee(uint256)":"70897b23","transferOwnership(address)":"f2fde38b","unpause()":"3f4ba83a","upgradeToAndCall(address,bytes)":"4f1ef286","version()":"54fd4d50"},"id":62}