{"abi":[{"type":"constructor","inputs":[{"name":"_mezoIntegration","type":"address","internalType":"address"},{"name":"_yieldAggregator","type":"address","internalType":"address"},{"name":"_wbtc","type":"address","internalType":"address"},{"name":"_musd","type":"address","internalType":"address"},{"name":"_feeCollector","type":"address","internalType":"address"}],"stateMutability":"nonpayable"},{"type":"function","name":"MAX_DEPOSIT","inputs":[],"outputs":[{"name":"","type":"uint256","internalType":"uint256"}],"stateMutability":"view"},{"type":"function","name":"MEZO_INTEGRATION","inputs":[],"outputs":[{"name":"","type":"address","internalType":"contract IMezoIntegration"}],"stateMutability":"view"},{"type":"function","name":"MIN_DEPOSIT","inputs":[],"outputs":[{"name":"","type":"uint256","internalType":"uint256"}],"stateMutability":"view"},{"type":"function","name":"MUSD","inputs":[],"outputs":[{"name":"","type":"address","internalType":"contract IERC20"}],"stateMutability":"view"},{"type":"function","name":"WBTC","inputs":[],"outputs":[{"name":"","type":"address","internalType":"contract IERC20"}],"stateMutability":"view"},{"type":"function","name":"YIELD_AGGREGATOR","inputs":[],"outputs":[{"name":"","type":"address","internalType":"contract IYieldAggregator"}],"stateMutability":"view"},{"type":"function","name":"calculateYield","inputs":[{"name":"user","type":"address","internalType":"address"}],"outputs":[{"name":"totalYield","type":"uint256","internalType":"uint256"}],"stateMutability":"view"},{"type":"function","name":"claimYield","inputs":[],"outputs":[{"name":"yieldAmount","type":"uint256","internalType":"uint256"}],"stateMutability":"nonpayable"},{"type":"function","name":"deposit","inputs":[{"name":"btcAmount","type":"uint256","internalType":"uint256"}],"outputs":[],"stateMutability":"nonpayable"},{"type":"function","name":"feeCollector","inputs":[],"outputs":[{"name":"","type":"address","internalType":"address"}],"stateMutability":"view"},{"type":"function","name":"getPoolStats","inputs":[],"outputs":[{"name":"totalBtc","type":"uint256","internalType":"uint256"},{"name":"totalMusd","type":"uint256","internalType":"uint256"},{"name":"totalYields","type":"uint256","internalType":"uint256"},{"name":"avgApr","type":"uint256","internalType":"uint256"}],"stateMutability":"view"},{"type":"function","name":"getUserInfo","inputs":[{"name":"user","type":"address","internalType":"address"}],"outputs":[{"name":"userDeposit","type":"tuple","internalType":"struct IndividualPool.UserDeposit","components":[{"name":"btcAmount","type":"uint256","internalType":"uint256"},{"name":"musdMinted","type":"uint256","internalType":"uint256"},{"name":"yieldAccrued","type":"uint256","internalType":"uint256"},{"name":"depositTimestamp","type":"uint256","internalType":"uint256"},{"name":"lastYieldUpdate","type":"uint256","internalType":"uint256"},{"name":"active","type":"bool","internalType":"bool"}]},{"name":"currentYield","type":"uint256","internalType":"uint256"},{"name":"netYield","type":"uint256","internalType":"uint256"}],"stateMutability":"view"},{"type":"function","name":"getUserRoi","inputs":[{"name":"user","type":"address","internalType":"address"}],"outputs":[{"name":"roi","type":"uint256","internalType":"uint256"}],"stateMutability":"view"},{"type":"function","name":"owner","inputs":[],"outputs":[{"name":"","type":"address","internalType":"address"}],"stateMutability":"view"},{"type":"function","name":"pause","inputs":[],"outputs":[],"stateMutability":"nonpayable"},{"type":"function","name":"paused","inputs":[],"outputs":[{"name":"","type":"bool","internalType":"bool"}],"stateMutability":"view"},{"type":"function","name":"performanceFee","inputs":[],"outputs":[{"name":"","type":"uint256","internalType":"uint256"}],"stateMutability":"view"},{"type":"function","name":"renounceOwnership","inputs":[],"outputs":[],"stateMutability":"nonpayable"},{"type":"function","name":"setFeeCollector","inputs":[{"name":"newCollector","type":"address","internalType":"address"}],"outputs":[],"stateMutability":"nonpayable"},{"type":"function","name":"setPerformanceFee","inputs":[{"name":"newFee","type":"uint256","internalType":"uint256"}],"outputs":[],"stateMutability":"nonpayable"},{"type":"function","name":"totalBtcDeposited","inputs":[],"outputs":[{"name":"","type":"uint256","internalType":"uint256"}],"stateMutability":"view"},{"type":"function","name":"totalMusdMinted","inputs":[],"outputs":[{"name":"","type":"uint256","internalType":"uint256"}],"stateMutability":"view"},{"type":"function","name":"totalYieldsGenerated","inputs":[],"outputs":[{"name":"","type":"uint256","internalType":"uint256"}],"stateMutability":"view"},{"type":"function","name":"transferOwnership","inputs":[{"name":"newOwner","type":"address","internalType":"address"}],"outputs":[],"stateMutability":"nonpayable"},{"type":"function","name":"unpause","inputs":[],"outputs":[],"stateMutability":"nonpayable"},{"type":"function","name":"updateYield","inputs":[],"outputs":[],"stateMutability":"nonpayable"},{"type":"function","name":"userDeposits","inputs":[{"name":"","type":"address","internalType":"address"}],"outputs":[{"name":"btcAmount","type":"uint256","internalType":"uint256"},{"name":"musdMinted","type":"uint256","internalType":"uint256"},{"name":"yieldAccrued","type":"uint256","internalType":"uint256"},{"name":"depositTimestamp","type":"uint256","internalType":"uint256"},{"name":"lastYieldUpdate","type":"uint256","internalType":"uint256"},{"name":"active","type":"bool","internalType":"bool"}],"stateMutability":"view"},{"type":"function","name":"withdraw","inputs":[],"outputs":[{"name":"btcAmount","type":"uint256","internalType":"uint256"},{"name":"yieldAmount","type":"uint256","internalType":"uint256"}],"stateMutability":"nonpayable"},{"type":"event","name":"Deposited","inputs":[{"name":"user","type":"address","indexed":true,"internalType":"address"},{"name":"btcAmount","type":"uint256","indexed":false,"internalType":"uint256"},{"name":"musdAmount","type":"uint256","indexed":false,"internalType":"uint256"},{"name":"timestamp","type":"uint256","indexed":false,"internalType":"uint256"}],"anonymous":false},{"type":"event","name":"FeeCollectorUpdated","inputs":[{"name":"oldCollector","type":"address","indexed":true,"internalType":"address"},{"name":"newCollector","type":"address","indexed":true,"internalType":"address"}],"anonymous":false},{"type":"event","name":"OwnershipTransferred","inputs":[{"name":"previousOwner","type":"address","indexed":true,"internalType":"address"},{"name":"newOwner","type":"address","indexed":true,"internalType":"address"}],"anonymous":false},{"type":"event","name":"Paused","inputs":[{"name":"account","type":"address","indexed":false,"internalType":"address"}],"anonymous":false},{"type":"event","name":"PerformanceFeeUpdated","inputs":[{"name":"oldFee","type":"uint256","indexed":false,"internalType":"uint256"},{"name":"newFee","type":"uint256","indexed":false,"internalType":"uint256"}],"anonymous":false},{"type":"event","name":"Unpaused","inputs":[{"name":"account","type":"address","indexed":false,"internalType":"address"}],"anonymous":false},{"type":"event","name":"Withdrawn","inputs":[{"name":"user","type":"address","indexed":true,"internalType":"address"},{"name":"btcAmount","type":"uint256","indexed":false,"internalType":"uint256"},{"name":"musdAmount","type":"uint256","indexed":false,"internalType":"uint256"},{"name":"yieldAmount","type":"uint256","indexed":false,"internalType":"uint256"}],"anonymous":false},{"type":"event","name":"YieldClaimed","inputs":[{"name":"user","type":"address","indexed":true,"internalType":"address"},{"name":"yieldAmount","type":"uint256","indexed":false,"internalType":"uint256"},{"name":"feeAmount","type":"uint256","indexed":false,"internalType":"uint256"}],"anonymous":false},{"type":"event","name":"YieldUpdated","inputs":[{"name":"user","type":"address","indexed":true,"internalType":"address"},{"name":"newYieldAmount","type":"uint256","indexed":false,"internalType":"uint256"}],"anonymous":false},{"type":"error","name":"AddressEmptyCode","inputs":[{"name":"target","type":"address","internalType":"address"}]},{"type":"error","name":"AddressInsufficientBalance","inputs":[{"name":"account","type":"address","internalType":"address"}]},{"type":"error","name":"DepositAlreadyExists","inputs":[]},{"type":"error","name":"EnforcedPause","inputs":[]},{"type":"error","name":"ExpectedPause","inputs":[]},{"type":"error","name":"FailedInnerCall","inputs":[]},{"type":"error","name":"InsufficientBalance","inputs":[]},{"type":"error","name":"InvalidAddress","inputs":[]},{"type":"error","name":"InvalidAmount","inputs":[]},{"type":"error","name":"InvalidFee","inputs":[]},{"type":"error","name":"MaximumDepositExceeded","inputs":[]},{"type":"error","name":"MinimumDepositNotMet","inputs":[]},{"type":"error","name":"NoActiveDeposit","inputs":[]},{"type":"error","name":"OwnableInvalidOwner","inputs":[{"name":"owner","type":"address","internalType":"address"}]},{"type":"error","name":"OwnableUnauthorizedAccount","inputs":[{"name":"account","type":"address","internalType":"address"}]},{"type":"error","name":"ReentrancyGuardReentrantCall","inputs":[]},{"type":"error","name":"SafeERC20FailedOperation","inputs":[{"name":"token","type":"address","internalType":"address"}]}],"bytecode":{"object":"0x6101003461023257601f61255838819003918201601f19168301916001600160401b038311848410176102375780849260a094604052833981010312610232576100488161024d565b906100556020820161024d565b906100626040820161024d565b9061007b60806100746060840161024d565b920161024d565b913315610219576000549360018060a01b03948560018060a01b031997338984161760005560405192823391167f8be0079c531659141344cd1fd0a4f28419497f9722a3daafe3b4186f6b6457e0600080a36001805560ff1960025416600255606460075516908115801561020f575b8015610205575b80156101fb575b80156101f1575b6101e25750608052841660a052831660c052821660e0526008805490931691161790556040516122f690816102628239608051818181610180015281816105e60152611293015260a05181818161038b01528181610658015281816109e001528181610eb3015281816114af015281816115530152818161175f015281816118030152611e14015260c05181818161054201528181610d9b015261134f015260e05181818161067f01528181610e0a01528181610f27015281816111e5015281816112ba015281816113c4015281816113f50152818161161301526118bd0152f35b63e6c4247b60e01b8152600490fd5b5086861615610100565b50868516156100f9565b50868416156100f2565b50868316156100eb565b604051631e4fbdf760e01b815260006004820152602490fd5b600080fd5b634e487b7160e01b600052604160045260246000fd5b51906001600160a01b03821682036102325756fe608080604052600436101561001357600080fd5b60003560e01c9081630ba36dcd14611a5b57508063251e297014611a3d5780633ccfd60b1461112b5780633f4ba83a1461108b578063406cf22914610e2e57806343a8262114610ddd578063480225c314610dbf5780634dede3de14610d6e578063567add6414610d325780635c975abb14610d0f5780636386c1c714610bf25780636fbd798714610bd457806370897b2314610b4c578063715018a614610ace5780638456cb5914610a565780638778878214610a385780638da5cb5b14610a0457806396f3556b146109b3578063a42dce80146108f5578063b6b55f25146104e6578063bb21a99714610418578063bbb851881461032b578063c415b95c146102f7578063dd5967c3146102d4578063e1e158a5146102b2578063e69fe1371461026e578063f2fde38b146101a95763fc2c01f81461015357600080fd5b346101a45760006003193601126101a457602060405173ffffffffffffffffffffffffffffffffffffffff7f0000000000000000000000000000000000000000000000000000000000000000168152f35b600080fd5b346101a45760206003193601126101a45760043573ffffffffffffffffffffffffffffffffffffffff8082168092036101a4576101e461208a565b811561023d57600054827fffffffffffffffffffffffff0000000000000000000000000000000000000000821617600055167f8be0079c531659141344cd1fd0a4f28419497f9722a3daafe3b4186f6b6457e0600080a3005b60246040517f1e4fbdf700000000000000000000000000000000000000000000000000000000815260006004820152fd5b346101a45760206003193601126101a45760043573ffffffffffffffffffffffffffffffffffffffff811681036101a4576102aa602091611c76565b604051908152f35b346101a45760006003193601126101a457602060405166038d7ea4c680008152f35b346101a45760006003193601126101a4576020604051678ac7230489e800008152f35b346101a45760006003193601126101a457602073ffffffffffffffffffffffffffffffffffffffff60085416604051908152f35b346101a45760006003193601126101a4576004546005549060065491604051927f5011ec7a00000000000000000000000000000000000000000000000000000000845260208460048173ffffffffffffffffffffffffffffffffffffffff7f0000000000000000000000000000000000000000000000000000000000000000165afa91821561040c576000926103d7575b60809450604051938452602084015260408301526060820152f35b91506020843d602011610404575b816103f260209383611b8f565b810103126101a45760809351916103bc565b3d91506103e5565b6040513d6000823e3d90fd5b346101a45760006003193601126101a457610431611d25565b336000526003602052604060002060ff600582015416156104bc5761045533611d60565b80610461575b60018055005b610485906002830192610475828554611ade565b8455600442910155600654611ade565b600655546040519081527f18cb9436df0c2ab8f3a0284742076c6ddf8a478776316b4b0d008d793723549060203392a2808061045b565b60046040517fa542e6b3000000000000000000000000000000000000000000000000000000008152fd5b346101a4576020806003193601126101a457600435610503611d25565b61050b6120db565b66038d7ea4c6800081106108cb57678ac7230489e8000081116108a157336000526003825260ff60056040600020015416610877577f000000000000000000000000000000000000000000000000000000000000000091604051927f23b872dd00000000000000000000000000000000000000000000000000000000828501523360248501523060448501528260648501526064845260a0840184811067ffffffffffffffff821117610848576000946105c89160405282612187565b8173ffffffffffffffffffffffffffffffffffffffff9161060d85847f0000000000000000000000000000000000000000000000000000000000000000168093611ebb565b6024604051809781937f45fd04650000000000000000000000000000000000000000000000000000000083528860048401525af193841561040c57600094610819575b5060006040827f0000000000000000000000000000000000000000000000000000000000000000166106a387827f0000000000000000000000000000000000000000000000000000000000000000611ebb565b60248251809481937fb6b55f250000000000000000000000000000000000000000000000000000000083528a60048401525af1801561040c576107e0575b847f91ede45f04a37a7c170f5c1207df3b6bc748dc1e04ad5e917a241d0f52feada36107d78686600560405161071681611b73565b838152828101878152604082016000815260608301904282526080840192428452600360a0860197600189523360005252604060002094518555516001850155516002840155516003830155516004820155019051151560ff7fffffffffffffffffffffffffffffffffffffffffffffffffffffffffffffff0083541691161790556107a481600454611ade565b6004556107b384600554611ade565b60055560405191829133954291846040919493926060820195825260208201520152565b0390a260018055005b6040813d604011610811575b816107f960409383611b8f565b810103126101a45751908116036101a45783806106e1565b3d91506107ec565b9093508181813d8311610841575b6108318183611b8f565b810103126101a457519284610650565b503d610827565b7f4e487b7100000000000000000000000000000000000000000000000000000000600052604160045260246000fd5b60046040517fc44bd765000000000000000000000000000000000000000000000000000000008152fd5b60046040517f7a9548a4000000000000000000000000000000000000000000000000000000008152fd5b60046040517f20d01f06000000000000000000000000000000000000000000000000000000008152fd5b346101a45760206003193601126101a45760043573ffffffffffffffffffffffffffffffffffffffff8082168092036101a45761093061208a565b811561098957600854827fffffffffffffffffffffffff0000000000000000000000000000000000000000821617600855167f5d16ad41baeb009cd23eb8f6c7cde5c2e0cd5acf4a33926ab488875c37c37f38600080a3005b60046040517fe6c4247b000000000000000000000000000000000000000000000000000000008152fd5b346101a45760006003193601126101a457602060405173ffffffffffffffffffffffffffffffffffffffff7f0000000000000000000000000000000000000000000000000000000000000000168152f35b346101a45760006003193601126101a457602073ffffffffffffffffffffffffffffffffffffffff60005416604051908152f35b346101a45760006003193601126101a4576020600754604051908152f35b346101a45760006003193601126101a457610a6f61208a565b610a776120db565b60017fffffffffffffffffffffffffffffffffffffffffffffffffffffffffffffff0060025416176002557f62e78cea01bee320cd4e420270b5ea74000d11b0c9f74754ebdbfc544b05a2586020604051338152a1005b346101a45760006003193601126101a457610ae761208a565b600073ffffffffffffffffffffffffffffffffffffffff81547fffffffffffffffffffffffff000000000000000000000000000000000000000081168355167f8be0079c531659141344cd1fd0a4f28419497f9722a3daafe3b4186f6b6457e08280a3005b346101a45760206003193601126101a457600435610b6861208a565b6103e88111610baa5760407f607b1c943753982194530bf7133a5972ea2626e028005410efa54ab20035caf891600754908060075582519182526020820152a1005b60046040517f58d620b3000000000000000000000000000000000000000000000000000000008152fd5b346101a45760006003193601126101a4576020600554604051908152f35b346101a45760206003193601126101a45760043573ffffffffffffffffffffffffffffffffffffffff8116908181036101a45761010091600060a0604051610c3981611b73565b8281528260208201528260408201528260608201528260808201520152600052600360205260406000209060405191610c7183611b73565b805483526001810154916020840192835260028201549160408501928352600381015460608601908152610cc160ff600560048501549460808a019586520154169360a088019415158552611be6565b93610cdb612710610cd460075488611b1a565b0486611b66565b956040519751885251602088015251604087015251606086015251608085015251151560a084015260c083015260e0820152f35b346101a45760006003193601126101a457602060ff600254166040519015158152f35b346101a45760206003193601126101a45760043573ffffffffffffffffffffffffffffffffffffffff811681036101a4576102aa602091611be6565b346101a45760006003193601126101a457602060405173ffffffffffffffffffffffffffffffffffffffff7f0000000000000000000000000000000000000000000000000000000000000000168152f35b346101a45760006003193601126101a4576020600654604051908152f35b346101a45760006003193601126101a457602060405173ffffffffffffffffffffffffffffffffffffffff7f0000000000000000000000000000000000000000000000000000000000000000168152f35b346101a45760006003193601126101a457610e47611d25565b33600052602060038152604060002060ff600582015416156104bc57600290610e6f33611d60565b8061106f575b50018054801561104557610e99612710610e9160075484611b1a565b048092611b66565b9173ffffffffffffffffffffffffffffffffffffffff90817f000000000000000000000000000000000000000000000000000000000000000016604051907f537bb1370000000000000000000000000000000000000000000000000000000082523060048301528682602481845afa801561040c578792600091611016575b50610fad575b505060009055817f0000000000000000000000000000000000000000000000000000000000000000610f51853383612026565b81610f97575b50505060405190828252838201527f10d8dedfc0745b8c25ba10b06e304138b251c18dcaadf2d71c7f3214719dc4d160403392a260018055604051908152f35b610fa5926008541690612026565b838181610f57565b906000916004604051809481937f406cf2290000000000000000000000000000000000000000000000000000000083525af190811561040c57869115610f1e57813d831161100f575b6110008183611b8f565b810103126101a4578486610f1e565b503d610ff6565b83819492503d831161103e575b61102d8183611b8f565b810103126101a45786915188610f18565b503d611023565b60046040517f2c5211c6000000000000000000000000000000000000000000000000000000008152fd5b61107d838301918254611ade565b905542600482015583610e75565b346101a45760006003193601126101a4576110a461208a565b60025460ff811615611101577fffffffffffffffffffffffffffffffffffffffffffffffffffffffffffffff00166002557f5db9ee0a495bf2e6ff9c91a7834c1ba4fdd244a5e8aa4e537bd38aeae4b073aa6020604051338152a1005b60046040517f8dfc202b000000000000000000000000000000000000000000000000000000008152fd5b346101a45760006003193601126101a457611144611d25565b336000526003602052604060002060058101549060ff8216156104bc57805490600181015461117233611d60565b80611a26575b5060028201549361271061118e60075487611b1a565b049461119a8682611b66565b93604051927f70a0823100000000000000000000000000000000000000000000000000000000845230600485015260208460248173ffffffffffffffffffffffffffffffffffffffff7f0000000000000000000000000000000000000000000000000000000000000000165afa93841561040c576000946119d2575b507fffffffffffffffffffffffffffffffffffffffffffffffffffffffffffffff006005911691015561124b85600454611b66565b60045560055461125b8482611b66565b908160055561126a8386611ade565b808510611454575b5050505050600090602073ffffffffffffffffffffffffffffffffffffffff7f0000000000000000000000000000000000000000000000000000000000000000166112de83827f0000000000000000000000000000000000000000000000000000000000000000611ebb565b6024604051809581937f7c695cc10000000000000000000000000000000000000000000000000000000083528660048401525af191821561040c5760009261141e575b50827f75e161b3e824b114fc1a33274bd7091918dd4e639cede50b78b15a4eea956a219160409661137385337f0000000000000000000000000000000000000000000000000000000000000000612026565b826113ee575b806113a5575b508651938452602084015260408301523391606090a26001805582519182526020820152f35b6113e89073ffffffffffffffffffffffffffffffffffffffff600854167f0000000000000000000000000000000000000000000000000000000000000000612026565b8761137f565b61141983337f0000000000000000000000000000000000000000000000000000000000000000612026565b611379565b9491506020853d60201161144c575b8161143a60209383611b8f565b810103126101a4579351909382611321565b3d915061142d565b8461145e91611b66565b9161170f575050506040517f5b7c2dad00000000000000000000000000000000000000000000000000000000815230600482015260408160248173ffffffffffffffffffffffffffffffffffffffff7f0000000000000000000000000000000000000000000000000000000000000000165afa801561040c576114ec916000906000926116dd575b50611ade565b80611502575b50506000905b9085808080611272565b604095929593919351907f2e1a7d4d0000000000000000000000000000000000000000000000000000000082526004820152602081602481600073ffffffffffffffffffffffffffffffffffffffff7f0000000000000000000000000000000000000000000000000000000000000000165af190816116b2575b506115c757508390508082106115bb5761159591611b66565b9160006115b26127106115aa60075487611b1a565b048095611b66565b915b90856114f2565b505060008080936115b4565b9150926040517f70a0823100000000000000000000000000000000000000000000000000000000815230600482015260208160248173ffffffffffffffffffffffffffffffffffffffff7f0000000000000000000000000000000000000000000000000000000000000000165afa90811561040c57600091611680575b5081811015611657575b506000906115b4565b8194506116649250611b66565b9160006116796127106115aa60075487611b1a565b919061164e565b90506020813d6020116116aa575b8161169b60209383611b8f565b810103126101a4575185611644565b3d915061168e565b602090813d83116116d6575b6116c88183611b8f565b810103126101a4578661157c565b503d6116be565b9050611701915060403d604011611708575b6116f98183611b8f565b810190611bd0565b90886114e6565b503d6116ef565b604097949795939551907f5b7c2dad00000000000000000000000000000000000000000000000000000000825230600483015260408260248173ffffffffffffffffffffffffffffffffffffffff7f0000000000000000000000000000000000000000000000000000000000000000165afa91821561040c57896117a46117ae946117a9936000906000926119b05750611ade565b611b1a565b611b2d565b808210156119a957505b604051907f2e1a7d4d0000000000000000000000000000000000000000000000000000000082526004820152602081602481600073ffffffffffffffffffffffffffffffffffffffff7f0000000000000000000000000000000000000000000000000000000000000000165af1908161197e575b5061186d5750849150508082106118615761184691611b66565b91600061185b6127106115aa60075487611b1a565b916114f8565b505060008080936114f8565b909250604094919451907f70a0823100000000000000000000000000000000000000000000000000000000825230600483015260208260248173ffffffffffffffffffffffffffffffffffffffff7f0000000000000000000000000000000000000000000000000000000000000000165afa91821561040c57600092611948575b506118f99083611ade565b8110611909575b506000906114f8565b90935090508280821061193c5761191f91611b66565b9160006119346127106115aa60075487611b1a565b915b90611900565b50506000808093611936565b9091506020813d602011611976575b8161196460209383611b8f565b810103126101a45751906118f96118ee565b3d9150611957565b602090813d83116119a2575b6119948183611b8f565b810103126101a4578761182c565b503d61198a565b90506117b8565b90506119cb915060403d604011611708576116f98183611b8f565b908e6114e6565b9093506020813d602011611a1e575b816119ee60209383611b8f565b810103126101a45751927fffffffffffffffffffffffffffffffffffffffffffffffffffffffffffffff00611216565b3d91506119e1565b611a3560028401918254611ade565b905584611178565b346101a45760006003193601126101a4576020600454604051908152f35b346101a45760206003193601126101a4576004359073ffffffffffffffffffffffffffffffffffffffff82168092036101a45760c091600052600360205260406000208054906001810154600282015460038301549160ff60056004860154950154169486526020860152604085015260608401526080830152151560a0820152f35b91908201809211611aeb57565b7f4e487b7100000000000000000000000000000000000000000000000000000000600052601160045260246000fd5b81810292918115918404141715611aeb57565b8115611b37570490565b7f4e487b7100000000000000000000000000000000000000000000000000000000600052601260045260246000fd5b91908203918211611aeb57565b60c0810190811067ffffffffffffffff82111761084857604052565b90601f7fffffffffffffffffffffffffffffffffffffffffffffffffffffffffffffffe0910116810190811067ffffffffffffffff82111761084857604052565b91908260409103126101a4576020825192015190565b73ffffffffffffffffffffffffffffffffffffffff811660005260036020526040600020604051611c1681611b73565b815481526001820154602082015260ff6005600284015493604084019485526003810154606085015260048101546080850152015416159060a08215910152611c6f57611c65611c6c92611d60565b9051611ade565b90565b5050600090565b73ffffffffffffffffffffffffffffffffffffffff8116600052600360205260406000209060a0604051611ca981611b73565b8354815260018401549060ff6005602083019684885260028101546040850152600381015460608501526004810154608085015201541615908115938491015291611d1c575b50611c6f57611cfd90611be6565b61271090818102918183041490151715611aeb57611c6c915190611b2d565b90501538611cef565b600260015414611d36576002600155565b60046040517f3ee5aeb5000000000000000000000000000000000000000000000000000000008152fd5b73ffffffffffffffffffffffffffffffffffffffff8060009216825260209160038352604081209160a0604051611d9681611b73565b8454815260ff600560018701549688840197885260028101546040850152600381015460608501526004810154608085015201541615908115928391015290611eb1575b611eaa5783602491604051928380927f537bb1370000000000000000000000000000000000000000000000000000000082523060048301527f0000000000000000000000000000000000000000000000000000000000000000165afa938415611e9f578294611e6b575b50508215611e655750611c6c91611e5c915190611b1a565b60055490611b2d565b91505090565b9080929450813d8311611e98575b611e838183611b8f565b81010312611e945751913880611e44565b8280fd5b503d611e79565b6040513d84823e3d90fd5b5091505090565b5060055415611dda565b6040517f095ea7b3000000000000000000000000000000000000000000000000000000006020820181815273ffffffffffffffffffffffffffffffffffffffff8516602484015260448084019690965294825294939092611f1d606485611b8f565b73ffffffffffffffffffffffffffffffffffffffff90818416600080809588519082855af190611f4b612111565b82611ff4575b5081611fe9575b5015611f68575b50505050509050565b60405196602088015216602486015280604486015260448552608085019085821067ffffffffffffffff831117611fbc5750611fb19394611fac9160405282612187565b612187565b803880808080611f5f565b807f4e487b7100000000000000000000000000000000000000000000000000000000602492526041600452fd5b90503b151538611f58565b8051919250811591821561200c575b50509038611f51565b61201f925060208091830101910161216f565b3880612003565b6040517fa9059cbb00000000000000000000000000000000000000000000000000000000602082015273ffffffffffffffffffffffffffffffffffffffff92909216602483015260448083019390935291815261208891611fac606483611b8f565b565b73ffffffffffffffffffffffffffffffffffffffff6000541633036120ab57565b60246040517f118cdaa7000000000000000000000000000000000000000000000000000000008152336004820152fd5b60ff600254166120e757565b60046040517fd93c0665000000000000000000000000000000000000000000000000000000008152fd5b3d1561216a573d9067ffffffffffffffff8211610848576040519161215e60207fffffffffffffffffffffffffffffffffffffffffffffffffffffffffffffffe0601f8401160184611b8f565b82523d6000602084013e565b606090565b908160209103126101a4575180151581036101a45790565b60008073ffffffffffffffffffffffffffffffffffffffff6121be93169360208151910182865af16121b7612111565b9083612220565b8051908115159182612205575b50506121d45750565b602490604051907f5274afe70000000000000000000000000000000000000000000000000000000082526004820152fd5b612218925060208091830101910161216f565b1538806121cb565b9061225f575080511561223557805190602001fd5b60046040517f1425ea42000000000000000000000000000000000000000000000000000000008152fd5b815115806122b7575b612270575090565b60249073ffffffffffffffffffffffffffffffffffffffff604051917f9996b315000000000000000000000000000000000000000000000000000000008352166004820152fd5b50803b1561226856fea26469706673582212206efcd70c17cb7f3d7ed46881aef9eb201c3bc4dc7c39379d1df47d890b49701264736f6c63430008190033","linkReferences":{}},"methodIdentifiers":{"MAX_DEPOSIT()":"dd5967c3","MEZO_INTEGRATION()":"fc2c01f8","MIN_DEPOSIT()":"e1e158a5","MUSD()":"43a82621","WBTC()":"4dede3de","YIELD_AGGREGATOR()":"96f3556b","calculateYield(address)":"567add64","claimYield()":"406cf229","deposit(uint256)":"b6b55f25","feeCollector()":"c415b95c","getPoolStats()":"bbb85188","getUserInfo(address)":"6386c1c7","getUserRoi(address)":"e69fe137","owner()":"8da5cb5b","pause()":"8456cb59","paused()":"5c975abb","performanceFee()":"87788782","renounceOwnership()":"715018a6","setFeeCollector(address)":"a42dce80","setPerformanceFee(uint256)":"70897b23","totalBtcDeposited()":"251e2970","totalMusdMinted()":"6fbd7987","totalYieldsGenerated()":"480225c3","transferOwnership(address)":"f2fde38b","unpause()":"3f4ba83a","updateYield()":"bb21a997","userDeposits(address)":"0ba36dcd","withdraw()":"3ccfd60b"},"id":47}