{"abi":[{"type":"constructor","inputs":[{"name":"_mezoIntegration","type":"address","internalType":"address"},{"name":"_yieldAggregator","type":"address","internalType":"address"},{"name":"_wbtc","type":"address","internalType":"address"},{"name":"_musd","type":"address","internalType":"address"},{"name":"_vrfCoordinator","type":"address","internalType":"address"},{"name":"_subscriptionId","type":"uint64","internalType":"uint64"},{"name":"_keyHash","type":"bytes32","internalType":"bytes32"},{"name":"_feeCollector","type":"address","internalType":"address"}],"stateMutability":"nonpayable"},{"type":"function","name":"CALLBACK_GAS_LIMIT","inputs":[],"outputs":[{"name":"","type":"uint32","internalType":"uint32"}],"stateMutability":"view"},{"type":"function","name":"KEY_HASH","inputs":[],"outputs":[{"name":"","type":"bytes32","internalType":"bytes32"}],"stateMutability":"view"},{"type":"function","name":"MAX_TICKETS_PER_USER","inputs":[],"outputs":[{"name":"","type":"uint256","internalType":"uint256"}],"stateMutability":"view"},{"type":"function","name":"MAX_TICKET_PRICE","inputs":[],"outputs":[{"name":"","type":"uint256","internalType":"uint256"}],"stateMutability":"view"},{"type":"function","name":"MEZO_INTEGRATION","inputs":[],"outputs":[{"name":"","type":"address","internalType":"contract IMezoIntegration"}],"stateMutability":"view"},{"type":"function","name":"MIN_TICKET_PRICE","inputs":[],"outputs":[{"name":"","type":"uint256","internalType":"uint256"}],"stateMutability":"view"},{"type":"function","name":"MUSD","inputs":[],"outputs":[{"name":"","type":"address","internalType":"contract IERC20"}],"stateMutability":"view"},{"type":"function","name":"NUM_WORDS","inputs":[],"outputs":[{"name":"","type":"uint32","internalType":"uint32"}],"stateMutability":"view"},{"type":"function","name":"REQUEST_CONFIRMATIONS","inputs":[],"outputs":[{"name":"","type":"uint16","internalType":"uint16"}],"stateMutability":"view"},{"type":"function","name":"SUBSCRIPTION_ID","inputs":[],"outputs":[{"name":"","type":"uint64","internalType":"uint64"}],"stateMutability":"view"},{"type":"function","name":"TREASURY_FEE","inputs":[],"outputs":[{"name":"","type":"uint256","internalType":"uint256"}],"stateMutability":"view"},{"type":"function","name":"VRF_COORDINATOR","inputs":[],"outputs":[{"name":"","type":"address","internalType":"contract VRFCoordinatorV2Interface"}],"stateMutability":"view"},{"type":"function","name":"WBTC","inputs":[],"outputs":[{"name":"","type":"address","internalType":"contract IERC20"}],"stateMutability":"view"},{"type":"function","name":"YIELD_AGGREGATOR","inputs":[],"outputs":[{"name":"","type":"address","internalType":"contract IYieldAggregator"}],"stateMutability":"view"},{"type":"function","name":"buyTickets","inputs":[{"name":"roundId","type":"uint256","internalType":"uint256"},{"name":"ticketCount","type":"uint256","internalType":"uint256"}],"outputs":[],"stateMutability":"nonpayable"},{"type":"function","name":"cancelLottery","inputs":[{"name":"roundId","type":"uint256","internalType":"uint256"},{"name":"reason","type":"string","internalType":"string"}],"outputs":[],"stateMutability":"nonpayable"},{"type":"function","name":"claimPrize","inputs":[{"name":"roundId","type":"uint256","internalType":"uint256"}],"outputs":[],"stateMutability":"nonpayable"},{"type":"function","name":"createLottery","inputs":[{"name":"lotteryType","type":"uint8","internalType":"enum LotteryPool.LotteryType"},{"name":"ticketPrice","type":"uint256","internalType":"uint256"},{"name":"maxParticipants","type":"uint256","internalType":"uint256"},{"name":"durationInSeconds","type":"uint256","internalType":"uint256"}],"outputs":[{"name":"roundId","type":"uint256","internalType":"uint256"}],"stateMutability":"nonpayable"},{"type":"function","name":"feeCollector","inputs":[],"outputs":[{"name":"","type":"address","internalType":"address"}],"stateMutability":"view"},{"type":"function","name":"getLotteryInfo","inputs":[{"name":"roundId","type":"uint256","internalType":"uint256"}],"outputs":[{"name":"","type":"tuple","internalType":"struct LotteryPool.LotteryRound","components":[{"name":"roundId","type":"uint256","internalType":"uint256"},{"name":"lotteryType","type":"uint8","internalType":"enum LotteryPool.LotteryType"},{"name":"ticketPrice","type":"uint256","internalType":"uint256"},{"name":"maxParticipants","type":"uint256","internalType":"uint256"},{"name":"currentParticipants","type":"uint256","internalType":"uint256"},{"name":"totalBtcCollected","type":"uint256","internalType":"uint256"},{"name":"totalMusdMinted","type":"uint256","internalType":"uint256"},{"name":"totalYield","type":"uint256","internalType":"uint256"},{"name":"startTime","type":"uint256","internalType":"uint256"},{"name":"endTime","type":"uint256","internalType":"uint256"},{"name":"drawTime","type":"uint256","internalType":"uint256"},{"name":"winner","type":"address","internalType":"address"},{"name":"winnerPrize","type":"uint256","internalType":"uint256"},{"name":"status","type":"uint8","internalType":"enum LotteryPool.LotteryStatus"},{"name":"vrfRequestId","type":"uint256","internalType":"uint256"},{"name":"randomWord","type":"uint256","internalType":"uint256"}]}],"stateMutability":"view"},{"type":"function","name":"getParticipantInfo","inputs":[{"name":"roundId","type":"uint256","internalType":"uint256"},{"name":"participant","type":"address","internalType":"address"}],"outputs":[{"name":"","type":"tuple","internalType":"struct LotteryPool.Participant","components":[{"name":"participant","type":"address","internalType":"address"},{"name":"ticketCount","type":"uint256","internalType":"uint256"},{"name":"btcContributed","type":"uint256","internalType":"uint256"},{"name":"firstTicketIndex","type":"uint256","internalType":"uint256"},{"name":"lastTicketIndex","type":"uint256","internalType":"uint256"},{"name":"claimed","type":"bool","internalType":"bool"}]}],"stateMutability":"view"},{"type":"function","name":"getParticipants","inputs":[{"name":"roundId","type":"uint256","internalType":"uint256"}],"outputs":[{"name":"","type":"address[]","internalType":"address[]"}],"stateMutability":"view"},{"type":"function","name":"getWinProbability","inputs":[{"name":"roundId","type":"uint256","internalType":"uint256"},{"name":"participant","type":"address","internalType":"address"}],"outputs":[{"name":"probability","type":"uint256","internalType":"uint256"}],"stateMutability":"view"},{"type":"function","name":"lotteryRounds","inputs":[{"name":"","type":"uint256","internalType":"uint256"}],"outputs":[{"name":"roundId","type":"uint256","internalType":"uint256"},{"name":"lotteryType","type":"uint8","internalType":"enum LotteryPool.LotteryType"},{"name":"ticketPrice","type":"uint256","internalType":"uint256"},{"name":"maxParticipants","type":"uint256","internalType":"uint256"},{"name":"currentParticipants","type":"uint256","internalType":"uint256"},{"name":"totalBtcCollected","type":"uint256","internalType":"uint256"},{"name":"totalMusdMinted","type":"uint256","internalType":"uint256"},{"name":"totalYield","type":"uint256","internalType":"uint256"},{"name":"startTime","type":"uint256","internalType":"uint256"},{"name":"endTime","type":"uint256","internalType":"uint256"},{"name":"drawTime","type":"uint256","internalType":"uint256"},{"name":"winner","type":"address","internalType":"address"},{"name":"winnerPrize","type":"uint256","internalType":"uint256"},{"name":"status","type":"uint8","internalType":"enum LotteryPool.LotteryStatus"},{"name":"vrfRequestId","type":"uint256","internalType":"uint256"},{"name":"randomWord","type":"uint256","internalType":"uint256"}],"stateMutability":"view"},{"type":"function","name":"owner","inputs":[],"outputs":[{"name":"","type":"address","internalType":"address"}],"stateMutability":"view"},{"type":"function","name":"pause","inputs":[],"outputs":[],"stateMutability":"nonpayable"},{"type":"function","name":"paused","inputs":[],"outputs":[{"name":"","type":"bool","internalType":"bool"}],"stateMutability":"view"},{"type":"function","name":"rawFulfillRandomWords","inputs":[{"name":"requestId","type":"uint256","internalType":"uint256"},{"name":"randomWords","type":"uint256[]","internalType":"uint256[]"}],"outputs":[],"stateMutability":"nonpayable"},{"type":"function","name":"renounceOwnership","inputs":[],"outputs":[],"stateMutability":"nonpayable"},{"type":"function","name":"requestDraw","inputs":[{"name":"roundId","type":"uint256","internalType":"uint256"}],"outputs":[],"stateMutability":"nonpayable"},{"type":"function","name":"roundCounter","inputs":[],"outputs":[{"name":"","type":"uint256","internalType":"uint256"}],"stateMutability":"view"},{"type":"function","name":"roundParticipants","inputs":[{"name":"","type":"uint256","internalType":"uint256"},{"name":"","type":"address","internalType":"address"}],"outputs":[{"name":"participant","type":"address","internalType":"address"},{"name":"ticketCount","type":"uint256","internalType":"uint256"},{"name":"btcContributed","type":"uint256","internalType":"uint256"},{"name":"firstTicketIndex","type":"uint256","internalType":"uint256"},{"name":"lastTicketIndex","type":"uint256","internalType":"uint256"},{"name":"claimed","type":"bool","internalType":"bool"}],"stateMutability":"view"},{"type":"function","name":"roundParticipantsList","inputs":[{"name":"","type":"uint256","internalType":"uint256"},{"name":"","type":"uint256","internalType":"uint256"}],"outputs":[{"name":"","type":"address","internalType":"address"}],"stateMutability":"view"},{"type":"function","name":"setFeeCollector","inputs":[{"name":"newCollector","type":"address","internalType":"address"}],"outputs":[],"stateMutability":"nonpayable"},{"type":"function","name":"transferOwnership","inputs":[{"name":"newOwner","type":"address","internalType":"address"}],"outputs":[],"stateMutability":"nonpayable"},{"type":"function","name":"unpause","inputs":[],"outputs":[],"stateMutability":"nonpayable"},{"type":"function","name":"vrfRequestToRound","inputs":[{"name":"","type":"uint256","internalType":"uint256"}],"outputs":[{"name":"","type":"uint256","internalType":"uint256"}],"stateMutability":"view"},{"type":"event","name":"DrawRequested","inputs":[{"name":"roundId","type":"uint256","indexed":true,"internalType":"uint256"},{"name":"vrfRequestId","type":"uint256","indexed":false,"internalType":"uint256"}],"anonymous":false},{"type":"event","name":"LotteryCancelled","inputs":[{"name":"roundId","type":"uint256","indexed":true,"internalType":"uint256"},{"name":"reason","type":"string","indexed":false,"internalType":"string"}],"anonymous":false},{"type":"event","name":"LotteryCreated","inputs":[{"name":"roundId","type":"uint256","indexed":true,"internalType":"uint256"},{"name":"lotteryType","type":"uint8","indexed":false,"internalType":"enum LotteryPool.LotteryType"},{"name":"ticketPrice","type":"uint256","indexed":false,"internalType":"uint256"},{"name":"maxParticipants","type":"uint256","indexed":false,"internalType":"uint256"},{"name":"endTime","type":"uint256","indexed":false,"internalType":"uint256"}],"anonymous":false},{"type":"event","name":"OwnershipTransferred","inputs":[{"name":"previousOwner","type":"address","indexed":true,"internalType":"address"},{"name":"newOwner","type":"address","indexed":true,"internalType":"address"}],"anonymous":false},{"type":"event","name":"Paused","inputs":[{"name":"account","type":"address","indexed":false,"internalType":"address"}],"anonymous":false},{"type":"event","name":"PrizeClaimed","inputs":[{"name":"roundId","type":"uint256","indexed":true,"internalType":"uint256"},{"name":"participant","type":"address","indexed":true,"internalType":"address"},{"name":"amount","type":"uint256","indexed":false,"internalType":"uint256"},{"name":"isWinner","type":"bool","indexed":false,"internalType":"bool"}],"anonymous":false},{"type":"event","name":"TicketPurchased","inputs":[{"name":"roundId","type":"uint256","indexed":true,"internalType":"uint256"},{"name":"participant","type":"address","indexed":true,"internalType":"address"},{"name":"ticketCount","type":"uint256","indexed":false,"internalType":"uint256"},{"name":"btcAmount","type":"uint256","indexed":false,"internalType":"uint256"},{"name":"firstTicket","type":"uint256","indexed":false,"internalType":"uint256"},{"name":"lastTicket","type":"uint256","indexed":false,"internalType":"uint256"}],"anonymous":false},{"type":"event","name":"Unpaused","inputs":[{"name":"account","type":"address","indexed":false,"internalType":"address"}],"anonymous":false},{"type":"event","name":"WinnerSelected","inputs":[{"name":"roundId","type":"uint256","indexed":true,"internalType":"uint256"},{"name":"winner","type":"address","indexed":true,"internalType":"address"},{"name":"prize","type":"uint256","indexed":false,"internalType":"uint256"},{"name":"randomWord","type":"uint256","indexed":false,"internalType":"uint256"}],"anonymous":false},{"type":"error","name":"AddressEmptyCode","inputs":[{"name":"target","type":"address","internalType":"address"}]},{"type":"error","name":"AddressInsufficientBalance","inputs":[{"name":"account","type":"address","internalType":"address"}]},{"type":"error","name":"AlreadyClaimed","inputs":[]},{"type":"error","name":"DrawAlreadyRequested","inputs":[]},{"type":"error","name":"DrawNotCompleted","inputs":[]},{"type":"error","name":"EnforcedPause","inputs":[]},{"type":"error","name":"ExpectedPause","inputs":[]},{"type":"error","name":"FailedInnerCall","inputs":[]},{"type":"error","name":"InvalidAddress","inputs":[]},{"type":"error","name":"InvalidAmount","inputs":[]},{"type":"error","name":"InvalidDuration","inputs":[]},{"type":"error","name":"InvalidMaxParticipants","inputs":[]},{"type":"error","name":"InvalidRoundId","inputs":[]},{"type":"error","name":"InvalidTicketPrice","inputs":[]},{"type":"error","name":"LotteryFull","inputs":[]},{"type":"error","name":"LotteryNotEnded","inputs":[]},{"type":"error","name":"LotteryNotOpen","inputs":[]},{"type":"error","name":"NotParticipant","inputs":[]},{"type":"error","name":"OnlyCoordinatorCanFulfill","inputs":[{"name":"have","type":"address","internalType":"address"},{"name":"want","type":"address","internalType":"address"}]},{"type":"error","name":"OwnableInvalidOwner","inputs":[{"name":"owner","type":"address","internalType":"address"}]},{"type":"error","name":"OwnableUnauthorizedAccount","inputs":[{"name":"account","type":"address","internalType":"address"}]},{"type":"error","name":"ReentrancyGuardReentrantCall","inputs":[]},{"type":"error","name":"SafeERC20FailedOperation","inputs":[{"name":"token","type":"address","internalType":"address"}]},{"type":"error","name":"TooManyTickets","inputs":[]},{"type":"error","name":"VRFRequestFailed","inputs":[]}],"bytecode":{"object":"0x61018034610261576001600160401b03612f3438819003601f8101601f191684018381118582101761026657849282916040528339610100938491810103126102615761004b8161027c565b916100586020830161027c565b926100656040840161027c565b936100726060850161027c565b9461007f6080860161027c565b9560a086015194851685036102615761009f60e060c0880151970161027c565b91876080523315610248576000549360018060a01b03948560018060a01b031997338984161760005560405192823391167f8be0079c531659141344cd1fd0a4f28419497f9722a3daafe3b4186f6b6457e0600080a36001805560ff196002541660025516908115801561023e575b8015610234575b801561022a575b8015610220575b8015610216575b6102075750918580949392819360a0521660c0521660e05216875281610120961686526101409384526101609485521690600854161760085560405192612ca39485610291863960805185611dd3015260a0518581816102060152611435015260c0518581816111bd015281816114a70152612384015260e05185818161084e015281816112e90152611bbd01525184818161081e01528181610881015281816114cf01528181611c0e0152612591015251838181610ae40152611efa015251828181610a8a0152611f3d015251818181610a5b0152611b6d0152f35b63e6c4247b60e01b8152600490fd5b508686161561012a565b50868b1615610123565b508685161561011c565b5086841615610115565b508683161561010e565b604051631e4fbdf760e01b815260006004820152602490fd5b600080fd5b634e487b7160e01b600052604160045260246000fd5b51906001600160a01b03821682036102615756fe60a080604052600436101561001357600080fd5b60003560e01c908163030932bb14611f1e5750806305f6a92414611ecd5780631290f95714611e9f5780631af2a06514611e7d5780631fe543e314611d4757806333d608f114611d295780633514694114611cd25780633f4ba83a14611c3257806343a8262114611be15780634dede3de14611b9057806351dc86a514611b555780635c975abb14611b32578063652826e014611b1657806367f082b014611afa578063715018a614611a7c57806372cf6e3414611a6057806376b3c8a81461181b5780638456cb59146117a35780638627df46146112325780638ce1a483146112155780638da5cb5b146111e157806396f3556b1461119057806399abff4b14611096578063a42dce8014611001578063b5e4128714610fde578063b7285ccb14610eb7578063c1e3bd3e14610de5578063c415b95c14610db1578063c69b86e414610c6f578063d49e2f51146109c1578063d5aa06fa14610995578063d7098154146106ca578063ebeedb6014610635578063f2fde38b14610571578063f83b3c081461022a578063fc2c01f8146101d95763febc14b1146101b657600080fd5b346101d45760006003193601126101d4576020600354604051908152f35b600080fd5b346101d45760006003193601126101d457602060405173ffffffffffffffffffffffffffffffffffffffff7f0000000000000000000000000000000000000000000000000000000000000000168152f35b346101d45760806003193601126101d457600360043510156101d45761024e612711565b61025661279d565b6601c6bf5263400060243510801561055e575b610534576044351561050a57606435156104e0576102886003546121c4565b80600355610298606435426121b7565b90604051916102a683611fa7565b8183526102b8600435602085016121ab565b6024356040840152604435606084015260006080840152600060a0840152600060c0840152600060e0840152426101008401528061012084015260006101408401526000610160840152600061018084015260006101a084015260006101c084015260006101e08401528160005260046020526040600020928051845560208101519160038310156104b1577fffffffffffffffffffffffffffffffffffffffffffffffffffffffffffffff009260ff84600188015416911617600186015560408201516002860155606082015160038601556080820151600486015560a0820151600586015560c0820151600686015560e0820151600786015561010082015160088601556101208201516009860155610140820151600a860155600b850173ffffffffffffffffffffffffffffffffffffffff610160840151167fffffffffffffffffffffffff0000000000000000000000000000000000000000825416179055610180820151600c860155600d8501906101a08301519560048710156104b157600f6101e07ff9b8f982c5f59740862c0de8e30b66ea826c4c2f33cb77804a542774e1dce320958560209a60ff8b9a608099541691161790556101c0810151600e8501550151910155604051906104948260043561207e565b6024358783015260443560408301526060820152a2604051908152f35b7f4e487b7100000000000000000000000000000000000000000000000000000000600052602160045260246000fd5b60046040517f76166401000000000000000000000000000000000000000000000000000000008152fd5b60046040517fc41630e2000000000000000000000000000000000000000000000000000000008152fd5b60046040517f06f6808b000000000000000000000000000000000000000000000000000000008152fd5b5067016345785d8a000060243511610269565b346101d45760206003193601126101d45761058a611f84565b610592612711565b73ffffffffffffffffffffffffffffffffffffffff80911690811561060457600054827fffffffffffffffffffffffff0000000000000000000000000000000000000000821617600055167f8be0079c531659141344cd1fd0a4f28419497f9722a3daafe3b4186f6b6457e0600080a3005b60246040517f1e4fbdf700000000000000000000000000000000000000000000000000000000815260006004820152fd5b346101d45760406003193601126101d45760c0610650611f61565b6004356000526005602052604060002073ffffffffffffffffffffffffffffffffffffffff80921660005260205260406000209081541690600181015490600281015460038201549060ff6005600485015494015416936040519586526020860152604085015260608401526080830152151560a0820152f35b346101d45760206003193601126101d4576004356106e6612762565b806000526004602052604060002090600560205260406000203360005260205260406000209180541561096b5760ff600d8201541660048110156104b1576002036109415760018301541561091757600583019081549360ff85166108ed5773ffffffffffffffffffffffffffffffffffffffff9260017fffffffffffffffffffffffffffffffffffffffffffffffffffffffffffffff0085600b8601541633149716179055846000146108db5760026007910154910154906103e8928383029383850414831517156108ac576107c56127106107df950480946121f1565b9280610877575b50505b80610847575b81610817576121b7565b9160405192835260208301527f9c5268d977642af8e3798138c099dae8f2496fd3057b7c3fdffc878a805ff8ca60403393a360018055005b61084282337f00000000000000000000000000000000000000000000000000000000000000006127d3565b6121b7565b61087281337f00000000000000000000000000000000000000000000000000000000000000006127d3565b6107d5565b6108a591600854167f00000000000000000000000000000000000000000000000000000000000000006127d3565b85806107cc565b7f4e487b7100000000000000000000000000000000000000000000000000000000600052601160045260246000fd5b600201546107df9250600091506107cf565b60046040517f646cf558000000000000000000000000000000000000000000000000000000008152fd5b60046040517fe438f8ce000000000000000000000000000000000000000000000000000000008152fd5b60046040517f9b35fd03000000000000000000000000000000000000000000000000000000008152fd5b60046040517fbfbe031f000000000000000000000000000000000000000000000000000000008152fd5b346101d45760206003193601126101d45760043560005260076020526020604060002054604051908152f35b346101d4576020806003193601126101d457600435906109df612711565b6109e7612762565b816000526004815260406000209081541561096b57600d820160ff81541660048110156104b157610c455760098301544210610c1b57600e8301928354610bf15760048101541561091757604051917f5d3b1d300000000000000000000000000000000000000000000000000000000083527f0000000000000000000000000000000000000000000000000000000000000000600484015267ffffffffffffffff7f00000000000000000000000000000000000000000000000000000000000000001660248401526003604484015262030d40606484015260016084840152838360a481600073ffffffffffffffffffffffffffffffffffffffff7f0000000000000000000000000000000000000000000000000000000000000000165af1928315610be557600093610bb6575b508215610b8c577fa87d18931b669b94d135986745ba30491257a77c255767cdd6796f697c1172f1948160017fffffffffffffffffffffffffffffffffffffffffffffffffffffffffffffff008694541617905555600a42910155806000526007825283604060002055604051908152a260018055005b60046040517f884a9c8b000000000000000000000000000000000000000000000000000000008152fd5b9092508381813d8311610bde575b610bce8183611fe0565b810103126101d457519186610b15565b503d610bc4565b6040513d6000823e3d90fd5b60046040517fbf08457d000000000000000000000000000000000000000000000000000000008152fd5b60046040517f0f161008000000000000000000000000000000000000000000000000000000008152fd5b60046040517f57a990f4000000000000000000000000000000000000000000000000000000008152fd5b346101d45760406003193601126101d45760243560043567ffffffffffffffff82116101d457366023830112156101d457816004013591610caf83612098565b92610cbd6040519485611fe0565b80845260209136602483830101116101d4578160009260248593018388013785010152610ce8612711565b8160005260048152604060002080541561096b57600d0160037fffffffffffffffffffffffffffffffffffffffffffffffffffffffffffffff0082541617905560405190808252835193848284015260005b858110610d9d57847f1c9c1c0a44e364888e7766076183cd9d7ca18216dae3965494be141ad8b9993b856040817fffffffffffffffffffffffffffffffffffffffffffffffffffffffffffffffe0601f8c600085828601015201168101030190a2005b818101830151848201604001528201610d3a565b346101d45760006003193601126101d457602073ffffffffffffffffffffffffffffffffffffffff60085416604051908152f35b346101d4576020806003193601126101d45760043560005260068152604060002060405190818382549182815201908192600052846000209060005b86828210610e8d578686610e3782880383611fe0565b604051928392818401908285525180915260408401929160005b828110610e6057505050500390f35b835173ffffffffffffffffffffffffffffffffffffffff1685528695509381019392810192600101610e51565b835473ffffffffffffffffffffffffffffffffffffffff1685529093019260019283019201610e21565b346101d45760206003193601126101d4576004356000526004602052604060002080549080600181015460ff1660028201546003830154600484015460058501546006860154600787015490600888015492600989015494600a8a015496600b8b015473ffffffffffffffffffffffffffffffffffffffff1698600c8c01549a600d8d015460ff169c600e01549d600f01549e60405160805260805152608051602001610f639161207e565b60805160400152608051606001526080516080015260805160a0015260805160c0015260805160e00152608051610100015260805161012001526080516101400152608051610160015260805161018001526080516101a001610fc59161208b565b6080516101c001526080516101e0015260805161020090f35b346101d45760006003193601126101d457602060405167016345785d8a00008152f35b346101d45760206003193601126101d45773ffffffffffffffffffffffffffffffffffffffff61102f611f84565b611037612711565b16801561106c577fffffffffffffffffffffffff00000000000000000000000000000000000000006008541617600855600080f35b60046040517fe6c4247b000000000000000000000000000000000000000000000000000000008152fd5b346101d45760406003193601126101d45760c06110b1611f61565b600060a06040516110c181611fc4565b82815282602082015282604082015282606082015282608082015201526004356000526005602052604060002073ffffffffffffffffffffffffffffffffffffffff8092166000526020526040600020906040519061111f82611fc4565b825416918282526001810154602083019081526002820154604084019081526003830154916060850192835260a060ff6005600487015496608089019788520154169501941515855260405195865251602086015251604085015251606084015251608083015251151560a0820152f35b346101d45760006003193601126101d457602060405173ffffffffffffffffffffffffffffffffffffffff7f0000000000000000000000000000000000000000000000000000000000000000168152f35b346101d45760006003193601126101d457602073ffffffffffffffffffffffffffffffffffffffff60005416604051908152f35b346101d45760006003193601126101d45760206040516103e88152f35b346101d45761124036612021565b90611249612762565b61125161279d565b80600052602060048152604060002080541561096b5760ff600d8201541660048110156104b157610c45576009810154421015610c4557600481019081546003820154111561177957841561174f57836000526005835260406000203360005283526040600020926001840192600a6112cb8886546121b7565b1161172557600283015492878402938085048914901517156108ac577f000000000000000000000000000000000000000000000000000000000000000090604051927f23b872dd000000000000000000000000000000000000000000000000000000008585015260249333858201523060448201528660648201526064815260a0810181811067ffffffffffffffff8211176116ee5760405261136e908461299e565b60ff600589015416158061171c575b61165d575b5061138c88612212565b865497908861161857965b6113a18b896121b7565b987fffffffffffffffffffffffffffffffffffffffffffffffffffffffffffffffff8a01998a116115ea5760046005936000979695936113e28f8e956121b7565b9055600281016113f38b82546121b7565b90558a60038201550155016114098682546121b7565b90558783526004845260408320918473ffffffffffffffffffffffffffffffffffffffff9261145c88857f0000000000000000000000000000000000000000000000000000000000000000168093612a37565b82604051809781937f45fd04650000000000000000000000000000000000000000000000000000000083528b60048401525af1938415610be5576000946115ba575b506040600091837f000000000000000000000000000000000000000000000000000000000000000016906114f387837f0000000000000000000000000000000000000000000000000000000000000000612a37565b8251809481937fb6b55f250000000000000000000000000000000000000000000000000000000083528960048401525af18015610be557611581575b5050600661154091019182546121b7565b9055604051958652850152604084015260608301527f0cd441819d2f41f644d8b93c95405af435382c68a9b42f57b916f91f00fcc87f60803393a360018055005b6040813d6040116115b2575b8161159a60409383611fe0565b810103126101d45751908116036101d457888061152f565b3d915061158d565b9093508481813d83116115e3575b6115d28183611fe0565b810103126101d4575192604061149e565b503d6115c8565b857f4e487b710000000000000000000000000000000000000000000000000000000060005260116004526000fd5b5060048101546001810180911161162f5796611397565b847f4e487b710000000000000000000000000000000000000000000000000000000060005260116004526000fd5b337fffffffffffffffffffffffff000000000000000000000000000000000000000089541617885588600052600685526040600020805490680100000000000000008210156116ee57906116b691600182018155612037565b81549060031b9073ffffffffffffffffffffffffffffffffffffffff33831b921b19161790556116e681546121c4565b905589611382565b857f4e487b710000000000000000000000000000000000000000000000000000000060005260416004526000fd5b5086541561137d565b60046040517f3f4ac486000000000000000000000000000000000000000000000000000000008152fd5b60046040517f2c5211c6000000000000000000000000000000000000000000000000000000008152fd5b60046040517f29a9e728000000000000000000000000000000000000000000000000000000008152fd5b346101d45760006003193601126101d4576117bc612711565b6117c461279d565b60017fffffffffffffffffffffffffffffffffffffffffffffffffffffffffffffff0060025416176002557f62e78cea01bee320cd4e420270b5ea74000d11b0c9f74754ebdbfc544b05a2586020604051338152a1005b346101d45760206003193601126101d45760006101e060405161183d81611fa7565b8281528260208201528260408201528260608201528260808201528260a08201528260c08201528260e08201528261010082015282610120820152826101408201528261016082015282610180820152826101a0820152826101c08201520152600435600052600460205260406000206040516118b981611fa7565b815481526118d160ff600184015416602083016121ab565b600282015460408201526003820154606082015260048201546080820152600582015460a0820152600682015460c0820152600782015460e082015260088201546101008201526009820154610120820152600a82015461014082015273ffffffffffffffffffffffffffffffffffffffff600b83015416610160820152600c82015461018082015260ff600d8301541660048110156104b15761020092600f916101a0840152600e8101546101c084015201546101e08201526101e060405191805183526119a86020820151602085019061207e565b60408101516040840152606081015160608401526080810151608084015260a081015160a084015260c081015160c084015260e081015160e084015261010081015161010084015261012081015161012084015261014081015161014084015273ffffffffffffffffffffffffffffffffffffffff61016082015116610160840152610180810151610180840152611a4a6101a08201516101a085019061208b565b6101c08101516101c084015201516101e0820152f35b346101d45760006003193601126101d457602060405160018152f35b346101d45760006003193601126101d457611a95612711565b600073ffffffffffffffffffffffffffffffffffffffff81547fffffffffffffffffffffffff000000000000000000000000000000000000000081168355167f8be0079c531659141344cd1fd0a4f28419497f9722a3daafe3b4186f6b6457e08280a3005b346101d45760006003193601126101d457602060405160038152f35b346101d45760006003193601126101d4576020604051600a8152f35b346101d45760006003193601126101d457602060ff600254166040519015158152f35b346101d45760006003193601126101d45760206040517f00000000000000000000000000000000000000000000000000000000000000008152f35b346101d45760006003193601126101d457602060405173ffffffffffffffffffffffffffffffffffffffff7f0000000000000000000000000000000000000000000000000000000000000000168152f35b346101d45760006003193601126101d457602060405173ffffffffffffffffffffffffffffffffffffffff7f0000000000000000000000000000000000000000000000000000000000000000168152f35b346101d45760006003193601126101d457611c4b612711565b60025460ff811615611ca8577fffffffffffffffffffffffffffffffffffffffffffffffffffffffffffffff00166002557f5db9ee0a495bf2e6ff9c91a7834c1ba4fdd244a5e8aa4e537bd38aeae4b073aa6020604051338152a1005b60046040517f8dfc202b000000000000000000000000000000000000000000000000000000008152fd5b346101d457611ce036612021565b90600052600660205260406000209081548110156101d457611d1973ffffffffffffffffffffffffffffffffffffffff91602093612037565b9190546040519260031b1c168152f35b346101d45760006003193601126101d457602060405162030d408152f35b346101d45760406003193601126101d45760243567ffffffffffffffff8082116101d457366023830112156101d4578160040135908111611e4e578060051b9160209260405192611d9b6020830185611fe0565b835260246020840191830101913683116101d457602401905b828210611e3f578373ffffffffffffffffffffffffffffffffffffffff7f000000000000000000000000000000000000000000000000000000000000000016803303611e0857611e06826004356122e2565b005b604490604051907f1cf993f40000000000000000000000000000000000000000000000000000000082523360048301526024820152fd5b81358152908401908401611db4565b7f4e487b7100000000000000000000000000000000000000000000000000000000600052604160045260246000fd5b346101d45760006003193601126101d45760206040516601c6bf526340008152f35b346101d45760406003193601126101d4576020611ec5611ebd611f61565b6004356120d2565b604051908152f35b346101d45760006003193601126101d457602060405173ffffffffffffffffffffffffffffffffffffffff7f0000000000000000000000000000000000000000000000000000000000000000168152f35b346101d45760006003193601126101d45760209067ffffffffffffffff7f0000000000000000000000000000000000000000000000000000000000000000168152f35b6024359073ffffffffffffffffffffffffffffffffffffffff821682036101d457565b6004359073ffffffffffffffffffffffffffffffffffffffff821682036101d457565b610200810190811067ffffffffffffffff821117611e4e57604052565b60c0810190811067ffffffffffffffff821117611e4e57604052565b90601f7fffffffffffffffffffffffffffffffffffffffffffffffffffffffffffffffe0910116810190811067ffffffffffffffff821117611e4e57604052565b60031960409101126101d4576004359060243590565b805482101561204f5760005260206000200190600090565b7f4e487b7100000000000000000000000000000000000000000000000000000000600052603260045260246000fd5b9060038210156104b15752565b9060048210156104b15752565b67ffffffffffffffff8111611e4e57601f017fffffffffffffffffffffffffffffffffffffffffffffffffffffffffffffffe01660200190565b906120dc82612212565b9182156121a357600090815260056020526040812073ffffffffffffffffffffffffffffffffffffffff809316825260205260408120916040519061212082611fc4565b835416815260a060ff600560018601549586602086015260028101546040860152600381015460608601526004810154608086015201541615159101526127109182810292818404149015171561217657500490565b807f4e487b7100000000000000000000000000000000000000000000000000000000602492526011600452fd5b505050600090565b60038210156104b15752565b919082018092116108ac57565b7fffffffffffffffffffffffffffffffffffffffffffffffffffffffffffffffff81146108ac5760010190565b919082039182116108ac57565b805182101561204f5760209160051b010190565b906000916000818152602091600683526040926040832091604051808484829654938481520190875284872092875b868282106122b65750505061225892500384611fe0565b83965b83518810156122ad576122a56001918387526005855287872073ffffffffffffffffffffffffffffffffffffffff6122938c896121fe565b511688528552828888200154906121b7565b97019661225b565b96505050505050565b855473ffffffffffffffffffffffffffffffffffffffff16845260019586019589955093019201612241565b919091600090815260209260078452604080832054918284526004958681528285209182541580156126cb575b6126c157805115612695578101519081600f84015573ffffffffffffffffffffffffffffffffffffffff80612344848861283c565b169687612358575b50505050505050509050565b85517f537bb137000000000000000000000000000000000000000000000000000000008152308b8201527f000000000000000000000000000000000000000000000000000000000000000083168482602481845afa91821561262257858d9285928395612660575b50849360078b0195808755612523575b5050505090506103e88082029082820414821517156124f757600d9360a060ff60058d9e9f8c8e9f987f3d210d5ae36955ded2bdf69bd956eb075b7fd07362288c7df1797cd8eb1199bf9f98996124306124839b612710859b04906121f1565b998252848d528282209082528c52209086519561244c87611fc4565b825416865260018201548b8701526002820154809787015260038201546060870152810154608086015201541615159101526121b7565b9384600c820155600b8101897fffffffffffffffffffffffff00000000000000000000000000000000000000008254161790550160027fffffffffffffffffffffffffffffffffffffffffffffffffffffffffffffff008254161790558351928352820152a380388080808080808061234c565b60248360118e7f4e487b7100000000000000000000000000000000000000000000000000000000835252fd5b9082918c51809581937f406cf2290000000000000000000000000000000000000000000000000000000083525af19182612633575b505061262c575086517f70a08231000000000000000000000000000000000000000000000000000000008152308c8201528481602481877f0000000000000000000000000000000000000000000000000000000000000000165afa9081156126225783916125f1575b506005870154808210156125e15750508180915b555b808285388e6123d0565b6125ea916121f1565b80916125d5565b90508481813d831161261b575b6126088183611fe0565b810103126126175751386125c1565b8280fd5b503d6125fe565b88513d85823e3d90fd5b90506125d7565b813d8311612659575b6126468183611fe0565b81010312612655578538612558565b8380fd5b503d61263c565b93509350905081813d831161268e575b61267a8183611fe0565b810103126126175782858d925193386123c0565b503d612670565b60248660328a7f4e487b7100000000000000000000000000000000000000000000000000000000835252fd5b5050505050509050565b5060ff600d84015416888110156126e5576001141561230f565b60248760218b7f4e487b7100000000000000000000000000000000000000000000000000000000835252fd5b73ffffffffffffffffffffffffffffffffffffffff60005416330361273257565b60246040517f118cdaa7000000000000000000000000000000000000000000000000000000008152336004820152fd5b600260015414612773576002600155565b60046040517f3ee5aeb5000000000000000000000000000000000000000000000000000000008152fd5b60ff600254166127a957565b60046040517fd93c0665000000000000000000000000000000000000000000000000000000008152fd5b6040517fa9059cbb00000000000000000000000000000000000000000000000000000000602082015273ffffffffffffffffffffffffffffffffffffffff92909216602483015260448083019390935291815261283a91612835606483611fe0565b61299e565b565b9061284682612212565b9081156121a35706600090828252602090600682526040808420928151808583829754938481520190885283882092885b8582821061295a5750505061288e92500385611fe0565b845b84518110156129505786865260058083528387209073ffffffffffffffffffffffffffffffffffffffff91826128c6858a6121fe565b5116895284528488209085516128db81611fc4565b83835416815260018301548682015260028301548782015260a060ff60038501549384606085015260048601549586608086015201541615159101528610159081612945575b5061292f5750600101612890565b9650939250505061294092506121fe565b511690565b905085111538612921565b5050505050905090565b855473ffffffffffffffffffffffffffffffffffffffff1684526001958601958a955093019201612877565b908160209103126101d4575180151581036101d45790565b60008073ffffffffffffffffffffffffffffffffffffffff6129d593169360208151910182865af16129ce612b9d565b9083612bcd565b8051908115159182612a1c575b50506129eb5750565b602490604051907f5274afe70000000000000000000000000000000000000000000000000000000082526004820152fd5b612a2f9250602080918301019101612986565b1538806129e2565b6040517f095ea7b3000000000000000000000000000000000000000000000000000000006020820181815273ffffffffffffffffffffffffffffffffffffffff8516602484015260448084019690965294825294939092612a99606485611fe0565b73ffffffffffffffffffffffffffffffffffffffff90818416600080809588519082855af190612ac7612b9d565b82612b6b575b5081612b60575b5015612ae4575b50505050509050565b60405196602088015216602486015280604486015260448552608085019085821067ffffffffffffffff831117612b335750612b289394612835916040528261299e565b803880808080612adb565b807f4e487b7100000000000000000000000000000000000000000000000000000000602492526041600452fd5b90503b151538612ad4565b80519192508115918215612b83575b50509038612acd565b612b969250602080918301019101612986565b3880612b7a565b3d15612bc8573d90612bae82612098565b91612bbc6040519384611fe0565b82523d6000602084013e565b606090565b90612c0c5750805115612be257805190602001fd5b60046040517f1425ea42000000000000000000000000000000000000000000000000000000008152fd5b81511580612c64575b612c1d575090565b60249073ffffffffffffffffffffffffffffffffffffffff604051917f9996b315000000000000000000000000000000000000000000000000000000008352166004820152fd5b50803b15612c1556fea2646970667358221220ab04f9e2e63831c789f1d99fc8e372f10d8618164ea9bef28e0614638a043cbf64736f6c63430008190033","linkReferences":{}},"methodIdentifiers":{"CALLBACK_GAS_LIMIT()":"33d608f1","KEY_HASH()":"51dc86a5","MAX_TICKETS_PER_USER()":"652826e0","MAX_TICKET_PRICE()":"b5e41287","MEZO_INTEGRATION()":"fc2c01f8","MIN_TICKET_PRICE()":"1af2a065","MUSD()":"43a82621","NUM_WORDS()":"72cf6e34","REQUEST_CONFIRMATIONS()":"67f082b0","SUBSCRIPTION_ID()":"030932bb","TREASURY_FEE()":"8ce1a483","VRF_COORDINATOR()":"05f6a924","WBTC()":"4dede3de","YIELD_AGGREGATOR()":"96f3556b","buyTickets(uint256,uint256)":"8627df46","cancelLottery(uint256,string)":"c69b86e4","claimPrize(uint256)":"d7098154","createLottery(uint8,uint256,uint256,uint256)":"f83b3c08","feeCollector()":"c415b95c","getLotteryInfo(uint256)":"76b3c8a8","getParticipantInfo(uint256,address)":"99abff4b","getParticipants(uint256)":"c1e3bd3e","getWinProbability(uint256,address)":"1290f957","lotteryRounds(uint256)":"b7285ccb","owner()":"8da5cb5b","pause()":"8456cb59","paused()":"5c975abb","rawFulfillRandomWords(uint256,uint256[])":"1fe543e3","renounceOwnership()":"715018a6","requestDraw(uint256)":"d49e2f51","roundCounter()":"febc14b1","roundParticipants(uint256,address)":"ebeedb60","roundParticipantsList(uint256,uint256)":"35146941","setFeeCollector(address)":"a42dce80","transferOwnership(address)":"f2fde38b","unpause()":"3f4ba83a","vrfRequestToRound(uint256)":"d5aa06fa"},"id":48}