{
  "abi": [
    {
      "type": "constructor",
      "inputs": [
        {
          "name": "_mezoIntegration",
          "type": "address",
          "internalType": "address"
        },
        {
          "name": "_yieldAggregator",
          "type": "address",
          "internalType": "address"
        },
        {
          "name": "_wbtc",
          "type": "address",
          "internalType": "address"
        },
        {
          "name": "_musd",
          "type": "address",
          "internalType": "address"
        },
        {
          "name": "_feeCollector",
          "type": "address",
          "internalType": "address"
        }
      ],
      "stateMutability": "nonpayable"
    },
    {
      "type": "function",
      "name": "MAX_CONTRIBUTION",
      "inputs": [],
      "outputs": [
        {
          "name": "",
          "type": "uint256",
          "internalType": "uint256"
        }
      ],
      "stateMutability": "view"
    },
    {
      "type": "function",
      "name": "MAX_MEMBERS",
      "inputs": [],
      "outputs": [
        {
          "name": "",
          "type": "uint256",
          "internalType": "uint256"
        }
      ],
      "stateMutability": "view"
    },
    {
      "type": "function",
      "name": "MAX_PERIOD_DURATION",
      "inputs": [],
      "outputs": [
        {
          "name": "",
          "type": "uint256",
          "internalType": "uint256"
        }
      ],
      "stateMutability": "view"
    },
    {
      "type": "function",
      "name": "MEZO_INTEGRATION",
      "inputs": [],
      "outputs": [
        {
          "name": "",
          "type": "address",
          "internalType": "contract IMezoIntegration"
        }
      ],
      "stateMutability": "view"
    },
    {
      "type": "function",
      "name": "MIN_CONTRIBUTION",
      "inputs": [],
      "outputs": [
        {
          "name": "",
          "type": "uint256",
          "internalType": "uint256"
        }
      ],
      "stateMutability": "view"
    },
    {
      "type": "function",
      "name": "MIN_MEMBERS",
      "inputs": [],
      "outputs": [
        {
          "name": "",
          "type": "uint256",
          "internalType": "uint256"
        }
      ],
      "stateMutability": "view"
    },
    {
      "type": "function",
      "name": "MIN_PERIOD_DURATION",
      "inputs": [],
      "outputs": [
        {
          "name": "",
          "type": "uint256",
          "internalType": "uint256"
        }
      ],
      "stateMutability": "view"
    },
    {
      "type": "function",
      "name": "MUSD",
      "inputs": [],
      "outputs": [
        {
          "name": "",
          "type": "address",
          "internalType": "contract IERC20"
        }
      ],
      "stateMutability": "view"
    },
    {
      "type": "function",
      "name": "WBTC",
      "inputs": [],
      "outputs": [
        {
          "name": "",
          "type": "address",
          "internalType": "contract IERC20"
        }
      ],
      "stateMutability": "view"
    },
    {
      "type": "function",
      "name": "YIELD_AGGREGATOR",
      "inputs": [],
      "outputs": [
        {
          "name": "",
          "type": "address",
          "internalType": "contract IYieldAggregator"
        }
      ],
      "stateMutability": "view"
    },
    {
      "type": "function",
      "name": "advancePeriod",
      "inputs": [
        {
          "name": "poolId",
          "type": "uint256",
          "internalType": "uint256"
        }
      ],
      "outputs": [],
      "stateMutability": "nonpayable"
    },
    {
      "type": "function",
      "name": "cancelPool",
      "inputs": [
        {
          "name": "poolId",
          "type": "uint256",
          "internalType": "uint256"
        },
        {
          "name": "reason",
          "type": "string",
          "internalType": "string"
        }
      ],
      "outputs": [],
      "stateMutability": "nonpayable"
    },
    {
      "type": "function",
      "name": "claimPayout",
      "inputs": [
        {
          "name": "poolId",
          "type": "uint256",
          "internalType": "uint256"
        }
      ],
      "outputs": [],
      "stateMutability": "nonpayable"
    },
    {
      "type": "function",
      "name": "createPool",
      "inputs": [
        {
          "name": "name",
          "type": "string",
          "internalType": "string"
        },
        {
          "name": "memberCount",
          "type": "uint256",
          "internalType": "uint256"
        },
        {
          "name": "contributionAmount",
          "type": "uint256",
          "internalType": "uint256"
        },
        {
          "name": "periodDuration",
          "type": "uint256",
          "internalType": "uint256"
        },
        {
          "name": "memberAddresses",
          "type": "address[]",
          "internalType": "address[]"
        }
      ],
      "outputs": [
        {
          "name": "poolId",
          "type": "uint256",
          "internalType": "uint256"
        }
      ],
      "stateMutability": "nonpayable"
    },
    {
      "type": "function",
      "name": "depositBlock",
      "inputs": [
        {
          "name": "",
          "type": "address",
          "internalType": "address"
        }
      ],
      "outputs": [
        {
          "name": "",
          "type": "uint256",
          "internalType": "uint256"
        }
      ],
      "stateMutability": "view"
    },
    {
      "type": "function",
      "name": "feeCollector",
      "inputs": [],
      "outputs": [
        {
          "name": "",
          "type": "address",
          "internalType": "address"
        }
      ],
      "stateMutability": "view"
    },
    {
      "type": "function",
      "name": "getMemberAtIndex",
      "inputs": [
        {
          "name": "poolId",
          "type": "uint256",
          "internalType": "uint256"
        },
        {
          "name": "index",
          "type": "uint256",
          "internalType": "uint256"
        }
      ],
      "outputs": [
        {
          "name": "",
          "type": "address",
          "internalType": "address"
        }
      ],
      "stateMutability": "view"
    },
    {
      "type": "function",
      "name": "getMemberInfo",
      "inputs": [
        {
          "name": "poolId",
          "type": "uint256",
          "internalType": "uint256"
        },
        {
          "name": "member",
          "type": "address",
          "internalType": "address"
        }
      ],
      "outputs": [
        {
          "name": "",
          "type": "tuple",
          "internalType": "struct RotatingPool.MemberInfo",
          "components": [
            {
              "name": "memberAddress",
              "type": "address",
              "internalType": "address"
            },
            {
              "name": "memberIndex",
              "type": "uint256",
              "internalType": "uint256"
            },
            {
              "name": "contributionsMade",
              "type": "uint256",
              "internalType": "uint256"
            },
            {
              "name": "totalContributed",
              "type": "uint256",
              "internalType": "uint256"
            },
            {
              "name": "payoutReceived",
              "type": "uint256",
              "internalType": "uint256"
            },
            {
              "name": "yieldReceived",
              "type": "uint256",
              "internalType": "uint256"
            },
            {
              "name": "hasReceivedPayout",
              "type": "bool",
              "internalType": "bool"
            },
            {
              "name": "active",
              "type": "bool",
              "internalType": "bool"
            }
          ]
        }
      ],
      "stateMutability": "view"
    },
    {
      "type": "function",
      "name": "getPendingYield",
      "inputs": [
        {
          "name": "",
          "type": "uint256",
          "internalType": "uint256"
        }
      ],
      "outputs": [
        {
          "name": "",
          "type": "uint256",
          "internalType": "uint256"
        }
      ],
      "stateMutability": "view"
    },
    {
      "type": "function",
      "name": "getPeriodInfo",
      "inputs": [
        {
          "name": "poolId",
          "type": "uint256",
          "internalType": "uint256"
        },
        {
          "name": "periodNumber",
          "type": "uint256",
          "internalType": "uint256"
        }
      ],
      "outputs": [
        {
          "name": "",
          "type": "tuple",
          "internalType": "struct RotatingPool.PeriodInfo",
          "components": [
            {
              "name": "periodNumber",
              "type": "uint256",
              "internalType": "uint256"
            },
            {
              "name": "startTime",
              "type": "uint256",
              "internalType": "uint256"
            },
            {
              "name": "endTime",
              "type": "uint256",
              "internalType": "uint256"
            },
            {
              "name": "recipient",
              "type": "address",
              "internalType": "address"
            },
            {
              "name": "payoutAmount",
              "type": "uint256",
              "internalType": "uint256"
            },
            {
              "name": "yieldAmount",
              "type": "uint256",
              "internalType": "uint256"
            },
            {
              "name": "completed",
              "type": "bool",
              "internalType": "bool"
            },
            {
              "name": "paid",
              "type": "bool",
              "internalType": "bool"
            }
          ]
        }
      ],
      "stateMutability": "view"
    },
    {
      "type": "function",
      "name": "getPoolInfo",
      "inputs": [
        {
          "name": "poolId",
          "type": "uint256",
          "internalType": "uint256"
        }
      ],
      "outputs": [
        {
          "name": "",
          "type": "tuple",
          "internalType": "struct RotatingPool.PoolInfo",
          "components": [
            {
              "name": "poolId",
              "type": "uint256",
              "internalType": "uint256"
            },
            {
              "name": "name",
              "type": "string",
              "internalType": "string"
            },
            {
              "name": "creator",
              "type": "address",
              "internalType": "address"
            },
            {
              "name": "memberCount",
              "type": "uint256",
              "internalType": "uint256"
            },
            {
              "name": "contributionAmount",
              "type": "uint256",
              "internalType": "uint256"
            },
            {
              "name": "periodDuration",
              "type": "uint256",
              "internalType": "uint256"
            },
            {
              "name": "currentPeriod",
              "type": "uint256",
              "internalType": "uint256"
            },
            {
              "name": "totalPeriods",
              "type": "uint256",
              "internalType": "uint256"
            },
            {
              "name": "startTime",
              "type": "uint256",
              "internalType": "uint256"
            },
            {
              "name": "totalBtcCollected",
              "type": "uint256",
              "internalType": "uint256"
            },
            {
              "name": "totalMusdMinted",
              "type": "uint256",
              "internalType": "uint256"
            },
            {
              "name": "totalYieldGenerated",
              "type": "uint256",
              "internalType": "uint256"
            },
            {
              "name": "yieldDistributed",
              "type": "uint256",
              "internalType": "uint256"
            },
            {
              "name": "status",
              "type": "uint8",
              "internalType": "enum RotatingPool.PoolStatus"
            },
            {
              "name": "autoAdvance",
              "type": "bool",
              "internalType": "bool"
            }
          ]
        }
      ],
      "stateMutability": "view"
    },
    {
      "type": "function",
      "name": "getPoolMembers",
      "inputs": [
        {
          "name": "poolId",
          "type": "uint256",
          "internalType": "uint256"
        }
      ],
      "outputs": [
        {
          "name": "",
          "type": "address[]",
          "internalType": "address[]"
        }
      ],
      "stateMutability": "view"
    },
    {
      "type": "function",
      "name": "getPoolStats",
      "inputs": [
        {
          "name": "poolId",
          "type": "uint256",
          "internalType": "uint256"
        }
      ],
      "outputs": [
        {
          "name": "totalBtc",
          "type": "uint256",
          "internalType": "uint256"
        },
        {
          "name": "totalMusd",
          "type": "uint256",
          "internalType": "uint256"
        },
        {
          "name": "totalYield",
          "type": "uint256",
          "internalType": "uint256"
        },
        {
          "name": "periodsCompleted",
          "type": "uint256",
          "internalType": "uint256"
        },
        {
          "name": "membersWithPayout",
          "type": "uint256",
          "internalType": "uint256"
        }
      ],
      "stateMutability": "view"
    },
    {
      "type": "function",
      "name": "joinPool",
      "inputs": [
        {
          "name": "poolId",
          "type": "uint256",
          "internalType": "uint256"
        }
      ],
      "outputs": [],
      "stateMutability": "nonpayable"
    },
    {
      "type": "function",
      "name": "makeContribution",
      "inputs": [
        {
          "name": "poolId",
          "type": "uint256",
          "internalType": "uint256"
        }
      ],
      "outputs": [],
      "stateMutability": "nonpayable"
    },
    {
      "type": "function",
      "name": "owner",
      "inputs": [],
      "outputs": [
        {
          "name": "",
          "type": "address",
          "internalType": "address"
        }
      ],
      "stateMutability": "view"
    },
    {
      "type": "function",
      "name": "pause",
      "inputs": [],
      "outputs": [],
      "stateMutability": "nonpayable"
    },
    {
      "type": "function",
      "name": "paused",
      "inputs": [],
      "outputs": [
        {
          "name": "",
          "type": "bool",
          "internalType": "bool"
        }
      ],
      "stateMutability": "view"
    },
    {
      "type": "function",
      "name": "performanceFee",
      "inputs": [],
      "outputs": [
        {
          "name": "",
          "type": "uint256",
          "internalType": "uint256"
        }
      ],
      "stateMutability": "view"
    },
    {
      "type": "function",
      "name": "poolCounter",
      "inputs": [],
      "outputs": [
        {
          "name": "",
          "type": "uint256",
          "internalType": "uint256"
        }
      ],
      "stateMutability": "view"
    },
    {
      "type": "function",
      "name": "poolMemberOrder",
      "inputs": [
        {
          "name": "",
          "type": "uint256",
          "internalType": "uint256"
        },
        {
          "name": "",
          "type": "uint256",
          "internalType": "uint256"
        }
      ],
      "outputs": [
        {
          "name": "",
          "type": "address",
          "internalType": "address"
        }
      ],
      "stateMutability": "view"
    },
    {
      "type": "function",
      "name": "poolMembers",
      "inputs": [
        {
          "name": "",
          "type": "uint256",
          "internalType": "uint256"
        },
        {
          "name": "",
          "type": "address",
          "internalType": "address"
        }
      ],
      "outputs": [
        {
          "name": "memberAddress",
          "type": "address",
          "internalType": "address"
        },
        {
          "name": "memberIndex",
          "type": "uint256",
          "internalType": "uint256"
        },
        {
          "name": "contributionsMade",
          "type": "uint256",
          "internalType": "uint256"
        },
        {
          "name": "totalContributed",
          "type": "uint256",
          "internalType": "uint256"
        },
        {
          "name": "payoutReceived",
          "type": "uint256",
          "internalType": "uint256"
        },
        {
          "name": "yieldReceived",
          "type": "uint256",
          "internalType": "uint256"
        },
        {
          "name": "hasReceivedPayout",
          "type": "bool",
          "internalType": "bool"
        },
        {
          "name": "active",
          "type": "bool",
          "internalType": "bool"
        }
      ],
      "stateMutability": "view"
    },
    {
      "type": "function",
      "name": "poolMembersList",
      "inputs": [
        {
          "name": "",
          "type": "uint256",
          "internalType": "uint256"
        },
        {
          "name": "",
          "type": "uint256",
          "internalType": "uint256"
        }
      ],
      "outputs": [
        {
          "name": "",
          "type": "address",
          "internalType": "address"
        }
      ],
      "stateMutability": "view"
    },
    {
      "type": "function",
      "name": "poolPeriods",
      "inputs": [
        {
          "name": "",
          "type": "uint256",
          "internalType": "uint256"
        },
        {
          "name": "",
          "type": "uint256",
          "internalType": "uint256"
        }
      ],
      "outputs": [
        {
          "name": "periodNumber",
          "type": "uint256",
          "internalType": "uint256"
        },
        {
          "name": "startTime",
          "type": "uint256",
          "internalType": "uint256"
        },
        {
          "name": "endTime",
          "type": "uint256",
          "internalType": "uint256"
        },
        {
          "name": "recipient",
          "type": "address",
          "internalType": "address"
        },
        {
          "name": "payoutAmount",
          "type": "uint256",
          "internalType": "uint256"
        },
        {
          "name": "yieldAmount",
          "type": "uint256",
          "internalType": "uint256"
        },
        {
          "name": "completed",
          "type": "bool",
          "internalType": "bool"
        },
        {
          "name": "paid",
          "type": "bool",
          "internalType": "bool"
        }
      ],
      "stateMutability": "view"
    },
    {
      "type": "function",
      "name": "pools",
      "inputs": [
        {
          "name": "",
          "type": "uint256",
          "internalType": "uint256"
        }
      ],
      "outputs": [
        {
          "name": "poolId",
          "type": "uint256",
          "internalType": "uint256"
        },
        {
          "name": "name",
          "type": "string",
          "internalType": "string"
        },
        {
          "name": "creator",
          "type": "address",
          "internalType": "address"
        },
        {
          "name": "memberCount",
          "type": "uint256",
          "internalType": "uint256"
        },
        {
          "name": "contributionAmount",
          "type": "uint256",
          "internalType": "uint256"
        },
        {
          "name": "periodDuration",
          "type": "uint256",
          "internalType": "uint256"
        },
        {
          "name": "currentPeriod",
          "type": "uint256",
          "internalType": "uint256"
        },
        {
          "name": "totalPeriods",
          "type": "uint256",
          "internalType": "uint256"
        },
        {
          "name": "startTime",
          "type": "uint256",
          "internalType": "uint256"
        },
        {
          "name": "totalBtcCollected",
          "type": "uint256",
          "internalType": "uint256"
        },
        {
          "name": "totalMusdMinted",
          "type": "uint256",
          "internalType": "uint256"
        },
        {
          "name": "totalYieldGenerated",
          "type": "uint256",
          "internalType": "uint256"
        },
        {
          "name": "yieldDistributed",
          "type": "uint256",
          "internalType": "uint256"
        },
        {
          "name": "status",
          "type": "uint8",
          "internalType": "enum RotatingPool.PoolStatus"
        },
        {
          "name": "autoAdvance",
          "type": "bool",
          "internalType": "bool"
        }
      ],
      "stateMutability": "view"
    },
    {
      "type": "function",
      "name": "renounceOwnership",
      "inputs": [],
      "outputs": [],
      "stateMutability": "nonpayable"
    },
    {
      "type": "function",
      "name": "setFeeCollector",
      "inputs": [
        {
          "name": "newCollector",
          "type": "address",
          "internalType": "address"
        }
      ],
      "outputs": [],
      "stateMutability": "nonpayable"
    },
    {
      "type": "function",
      "name": "setPerformanceFee",
      "inputs": [
        {
          "name": "newFee",
          "type": "uint256",
          "internalType": "uint256"
        }
      ],
      "outputs": [],
      "stateMutability": "nonpayable"
    },
    {
      "type": "function",
      "name": "startPool",
      "inputs": [
        {
          "name": "poolId",
          "type": "uint256",
          "internalType": "uint256"
        }
      ],
      "outputs": [],
      "stateMutability": "nonpayable"
    },
    {
      "type": "function",
      "name": "transferOwnership",
      "inputs": [
        {
          "name": "newOwner",
          "type": "address",
          "internalType": "address"
        }
      ],
      "outputs": [],
      "stateMutability": "nonpayable"
    },
    {
      "type": "function",
      "name": "unpause",
      "inputs": [],
      "outputs": [],
      "stateMutability": "nonpayable"
    },
    {
      "type": "event",
      "name": "ContributionMade",
      "inputs": [
        {
          "name": "poolId",
          "type": "uint256",
          "indexed": true,
          "internalType": "uint256"
        },
        {
          "name": "member",
          "type": "address",
          "indexed": true,
          "internalType": "address"
        },
        {
          "name": "periodNumber",
          "type": "uint256",
          "indexed": false,
          "internalType": "uint256"
        },
        {
          "name": "amount",
          "type": "uint256",
          "indexed": false,
          "internalType": "uint256"
        }
      ],
      "anonymous": false
    },
    {
      "type": "event",
      "name": "MemberJoined",
      "inputs": [
        {
          "name": "poolId",
          "type": "uint256",
          "indexed": true,
          "internalType": "uint256"
        },
        {
          "name": "member",
          "type": "address",
          "indexed": true,
          "internalType": "address"
        },
        {
          "name": "memberIndex",
          "type": "uint256",
          "indexed": false,
          "internalType": "uint256"
        }
      ],
      "anonymous": false
    },
    {
      "type": "event",
      "name": "OwnershipTransferred",
      "inputs": [
        {
          "name": "previousOwner",
          "type": "address",
          "indexed": true,
          "internalType": "address"
        },
        {
          "name": "newOwner",
          "type": "address",
          "indexed": true,
          "internalType": "address"
        }
      ],
      "anonymous": false
    },
    {
      "type": "event",
      "name": "Paused",
      "inputs": [
        {
          "name": "account",
          "type": "address",
          "indexed": false,
          "internalType": "address"
        }
      ],
      "anonymous": false
    },
    {
      "type": "event",
      "name": "PayoutDistributed",
      "inputs": [
        {
          "name": "poolId",
          "type": "uint256",
          "indexed": true,
          "internalType": "uint256"
        },
        {
          "name": "periodNumber",
          "type": "uint256",
          "indexed": false,
          "internalType": "uint256"
        },
        {
          "name": "recipient",
          "type": "address",
          "indexed": true,
          "internalType": "address"
        },
        {
          "name": "payoutAmount",
          "type": "uint256",
          "indexed": false,
          "internalType": "uint256"
        },
        {
          "name": "yieldAmount",
          "type": "uint256",
          "indexed": false,
          "internalType": "uint256"
        }
      ],
      "anonymous": false
    },
    {
      "type": "event",
      "name": "PeriodAdvanced",
      "inputs": [
        {
          "name": "poolId",
          "type": "uint256",
          "indexed": true,
          "internalType": "uint256"
        },
        {
          "name": "newPeriod",
          "type": "uint256",
          "indexed": false,
          "internalType": "uint256"
        }
      ],
      "anonymous": false
    },
    {
      "type": "event",
      "name": "PoolCancelled",
      "inputs": [
        {
          "name": "poolId",
          "type": "uint256",
          "indexed": true,
          "internalType": "uint256"
        },
        {
          "name": "reason",
          "type": "string",
          "indexed": false,
          "internalType": "string"
        }
      ],
      "anonymous": false
    },
    {
      "type": "event",
      "name": "PoolCompleted",
      "inputs": [
        {
          "name": "poolId",
          "type": "uint256",
          "indexed": true,
          "internalType": "uint256"
        },
        {
          "name": "totalYieldDistributed",
          "type": "uint256",
          "indexed": false,
          "internalType": "uint256"
        }
      ],
      "anonymous": false
    },
    {
      "type": "event",
      "name": "PoolCreated",
      "inputs": [
        {
          "name": "poolId",
          "type": "uint256",
          "indexed": true,
          "internalType": "uint256"
        },
        {
          "name": "creator",
          "type": "address",
          "indexed": true,
          "internalType": "address"
        },
        {
          "name": "name",
          "type": "string",
          "indexed": false,
          "internalType": "string"
        },
        {
          "name": "memberCount",
          "type": "uint256",
          "indexed": false,
          "internalType": "uint256"
        },
        {
          "name": "contributionAmount",
          "type": "uint256",
          "indexed": false,
          "internalType": "uint256"
        },
        {
          "name": "periodDuration",
          "type": "uint256",
          "indexed": false,
          "internalType": "uint256"
        }
      ],
      "anonymous": false
    },
    {
      "type": "event",
      "name": "Unpaused",
      "inputs": [
        {
          "name": "account",
          "type": "address",
          "indexed": false,
          "internalType": "address"
        }
      ],
      "anonymous": false
    },
    {
      "type": "error",
      "name": "AddressEmptyCode",
      "inputs": [
        {
          "name": "target",
          "type": "address",
          "internalType": "address"
        }
      ]
    },
    {
      "type": "error",
      "name": "AddressInsufficientBalance",
      "inputs": [
        {
          "name": "account",
          "type": "address",
          "internalType": "address"
        }
      ]
    },
    {
      "type": "error",
      "name": "AlreadyMember",
      "inputs": []
    },
    {
      "type": "error",
      "name": "ContributionAlreadyMade",
      "inputs": []
    },
    {
      "type": "error",
      "name": "EnforcedPause",
      "inputs": []
    },
    {
      "type": "error",
      "name": "ExpectedPause",
      "inputs": []
    },
    {
      "type": "error",
      "name": "FailedInnerCall",
      "inputs": []
    },
    {
      "type": "error",
      "name": "InsufficientContributions",
      "inputs": []
    },
    {
      "type": "error",
      "name": "InvalidAddress",
      "inputs": []
    },
    {
      "type": "error",
      "name": "InvalidContribution",
      "inputs": []
    },
    {
      "type": "error",
      "name": "InvalidFee",
      "inputs": []
    },
    {
      "type": "error",
      "name": "InvalidMemberCount",
      "inputs": []
    },
    {
      "type": "error",
      "name": "InvalidPeriod",
      "inputs": []
    },
    {
      "type": "error",
      "name": "InvalidPeriodDuration",
      "inputs": []
    },
    {
      "type": "error",
      "name": "InvalidPoolId",
      "inputs": []
    },
    {
      "type": "error",
      "name": "NotMember",
      "inputs": []
    },
    {
      "type": "error",
      "name": "OwnableInvalidOwner",
      "inputs": [
        {
          "name": "owner",
          "type": "address",
          "internalType": "address"
        }
      ]
    },
    {
      "type": "error",
      "name": "OwnableUnauthorizedAccount",
      "inputs": [
        {
          "name": "account",
          "type": "address",
          "internalType": "address"
        }
      ]
    },
    {
      "type": "error",
      "name": "PayoutAlreadyDistributed",
      "inputs": []
    },
    {
      "type": "error",
      "name": "PeriodNotEnded",
      "inputs": []
    },
    {
      "type": "error",
      "name": "PoolFull",
      "inputs": []
    },
    {
      "type": "error",
      "name": "PoolNotActive",
      "inputs": []
    },
    {
      "type": "error",
      "name": "PoolNotCompleted",
      "inputs": []
    },
    {
      "type": "error",
      "name": "PoolNotForming",
      "inputs": []
    },
    {
      "type": "error",
      "name": "ReentrancyGuardReentrantCall",
      "inputs": []
    },
    {
      "type": "error",
      "name": "SafeERC20FailedOperation",
      "inputs": [
        {
          "name": "token",
          "type": "address",
          "internalType": "address"
        }
      ]
    },
    {
      "type": "error",
      "name": "SameBlockWithdrawal",
      "inputs": []
    }
  ],
  "bytecode": {
    "object": "0x6101003461020857601f613a2038819003918201601f19168301916001600160401b0383118484101761020d5780849260a0946040528339810103126102085761004881610223565b9061005560208201610223565b9061006260408201610223565b9061007b608061007460608401610223565b9201610223565b9133156101ef576000549360018060a01b03948560018060a01b031997338984161760005560405192823391167f8be0079c531659141344cd1fd0a4f28419497f9722a3daafe3b4186f6b6457e0600080a36001805560ff196002541660025560646009551690811580156101e5575b80156101db575b80156101d1575b80156101c7575b6101b85750608052841660a052831660c052821660e052600a805490931691161790556040516137e8908161023882396080518161020f015260a051818181610c5d015281816115f4015281816121c60152818161248101528181612538015281816125f00152612c01015260c05181818161147b01528181611cff0152611f68015260e0518181816114d0015281816115010152818161154401528181611d5001528181611fb40152818161264101526126670152f35b63e6c4247b60e01b8152600490fd5b5086861615610100565b50868516156100f9565b50868416156100f2565b50868316156100eb565b604051631e4fbdf760e01b815260006004820152602490fd5b600080fd5b634e487b7160e01b600052604160045260246000fd5b51906001600160a01b03821682036102085756fe608080604052600436101561001357600080fd5b60003560e01c9081630235e7e714612c685750806316e63fea14612ba75780631e67939e14612aa7578063202019a614612a605780632f380b351461282957806334e7a19f1461272f578063360a2bcb14611e365780633f4ba83a14611d965780633fa8ae481461031857806340650c9114611d7457806343a8262114611d235780634dede3de14611cd25780635c975abb14611caf578063601acc9214611c025780636791799d14611a0b57806370897b23146119b7578063710370241461191a578063715018a61461189c5780637fb84bed1461187e5780638456cb591461180657806387788782146117e85780638a69614e146112ed5780638da5cb5b146112b95780638f78b14f14610ca457806394d95f8f14610c8157806396f3556b14610c305780639e3079cb14610c12578063a0de878014610b97578063a42dce8014610b2c578063a901d15c146107bc578063ac4afa38146106b3578063b1219e73146105e1578063c415b95c146105ad578063c60b6e2d14610556578063d6336d5514610470578063d9a6722014610454578063dc0990e814610361578063e2e91dbf14610318578063ea0e35b1146102fc578063f2fde38b146102385763fc2c01f8146101e257600080fd5b3461023357600060031936011261023357602060405173ffffffffffffffffffffffffffffffffffffffff7f0000000000000000000000000000000000000000000000000000000000000000168152f35b600080fd5b3461023357602060031936011261023357610251612ca7565b6102596132bc565b73ffffffffffffffffffffffffffffffffffffffff8091169081156102cb57600054827fffffffffffffffffffffffff0000000000000000000000000000000000000000821617600055167f8be0079c531659141344cd1fd0a4f28419497f9722a3daafe3b4186f6b6457e0600080a3005b60246040517f1e4fbdf700000000000000000000000000000000000000000000000000000000815260006004820152fd5b3461023357600060031936011261023357602060405160328152f35b346102335761032636612d35565b906000526006602052604060002090600052602052602073ffffffffffffffffffffffffffffffffffffffff60406000205416604051908152f35b346102335761036f36612d35565b90610378612fa5565b5060005260076020526040600020906000526020526101006040600020604051906103a282612d4b565b8054918281526001820154916020820192835260028101546040830190815273ffffffffffffffffffffffffffffffffffffffff806003840154166060850190815260048401549260808601938452600660058601549560a0880196875201549660ff60e060c0890198828b1615158a52019860081c1615158852604051988952516020890152516040880152511660608601525160808501525160a084015251151560c083015251151560e0820152f35b3461023357600060031936011261023357602060405160038152f35b346102335760406003193601126102335760043560243567ffffffffffffffff8111610233576104a4903690600401612e00565b6104ac6132bc565b816000526004602052604060002080541561052c577f7f4407032861af82a3485fe13a59182f0e8e7ce9788eb972659f64a08f39dad191600d610527920160037fffffffffffffffffffffffffffffffffffffffffffffffffffffffffffffff00825416179055604051918291602083526020830190612cca565b0390a2005b60046040517f0afa7ee8000000000000000000000000000000000000000000000000000000008152fd5b346102335761056436612d35565b90600052600860205260406000209081548110156102335761059d73ffffffffffffffffffffffffffffffffffffffff91602093612f5e565b9190546040519260031b1c168152f35b3461023357600060031936011261023357602073ffffffffffffffffffffffffffffffffffffffff600a5416604051908152f35b34610233576020806003193601126102335760043560005260088152604060002060405190818382549182815201908192600052846000209060005b8682821061068957868661063382880383612d85565b604051928392818401908285525180915260408401929160005b82811061065c57505050500390f35b835173ffffffffffffffffffffffffffffffffffffffff168552869550938101939281019260010161064d565b835473ffffffffffffffffffffffffffffffffffffffff168552909301926001928301920161061d565b3461023357602060031936011261023357600435600052600460205260406000208054600182016106e390612e9a565b90600283015473ffffffffffffffffffffffffffffffffffffffff16926003810154906004810154600582015460068301546007840154600885015490600986015492600a87015494600b88015496600c89015498600d0154996040519d8e9d8e9d8e6101e09181528160208201520161075c91612cca565b6040909d015260608d015260808c015260a08b015260c08a015260e08901526101008801526101208701526101408601526101608501526101808401526107aa6101a0840160ff8316612d28565b60081c60ff1615156101c08301520390f35b346102335760208060031936011261023357600435906107da61305d565b816000526004815260406000209182541561052c57600d8301805460ff81166004811015610afd57610ad35773ffffffffffffffffffffffffffffffffffffffff806002870154163303610aa9578360005260088552604060002054600387015403610a7f57610a7995610a459360017fffffffffffffffffffffffffffffffffffffffffffffffffffffffffffffff0060069516179055600842910155836000526004855260406000209060405161089281612d68565b825481526108a260018401612e9a565b8782015281600284015416604082015260038301546060820152600483015460808201526101c060ff600d60058601549560a085019687528781015460c0860152600781015460e086015260088101546101008601526009810154610120860152600a810154610140860152600b810154610160860152600c81015461018086015201546109368282166101a08601612fe3565b60081c161515910152846000528286526040600020600080528652610964816040600020541692514261301c565b6040519261097184612d4b565b6000845287840192428452604085019283526060850191825260808501926000845260a08601946000865260c087019a60008c5260e088019a60008c52600052600781526040600020906000805252604060002096518755516001870155516002860155600385019151167fffffffffffffffffffffffff00000000000000000000000000000000000000008254161790555160048301555160058201550192511515839060ff7fffffffffffffffffffffffffffffffffffffffffffffffffffffffffffffff0083541691151516179055565b5181547fffffffffffffffffffffffffffffffffffffffffffffffffffffffffffff00ff1690151560081b61ff0016179055565b60018055005b60046040517fda3cb5f4000000000000000000000000000000000000000000000000000000008152fd5b60046040517fe6c4247b000000000000000000000000000000000000000000000000000000008152fd5b60046040517f4eb0513e000000000000000000000000000000000000000000000000000000008152fd5b7f4e487b7100000000000000000000000000000000000000000000000000000000600052602160045260246000fd5b346102335760206003193601126102335773ffffffffffffffffffffffffffffffffffffffff610b5a612ca7565b610b626132bc565b168015610aa9577fffffffffffffffffffffffff0000000000000000000000000000000000000000600a541617600a55600080f35b3461023357602060031936011261023357600435610bb361305d565b806000526004602052604060002080541561052c57600d015460ff166004811015610afd57600103610be857610a7990613374565b60046040517f71815202000000000000000000000000000000000000000000000000000000008152fd5b34610233576000600319360112610233576020600354604051908152f35b3461023357600060031936011261023357602060405173ffffffffffffffffffffffffffffffffffffffff7f0000000000000000000000000000000000000000000000000000000000000000168152f35b34610233576000600319360112610233576020604051678ac7230489e800008152f35b346102335760a06003193601126102335760043567ffffffffffffffff811161023357610cd5903690600401612e00565b60843567ffffffffffffffff811161023357366023820112156102335780600401359067ffffffffffffffff82116111b2578160051b9060405192610d1d6020840185612d85565b8352602460208401928201019036821161023357602401915b81831061128c57505050610d48613098565b6003602435108015611280575b6112565766038d7ea4c68000604435108015611243575b6112195762093a8060643510801561120b575b6111e157610d8e600354612fef565b9182600355604051610d9f81612d68565b8381528160208201523360408201526024356060820152604435608082015260643560a0820152600060c082015260243560e08201526000610100820152600061012082015260006101408201526000610160820152600061018082015260006101a082015260006101c0820152836000526004602052604060002081518155602082015180519067ffffffffffffffff82116111b257610e436001840154612e47565b601f811161116b575b50602090601f831160011461109e57600d93929160009183611093575b50507fffffffffffffffffffffffffffffffffffffffffffffffffffffffffffffffff8260011b9260031b1c19161760018201555b73ffffffffffffffffffffffffffffffffffffffff6040840151167fffffffffffffffffffffffff0000000000000000000000000000000000000000600283015416176002820155606083015160038201556080830151600482015560a0830151600582015560c0830151600682015560e0830151600782015561010083015160088201556101208301516009820155610140830151600a820155610160830151600b820155610180830151600c820155016101a08201516004811015610afd5781546101c0909301517fffffffffffffffffffffffffffffffffffffffffffffffffffffffffffff000090931660ff9091161791151560081b61ff0016919091179055827f80eb862b1ebf91ef46e8085c1e47b348af9ad8f1248fb18302612a57ad3a2b55610fd960405193608085526080850190612cca565b926024356020820152604435604082015260643560608201528033940390a3805161100a575b602082604051908152f35b60005b8151811080611088575b1561107f578073ffffffffffffffffffffffffffffffffffffffff61103f61104a9385613029565b511661104f57612fef565b61100d565b61107a8173ffffffffffffffffffffffffffffffffffffffff6110728287613029565b5116866130ce565b612fef565b50506020610fff565b506024358110611017565b015190508880610e69565b906001840160005260206000209160005b7fffffffffffffffffffffffffffffffffffffffffffffffffffffffffffffffe0851681106111535750918391600193837fffffffffffffffffffffffffffffffffffffffffffffffffffffffffffffffe0600d9897161061111c575b505050811b016001820155610e9e565b01517fffffffffffffffffffffffffffffffffffffffffffffffffffffffffffffffff60f88460031b161c1916905588808061110c565b919260206001819286850151815501940192016110af565b600184016000526020600020601f840160051c8101602085106111ab575b601f830160051c8201811061119f575050610e4c565b60008155600101611189565b5080611189565b7f4e487b7100000000000000000000000000000000000000000000000000000000600052604160045260246000fd5b60046040517f9e11b5e6000000000000000000000000000000000000000000000000000000008152fd5b506276a70060643511610d7f565b60046040517f652122d9000000000000000000000000000000000000000000000000000000008152fd5b50678ac7230489e8000060443511610d6c565b60046040517f4fdd01a0000000000000000000000000000000000000000000000000000000008152fd5b50603260243511610d55565b823573ffffffffffffffffffffffffffffffffffffffff8116810361023357815260209283019201610d36565b3461023357600060031936011261023357602073ffffffffffffffffffffffffffffffffffffffff60005416604051908152f35b346102335760206003193601126102335761130661305d565b33600052600b60205260406000205443146117be57600435600052600460205260406000206005602052604060002033600052602052604060002090541561052c57600681015460ff8160081c16156117945760ff16611740576004356000526007602052604060002060018201546000526020526040600020600681015460ff81161561176a5760081c60ff1661174057600481015460058201549261271092836113b46009548761303d565b04946113c08682613050565b948161152b575b505081600191827fffffffffffffffffffffffffffffffffffffffffffffffffffffffffffffff00600661149f979601541617600683015583600483015585600583015560066101007fffffffffffffffffffffffffffffffffffffffffffffffffffffffffffff00ff828401541617910155015460405190815281602082015283604082015233907f361c61d25e573b81c4f29477a915ff059161fc6927cffdc7897e2010625d8da0606060043592a3337f000000000000000000000000000000000000000000000000000000000000000061330d565b806114fa575b50806114b15760018055005b6114f49073ffffffffffffffffffffffffffffffffffffffff600a54167f000000000000000000000000000000000000000000000000000000000000000061330d565b80610a79565b61152590337f000000000000000000000000000000000000000000000000000000000000000061330d565b816114a5565b73ffffffffffffffffffffffffffffffffffffffff91827f00000000000000000000000000000000000000000000000000000000000000001692604051917f70a082310000000000000000000000000000000000000000000000000000000092838152306004820152602081602481895afa9081156116c35760009161170e575b50106115ba575b50506113c7565b6020600091600460409b95979a94969b51809481937f406cf2290000000000000000000000000000000000000000000000000000000083527f0000000000000000000000000000000000000000000000000000000000000000165af190816116e3575b506116cf57505060209060246040518098819382523060048301525afa9485156116c35760009561168f575b50841561167b5761149f929161166f6001926116676009548961303d565b048097613050565b945b91819394886115b3565b50925061149f906001600094600094611671565b9094506020813d6020116116bb575b816116ab60209383612d85565b8101031261023357519385611649565b3d915061169e565b6040513d6000823e3d90fd5b959096506001925061149f94939150611671565b602090813d8311611707575b6116f98183612d85565b81010312610233578961161d565b503d6116ef565b90506020813d602011611738575b8161172960209383612d85565b8101031261023357518b6115ac565b3d915061171c565b60046040517f237e7f57000000000000000000000000000000000000000000000000000000008152fd5b60046040517fac59a02d000000000000000000000000000000000000000000000000000000008152fd5b60046040517f291fc442000000000000000000000000000000000000000000000000000000008152fd5b60046040517f4837511c000000000000000000000000000000000000000000000000000000008152fd5b34610233576000600319360112610233576020600954604051908152f35b346102335760006003193601126102335761181f6132bc565b611827613098565b60017fffffffffffffffffffffffffffffffffffffffffffffffffffffffffffffff0060025416176002557f62e78cea01bee320cd4e420270b5ea74000d11b0c9f74754ebdbfc544b05a2586020604051338152a1005b346102335760006003193601126102335760206040516276a7008152f35b34610233576000600319360112610233576118b56132bc565b600073ffffffffffffffffffffffffffffffffffffffff81547fffffffffffffffffffffffff000000000000000000000000000000000000000081168355167f8be0079c531659141344cd1fd0a4f28419497f9722a3daafe3b4186f6b6457e08280a3005b346102335761192836612d35565b906000526007602052604060002090600052602052610100604060002060ff815491600181015490600281015473ffffffffffffffffffffffffffffffffffffffff6003830154166004830154916006600585015494015494604051978852602088015260408701526060860152608085015260a0840152818116151560c084015260081c16151560e0820152f35b34610233576020600319360112610233576004356119d36132bc565b6103e881116119e157600955005b60046040517f58d620b3000000000000000000000000000000000000000000000000000000008152fd5b346102335760208060031936011261023357600435906000826000526004825260406000209260405190611a3e82612d68565b84548252600194611a5160018201612e9a565b8584015273ffffffffffffffffffffffffffffffffffffffff948560028301541660408501526003820154606085015260048201546080850152600593600583015460a08201526006808401549460c08301958652600785015460e084015260088501546101008401526009850154986101208401998a52600a8601549961014085019a8b52600d600b880154976101608701988952600c8101546101808801520154946101c060ff8097611b0c8282166101a08601612fe3565b60081c16151591015251995195519651978260005260088652604060002092604051938d85898354918281520192600052896000209060005b8b828210611bed57505050505084611b5e910385612d85565b60008d5b611b89575b60a08d8d8d8d8d8d604051958652850152604084015260608301526080820152f35b8451811015611be857908d96959493929181600052828952604060002084611bb18388613029565b5116600052895286866040600020015416611bd5575b870190919293949596611b62565b9b611be08891612fef565b9c9050611bc7565b611b67565b83548916865290940193918301918301611b45565b3461023357604060031936011261023357610100611c1e612c84565b6004356000526005602052604060002073ffffffffffffffffffffffffffffffffffffffff80921660005260205260ff60406000209182541691600181015490600281015460038201546004830154916006600585015494015494604051978852602088015260408701526060860152608085015260a0840152818116151560c084015260081c16151560e0820152f35b3461023357600060031936011261023357602060ff600254166040519015158152f35b3461023357600060031936011261023357602060405173ffffffffffffffffffffffffffffffffffffffff7f0000000000000000000000000000000000000000000000000000000000000000168152f35b3461023357600060031936011261023357602060405173ffffffffffffffffffffffffffffffffffffffff7f0000000000000000000000000000000000000000000000000000000000000000168152f35b3461023357600060031936011261023357602060405166038d7ea4c680008152f35b3461023357600060031936011261023357611daf6132bc565b60025460ff811615611e0c577fffffffffffffffffffffffffffffffffffffffffffffffffffffffffffffff00166002557f5db9ee0a495bf2e6ff9c91a7834c1ba4fdd244a5e8aa4e537bd38aeae4b073aa6020604051338152a1005b60046040517f8dfc202b000000000000000000000000000000000000000000000000000000008152fd5b3461023357602060031936011261023357611e4f61305d565b611e57613098565b600435600052600460205260406000206005602052604060002033600052602052604060002081541561052c5760ff600d830154166004811015610afd57600103610be85760ff600682015460081c161561179457600281019182546007820154111561270557600360069260048301549433600052600b60205243604060002055611ee38154612fef565b905501611ef184825461301c565b905560098101611f0284825461301c565b90550154906040517f23b872dd0000000000000000000000000000000000000000000000000000000060208201523360248201523060448201528160648201526064815260a0810167ffffffffffffffff91808210838311176111b257611f8c916040527f0000000000000000000000000000000000000000000000000000000000000000613649565b600435600052600460205260406000209073ffffffffffffffffffffffffffffffffffffffff7f000000000000000000000000000000000000000000000000000000000000000016906040517f70a08231000000000000000000000000000000000000000000000000000000008152306004820152602081602481865afa80156116c35785916000916126d0575b50101561243f575b505050604051918252602082015233907ff9b7589b7a8d939b9da5dae90770378fe5fd7802be5d66432e85bedbdbfbcb7a604060043592a3600435600052600460205260406000206006810154600060086020526040600020916040518084602082965493848152019060005260206000209260005b8181106124105750506120ad92500384612d85565b60005b835181101561211c576004356000526005602052604060002073ffffffffffffffffffffffffffffffffffffffff6120e88387613029565b51166000526020528160026040600020015411612108575b6001016120b0565b91612114600191612fef565b929050612100565b509060038401541461212e5760018055005b60043560005260046020526040600020906007602052604060002081600052602052604060002090600682019081549160ff831661174057600485015460038601549261217b848361303d565b91604051907f537bb13700000000000000000000000000000000000000000000000000000000825230600483015260208260248173ffffffffffffffffffffffffffffffffffffffff7f0000000000000000000000000000000000000000000000000000000000000000165afa9586156116c35789926000976123d6575b508061220861220e928461303d565b9261303d565b9561221f600784019788549061303d565b91821515806123c9575b156123b85761224c8161224761225294600c61225898015490613050565b61303d565b9461303d565b90613050565b801561238957600591049586925b6004820155015560017fffffffffffffffffffffffffffffffffffffffffffffffffffffffffffffff00809416179055600b8401926122a681855461301c565b8094556122b8600c860191825461301c565b905560068401549054907fffffffffffffffffffffffffffffffffffffffffffffffffffffffffffffffff820191821161235a571015612318575050600d015460081c60ff166123085780610a79565b612313600435613374565b6114f4565b9091600d60029101918254161790556040519081527fe6e3f8167a0352c51f4a5dc639deb5c5679ccf396f92c55db62037faa0a23512602060043592a26114f4565b7f4e487b7100000000000000000000000000000000000000000000000000000000600052601160045260246000fd5b7f4e487b7100000000000000000000000000000000000000000000000000000000600052601260045260246000fd5b505050505060056000958692612266565b50600c8401548211612229565b925095506020823d602011612408575b816123f360209383612d85565b810103126102335761220e89925196906121f9565b3d91506123e6565b845473ffffffffffffffffffffffffffffffffffffffff16835260019485019488945060209093019201612098565b6040517f095ea7b3000000000000000000000000000000000000000000000000000000006020820181815273ffffffffffffffffffffffffffffffffffffffff7f00000000000000000000000000000000000000000000000000000000000000001660248401526044808401889052835290939192919060009081906124c6606487612d85565b85519082855af1906124d66136e2565b8261269e575b5081612693575b50156125d0575b5050506040517fb6b55f25000000000000000000000000000000000000000000000000000000008152826004820152604081602481600073ffffffffffffffffffffffffffffffffffffffff7f0000000000000000000000000000000000000000000000000000000000000000165af19081612584575b5061256e575b8080612022565b600a0161257c82825461301c565b905582612567565b6040813d6040116125c8575b8161259d60409383612d85565b81010312610233575173ffffffffffffffffffffffffffffffffffffffff8116036102335784612561565b3d9150612590565b60405192602084015273ffffffffffffffffffffffffffffffffffffffff7f00000000000000000000000000000000000000000000000000000000000000001660248401526000604484015260448352826080810110906080840111176111b25761266582608061268b94016040527f0000000000000000000000000000000000000000000000000000000000000000613649565b7f0000000000000000000000000000000000000000000000000000000000000000613649565b8380806124ea565b90503b1515876124e3565b805191925081159182156126b6575b505090886124dc565b6126c99250602080918301019101613631565b88806126ad565b9150506020813d6020116126fd575b816126ec60209383612d85565b81010312610233578490518761201a565b3d91506126df565b60046040517f084175a5000000000000000000000000000000000000000000000000000000008152fd5b34610233576020806003193601126102335760043561274c61305d565b612754613098565b8060005260048252604060002080541561052c5760ff600d820154166004811015610afd57610ad3578160005260088352600360406000205491015411156127ff578060005260058252604060002033600052825260ff60066040600020015460081c166127d5576008610a799282600052526040600020549033906130ce565b60046040517f810074be000000000000000000000000000000000000000000000000000000008152fd5b60046040517f9e80781c000000000000000000000000000000000000000000000000000000008152fd5b346102335760206003193601126102335760006101c060405161284b81612d68565b828152606060208201528260408201528260608201528260808201528260a08201528260c08201528260e08201528261010082015282610120820152826101408201528261016082015282610180820152826101a082015201526004356000526004602052604060002060ff600d604051926128c684612d68565b805484526128d660018201612e9a565b602085015273ffffffffffffffffffffffffffffffffffffffff60028201541660408501526003810154606085015260048101546080850152600581015460a0850152600681015460c0850152600781015460e085015260088101546101008501526009810154610120850152600a810154610140850152600b810154610160850152600c81015461018085015201546129768282166101a08501612fe3565b60081c1615156101c0820152604051809160208252805160208301526101c06129b060208301516101e06040860152610200850190612cca565b9173ffffffffffffffffffffffffffffffffffffffff604082015116606085015260608101516080850152608081015160a085015260a081015160c085015260c081015160e085015260e08101516101008501526101008101516101208501526101208101516101408501526101408101516101608501526101608101516101808501526101808101516101a0850152612a526101a082015183860190612d28565b015115156101e08301520390f35b346102335760206003193601126102335773ffffffffffffffffffffffffffffffffffffffff612a8e612ca7565b16600052600b6020526020604060002054604051908152f35b3461023357604060031936011261023357610100612ac3612c84565b612acb612fa5565b506004356000526005602052604060002073ffffffffffffffffffffffffffffffffffffffff809216600052602052604060002060405191612b0c83612d4b565b815416918281526001820154916020820192835260028101546040830190815260038201546060840190815260048301549160808501928352600660058501549460a0870195865201549560ff60e060c0880197828a1615158952019760081c16151587526040519788525160208801525160408701525160608601525160808501525160a084015251151560c083015251151560e0820152f35b3461023357602080600319360112610233576040517f537bb137000000000000000000000000000000000000000000000000000000008152306004820152818160248173ffffffffffffffffffffffffffffffffffffffff7f0000000000000000000000000000000000000000000000000000000000000000165afa9081156116c357600091612c3b575b50604051908152f35b90508181813d8311612c61575b612c528183612d85565b81010312610233575182612c32565b503d612c48565b34610233576000600319360112610233578062093a8060209252f35b6024359073ffffffffffffffffffffffffffffffffffffffff8216820361023357565b6004359073ffffffffffffffffffffffffffffffffffffffff8216820361023357565b919082519283825260005b848110612d145750507fffffffffffffffffffffffffffffffffffffffffffffffffffffffffffffffe0601f8460006020809697860101520116010190565b602081830181015184830182015201612cd5565b906004821015610afd5752565b6003196040910112610233576004359060243590565b610100810190811067ffffffffffffffff8211176111b257604052565b6101e0810190811067ffffffffffffffff8211176111b257604052565b90601f7fffffffffffffffffffffffffffffffffffffffffffffffffffffffffffffffe0910116810190811067ffffffffffffffff8211176111b257604052565b67ffffffffffffffff81116111b257601f017fffffffffffffffffffffffffffffffffffffffffffffffffffffffffffffffe01660200190565b81601f8201121561023357803590612e1782612dc6565b92612e256040519485612d85565b8284526020838301011161023357816000926020809301838601378301015290565b90600182811c92168015612e90575b6020831014612e6157565b7f4e487b7100000000000000000000000000000000000000000000000000000000600052602260045260246000fd5b91607f1691612e56565b90604051918260008254612ead81612e47565b90818452602094600191600181169081600014612f1d5750600114612ede575b505050612edc92500383612d85565b565b600090815285812095935091905b818310612f05575050612edc9350820101388080612ecd565b85548884018501529485019487945091830191612eec565b915050612edc9593507fffffffffffffffffffffffffffffffffffffffffffffffffffffffffffffff0091501682840152151560051b820101388080612ecd565b8054821015612f765760005260206000200190600090565b7f4e487b7100000000000000000000000000000000000000000000000000000000600052603260045260246000fd5b60405190612fb282612d4b565b8160e06000918281528260208201528260408201528260608201528260808201528260a08201528260c08201520152565b6004821015610afd5752565b7fffffffffffffffffffffffffffffffffffffffffffffffffffffffffffffffff811461235a5760010190565b9190820180921161235a57565b8051821015612f765760209160051b010190565b8181029291811591840414171561235a57565b9190820391821161235a57565b60026001541461306e576002600155565b60046040517f3ee5aeb5000000000000000000000000000000000000000000000000000000008152fd5b60ff600254166130a457565b60046040517fd93c0665000000000000000000000000000000000000000000000000000000008152fd5b9291926040918251946130e086612d4b565b73ffffffffffffffffffffffffffffffffffffffff80921693848752602092838801908382528486848b019a8960008d819e8290526060840190828252878a608087019480865260a088019681885260c089019a828c5260e08a019a60018c528352600581528383209183525220955116987fffffffffffffffffffffffff0000000000000000000000000000000000000000998a875416178655516001860155516002850155516003840155516004830155516005820155600601915115156131d590839060ff7fffffffffffffffffffffffffffffffffffffffffffffffffffffffffffffff0083541691151516179055565b5181547fffffffffffffffffffffffffffffffffffffffffffffffffffffffffffff00ff1690151560081b61ff0016179055858952600885528289208054906801000000000000000082101561328f579988999a9261325e837ff4f82575ee84a81aac4be52b6a368e9ba9df524b4f5cf8177d7cfbabe861820c9a9b9560018996018155612f5e565b819291549060031b9186831b921b1916179055888152600687528181208682528752209182541617905551908152a3565b60248b7f4e487b710000000000000000000000000000000000000000000000000000000081526041600452fd5b73ffffffffffffffffffffffffffffffffffffffff6000541633036132dd57565b60246040517f118cdaa7000000000000000000000000000000000000000000000000000000008152336004820152fd5b6040517fa9059cbb00000000000000000000000000000000000000000000000000000000602082015273ffffffffffffffffffffffffffffffffffffffff929092166024830152604480830193909352918152612edc9161336f606483612d85565b613649565b600081815260049060209082825260409081812093600685018054956001870180971161360557600701548610156135dd5790858392558682528085528684832091868651936133c385612d68565b805485526133d360018201612e9a565b8286015273ffffffffffffffffffffffffffffffffffffffff9485600283015416898201526003820154606082015283820154608082015260058201549160a08201928352600681015460c0830152600781015460e083015260088101546101008301526009810154610120830152600a810154610140830152600b810154610160830152600c810154610180830152600d015460ff81166101a083019061347a91612fe3565b60081c60ff161515906101c00152838652600682528786208a87528252848887205416905142906134aa9161301c565b948851956134b787612d4b565b8b87528b8a89868a0192428452828b0194855260608b0196875260808b019782895260a08c019a838c5260c08d019e8f5260e08d019d8e528352600781528383209183525220975188555160018801555160028701556003860191511681547fffffffffffffffffffffffff00000000000000000000000000000000000000001617905551908301555160058201556006019151151561358290839060ff7fffffffffffffffffffffffffffffffffffffffffffffffffffffffffffffff0083541691151516179055565b5181547fffffffffffffffffffffffffffffffffffffffffffffffffffffffffffff00ff1690151560081b61ff0016179055519182527f5c12640e4659b07c515609d150d36890ae4b15c3d83514b006a6dfd16700cdc991a2565b5082517f17479ac8000000000000000000000000000000000000000000000000000000008152fd5b6024846011857f4e487b7100000000000000000000000000000000000000000000000000000000835252fd5b90816020910312610233575180151581036102335790565b60008073ffffffffffffffffffffffffffffffffffffffff61368093169360208151910182865af16136796136e2565b9083613712565b80519081151591826136c7575b50506136965750565b602490604051907f5274afe70000000000000000000000000000000000000000000000000000000082526004820152fd5b6136da9250602080918301019101613631565b15388061368d565b3d1561370d573d906136f382612dc6565b916137016040519384612d85565b82523d6000602084013e565b606090565b90613751575080511561372757805190602001fd5b60046040517f1425ea42000000000000000000000000000000000000000000000000000000008152fd5b815115806137a9575b613762575090565b60249073ffffffffffffffffffffffffffffffffffffffff604051917f9996b315000000000000000000000000000000000000000000000000000000008352166004820152fd5b50803b1561375a56fea2646970667358221220fcdacb2a1929cc0cc938881b303d301d1c5907aeb0fe0eeaaecab3f00305054f64736f6c63430008190033",
    "linkReferences": {}
  },
  "methodIdentifiers": {
    "MAX_CONTRIBUTION()": "94d95f8f",
    "MAX_MEMBERS()": "ea0e35b1",
    "MAX_PERIOD_DURATION()": "7fb84bed",
    "MEZO_INTEGRATION()": "fc2c01f8",
    "MIN_CONTRIBUTION()": "40650c91",
    "MIN_MEMBERS()": "d9a67220",
    "MIN_PERIOD_DURATION()": "0235e7e7",
    "MUSD()": "43a82621",
    "WBTC()": "4dede3de",
    "YIELD_AGGREGATOR()": "96f3556b",
    "advancePeriod(uint256)": "a0de8780",
    "cancelPool(uint256,string)": "d6336d55",
    "claimPayout(uint256)": "8a69614e",
    "createPool(string,uint256,uint256,uint256,address[])": "8f78b14f",
    "depositBlock(address)": "202019a6",
    "feeCollector()": "c415b95c",
    "getMemberAtIndex(uint256,uint256)": "e2e91dbf",
    "getMemberInfo(uint256,address)": "1e67939e",
    "getPendingYield(uint256)": "16e63fea",
    "getPeriodInfo(uint256,uint256)": "dc0990e8",
    "getPoolInfo(uint256)": "2f380b35",
    "getPoolMembers(uint256)": "b1219e73",
    "getPoolStats(uint256)": "6791799d",
    "joinPool(uint256)": "34e7a19f",
    "makeContribution(uint256)": "360a2bcb",
    "owner()": "8da5cb5b",
    "pause()": "8456cb59",
    "paused()": "5c975abb",
    "performanceFee()": "87788782",
    "poolCounter()": "9e3079cb",
    "poolMemberOrder(uint256,uint256)": "3fa8ae48",
    "poolMembers(uint256,address)": "601acc92",
    "poolMembersList(uint256,uint256)": "c60b6e2d",
    "poolPeriods(uint256,uint256)": "71037024",
    "pools(uint256)": "ac4afa38",
    "renounceOwnership()": "715018a6",
    "setFeeCollector(address)": "a42dce80",
    "setPerformanceFee(uint256)": "70897b23",
    "startPool(uint256)": "a901d15c",
    "transferOwnership(address)": "f2fde38b",
    "unpause()": "3f4ba83a"
  },
  "id": 67
}