{
  "abi": [
    {
      "type": "constructor",
      "inputs": [
        {
          "name": "_mezoIntegration",
          "type": "address",
          "internalType": "address"
        },
        {
          "name": "_yieldAggregator",
          "type": "address",
          "internalType": "address"
        },
        {
          "name": "_musd",
          "type": "address",
          "internalType": "address"
        },
        {
          "name": "_feeCollector",
          "type": "address",
          "internalType": "address"
        }
      ],
      "stateMutability": "nonpayable"
    },
    {
      "type": "receive",
      "stateMutability": "payable"
    },
    {
      "type": "function",
      "name": "MAX_MEMBERS_LIMIT",
      "inputs": [],
      "outputs": [
        {
          "name": "",
          "type": "uint256",
          "internalType": "uint256"
        }
      ],
      "stateMutability": "view"
    },
    {
      "type": "function",
      "name": "MAX_POOL_SIZE",
      "inputs": [],
      "outputs": [
        {
          "name": "",
          "type": "uint256",
          "internalType": "uint256"
        }
      ],
      "stateMutability": "view"
    },
    {
      "type": "function",
      "name": "MEZO_INTEGRATION",
      "inputs": [],
      "outputs": [
        {
          "name": "",
          "type": "address",
          "internalType": "contract IMezoIntegration"
        }
      ],
      "stateMutability": "view"
    },
    {
      "type": "function",
      "name": "MIN_CONTRIBUTION",
      "inputs": [],
      "outputs": [
        {
          "name": "",
          "type": "uint256",
          "internalType": "uint256"
        }
      ],
      "stateMutability": "view"
    },
    {
      "type": "function",
      "name": "MIN_POOL_SIZE",
      "inputs": [],
      "outputs": [
        {
          "name": "",
          "type": "uint256",
          "internalType": "uint256"
        }
      ],
      "stateMutability": "view"
    },
    {
      "type": "function",
      "name": "MUSD",
      "inputs": [],
      "outputs": [
        {
          "name": "",
          "type": "address",
          "internalType": "contract IERC20"
        }
      ],
      "stateMutability": "view"
    },
    {
      "type": "function",
      "name": "YIELD_AGGREGATOR",
      "inputs": [],
      "outputs": [
        {
          "name": "",
          "type": "address",
          "internalType": "contract IYieldAggregator"
        }
      ],
      "stateMutability": "view"
    },
    {
      "type": "function",
      "name": "calculateMemberYield",
      "inputs": [
        {
          "name": "poolId",
          "type": "uint256",
          "internalType": "uint256"
        },
        {
          "name": "member",
          "type": "address",
          "internalType": "address"
        }
      ],
      "outputs": [
        {
          "name": "pendingYield",
          "type": "uint256",
          "internalType": "uint256"
        }
      ],
      "stateMutability": "view"
    },
    {
      "type": "function",
      "name": "claimYield",
      "inputs": [
        {
          "name": "poolId",
          "type": "uint256",
          "internalType": "uint256"
        }
      ],
      "outputs": [],
      "stateMutability": "nonpayable"
    },
    {
      "type": "function",
      "name": "closePool",
      "inputs": [
        {
          "name": "poolId",
          "type": "uint256",
          "internalType": "uint256"
        }
      ],
      "outputs": [],
      "stateMutability": "nonpayable"
    },
    {
      "type": "function",
      "name": "createPool",
      "inputs": [
        {
          "name": "name",
          "type": "string",
          "internalType": "string"
        },
        {
          "name": "minContribution",
          "type": "uint256",
          "internalType": "uint256"
        },
        {
          "name": "maxContribution",
          "type": "uint256",
          "internalType": "uint256"
        },
        {
          "name": "maxMembers",
          "type": "uint256",
          "internalType": "uint256"
        }
      ],
      "outputs": [
        {
          "name": "poolId",
          "type": "uint256",
          "internalType": "uint256"
        }
      ],
      "stateMutability": "nonpayable"
    },
    {
      "type": "function",
      "name": "feeCollector",
      "inputs": [],
      "outputs": [
        {
          "name": "",
          "type": "address",
          "internalType": "address"
        }
      ],
      "stateMutability": "view"
    },
    {
      "type": "function",
      "name": "getMemberInfo",
      "inputs": [
        {
          "name": "poolId",
          "type": "uint256",
          "internalType": "uint256"
        },
        {
          "name": "member",
          "type": "address",
          "internalType": "address"
        }
      ],
      "outputs": [
        {
          "name": "info",
          "type": "tuple",
          "internalType": "struct CooperativePool.MemberInfo",
          "components": [
            {
              "name": "btcContributed",
              "type": "uint256",
              "internalType": "uint256"
            },
            {
              "name": "shares",
              "type": "uint256",
              "internalType": "uint256"
            },
            {
              "name": "yieldClaimed",
              "type": "uint256",
              "internalType": "uint256"
            },
            {
              "name": "joinedAt",
              "type": "uint256",
              "internalType": "uint256"
            },
            {
              "name": "active",
              "type": "bool",
              "internalType": "bool"
            }
          ]
        }
      ],
      "stateMutability": "view"
    },
    {
      "type": "function",
      "name": "getPoolInfo",
      "inputs": [
        {
          "name": "poolId",
          "type": "uint256",
          "internalType": "uint256"
        }
      ],
      "outputs": [
        {
          "name": "info",
          "type": "tuple",
          "internalType": "struct CooperativePool.PoolInfo",
          "components": [
            {
              "name": "poolId",
              "type": "uint256",
              "internalType": "uint256"
            },
            {
              "name": "name",
              "type": "string",
              "internalType": "string"
            },
            {
              "name": "creator",
              "type": "address",
              "internalType": "address"
            },
            {
              "name": "minContribution",
              "type": "uint256",
              "internalType": "uint256"
            },
            {
              "name": "maxContribution",
              "type": "uint256",
              "internalType": "uint256"
            },
            {
              "name": "maxMembers",
              "type": "uint256",
              "internalType": "uint256"
            },
            {
              "name": "currentMembers",
              "type": "uint256",
              "internalType": "uint256"
            },
            {
              "name": "totalBtcDeposited",
              "type": "uint256",
              "internalType": "uint256"
            },
            {
              "name": "totalMusdMinted",
              "type": "uint256",
              "internalType": "uint256"
            },
            {
              "name": "totalYieldGenerated",
              "type": "uint256",
              "internalType": "uint256"
            },
            {
              "name": "createdAt",
              "type": "uint256",
              "internalType": "uint256"
            },
            {
              "name": "status",
              "type": "uint8",
              "internalType": "enum CooperativePool.PoolStatus"
            },
            {
              "name": "allowNewMembers",
              "type": "bool",
              "internalType": "bool"
            }
          ]
        }
      ],
      "stateMutability": "view"
    },
    {
      "type": "function",
      "name": "getPoolMembers",
      "inputs": [
        {
          "name": "poolId",
          "type": "uint256",
          "internalType": "uint256"
        }
      ],
      "outputs": [
        {
          "name": "members",
          "type": "address[]",
          "internalType": "address[]"
        }
      ],
      "stateMutability": "view"
    },
    {
      "type": "function",
      "name": "getPoolStats",
      "inputs": [
        {
          "name": "poolId",
          "type": "uint256",
          "internalType": "uint256"
        }
      ],
      "outputs": [
        {
          "name": "totalBtc",
          "type": "uint256",
          "internalType": "uint256"
        },
        {
          "name": "totalMusd",
          "type": "uint256",
          "internalType": "uint256"
        },
        {
          "name": "totalYield",
          "type": "uint256",
          "internalType": "uint256"
        },
        {
          "name": "avgApr",
          "type": "uint256",
          "internalType": "uint256"
        }
      ],
      "stateMutability": "view"
    },
    {
      "type": "function",
      "name": "getTotalShares",
      "inputs": [
        {
          "name": "poolId",
          "type": "uint256",
          "internalType": "uint256"
        }
      ],
      "outputs": [
        {
          "name": "totalShares",
          "type": "uint256",
          "internalType": "uint256"
        }
      ],
      "stateMutability": "view"
    },
    {
      "type": "function",
      "name": "joinPool",
      "inputs": [
        {
          "name": "poolId",
          "type": "uint256",
          "internalType": "uint256"
        }
      ],
      "outputs": [],
      "stateMutability": "payable"
    },
    {
      "type": "function",
      "name": "leavePool",
      "inputs": [
        {
          "name": "poolId",
          "type": "uint256",
          "internalType": "uint256"
        }
      ],
      "outputs": [],
      "stateMutability": "nonpayable"
    },
    {
      "type": "function",
      "name": "owner",
      "inputs": [],
      "outputs": [
        {
          "name": "",
          "type": "address",
          "internalType": "address"
        }
      ],
      "stateMutability": "view"
    },
    {
      "type": "function",
      "name": "pause",
      "inputs": [],
      "outputs": [],
      "stateMutability": "nonpayable"
    },
    {
      "type": "function",
      "name": "paused",
      "inputs": [],
      "outputs": [
        {
          "name": "",
          "type": "bool",
          "internalType": "bool"
        }
      ],
      "stateMutability": "view"
    },
    {
      "type": "function",
      "name": "performanceFee",
      "inputs": [],
      "outputs": [
        {
          "name": "",
          "type": "uint256",
          "internalType": "uint256"
        }
      ],
      "stateMutability": "view"
    },
    {
      "type": "function",
      "name": "poolCounter",
      "inputs": [],
      "outputs": [
        {
          "name": "",
          "type": "uint256",
          "internalType": "uint256"
        }
      ],
      "stateMutability": "view"
    },
    {
      "type": "function",
      "name": "poolMembers",
      "inputs": [
        {
          "name": "",
          "type": "uint256",
          "internalType": "uint256"
        },
        {
          "name": "",
          "type": "address",
          "internalType": "address"
        }
      ],
      "outputs": [
        {
          "name": "btcContributed",
          "type": "uint256",
          "internalType": "uint256"
        },
        {
          "name": "shares",
          "type": "uint256",
          "internalType": "uint256"
        },
        {
          "name": "yieldClaimed",
          "type": "uint256",
          "internalType": "uint256"
        },
        {
          "name": "joinedAt",
          "type": "uint256",
          "internalType": "uint256"
        },
        {
          "name": "active",
          "type": "bool",
          "internalType": "bool"
        }
      ],
      "stateMutability": "view"
    },
    {
      "type": "function",
      "name": "poolMembersList",
      "inputs": [
        {
          "name": "",
          "type": "uint256",
          "internalType": "uint256"
        },
        {
          "name": "",
          "type": "uint256",
          "internalType": "uint256"
        }
      ],
      "outputs": [
        {
          "name": "",
          "type": "address",
          "internalType": "address"
        }
      ],
      "stateMutability": "view"
    },
    {
      "type": "function",
      "name": "pools",
      "inputs": [
        {
          "name": "",
          "type": "uint256",
          "internalType": "uint256"
        }
      ],
      "outputs": [
        {
          "name": "poolId",
          "type": "uint256",
          "internalType": "uint256"
        },
        {
          "name": "name",
          "type": "string",
          "internalType": "string"
        },
        {
          "name": "creator",
          "type": "address",
          "internalType": "address"
        },
        {
          "name": "minContribution",
          "type": "uint256",
          "internalType": "uint256"
        },
        {
          "name": "maxContribution",
          "type": "uint256",
          "internalType": "uint256"
        },
        {
          "name": "maxMembers",
          "type": "uint256",
          "internalType": "uint256"
        },
        {
          "name": "currentMembers",
          "type": "uint256",
          "internalType": "uint256"
        },
        {
          "name": "totalBtcDeposited",
          "type": "uint256",
          "internalType": "uint256"
        },
        {
          "name": "totalMusdMinted",
          "type": "uint256",
          "internalType": "uint256"
        },
        {
          "name": "totalYieldGenerated",
          "type": "uint256",
          "internalType": "uint256"
        },
        {
          "name": "createdAt",
          "type": "uint256",
          "internalType": "uint256"
        },
        {
          "name": "status",
          "type": "uint8",
          "internalType": "enum CooperativePool.PoolStatus"
        },
        {
          "name": "allowNewMembers",
          "type": "bool",
          "internalType": "bool"
        }
      ],
      "stateMutability": "view"
    },
    {
      "type": "function",
      "name": "renounceOwnership",
      "inputs": [],
      "outputs": [],
      "stateMutability": "nonpayable"
    },
    {
      "type": "function",
      "name": "setFeeCollector",
      "inputs": [
        {
          "name": "newCollector",
          "type": "address",
          "internalType": "address"
        }
      ],
      "outputs": [],
      "stateMutability": "nonpayable"
    },
    {
      "type": "function",
      "name": "setPerformanceFee",
      "inputs": [
        {
          "name": "newFee",
          "type": "uint256",
          "internalType": "uint256"
        }
      ],
      "outputs": [],
      "stateMutability": "nonpayable"
    },
    {
      "type": "function",
      "name": "transferOwnership",
      "inputs": [
        {
          "name": "newOwner",
          "type": "address",
          "internalType": "address"
        }
      ],
      "outputs": [],
      "stateMutability": "nonpayable"
    },
    {
      "type": "function",
      "name": "unpause",
      "inputs": [],
      "outputs": [],
      "stateMutability": "nonpayable"
    },
    {
      "type": "event",
      "name": "MemberJoined",
      "inputs": [
        {
          "name": "poolId",
          "type": "uint256",
          "indexed": true,
          "internalType": "uint256"
        },
        {
          "name": "member",
          "type": "address",
          "indexed": true,
          "internalType": "address"
        },
        {
          "name": "btcAmount",
          "type": "uint256",
          "indexed": false,
          "internalType": "uint256"
        },
        {
          "name": "shares",
          "type": "uint256",
          "indexed": false,
          "internalType": "uint256"
        }
      ],
      "anonymous": false
    },
    {
      "type": "event",
      "name": "MemberLeft",
      "inputs": [
        {
          "name": "poolId",
          "type": "uint256",
          "indexed": true,
          "internalType": "uint256"
        },
        {
          "name": "member",
          "type": "address",
          "indexed": true,
          "internalType": "address"
        },
        {
          "name": "btcAmount",
          "type": "uint256",
          "indexed": false,
          "internalType": "uint256"
        },
        {
          "name": "yieldAmount",
          "type": "uint256",
          "indexed": false,
          "internalType": "uint256"
        }
      ],
      "anonymous": false
    },
    {
      "type": "event",
      "name": "OwnershipTransferred",
      "inputs": [
        {
          "name": "previousOwner",
          "type": "address",
          "indexed": true,
          "internalType": "address"
        },
        {
          "name": "newOwner",
          "type": "address",
          "indexed": true,
          "internalType": "address"
        }
      ],
      "anonymous": false
    },
    {
      "type": "event",
      "name": "Paused",
      "inputs": [
        {
          "name": "account",
          "type": "address",
          "indexed": false,
          "internalType": "address"
        }
      ],
      "anonymous": false
    },
    {
      "type": "event",
      "name": "PoolClosed",
      "inputs": [
        {
          "name": "poolId",
          "type": "uint256",
          "indexed": true,
          "internalType": "uint256"
        },
        {
          "name": "finalBalance",
          "type": "uint256",
          "indexed": false,
          "internalType": "uint256"
        }
      ],
      "anonymous": false
    },
    {
      "type": "event",
      "name": "PoolCreated",
      "inputs": [
        {
          "name": "poolId",
          "type": "uint256",
          "indexed": true,
          "internalType": "uint256"
        },
        {
          "name": "creator",
          "type": "address",
          "indexed": true,
          "internalType": "address"
        },
        {
          "name": "name",
          "type": "string",
          "indexed": false,
          "internalType": "string"
        },
        {
          "name": "minContribution",
          "type": "uint256",
          "indexed": false,
          "internalType": "uint256"
        },
        {
          "name": "maxMembers",
          "type": "uint256",
          "indexed": false,
          "internalType": "uint256"
        }
      ],
      "anonymous": false
    },
    {
      "type": "event",
      "name": "PoolStatusUpdated",
      "inputs": [
        {
          "name": "poolId",
          "type": "uint256",
          "indexed": true,
          "internalType": "uint256"
        },
        {
          "name": "newStatus",
          "type": "uint8",
          "indexed": false,
          "internalType": "enum CooperativePool.PoolStatus"
        }
      ],
      "anonymous": false
    },
    {
      "type": "event",
      "name": "Unpaused",
      "inputs": [
        {
          "name": "account",
          "type": "address",
          "indexed": false,
          "internalType": "address"
        }
      ],
      "anonymous": false
    },
    {
      "type": "event",
      "name": "YieldClaimed",
      "inputs": [
        {
          "name": "poolId",
          "type": "uint256",
          "indexed": true,
          "internalType": "uint256"
        },
        {
          "name": "member",
          "type": "address",
          "indexed": true,
          "internalType": "address"
        },
        {
          "name": "yieldAmount",
          "type": "uint256",
          "indexed": false,
          "internalType": "uint256"
        }
      ],
      "anonymous": false
    },
    {
      "type": "event",
      "name": "YieldDistributed",
      "inputs": [
        {
          "name": "poolId",
          "type": "uint256",
          "indexed": true,
          "internalType": "uint256"
        },
        {
          "name": "totalYield",
          "type": "uint256",
          "indexed": false,
          "internalType": "uint256"
        },
        {
          "name": "membersCount",
          "type": "uint256",
          "indexed": false,
          "internalType": "uint256"
        }
      ],
      "anonymous": false
    },
    {
      "type": "error",
      "name": "AddressEmptyCode",
      "inputs": [
        {
          "name": "target",
          "type": "address",
          "internalType": "address"
        }
      ]
    },
    {
      "type": "error",
      "name": "AddressInsufficientBalance",
      "inputs": [
        {
          "name": "account",
          "type": "address",
          "internalType": "address"
        }
      ]
    },
    {
      "type": "error",
      "name": "AlreadyMember",
      "inputs": []
    },
    {
      "type": "error",
      "name": "ContributionTooHigh",
      "inputs": []
    },
    {
      "type": "error",
      "name": "ContributionTooLow",
      "inputs": []
    },
    {
      "type": "error",
      "name": "EnforcedPause",
      "inputs": []
    },
    {
      "type": "error",
      "name": "ExpectedPause",
      "inputs": []
    },
    {
      "type": "error",
      "name": "FailedInnerCall",
      "inputs": []
    },
    {
      "type": "error",
      "name": "InsufficientPoolSize",
      "inputs": []
    },
    {
      "type": "error",
      "name": "InvalidAddress",
      "inputs": []
    },
    {
      "type": "error",
      "name": "InvalidAmount",
      "inputs": []
    },
    {
      "type": "error",
      "name": "InvalidFee",
      "inputs": []
    },
    {
      "type": "error",
      "name": "InvalidMaxMembers",
      "inputs": []
    },
    {
      "type": "error",
      "name": "InvalidPoolId",
      "inputs": []
    },
    {
      "type": "error",
      "name": "NoYieldToClaim",
      "inputs": []
    },
    {
      "type": "error",
      "name": "NotMember",
      "inputs": []
    },
    {
      "type": "error",
      "name": "OwnableInvalidOwner",
      "inputs": [
        {
          "name": "owner",
          "type": "address",
          "internalType": "address"
        }
      ]
    },
    {
      "type": "error",
      "name": "OwnableUnauthorizedAccount",
      "inputs": [
        {
          "name": "account",
          "type": "address",
          "internalType": "address"
        }
      ]
    },
    {
      "type": "error",
      "name": "PoolFull",
      "inputs": []
    },
    {
      "type": "error",
      "name": "PoolNotAcceptingMembers",
      "inputs": []
    },
    {
      "type": "error",
      "name": "PoolNotActive",
      "inputs": []
    },
    {
      "type": "error",
      "name": "ReentrancyGuardReentrantCall",
      "inputs": []
    },
    {
      "type": "error",
      "name": "SafeERC20FailedOperation",
      "inputs": [
        {
          "name": "token",
          "type": "address",
          "internalType": "address"
        }
      ]
    }
  ],
  "bytecode": {
    "object": "0x60e0346101dc57601f61309238819003918201601f19168301916001600160401b038311848410176101e1578084926080946040528339810103126101dc57610047816101f7565b90610054602082016101f7565b9061006d6060610066604084016101f7565b92016101f7565b9033156101c3576000549260018060a01b03938460018060a01b031996338884161760005560405192823391167f8be0079c531659141344cd1fd0a4f28419497f9722a3daafe3b4186f6b6457e0600080a36001805560ff196002541660025560646007551690811580156101b9575b80156101af575b80156101a5575b610196575084929183916080521660a0521660c05216906008541617600855604051612e86908161020c82396080518181816101b701528181610e180152611df2015260a051818181610f3801528181610ffc0152818161128501528181611578015281816118ad01528181611e2b01526128db015260c051818181610c7901528181610daa01528181610e4001528181611073015281816116c9015281816117800152611e520152f35b63e6c4247b60e01b8152600490fd5b50858516156100eb565b50858416156100e4565b50858316156100dd565b604051631e4fbdf760e01b815260006004820152602490fd5b600080fd5b634e487b7160e01b600052604160045260246000fd5b51906001600160a01b03821682036101dc5756fe608080604052600436101561001d575b50361561001b57600080fd5b005b60003560e01c9081631db8e04f1461230c575080631e67939e1461222e5780632f380b351461203357806334e7a19f14611bd3578063368e950f14611baf57806337de615f14611aee5780633f4ba83a14611a4e57806340650c9114611a2c57806340bd2e23146116ed57806343a826211461169c5780635c975abb14611679578063601acc92146115f25780636791799d1461146357806370897b231461140f578063715018a6146113915780638456cb591461131957806385fff858146112fb57806387788782146112dd5780638da5cb5b146112a957806396f3556b146112585780639ca53f8214610ae35780639e3079cb14610ac5578063a208298b146105dc578063a42dce8014610547578063ac4afa3814610459578063b1219e7314610387578063bdffaf7b14610365578063c415b95c14610331578063c60b6e2d146102d2578063ef5207d3146102a4578063f2fde38b146101e05763fc2c01f81461018a573861000f565b346101db5760006003193601126101db57602060405173ffffffffffffffffffffffffffffffffffffffff7f0000000000000000000000000000000000000000000000000000000000000000168152f35b600080fd5b346101db5760206003193601126101db576101f9612349565b610201612729565b73ffffffffffffffffffffffffffffffffffffffff80911690811561027357600054827fffffffffffffffffffffffff0000000000000000000000000000000000000000821617600055167f8be0079c531659141344cd1fd0a4f28419497f9722a3daafe3b4186f6b6457e0600080a3005b60246040517f1e4fbdf700000000000000000000000000000000000000000000000000000000815260006004820152fd5b346101db5760406003193601126101db5760206102ca6102c2612326565b60043561277a565b604051908152f35b346101db5760406003193601126101db57602435600435600052600660205260406000209081548110156101db5761032173ffffffffffffffffffffffffffffffffffffffff916020936125a2565b9190546040519260031b1c168152f35b346101db5760006003193601126101db57602073ffffffffffffffffffffffffffffffffffffffff60085416604051908152f35b346101db5760006003193601126101db576020604051662386f26fc100008152f35b346101db576020806003193601126101db5760043560005260068152604060002060405190818382549182815201908192600052846000209060005b8682821061042f5786866103d982880383612410565b604051928392818401908285525180915260408401929160005b82811061040257505050500390f35b835173ffffffffffffffffffffffffffffffffffffffff16855286955093810193928101926001016103f3565b835473ffffffffffffffffffffffffffffffffffffffff16855290930192600192830192016103c3565b346101db5760206003193601126101db57600435600052600460205260406000208054610488600183016124de565b9160ff73ffffffffffffffffffffffffffffffffffffffff60028301541691600381015490600481015460058201546006830154600784015490600885015492600986015494600b600a880154970154976104f66040519d8e9d8e6101a0918152816020820152019061236c565b9a60408d015260608c015260808b015260a08a015260c089015260e088015261010087015261012086015261014085015261053761016085018383166123ca565b60081c1615156101808301520390f35b346101db5760206003193601126101db5773ffffffffffffffffffffffffffffffffffffffff610575612349565b61057d612729565b1680156105b2577fffffffffffffffffffffffff00000000000000000000000000000000000000006008541617600855600080f35b60046040517fe6c4247b000000000000000000000000000000000000000000000000000000008152fd5b346101db5760806003193601126101db5760043567ffffffffffffffff81116101db57366023820112156101db57806004013561061881612451565b916106266040519384612410565b81835236602483830101116101db5781600092602460209301838601378301015261064f6126f3565b66038d7ea4c6800060243510610a9b5760243560443510610a7157606435158015610a66575b610a3c576106846003546125f5565b8060035560405191610695836123f3565b8183528060208401523360408401526024356060840152604435608084015260643560a0840152600060c0840152600060e0840152600061010084015260006101208401524261014084015260006101608401526001610180840152816000526004602052604060002083518155602084015180519067ffffffffffffffff8211610a0d57610727600184015461248b565b601f81116109c6575b50602090601f83116001146108f957600b939291600091836108ee575b50507fffffffffffffffffffffffffffffffffffffffffffffffffffffffffffffffff8260011b9260031b1c19161760018201555b6002810173ffffffffffffffffffffffffffffffffffffffff6040870151167fffffffffffffffffffffffff0000000000000000000000000000000000000000825416179055606085015160038201556080850151600482015560a0850151600582015560c0850151600682015560e0850151600782015561010085015160088201556101208501516009820155610140850151600a8201550161016084015160038110156108bf576020947fffffffffffffffffffffffffffffffffffffffffffffffffffffffffffff000060ff61ff006101808654940151151560081b169316911617179055817f6b2cd9245bdaf1bd7efb949be8dda6f04eb47f617845ff6b94eea67f6ce424a86108a16040519360608552606085019061236c565b926024358682015260643560408201528033940390a3604051908152f35b7f4e487b7100000000000000000000000000000000000000000000000000000000600052602160045260246000fd5b01519050878061074d565b906001840160005260206000209160005b7fffffffffffffffffffffffffffffffffffffffffffffffffffffffffffffffe0851681106109ae5750918391600193837fffffffffffffffffffffffffffffffffffffffffffffffffffffffffffffffe0600b98971610610977575b505050811b016001820155610782565b01517fffffffffffffffffffffffffffffffffffffffffffffffffffffffffffffffff60f88460031b161c19169055878080610967565b9192602060018192868501518155019401920161090a565b600184016000526020600020601f840160051c810160208510610a06575b601f830160051c820181106109fa575050610730565b600081556001016109e4565b50806109e4565b7f4e487b7100000000000000000000000000000000000000000000000000000000600052604160045260246000fd5b60046040517f15f6ef65000000000000000000000000000000000000000000000000000000008152fd5b506064803511610675565b60046040517f2c5211c6000000000000000000000000000000000000000000000000000000008152fd5b60046040517fd8eb236a000000000000000000000000000000000000000000000000000000008152fd5b346101db5760006003193601126101db576020600354604051908152f35b346101db5760206003193601126101db57610afc6126b8565b600435600052600460205260406000206005602052604060002033600052602052604060002081541561122e57600481019182549160ff83161561120457610b463360043561277a565b92815494610b55600435612a50565b916001840154670de0b6b3a7640000810290808204670de0b6b3a764000014901517156111d55783610b8691612642565b917fffffffffffffffffffffffffffffffffffffffffffffffffffffffffffffff00600887015492169055600685015480156111d5577fffffffffffffffffffffffffffffffffffffffffffffffffffffffffffffffff0160068601558354610bf46007870191825461267b565b905580610d35575b5050505050600080808085335af1610c12612688565b5015610cd75780610c59575b604051918252602082015233907fd235bbedc714340f7a334376fcda1e9b0c8dcbb7e3918a16494a8718835e6bc4604060043592a360018055005b612710610c686007548361262f565b04610c73818361267b565b90610ca07f00000000000000000000000000000000000000000000000000000000000000009233846129e9565b80610cad575b5050610c1e565b610cd09173ffffffffffffffffffffffffffffffffffffffff60085416906129e9565b8280610ca6565b60646040517f08c379a000000000000000000000000000000000000000000000000000000000815260206004820152601360248201527f425443207472616e73666572206661696c6564000000000000000000000000006044820152fd5b670de0b6b3a7640000929394965090610d4d9161262f565b04936008610d5e868284015461267b565b9101556040517f70a0823100000000000000000000000000000000000000000000000000000000815230600482015260208160248173ffffffffffffffffffffffffffffffffffffffff7f0000000000000000000000000000000000000000000000000000000000000000165afa908115610ee3576000916111a3575b50610de68486612622565b928382108061119a575b610eef575b50505050906020600091602473ffffffffffffffffffffffffffffffffffffffff7f00000000000000000000000000000000000000000000000000000000000000001691610e6481847f0000000000000000000000000000000000000000000000000000000000000000612b99565b60405194859384927f7c695cc100000000000000000000000000000000000000000000000000000000845260048401525af1908115610ee357600091610eb1575b50908280808080610bfc565b90506020813d602011610edb575b81610ecc60209383612410565b810103126101db575182610ea5565b3d9150610ebf565b6040513d6000823e3d90fd5b6040517f5b7c2dad00000000000000000000000000000000000000000000000000000000815230600482015260408160248173ffffffffffffffffffffffffffffffffffffffff7f0000000000000000000000000000000000000000000000000000000000000000165afa908115610ee35760009060009261115b575b50610f92926001610f84610f989794610f8d94612622565b9101549061262f565b612642565b9261267b565b908082101561115457505b80610fb1575b808080610df5565b604051907f2e1a7d4d0000000000000000000000000000000000000000000000000000000082526004820152602081602481600073ffffffffffffffffffffffffffffffffffffffff7f0000000000000000000000000000000000000000000000000000000000000000165af19081611129575b5061111e576040517f70a0823100000000000000000000000000000000000000000000000000000000815230600482015260208160248173ffffffffffffffffffffffffffffffffffffffff7f0000000000000000000000000000000000000000000000000000000000000000165afa918215610ee35783916000936110e7575b508183106110d9576110bc60209260009461267b565b9080821084146110d257505b925b929150610fa9565b90506110c8565b5050506000602081926110ca565b915091506020813d602011611116575b8161110460209383612410565b810103126101db5782905191846110a6565b3d91506110f7565b9060206000916110ca565b602090813d831161114d575b61113f8183612410565b810103126101db5783611025565b503d611135565b9050610fa3565b949150506040843d604011611192575b8161117860409383612410565b810103126101db5783516020909401519093610f92610f6c565b3d915061116b565b50841515610df0565b90506020813d6020116111cd575b816111be60209383612410565b810103126101db575185610ddb565b3d91506111b1565b7f4e487b7100000000000000000000000000000000000000000000000000000000600052601160045260246000fd5b60046040517f291fc442000000000000000000000000000000000000000000000000000000008152fd5b60046040517f0afa7ee8000000000000000000000000000000000000000000000000000000008152fd5b346101db5760006003193601126101db57602060405173ffffffffffffffffffffffffffffffffffffffff7f0000000000000000000000000000000000000000000000000000000000000000168152f35b346101db5760006003193601126101db57602073ffffffffffffffffffffffffffffffffffffffff60005416604051908152f35b346101db5760006003193601126101db576020600754604051908152f35b346101db5760206003193601126101db5760206102ca600435612a50565b346101db5760006003193601126101db57611332612729565b61133a6126f3565b60017fffffffffffffffffffffffffffffffffffffffffffffffffffffffffffffff0060025416176002557f62e78cea01bee320cd4e420270b5ea74000d11b0c9f74754ebdbfc544b05a2586020604051338152a1005b346101db5760006003193601126101db576113aa612729565b600073ffffffffffffffffffffffffffffffffffffffff81547fffffffffffffffffffffffff000000000000000000000000000000000000000081168355167f8be0079c531659141344cd1fd0a4f28419497f9722a3daafe3b4186f6b6457e08280a3005b346101db5760206003193601126101db5760043561142b612729565b6103e8811161143957600755005b60046040517f58d620b3000000000000000000000000000000000000000000000000000000008152fd5b346101db576020806003193601126101db57600490813560005281815260406000209060405191611493836123f3565b805483526114a3600182016124de565b8284015273ffffffffffffffffffffffffffffffffffffffff9081600282015416604085015260038101546060850152848101546080850152600581015460a0850152600681015460c085015282600782015460e08601908152600883015495610100810196875261018060ff600b6009870154966101208501978852600a810154610140860152015461153d82821661016086016125e9565b60081c161515910152519451915192604051968780927f5011ec7a0000000000000000000000000000000000000000000000000000000082527f0000000000000000000000000000000000000000000000000000000000000000165afa928315610ee3576000936115c2575b6080955060405194855284015260408301526060820152f35b80935085813d83116115eb575b6115d98183612410565b810103126101db5760809451926115a9565b503d6115cf565b346101db5760406003193601126101db5761160b612326565b600435600052600560205273ffffffffffffffffffffffffffffffffffffffff6040600020911660005260205260a06040600020805490600181015490600281015460ff60046003840154930154169260405194855260208501526040840152606083015215156080820152f35b346101db5760006003193601126101db57602060ff600254166040519015158152f35b346101db5760006003193601126101db57602060405173ffffffffffffffffffffffffffffffffffffffff7f0000000000000000000000000000000000000000000000000000000000000000168152f35b346101db576020806003193601126101db5760043561170a6126b8565b8060005260048252604060002090600583526040600020336000528352604060002091541561122e5760ff600483015416156112045761174a338261277a565b9283156119505761271093846117626007548361262f565b04600261176f828461267b565b950161177c838254612622565b90557f00000000000000000000000000000000000000000000000000000000000000009573ffffffffffffffffffffffffffffffffffffffff92838816906040517f70a0823100000000000000000000000000000000000000000000000000000000918282523060048301528782602481875afa918215610ee3576000926119fd575b5080821061186a575b5050505050849561183c7f1448cb68839238fd008abe5bad73d996f9849e020313466fa9f3476d98006df2959633836129e9565b81611854575b5050506040519384523393a360018055005b6118629260085416906129e9565b848080611842565b9061187b919993959294989961267b565b506040517f406cf22900000000000000000000000000000000000000000000000000000000815286808260048160008b7f0000000000000000000000000000000000000000000000000000000000000000165af191826119d4575b50506119a7575050839060246040518094819382523060048301525afa908115610ee35760009161197a575b508015611950576119427f1448cb68839238fd008abe5bad73d996f9849e020313466fa9f3476d98006df29461193a6007548461262f565b04809261267b565b955b95949387808080611808565b60046040517fb2b8dcdc000000000000000000000000000000000000000000000000000000008152fd5b90508281813d83116119a0575b6119918183612410565b810103126101db575186611902565b503d611987565b92509690507f1448cb68839238fd008abe5bad73d996f9849e020313466fa9f3476d98006df29450611944565b813d83116119f6575b6119e78183612410565b810103126101db57868b6118d6565b503d6119dd565b9091508781813d8311611a25575b611a158183612410565b810103126101db5751908b6117ff565b503d611a0b565b346101db5760006003193601126101db57602060405166038d7ea4c680008152f35b346101db5760006003193601126101db57611a67612729565b60025460ff811615611ac4577fffffffffffffffffffffffffffffffffffffffffffffffffffffffffffffff00166002557f5db9ee0a495bf2e6ff9c91a7834c1ba4fdd244a5e8aa4e537bd38aeae4b073aa6020604051338152a1005b60046040517f8dfc202b000000000000000000000000000000000000000000000000000000008152fd5b346101db5760206003193601126101db57600435806000526004602052604060002080541561122e5773ffffffffffffffffffffffffffffffffffffffff806002830154163314159081611ba0575b506105b2576020600782600b7faf7faf29a251efa1bcf2b47dab1a72baa0906a2e4ff957e6cb6d4f7c642161ab940160027fffffffffffffffffffffffffffffffffffffffffffffffffffffffffffff00008254161790550154604051908152a2005b90506000541633141583611b3d565b346101db5760006003193601126101db57602060405168056bc75e2d631000008152f35b6020806003193601126101db5760043590611bec6126b8565b611bf46126f3565b816000526004815260406000209182541561122e5760ff600b84015460081c16156120095760068301805460058501541115611fdf578160005260058352604060002033600052835260ff60046040600020015416611fb55760038401543410610a9b5760048401543411611f8b5760405190611c70826123d7565b3482528382019434865260046040840193600085526060810142815260808201956001998a88528860005260058a526040600020336000528a52604060002093518455518a8401555160028301555160038201550192511515927fffffffffffffffffffffffffffffffffffffffffffffffffffffffffffffff009360ff858354169116179055836000526006855260406000209081549068010000000000000000821015610a0d57611d3282662386f26fc10000948a6007950181556125a2565b949080549560031b73ffffffffffffffffffffffffffffffffffffffff968733831b921b1916179055611d6581546125f5565b905501611d73348254612622565b8091551015611db5575b50506040519134835234908301527fd1c23df765b8db6e8e7b2077d1e985dc2c7b79dcd08cc1a6dc48b566bddeea7360403393a38055005b82600052600484526040600020604051917f38c35490000000000000000000000000000000000000000000000000000000008352858360048134857f0000000000000000000000000000000000000000000000000000000000000000165af1928315610ee357600093611f5c575b5060006040827f000000000000000000000000000000000000000000000000000000000000000016611e7686827f0000000000000000000000000000000000000000000000000000000000000000612b99565b60248251809481937fb6b55f250000000000000000000000000000000000000000000000000000000083528960048401525af18015610ee357611f23575b5050600b91611ec860088301918254612622565b9055019081549060ff82169160038310156108bf57869215611eec575b5050611d7d565b16179055807ff23f81825d004be688e56e2e60f70dfa6e0007947618aa870d4c32693cbedf3383604051868152a283838180611ee5565b6040813d604011611f54575b81611f3c60409383612410565b810103126101db5751908116036101db578680611eb4565b3d9150611f2f565b9092508581813d8311611f84575b611f748183612410565b810103126101db57519187611e23565b503d611f6a565b60046040517fbca119a6000000000000000000000000000000000000000000000000000000008152fd5b60046040517f810074be000000000000000000000000000000000000000000000000000000008152fd5b60046040517f9e80781c000000000000000000000000000000000000000000000000000000008152fd5b60046040517fd3f4a639000000000000000000000000000000000000000000000000000000008152fd5b346101db5760206003193601126101db576000610180604051612055816123f3565b828152606060208201528260408201528260608201528260808201528260a08201528260c08201528260e08201528261010082015282610120820152826101408201528261016082015201526004356000526004602052604060002060ff600b604051926120c2846123f3565b805484526120d2600182016124de565b602085015273ffffffffffffffffffffffffffffffffffffffff60028201541660408501526003810154606085015260048101546080850152600581015460a0850152600681015460c0850152600781015460e085015260088101546101008501526009810154610120850152600a810154610140850152015461215c82821661016085016125e9565b60081c1615156101808201526040518091602082528051602083015261018061219660208301516101a060408601526101c085019061236c565b9173ffffffffffffffffffffffffffffffffffffffff604082015116606085015260608101516080850152608081015160a085015260a081015160c085015260c081015160e085015260e0810151610100850152610100810151610120850152610120810151610140850152610140810151610160850152612220610160820151838601906123ca565b015115156101a08301520390f35b346101db5760406003193601126101db57612247612326565b60006080604051612257816123d7565b8281528260208201528260408201528260608201520152600435600052600560205273ffffffffffffffffffffffffffffffffffffffff6040600020911660005260205260a060406000206040516122ae816123d7565b81549182825260018101546020830190815260028201549060408401918252608060ff600460038601549560608801968752015416940193151584526040519485525160208501525160408401525160608301525115156080820152f35b346101db5760006003193601126101db5780606460209252f35b6024359073ffffffffffffffffffffffffffffffffffffffff821682036101db57565b6004359073ffffffffffffffffffffffffffffffffffffffff821682036101db57565b919082519283825260005b8481106123b65750507fffffffffffffffffffffffffffffffffffffffffffffffffffffffffffffffe0601f8460006020809697860101520116010190565b602081830181015184830182015201612377565b9060038210156108bf5752565b60a0810190811067ffffffffffffffff821117610a0d57604052565b6101a0810190811067ffffffffffffffff821117610a0d57604052565b90601f7fffffffffffffffffffffffffffffffffffffffffffffffffffffffffffffffe0910116810190811067ffffffffffffffff821117610a0d57604052565b67ffffffffffffffff8111610a0d57601f017fffffffffffffffffffffffffffffffffffffffffffffffffffffffffffffffe01660200190565b90600182811c921680156124d4575b60208310146124a557565b7f4e487b7100000000000000000000000000000000000000000000000000000000600052602260045260246000fd5b91607f169161249a565b906040519182600082546124f18161248b565b908184526020946001916001811690816000146125615750600114612522575b50505061252092500383612410565b565b600090815285812095935091905b8183106125495750506125209350820101388080612511565b85548884018501529485019487945091830191612530565b9150506125209593507fffffffffffffffffffffffffffffffffffffffffffffffffffffffffffffff0091501682840152151560051b820101388080612511565b80548210156125ba5760005260206000200190600090565b7f4e487b7100000000000000000000000000000000000000000000000000000000600052603260045260246000fd5b60038210156108bf5752565b7fffffffffffffffffffffffffffffffffffffffffffffffffffffffffffffffff81146111d55760010190565b919082018092116111d557565b818102929181159184041417156111d557565b811561264c570490565b7f4e487b7100000000000000000000000000000000000000000000000000000000600052601260045260246000fd5b919082039182116111d557565b3d156126b3573d9061269982612451565b916126a76040519384612410565b82523d6000602084013e565b606090565b6002600154146126c9576002600155565b60046040517f3ee5aeb5000000000000000000000000000000000000000000000000000000008152fd5b60ff600254166126ff57565b60046040517fd93c0665000000000000000000000000000000000000000000000000000000008152fd5b73ffffffffffffffffffffffffffffffffffffffff60005416330361274a57565b60246040517f118cdaa7000000000000000000000000000000000000000000000000000000008152336004820152fd5b906000918083526020906005825260409081852073ffffffffffffffffffffffffffffffffffffffff80951686528352818520938251936127ba856123d7565b8554855260018601549481810195865260ff6004600289015498878401998a52600381015460608501520154161590608082159101526129e057828752600481528387208451612809816123f3565b81548152612819600183016124de565b8382015283600283015416868201526003820154606082015260048201546080820152600582015460a0820152600682015460c0820152600782015460e082015261018060ff600b60088501549461010085019586526009810154610120860152600a810154610140860152015461289782821661016086016125e9565b60081c16151591015251156129e057806024928551938480927f537bb1370000000000000000000000000000000000000000000000000000000082523060048301527f0000000000000000000000000000000000000000000000000000000000000000165afa9384156129d7575086936129a1575b505061291790612a50565b91821561299a575191670de0b6b3a7640000928381029080820485149015171561296d5761294f929161294991612642565b9061262f565b915191048181111561296857612965925061267b565b90565b505090565b6024867f4e487b710000000000000000000000000000000000000000000000000000000081526011600452fd5b5050505090565b9080929350813d83116129d0575b6129b98183612410565b810103126129cc5751906129173861290c565b8480fd5b503d6129af565b513d88823e3d90fd5b50505050505090565b6040517fa9059cbb00000000000000000000000000000000000000000000000000000000602082015273ffffffffffffffffffffffffffffffffffffffff92909216602483015260448083019390935291815261252091612a4b606483612410565b612d17565b9060008092808452602090600682526040908186209082518083868295549384815201908a52868a20928a5b88828210612b6d57505050612a9392500383612410565b865b8251811015612b64578188526005808652848920908451831015612b3757868373ffffffffffffffffffffffffffffffffffffffff921b86010151168952855283882060808551612ae5816123d7565b8254815260ff6004600185015494858b85015260028101548a8501526003810154606085015201541615159182910152612b23575b50600101612a95565b612b309060019297612622565b9590612b1a565b60248a7f4e487b710000000000000000000000000000000000000000000000000000000081526032600452fd5b50505050509150565b855473ffffffffffffffffffffffffffffffffffffffff16845260019586019588955093019201612a7c565b6040517f095ea7b3000000000000000000000000000000000000000000000000000000006020820181815273ffffffffffffffffffffffffffffffffffffffff8516602484015260448084019690965294825294939092612bfb606485612410565b73ffffffffffffffffffffffffffffffffffffffff90818416600080809588519082855af190612c29612688565b82612ccd575b5081612cc2575b5015612c46575b50505050509050565b60405196602088015216602486015280604486015260448552608085019085821067ffffffffffffffff831117612c955750612c8a9394612a4b9160405282612d17565b803880808080612c3d565b807f4e487b7100000000000000000000000000000000000000000000000000000000602492526041600452fd5b90503b151538612c36565b80519192508115918215612ce5575b50509038612c2f565b612cf89250602080918301019101612cff565b3880612cdc565b908160209103126101db575180151581036101db5790565b60008073ffffffffffffffffffffffffffffffffffffffff612d4e93169360208151910182865af1612d47612688565b9083612db0565b8051908115159182612d95575b5050612d645750565b602490604051907f5274afe70000000000000000000000000000000000000000000000000000000082526004820152fd5b612da89250602080918301019101612cff565b153880612d5b565b90612def5750805115612dc557805190602001fd5b60046040517f1425ea42000000000000000000000000000000000000000000000000000000008152fd5b81511580612e47575b612e00575090565b60249073ffffffffffffffffffffffffffffffffffffffff604051917f9996b315000000000000000000000000000000000000000000000000000000008352166004820152fd5b50803b15612df856fea264697066735822122087ff97cb2badac0244b53cd9ca82e6753c3a530f99e3aaa87f5ea439d9158b3164736f6c63430008190033",
    "linkReferences": {}
  },
  "methodIdentifiers": {
    "MAX_MEMBERS_LIMIT()": "1db8e04f",
    "MAX_POOL_SIZE()": "368e950f",
    "MEZO_INTEGRATION()": "fc2c01f8",
    "MIN_CONTRIBUTION()": "40650c91",
    "MIN_POOL_SIZE()": "bdffaf7b",
    "MUSD()": "43a82621",
    "YIELD_AGGREGATOR()": "96f3556b",
    "calculateMemberYield(uint256,address)": "ef5207d3",
    "claimYield(uint256)": "40bd2e23",
    "closePool(uint256)": "37de615f",
    "createPool(string,uint256,uint256,uint256)": "a208298b",
    "feeCollector()": "c415b95c",
    "getMemberInfo(uint256,address)": "1e67939e",
    "getPoolInfo(uint256)": "2f380b35",
    "getPoolMembers(uint256)": "b1219e73",
    "getPoolStats(uint256)": "6791799d",
    "getTotalShares(uint256)": "85fff858",
    "joinPool(uint256)": "34e7a19f",
    "leavePool(uint256)": "9ca53f82",
    "owner()": "8da5cb5b",
    "pause()": "8456cb59",
    "paused()": "5c975abb",
    "performanceFee()": "87788782",
    "poolCounter()": "9e3079cb",
    "poolMembers(uint256,address)": "601acc92",
    "poolMembersList(uint256,uint256)": "c60b6e2d",
    "pools(uint256)": "ac4afa38",
    "renounceOwnership()": "715018a6",
    "setFeeCollector(address)": "a42dce80",
    "setPerformanceFee(uint256)": "70897b23",
    "transferOwnership(address)": "f2fde38b",
    "unpause()": "3f4ba83a"
  },
  "id": 38
}