{
  "abi": [
    {
      "type": "constructor",
      "inputs": [],
      "stateMutability": "nonpayable"
    },
    {
      "type": "function",
      "name": "AUTO_COMPOUND_THRESHOLD",
      "inputs": [],
      "outputs": [
        {
          "name": "",
          "type": "uint256",
          "internalType": "uint256"
        }
      ],
      "stateMutability": "view"
    },
    {
      "type": "function",
      "name": "MAX_DEPOSIT",
      "inputs": [],
      "outputs": [
        {
          "name": "",
          "type": "uint256",
          "internalType": "uint256"
        }
      ],
      "stateMutability": "view"
    },
    {
      "type": "function",
      "name": "MIN_DEPOSIT",
      "inputs": [],
      "outputs": [
        {
          "name": "",
          "type": "uint256",
          "internalType": "uint256"
        }
      ],
      "stateMutability": "view"
    },
    {
      "type": "function",
      "name": "MIN_WITHDRAWAL",
      "inputs": [],
      "outputs": [
        {
          "name": "",
          "type": "uint256",
          "internalType": "uint256"
        }
      ],
      "stateMutability": "view"
    },
    {
      "type": "function",
      "name": "MUSD",
      "inputs": [],
      "outputs": [
        {
          "name": "",
          "type": "address",
          "internalType": "contract IERC20"
        }
      ],
      "stateMutability": "view"
    },
    {
      "type": "function",
      "name": "UPGRADE_INTERFACE_VERSION",
      "inputs": [],
      "outputs": [
        {
          "name": "",
          "type": "string",
          "internalType": "string"
        }
      ],
      "stateMutability": "view"
    },
    {
      "type": "function",
      "name": "YIELD_AGGREGATOR",
      "inputs": [],
      "outputs": [
        {
          "name": "",
          "type": "address",
          "internalType": "contract IYieldAggregator"
        }
      ],
      "stateMutability": "view"
    },
    {
      "type": "function",
      "name": "claimReferralRewards",
      "inputs": [],
      "outputs": [
        {
          "name": "",
          "type": "uint256",
          "internalType": "uint256"
        }
      ],
      "stateMutability": "nonpayable"
    },
    {
      "type": "function",
      "name": "claimYield",
      "inputs": [],
      "outputs": [
        {
          "name": "netYield",
          "type": "uint256",
          "internalType": "uint256"
        }
      ],
      "stateMutability": "nonpayable"
    },
    {
      "type": "function",
      "name": "deposit",
      "inputs": [
        {
          "name": "musdAmount",
          "type": "uint256",
          "internalType": "uint256"
        }
      ],
      "outputs": [],
      "stateMutability": "nonpayable"
    },
    {
      "type": "function",
      "name": "depositWithReferral",
      "inputs": [
        {
          "name": "musdAmount",
          "type": "uint256",
          "internalType": "uint256"
        },
        {
          "name": "referrer",
          "type": "address",
          "internalType": "address"
        }
      ],
      "outputs": [],
      "stateMutability": "nonpayable"
    },
    {
      "type": "function",
      "name": "emergencyMode",
      "inputs": [],
      "outputs": [
        {
          "name": "",
          "type": "bool",
          "internalType": "bool"
        }
      ],
      "stateMutability": "view"
    },
    {
      "type": "function",
      "name": "feeCollector",
      "inputs": [],
      "outputs": [
        {
          "name": "",
          "type": "address",
          "internalType": "address"
        }
      ],
      "stateMutability": "view"
    },
    {
      "type": "function",
      "name": "getReferralStats",
      "inputs": [
        {
          "name": "user",
          "type": "address",
          "internalType": "address"
        }
      ],
      "outputs": [
        {
          "name": "count",
          "type": "uint256",
          "internalType": "uint256"
        },
        {
          "name": "rewards",
          "type": "uint256",
          "internalType": "uint256"
        },
        {
          "name": "referrer",
          "type": "address",
          "internalType": "address"
        }
      ],
      "stateMutability": "view"
    },
    {
      "type": "function",
      "name": "getUserInfo",
      "inputs": [
        {
          "name": "user",
          "type": "address",
          "internalType": "address"
        }
      ],
      "outputs": [
        {
          "name": "deposit",
          "type": "uint256",
          "internalType": "uint256"
        },
        {
          "name": "yields",
          "type": "uint256",
          "internalType": "uint256"
        },
        {
          "name": "netYields",
          "type": "uint256",
          "internalType": "uint256"
        },
        {
          "name": "daysActive",
          "type": "uint256",
          "internalType": "uint256"
        },
        {
          "name": "estimatedAPR",
          "type": "uint256",
          "internalType": "uint256"
        },
        {
          "name": "autoCompoundEnabled",
          "type": "bool",
          "internalType": "bool"
        }
      ],
      "stateMutability": "view"
    },
    {
      "type": "function",
      "name": "getUserTotalBalance",
      "inputs": [
        {
          "name": "user",
          "type": "address",
          "internalType": "address"
        }
      ],
      "outputs": [
        {
          "name": "total",
          "type": "uint256",
          "internalType": "uint256"
        }
      ],
      "stateMutability": "view"
    },
    {
      "type": "function",
      "name": "initialize",
      "inputs": [
        {
          "name": "_yieldAggregator",
          "type": "address",
          "internalType": "address"
        },
        {
          "name": "_musd",
          "type": "address",
          "internalType": "address"
        },
        {
          "name": "_feeCollector",
          "type": "address",
          "internalType": "address"
        }
      ],
      "outputs": [],
      "stateMutability": "nonpayable"
    },
    {
      "type": "function",
      "name": "owner",
      "inputs": [],
      "outputs": [
        {
          "name": "",
          "type": "address",
          "internalType": "address"
        }
      ],
      "stateMutability": "view"
    },
    {
      "type": "function",
      "name": "pause",
      "inputs": [],
      "outputs": [],
      "stateMutability": "nonpayable"
    },
    {
      "type": "function",
      "name": "paused",
      "inputs": [],
      "outputs": [
        {
          "name": "",
          "type": "bool",
          "internalType": "bool"
        }
      ],
      "stateMutability": "view"
    },
    {
      "type": "function",
      "name": "performanceFee",
      "inputs": [],
      "outputs": [
        {
          "name": "",
          "type": "uint256",
          "internalType": "uint256"
        }
      ],
      "stateMutability": "view"
    },
    {
      "type": "function",
      "name": "proxiableUUID",
      "inputs": [],
      "outputs": [
        {
          "name": "",
          "type": "bytes32",
          "internalType": "bytes32"
        }
      ],
      "stateMutability": "view"
    },
    {
      "type": "function",
      "name": "referralBonus",
      "inputs": [],
      "outputs": [
        {
          "name": "",
          "type": "uint256",
          "internalType": "uint256"
        }
      ],
      "stateMutability": "view"
    },
    {
      "type": "function",
      "name": "referralCount",
      "inputs": [
        {
          "name": "",
          "type": "address",
          "internalType": "address"
        }
      ],
      "outputs": [
        {
          "name": "",
          "type": "uint256",
          "internalType": "uint256"
        }
      ],
      "stateMutability": "view"
    },
    {
      "type": "function",
      "name": "referralRewards",
      "inputs": [
        {
          "name": "",
          "type": "address",
          "internalType": "address"
        }
      ],
      "outputs": [
        {
          "name": "",
          "type": "uint256",
          "internalType": "uint256"
        }
      ],
      "stateMutability": "view"
    },
    {
      "type": "function",
      "name": "referrers",
      "inputs": [
        {
          "name": "",
          "type": "address",
          "internalType": "address"
        }
      ],
      "outputs": [
        {
          "name": "",
          "type": "address",
          "internalType": "address"
        }
      ],
      "stateMutability": "view"
    },
    {
      "type": "function",
      "name": "renounceOwnership",
      "inputs": [],
      "outputs": [],
      "stateMutability": "nonpayable"
    },
    {
      "type": "function",
      "name": "setAutoCompound",
      "inputs": [
        {
          "name": "enabled",
          "type": "bool",
          "internalType": "bool"
        }
      ],
      "outputs": [],
      "stateMutability": "nonpayable"
    },
    {
      "type": "function",
      "name": "setEmergencyMode",
      "inputs": [
        {
          "name": "_enabled",
          "type": "bool",
          "internalType": "bool"
        }
      ],
      "outputs": [],
      "stateMutability": "nonpayable"
    },
    {
      "type": "function",
      "name": "setFeeCollector",
      "inputs": [
        {
          "name": "newCollector",
          "type": "address",
          "internalType": "address"
        }
      ],
      "outputs": [],
      "stateMutability": "nonpayable"
    },
    {
      "type": "function",
      "name": "setPerformanceFee",
      "inputs": [
        {
          "name": "newFee",
          "type": "uint256",
          "internalType": "uint256"
        }
      ],
      "outputs": [],
      "stateMutability": "nonpayable"
    },
    {
      "type": "function",
      "name": "setReferralBonus",
      "inputs": [
        {
          "name": "newBonus",
          "type": "uint256",
          "internalType": "uint256"
        }
      ],
      "outputs": [],
      "stateMutability": "nonpayable"
    },
    {
      "type": "function",
      "name": "totalMusdDeposited",
      "inputs": [],
      "outputs": [
        {
          "name": "",
          "type": "uint256",
          "internalType": "uint256"
        }
      ],
      "stateMutability": "view"
    },
    {
      "type": "function",
      "name": "totalReferralRewards",
      "inputs": [],
      "outputs": [
        {
          "name": "",
          "type": "uint256",
          "internalType": "uint256"
        }
      ],
      "stateMutability": "view"
    },
    {
      "type": "function",
      "name": "totalYieldsGenerated",
      "inputs": [],
      "outputs": [
        {
          "name": "",
          "type": "uint256",
          "internalType": "uint256"
        }
      ],
      "stateMutability": "view"
    },
    {
      "type": "function",
      "name": "transferOwnership",
      "inputs": [
        {
          "name": "newOwner",
          "type": "address",
          "internalType": "address"
        }
      ],
      "outputs": [],
      "stateMutability": "nonpayable"
    },
    {
      "type": "function",
      "name": "unpause",
      "inputs": [],
      "outputs": [],
      "stateMutability": "nonpayable"
    },
    {
      "type": "function",
      "name": "upgradeToAndCall",
      "inputs": [
        {
          "name": "newImplementation",
          "type": "address",
          "internalType": "address"
        },
        {
          "name": "data",
          "type": "bytes",
          "internalType": "bytes"
        }
      ],
      "outputs": [],
      "stateMutability": "payable"
    },
    {
      "type": "function",
      "name": "userDeposits",
      "inputs": [
        {
          "name": "",
          "type": "address",
          "internalType": "address"
        }
      ],
      "outputs": [
        {
          "name": "musdAmount",
          "type": "uint128",
          "internalType": "uint128"
        },
        {
          "name": "yieldAccrued",
          "type": "uint128",
          "internalType": "uint128"
        },
        {
          "name": "depositTimestamp",
          "type": "uint64",
          "internalType": "uint64"
        },
        {
          "name": "lastYieldUpdate",
          "type": "uint64",
          "internalType": "uint64"
        },
        {
          "name": "active",
          "type": "bool",
          "internalType": "bool"
        },
        {
          "name": "autoCompound",
          "type": "bool",
          "internalType": "bool"
        }
      ],
      "stateMutability": "view"
    },
    {
      "type": "function",
      "name": "version",
      "inputs": [],
      "outputs": [
        {
          "name": "",
          "type": "string",
          "internalType": "string"
        }
      ],
      "stateMutability": "pure"
    },
    {
      "type": "function",
      "name": "withdraw",
      "inputs": [],
      "outputs": [
        {
          "name": "musdAmount",
          "type": "uint256",
          "internalType": "uint256"
        },
        {
          "name": "netYield",
          "type": "uint256",
          "internalType": "uint256"
        }
      ],
      "stateMutability": "nonpayable"
    },
    {
      "type": "function",
      "name": "withdrawPartial",
      "inputs": [
        {
          "name": "musdAmount",
          "type": "uint256",
          "internalType": "uint256"
        }
      ],
      "outputs": [
        {
          "name": "",
          "type": "uint256",
          "internalType": "uint256"
        }
      ],
      "stateMutability": "nonpayable"
    },
    {
      "type": "event",
      "name": "AutoCompoundToggled",
      "inputs": [
        {
          "name": "user",
          "type": "address",
          "indexed": true,
          "internalType": "address"
        },
        {
          "name": "enabled",
          "type": "bool",
          "indexed": false,
          "internalType": "bool"
        }
      ],
      "anonymous": false
    },
    {
      "type": "event",
      "name": "AutoCompounded",
      "inputs": [
        {
          "name": "user",
          "type": "address",
          "indexed": true,
          "internalType": "address"
        },
        {
          "name": "amount",
          "type": "uint256",
          "indexed": false,
          "internalType": "uint256"
        },
        {
          "name": "newTotal",
          "type": "uint256",
          "indexed": false,
          "internalType": "uint256"
        },
        {
          "name": "timestamp",
          "type": "uint256",
          "indexed": false,
          "internalType": "uint256"
        }
      ],
      "anonymous": false
    },
    {
      "type": "event",
      "name": "Deposited",
      "inputs": [
        {
          "name": "user",
          "type": "address",
          "indexed": true,
          "internalType": "address"
        },
        {
          "name": "musdAmount",
          "type": "uint256",
          "indexed": false,
          "internalType": "uint256"
        },
        {
          "name": "totalDeposit",
          "type": "uint256",
          "indexed": false,
          "internalType": "uint256"
        },
        {
          "name": "referrer",
          "type": "address",
          "indexed": true,
          "internalType": "address"
        },
        {
          "name": "timestamp",
          "type": "uint256",
          "indexed": false,
          "internalType": "uint256"
        }
      ],
      "anonymous": false
    },
    {
      "type": "event",
      "name": "EmergencyModeUpdated",
      "inputs": [
        {
          "name": "enabled",
          "type": "bool",
          "indexed": false,
          "internalType": "bool"
        }
      ],
      "anonymous": false
    },
    {
      "type": "event",
      "name": "FeeCollectorUpdated",
      "inputs": [
        {
          "name": "oldCollector",
          "type": "address",
          "indexed": true,
          "internalType": "address"
        },
        {
          "name": "newCollector",
          "type": "address",
          "indexed": true,
          "internalType": "address"
        }
      ],
      "anonymous": false
    },
    {
      "type": "event",
      "name": "FullWithdrawal",
      "inputs": [
        {
          "name": "user",
          "type": "address",
          "indexed": true,
          "internalType": "address"
        },
        {
          "name": "principal",
          "type": "uint256",
          "indexed": false,
          "internalType": "uint256"
        },
        {
          "name": "netYield",
          "type": "uint256",
          "indexed": false,
          "internalType": "uint256"
        },
        {
          "name": "timestamp",
          "type": "uint256",
          "indexed": false,
          "internalType": "uint256"
        }
      ],
      "anonymous": false
    },
    {
      "type": "event",
      "name": "Initialized",
      "inputs": [
        {
          "name": "version",
          "type": "uint64",
          "indexed": false,
          "internalType": "uint64"
        }
      ],
      "anonymous": false
    },
    {
      "type": "event",
      "name": "OwnershipTransferred",
      "inputs": [
        {
          "name": "previousOwner",
          "type": "address",
          "indexed": true,
          "internalType": "address"
        },
        {
          "name": "newOwner",
          "type": "address",
          "indexed": true,
          "internalType": "address"
        }
      ],
      "anonymous": false
    },
    {
      "type": "event",
      "name": "PartialWithdrawn",
      "inputs": [
        {
          "name": "user",
          "type": "address",
          "indexed": true,
          "internalType": "address"
        },
        {
          "name": "musdAmount",
          "type": "uint256",
          "indexed": false,
          "internalType": "uint256"
        },
        {
          "name": "remainingDeposit",
          "type": "uint256",
          "indexed": false,
          "internalType": "uint256"
        },
        {
          "name": "timestamp",
          "type": "uint256",
          "indexed": false,
          "internalType": "uint256"
        }
      ],
      "anonymous": false
    },
    {
      "type": "event",
      "name": "Paused",
      "inputs": [
        {
          "name": "account",
          "type": "address",
          "indexed": false,
          "internalType": "address"
        }
      ],
      "anonymous": false
    },
    {
      "type": "event",
      "name": "PerformanceFeeUpdated",
      "inputs": [
        {
          "name": "oldFee",
          "type": "uint256",
          "indexed": false,
          "internalType": "uint256"
        },
        {
          "name": "newFee",
          "type": "uint256",
          "indexed": false,
          "internalType": "uint256"
        }
      ],
      "anonymous": false
    },
    {
      "type": "event",
      "name": "ReferralBonusUpdated",
      "inputs": [
        {
          "name": "oldBonus",
          "type": "uint256",
          "indexed": false,
          "internalType": "uint256"
        },
        {
          "name": "newBonus",
          "type": "uint256",
          "indexed": false,
          "internalType": "uint256"
        }
      ],
      "anonymous": false
    },
    {
      "type": "event",
      "name": "ReferralRecorded",
      "inputs": [
        {
          "name": "user",
          "type": "address",
          "indexed": true,
          "internalType": "address"
        },
        {
          "name": "referrer",
          "type": "address",
          "indexed": true,
          "internalType": "address"
        },
        {
          "name": "bonus",
          "type": "uint256",
          "indexed": false,
          "internalType": "uint256"
        }
      ],
      "anonymous": false
    },
    {
      "type": "event",
      "name": "ReferralRewardsClaimed",
      "inputs": [
        {
          "name": "referrer",
          "type": "address",
          "indexed": true,
          "internalType": "address"
        },
        {
          "name": "amount",
          "type": "uint256",
          "indexed": false,
          "internalType": "uint256"
        }
      ],
      "anonymous": false
    },
    {
      "type": "event",
      "name": "Unpaused",
      "inputs": [
        {
          "name": "account",
          "type": "address",
          "indexed": false,
          "internalType": "address"
        }
      ],
      "anonymous": false
    },
    {
      "type": "event",
      "name": "Upgraded",
      "inputs": [
        {
          "name": "implementation",
          "type": "address",
          "indexed": true,
          "internalType": "address"
        }
      ],
      "anonymous": false
    },
    {
      "type": "event",
      "name": "YieldClaimed",
      "inputs": [
        {
          "name": "user",
          "type": "address",
          "indexed": true,
          "internalType": "address"
        },
        {
          "name": "grossYield",
          "type": "uint256",
          "indexed": false,
          "internalType": "uint256"
        },
        {
          "name": "feeAmount",
          "type": "uint256",
          "indexed": false,
          "internalType": "uint256"
        },
        {
          "name": "netYield",
          "type": "uint256",
          "indexed": false,
          "internalType": "uint256"
        },
        {
          "name": "timestamp",
          "type": "uint256",
          "indexed": false,
          "internalType": "uint256"
        }
      ],
      "anonymous": false
    },
    {
      "type": "error",
      "name": "AddressEmptyCode",
      "inputs": [
        {
          "name": "target",
          "type": "address",
          "internalType": "address"
        }
      ]
    },
    {
      "type": "error",
      "name": "AddressInsufficientBalance",
      "inputs": [
        {
          "name": "account",
          "type": "address",
          "internalType": "address"
        }
      ]
    },
    {
      "type": "error",
      "name": "ERC1967InvalidImplementation",
      "inputs": [
        {
          "name": "implementation",
          "type": "address",
          "internalType": "address"
        }
      ]
    },
    {
      "type": "error",
      "name": "ERC1967NonPayable",
      "inputs": []
    },
    {
      "type": "error",
      "name": "EnforcedPause",
      "inputs": []
    },
    {
      "type": "error",
      "name": "ExpectedPause",
      "inputs": []
    },
    {
      "type": "error",
      "name": "FailedInnerCall",
      "inputs": []
    },
    {
      "type": "error",
      "name": "FlashLoanDetected",
      "inputs": []
    },
    {
      "type": "error",
      "name": "InsufficientBalance",
      "inputs": []
    },
    {
      "type": "error",
      "name": "InvalidAddress",
      "inputs": []
    },
    {
      "type": "error",
      "name": "InvalidAmount",
      "inputs": []
    },
    {
      "type": "error",
      "name": "InvalidFee",
      "inputs": []
    },
    {
      "type": "error",
      "name": "InvalidInitialization",
      "inputs": []
    },
    {
      "type": "error",
      "name": "MaximumDepositExceeded",
      "inputs": []
    },
    {
      "type": "error",
      "name": "MinimumDepositNotMet",
      "inputs": []
    },
    {
      "type": "error",
      "name": "MinimumWithdrawalNotMet",
      "inputs": []
    },
    {
      "type": "error",
      "name": "NoActiveDeposit",
      "inputs": []
    },
    {
      "type": "error",
      "name": "NoReferralRewards",
      "inputs": []
    },
    {
      "type": "error",
      "name": "NotInitializing",
      "inputs": []
    },
    {
      "type": "error",
      "name": "OwnableInvalidOwner",
      "inputs": [
        {
          "name": "owner",
          "type": "address",
          "internalType": "address"
        }
      ]
    },
    {
      "type": "error",
      "name": "OwnableUnauthorizedAccount",
      "inputs": [
        {
          "name": "account",
          "type": "address",
          "internalType": "address"
        }
      ]
    },
    {
      "type": "error",
      "name": "ReentrancyGuardReentrantCall",
      "inputs": []
    },
    {
      "type": "error",
      "name": "SafeERC20FailedOperation",
      "inputs": [
        {
          "name": "token",
          "type": "address",
          "internalType": "address"
        }
      ]
    },
    {
      "type": "error",
      "name": "SelfReferralNotAllowed",
      "inputs": []
    },
    {
      "type": "error",
      "name": "UUPSUnauthorizedCallContext",
      "inputs": []
    },
    {
      "type": "error",
      "name": "UUPSUnsupportedProxiableUUID",
      "inputs": [
        {
          "name": "slot",
          "type": "bytes32",
          "internalType": "bytes32"
        }
      ]
    },
    {
      "type": "error",
      "name": "WithdrawalExceedsBalance",
      "inputs": []
    }
  ],
  "bytecode": {
    "object": "0x60a0806040523460c857306080527ff0c57e16840df040f15088dc2f81fe391c3923bec73e23a9662efc9c229c6a009081549060ff8260401c1660b957506001600160401b036002600160401b0319828216016075575b60405161348c90816100ce823960805181818161146a01526115680152f35b6001600160401b031990911681179091556040519081527fc7f505b2f371ae2175ee4913f4499e1f2633a7b5936321eed1cdaeb6115181d290602090a13880806056565b63f92ee8a960e01b8152600490fd5b600080fdfe60406080815260048036101561001457600080fd5b600091823560e01c91826305eaab4b14612ab85782630905f56014612a915782630ba36dcd146129f65782631211540c146125f557826316770c791461201857826321bade1314611fb55782633ccfd60b14611cc35782633f4ba83a14611c01578263406cf2291461186e57826343a8262114611839578263480225c31461181a5782634a3b68cc146117d35782634f1ef286146114df57826352d1902d1461144057826353aaa63b146113fc57826354fd4d50146113a75782635571dce4146102b05782635c975abb146113645782636386c1c7146111b957826370897b2314611157578263715018a6146110b75782637923076c14610fd65782638456cb5914610f3e5782638659345414610e695782638778878214610e4a5782638da5cb5b14610df657826396f3556b14610dc35782639a037aa014610d3a5782639a30722f14610d1b578263a42dce8014610c5c578263ad04673f14610c3d578263ad3cb1cc14610be4578263b6b55f2514610692578263be32b3f8146105f8578263c0c53b8b1461030957508163c415b95c146102d4578163ce7842f5146102b5578163d15ca166146102b0578163db74559b1461026c578163dd5967c314610247578163e1e158a514610220575063f2fde38b146101f157600080fd5b3461021d57602060031936011261021d5761021a61020d612b8f565b61021561305d565b612e12565b80f35b80fd5b90503461024357816003193601126102435760209051678ac7230489e800008152f35b5080fd5b9050346102435781600319360112610243576020905169152d02c7e14af68000008152f35b905034610243576020600319360112610243578060209273ffffffffffffffffffffffffffffffffffffffff6102a0612b8f565b1681526005845220549051908152f35b612d5a565b905034610243578160031936011261024357602090600a549051908152f35b90503461024357816003193601126102435760209073ffffffffffffffffffffffffffffffffffffffff600b54169051908152f35b909150346105f45760606003193601126105f457610325612b8f565b61032d612bb7565b9060443573ffffffffffffffffffffffffffffffffffffffff938482168092036105f0577ff0c57e16840df040f15088dc2f81fe391c3923bec73e23a9662efc9c229c6a009485549460ff86891c16159467ffffffffffffffff8716968715806105e9575b600180991490816105df575b1590816105d6575b506105ae57908187897fffffffffffffffffffffffffffffffffffffffffffffffff0000000000000000879516178b55610579575b5016928315801561056f575b8015610567575b61054057506103fb61332d565b61040361332d565b61040c33612e12565b61041461332d565b61041c61332d565b61042461332d565b857f9b779b17422d0df92223018b32b4d1fa46e071723d6817e2486d003becc55f005561044f61332d565b61045761332d565b7fcd5ed15c6e187e77e9aee88184c21f4f2182ab5827cb3b7e07fbedcd63f033007fffffffffffffffffffffffffffffffffffffffffffffffffffffffffffffff0081541690557fffffffffffffffffffffffff000000000000000000000000000000000000000092838a54161789551681855416178455600b541617600b5560646009556032600a556104e9578380f35b7fc7f505b2f371ae2175ee4913f4499e1f2633a7b5936321eed1cdaeb6115181d292827fffffffffffffffffffffffffffffffffffffffffffffff00ffffffffffffffff6020945416905551908152a13880808380f35b88517fe6c4247b000000000000000000000000000000000000000000000000000000008152fd5b5084156103ee565b50828216156103e7565b7fffffffffffffffffffffffffffffffffffffffffffffff0000000000000000001668010000000000000001178955386103db565b848a517ff92ee8a9000000000000000000000000000000000000000000000000000000008152fd5b905015386103a6565b303b15915061039e565b5086610392565b8680fd5b8280fd5b909150346105f45760206003193601126105f45735908115158092036105f4577f2e5a1930def2f974808cd3dd28f6606d8d2cb5d7adb78f6761ea31062ced1a339160209161064561305d565b600b547fffffffffffffffffffffff00ffffffffffffffffffffffffffffffffffffffff74ff00000000000000000000000000000000000000008460a01b16911617600b5551908152a180f35b83823461024357602090816003193601126105f45783356106b1612ed5565b6106b96132d8565b60ff600b5460a01c161580610bda575b610bb2578015610b8a57678ac7230489e800008110610b625733845260028352818420916fffffffffffffffffffffffffffffffff9261070c8385835416612d7d565b9469152d02c7e14af68000008611610b3a57869773ffffffffffffffffffffffffffffffffffffffff9161078a83600154168651907f23b872dd00000000000000000000000000000000000000000000000000000000848301523360248301523060448301528860648301526064825261078582612c25565b61323f565b826001541690838a541691878751928c80828601610823876107f77f095ea7b300000000000000000000000000000000000000000000000000000000978885528b602484016020909392919373ffffffffffffffffffffffffffffffffffffffff60408201951681520152565b037fffffffffffffffffffffffffffffffffffffffffffffffffffffffffffffffe08101895288612c79565b86519082875af1610832613386565b81610b0a575b5080610b00575b15610aca575b505050505083856024848b5416938b845195869485937fb6b55f250000000000000000000000000000000000000000000000000000000085528401525af18015610ac057610a7f575b50506001810180547f56374ff168f1660675e7631edab414966c71e3cc27aa70494fbc21bf289d06b5956109619594939160801c60ff1661098b578416905580547fffffffffffffffffffffffffffff0000000000000000000000000000000000001667ffffffffffffffff42908116919091176fffffffffffffffff000000000000000060409290921b91909116177001000000000000000000000000000000001790555b61094082600654612d7d565b60065551908152602081019390935242604084015233929081906060820190565b0390a360017f9b779b17422d0df92223018b32b4d1fa46e071723d6817e2486d003becc55f005580f35b90610a0a929161099a336130cd565b80610a0f575b5081547fffffffffffffffffffffffffffffffff000000000000000000000000000000001690891617905580547fffffffffffffffffffffffffffffffff0000000000000000ffffffffffffffff164260401b6fffffffffffffffff000000000000000016179055565b610934565b80610a6583610a25610a6d94875460801c612d7d565b86546fffffffffffffffffffffffffffffffff16911660801b7fffffffffffffffffffffffffffffffff0000000000000000000000000000000016178555565b600754612d7d565b600755610a7933612f93565b8b6109a0565b8381819496953d8311610ab9575b610a978183612c79565b81010312610ab5575190811603610ab1579091878061088e565b8580fd5b8780fd5b503d610a8d565b84513d8a823e3d90fd5b610af694610785928a519283015260248201528c604482015260448152610af081612c41565b8261323f565b8980808080610845565b50823b151561083f565b80518015925083908315610b22575b5050508f610838565b610b329350820181019101613227565b8f8281610b19565b8783517f7a9548a4000000000000000000000000000000000000000000000000000000008152fd5b8482517f20d01f06000000000000000000000000000000000000000000000000000000008152fd5b8482517f2c5211c6000000000000000000000000000000000000000000000000000000008152fd5b8482517ff073bef9000000000000000000000000000000000000000000000000000000008152fd5b50333214156106c9565b8382346102435781600319360112610243578051610c3991610c0582612c5d565b600582527f352e302e3000000000000000000000000000000000000000000000000000000060208301525191829182612cf4565b0390f35b8382346102435781600319360112610243576020906008549051908152f35b909150346105f45760206003193601126105f457610c78612b8f565b90610c8161305d565b73ffffffffffffffffffffffffffffffffffffffff809216928315610cf5575050600b54827fffffffffffffffffffffffff0000000000000000000000000000000000000000821617600b55167f5d16ad41baeb009cd23eb8f6c7cde5c2e0cd5acf4a33926ab488875c37c37f388380a380f35b517fe6c4247b000000000000000000000000000000000000000000000000000000008152fd5b8382346102435781600319360112610243576020906006549051908152f35b909150346105f45760206003193601126105f457803590610d5961305d565b6101f48211610d9c5750907f90075deb74564b91eb6f5bd9277209569cfeddf2e3e9ba827e39a9eaff30ee9191600a549080600a5582519182526020820152a180f35b82517f58d620b3000000000000000000000000000000000000000000000000000000008152fd5b83823461024357816003193601126102435773ffffffffffffffffffffffffffffffffffffffff60209254169051908152f35b83823461024357816003193601126102435760209073ffffffffffffffffffffffffffffffffffffffff7f9016d09d72d40fdae2fd8ceac6b6234c7706214fd39c1cd1e609a0528c19930054169051908152f35b8382346102435781600319360112610243576020906009549051908152f35b9150346105f45760206003193601126105f457813591821515809303610f3a5733845260026020526001828520019081549060ff8260801c1615610f1357507fffffffffffffffffffffffffffff00ffffffffffffffffffffffffffffffffff71ff00000000000000000000000000000000008560881b169116179055519081527f72defbb28064584321264302489076b65ae61a5c2886d9fa7cf076a60371d5cf60203392a280f35b83517fa542e6b3000000000000000000000000000000000000000000000000000000008152fd5b8380fd5b83823461024357816003193601126102435760207f62e78cea01bee320cd4e420270b5ea74000d11b0c9f74754ebdbfc544b05a25891610f7c61305d565b610f846132d8565b7fcd5ed15c6e187e77e9aee88184c21f4f2182ab5827cb3b7e07fbedcd63f0330060017fffffffffffffffffffffffffffffffffffffffffffffffffffffffffffffff0082541617905551338152a180f35b838234610243576020600319360112610243576110b06020926110ab83610ffb612b8f565b9273ffffffffffffffffffffffffffffffffffffffff8416815260028752209161109285519361102a85612bda565b61108c81549360ff60016fffffffffffffffffffffffffffffffff968781168a5260801c94858d8b0152015467ffffffffffffffff8082168c8b0152818c1c1660608a0152818160801c16151560808a015260881c16151560a08801526130cd565b90612d7d565b906127106110a260095484612dc6565b04935116612d7d565b612db9565b9051908152f35b833461021d578060031936011261021d576110d061305d565b8073ffffffffffffffffffffffffffffffffffffffff7f9016d09d72d40fdae2fd8ceac6b6234c7706214fd39c1cd1e609a0528c1993008054907fffffffffffffffffffffffff000000000000000000000000000000000000000082169055167f8be0079c531659141344cd1fd0a4f28419497f9722a3daafe3b4186f6b6457e08280a380f35b909150346105f45760206003193601126105f45780359061117661305d565b6103e88211610d9c5750907f607b1c943753982194530bf7133a5972ea2626e028005410efa54ab20035caf891600954908060095582519182526020820152a180f35b838234610243576020600319360112610243576111d4612b8f565b9082839173ffffffffffffffffffffffffffffffffffffffff8416855260026020528085209080519161120683612bda565b80549661127260016fffffffffffffffffffffffffffffffff8a16998a875260801c9384602088015201549261108c67ffffffffffffffff9960ff60a0888a01998d89168b528d898b1c166060820152828960801c1615156080820152019660881c16151586526130cd565b9661128c6127106112856009548b612dc6565b0489612db9565b945116806112bd575b505060c0975051151594815196875260208701528501526060840152608083015260a0820152f35b620151809195506112ce9042612db9565b04938415158061135b575b6112e4575b80611295565b90945061016d9081870291878304148715171561132f57618e948702918083046064149015171561132f575060c09750611328906113228589612dc6565b90612dd9565b93886112de565b8060118a7f4e487b71000000000000000000000000000000000000000000000000000000006024945252fd5b508715156112d9565b83823461024357816003193601126102435760209060ff7fcd5ed15c6e187e77e9aee88184c21f4f2182ab5827cb3b7e07fbedcd63f03300541690519015158152f35b8382346102435781600319360112610243578051610c39916113c882612c5d565b600582527f332e302e3000000000000000000000000000000000000000000000000000000060208301525191829182612cf4565b909150346105f45760206003193601126105f457602092829173ffffffffffffffffffffffffffffffffffffffff611432612b8f565b168252845220549051908152f35b90833461021d578060031936011261021d575073ffffffffffffffffffffffffffffffffffffffff7f00000000000000000000000000000000000000000000000000000000000000001630036114b957602090517f360894a13ba1a3210667c828492db98dca3e2076cc3735a920a3ca505d382bbc8152f35b517fe07c8dba000000000000000000000000000000000000000000000000000000008152fd5b9150806003193601126105f4576114f4612b8f565b90602493843567ffffffffffffffff8111610243573660238201121561024357808501359361152285612cba565b61152e85519182612c79565b85815260209586820193368a8383010111610ab1578186928b8a930187378301015273ffffffffffffffffffffffffffffffffffffffff807f0000000000000000000000000000000000000000000000000000000000000000168030149081156117a5575b5061177d576115a061305d565b8216958551907f52d1902d00000000000000000000000000000000000000000000000000000000825280828a818b5afa918291879361174d575b505061160f57505050505051917f4c9c8ce3000000000000000000000000000000000000000000000000000000008352820152fd5b86899689927f360894a13ba1a3210667c828492db98dca3e2076cc3735a920a3ca505d382bbc9081810361171f5750853b156116f15780547fffffffffffffffffffffffff0000000000000000000000000000000000000000168317905551869392917fbc7cd75a20ee27fd9adebab32041f755214dbc6bffa90cc0225b39da2e5c2d3b8580a28251156116bc5750506116b89382915190845af46116b2613386565b916133b6565b5080f35b935093505050346116cc57505080f35b7fb398979f000000000000000000000000000000000000000000000000000000008152fd5b5087935051917f4c9c8ce3000000000000000000000000000000000000000000000000000000008352820152fd5b848a918451917faa1d49a4000000000000000000000000000000000000000000000000000000008352820152fd5b9080929350813d8311611776575b6117658183612c79565b81010312610ab157519038806115da565b503d61175b565b8786517fe07c8dba000000000000000000000000000000000000000000000000000000008152fd5b9050817f360894a13ba1a3210667c828492db98dca3e2076cc3735a920a3ca505d382bbc5416141538611593565b838234610243576020600319360112610243576020918173ffffffffffffffffffffffffffffffffffffffff9182611809612b8f565b168152600385522054169051908152f35b8382346102435781600319360112610243576020906007549051908152f35b83823461024357816003193601126102435760209073ffffffffffffffffffffffffffffffffffffffff600154169051908152f35b838234610243578160031936011261024357611888612ed5565b60ff600b5460a01c161580611bf7575b611bcf57338252602092600284528183206001810160ff815460801c1615611ba7576118c3336130cd565b80611af5575b5050805460801c918215611ace57600b5460a01c60ff1615611ab85784915b6118f28385612db9565b9573ffffffffffffffffffffffffffffffffffffffff928382541687517f537bb13700000000000000000000000000000000000000000000000000000000815230838201528a81602481855afa908115611aae57908b92918591611a7d575b50611a08575b505050506fffffffffffffffffffffffffffffffff815416905561198085338360015416612f2f565b81806119ed575b505082519182528482015282828201524260608201527f66c6d9582dccb32989f223d235d899cef6141d8e0aaeab6465f8d776c55622f260803392a260017f9b779b17422d0df92223018b32b4d1fa46e071723d6817e2486d003becc55f005551908152f35b81611a01926001541690600b541690612f2f565b8581611987565b83928951809481937f406cf2290000000000000000000000000000000000000000000000000000000083525af18015611a7357908991611a4a575b8190611957565b813d8311611a6c575b611a5d8183612c79565b8101031261021d578781611a43565b503d611a53565b87513d84823e3d90fd5b8381939492503d8311611aa7575b611a958183612c79565b81010312610f3a57908a91518c611951565b503d611a8b565b89513d86823e3d90fd5b612710611ac760095485612dc6565b04916118e8565b83517f2c5211c6000000000000000000000000000000000000000000000000000000008152fd5b610a65611b9d92611b5e6fffffffffffffffffffffffffffffffff611b1e85885460801c612d7d565b87546fffffffffffffffffffffffffffffffff16911660801b7fffffffffffffffffffffffffffffffff0000000000000000000000000000000016178655565b80547fffffffffffffffffffffffffffffffff0000000000000000ffffffffffffffff164260401b6fffffffffffffffff000000000000000016179055565b60075585806118c9565b8284517fa542e6b3000000000000000000000000000000000000000000000000000000008152fd5b9050517ff073bef9000000000000000000000000000000000000000000000000000000008152fd5b5033321415611898565b909150346105f457826003193601126105f457611c1c61305d565b7fcd5ed15c6e187e77e9aee88184c21f4f2182ab5827cb3b7e07fbedcd63f033009081549060ff821615611c9c57507fffffffffffffffffffffffffffffffffffffffffffffffffffffffffffffff00169055513381527f5db9ee0a495bf2e6ff9c91a7834c1ba4fdd244a5e8aa4e537bd38aeae4b073aa90602090a180f35b83517f8dfc202b000000000000000000000000000000000000000000000000000000008152fd5b833461021d578060031936011261021d57611cdc612ed5565b60ff600b5460a01c161580611fab575b611f8357338152602060028152838220600181019260ff845460801c1615611f5b578154946fffffffffffffffffffffffffffffffff9586811696611d30336130cd565b9182611f03575b50505083611d9e845460801c60ff600b5460a01c16600014611eec578480965b611d618884612db9565b997fffffffffffffffffffffffffffffff00ffffffffffffffffffffffffffffffff815416905555611d9589600654612db9565b60065588612d7d565b80611e63575b5050505073ffffffffffffffffffffffffffffffffffffffff90611dd88260015416611dd08688612d7d565b903390612f2f565b80611e48575b505083518381526020810183905242604082015233907fd81f9afb53c6463eb05f915f39aaa00b0d4c47e489e52599141645fd8f0843f490606090a260017f9b779b17422d0df92223018b32b4d1fa46e071723d6817e2486d003becc55f00558351928352820152f35b81611e5c926001541690600b541690612f2f565b8480611dde565b602473ffffffffffffffffffffffffffffffffffffffff85541693858b5195869485937f2e1a7d4d0000000000000000000000000000000000000000000000000000000085528401525af18015611a7357908491611ec3575b8190611da4565b813d8311611ee5575b611ed68183612c79565b8101031261021d578281611ebc565b503d611ecc565b84612710611efc60095484612dc6565b0496611d57565b611f5392611f139160801c612d7d565b85546fffffffffffffffffffffffffffffffff16911660801b7fffffffffffffffffffffffffffffffff0000000000000000000000000000000016178455565b878080611d37565b8486517fa542e6b3000000000000000000000000000000000000000000000000000000008152fd5b5090517ff073bef9000000000000000000000000000000000000000000000000000000008152fd5b5033321415611cec565b9150346105f45760206003193601126105f4579160609273ffffffffffffffffffffffffffffffffffffffff80611fea612b8f565b1683526005602052818320549360205281808420549360036020522054169181519384526020840152820152f35b909150346105f457816003193601126105f457803591612036612bb7565b61203e612ed5565b6120466132d8565b60ff600b5460a01c1615806125eb575b6125c457831561259d57678ac7230489e80000841061257657338552602060028152828620926fffffffffffffffffffffffffffffffff9361209b8786835416612d7d565b9569152d02c7e14af6800000871161254f57889373ffffffffffffffffffffffffffffffffffffffff958681169081151580612545575b61242c575b505061212886600154168551907f23b872dd00000000000000000000000000000000000000000000000000000000848301523360248301523060448301528b60648301526064825261078582612c25565b856001541690868b5416918a8651928d80828601612195876107f77f095ea7b300000000000000000000000000000000000000000000000000000000978885528b602484016020909392919373ffffffffffffffffffffffffffffffffffffffff60408201951681520152565b86519082875af16121a4613386565b816123fc575b50806123f2575b156123c2575b505050505082886024878c5416938c845195869485937fb6b55f250000000000000000000000000000000000000000000000000000000085528401525af180156123b85761237e575b506001810180547f56374ff168f1660675e7631edab414966c71e3cc27aa70494fbc21bf289d06b59661096194939160801c60ff166122d2578916905580547fffffffffffffffffffffffffffff0000000000000000000000000000000000001667ffffffffffffffff42908116919091176fffffffffffffffff000000000000000060409290921b91909116177001000000000000000000000000000000001790555b6122b087600654612d7d565b6006555195865260208601949094524260408601521692339281906060820190565b9061235192916122e1336130cd565b80612356575b5081547fffffffffffffffffffffffffffffffff0000000000000000000000000000000016908a1617905580547fffffffffffffffffffffffffffffffff0000000000000000ffffffffffffffff164260401b6fffffffffffffffff000000000000000016179055565b6122a4565b80610a6583610a2561236c94875460801c612d7d565b60075561237833612f93565b386122e7565b82818193943d83116123b1575b6123958183612c79565b810103126123ad575184811603610ab5579038612200565b8880fd5b503d61238b565b83513d8b823e3d90fd5b6123e8946107859289519283015260248201528d604482015260448152610af081612c41565b38808080806121b7565b50823b15156121b1565b80518015925083908315612414575b505050386121aa565b6124249350820181019101613227565b38828161240b565b909550338b5260038252848b208054888116801560001461253a57507fffffffffffffffffffffffff00000000000000000000000000000000000000001687179055858b5260058252848b2080547fffffffffffffffffffffffffffffffffffffffffffffffffffffffffffffffff811461250e576001019055946127106124b6600a548c612dc6565b04818c52838352858c206124cb828254612d7d565b90556124d981600854612d7d565b60085585519081527ff36afc48438e7a543cc47977b2ea45ca912bc74fd7e92126efea2f47c961eb7d833392a35b38806120d7565b60248d6011877f4e487b7100000000000000000000000000000000000000000000000000000000835252fd5b975061250792505050565b50338214156120d2565b82517f7a9548a4000000000000000000000000000000000000000000000000000000008152fd5b50517f20d01f06000000000000000000000000000000000000000000000000000000008152fd5b50517f2c5211c6000000000000000000000000000000000000000000000000000000008152fd5b50517ff073bef9000000000000000000000000000000000000000000000000000000008152fd5b5033321415612056565b9150346105f4576020928360031936011261021d578235612614612ed5565b60ff600b5460a01c1615806129ec575b6129c45780933383526002865283832091600183019060ff825460801c161561299c57801561297457670de0b6b3a7640000811061294c578354946fffffffffffffffffffffffffffffffff958681168311612924578690612685336130cd565b90816128bc575b50505073ffffffffffffffffffffffffffffffffffffffff93898360248785541693858c5195869485937f2e1a7d4d0000000000000000000000000000000000000000000000000000000085528401525af180156128b257908a91612889575b505050835491856126ff83828616612db9565b7fffffffffffffffffffffffffffffffff00000000000000000000000000000000948516911617855580547fffffffffffffffffffffffffffffffff0000000000000000ffffffffffffffff164260401b6fffffffffffffffff00000000000000001617815561277182600654612db9565b60065584549286841693678ac7230489e80000851080612880575b61282a575b5050505050846127a691339060015416612f2f565b54167f59871fd2a04a78dbcf93dd3000f85ba74bf77974cc7f2f47fdae2be66974b4308251806127fd3394429088846fffffffffffffffffffffffffffffffff604092959493606083019683521660208201520152565b0390a260017f9b779b17422d0df92223018b32b4d1fa46e071723d6817e2486d003becc55f005551908152f35b6127a695995090612875949392911686557fffffffffffffffffffffffffffffff00ffffffffffffffffffffffffffffffff815416905561286d82600654612db9565b600655612d7d565b949038808080612791565b5084151561278c565b813d83116128ab575b61289c8183612c79565b8101031261021d5788816126ec565b503d612892565b88513d84823e3d90fd5b612910926128d083610a659360801c612d7d565b89546fffffffffffffffffffffffffffffffff16911660801b7fffffffffffffffffffffffffffffffff0000000000000000000000000000000016178855565b60075561291c33612f93565b85388061268c565b8488517fa3b9a36c000000000000000000000000000000000000000000000000000000008152fd5b8286517fc734a0ad000000000000000000000000000000000000000000000000000000008152fd5b8286517f2c5211c6000000000000000000000000000000000000000000000000000000008152fd5b8286517fa542e6b3000000000000000000000000000000000000000000000000000000008152fd5b5050517ff073bef9000000000000000000000000000000000000000000000000000000008152fd5b5033321415612624565b8382346102435760206003193601126102435760ff8160c09373ffffffffffffffffffffffffffffffffffffffff612a2c612b8f565b1681526002602052209160018354930154908167ffffffffffffffff918051956fffffffffffffffffffffffffffffffff8116875260801c6020870152828216818701521c166060840152818160801c161515608084015260881c16151560a0820152f35b83823461024357816003193601126102435760209060ff600b5460a01c1690519015158152f35b838234610243578160031936011261024357612ad2612ed5565b3382528260205280822054918215612b6757602093338252845281812055612b13823373ffffffffffffffffffffffffffffffffffffffff60015416612f2f565b80518281527f98741ecf35c5d20a8ed68dbd8540500684864a6c98c2a41a5844d0b3a2357d43843392a260017f9b779b17422d0df92223018b32b4d1fa46e071723d6817e2486d003becc55f005551908152f35b8382517f97046da4000000000000000000000000000000000000000000000000000000008152fd5b6004359073ffffffffffffffffffffffffffffffffffffffff82168203612bb257565b600080fd5b6024359073ffffffffffffffffffffffffffffffffffffffff82168203612bb257565b60c0810190811067ffffffffffffffff821117612bf657604052565b7f4e487b7100000000000000000000000000000000000000000000000000000000600052604160045260246000fd5b60a0810190811067ffffffffffffffff821117612bf657604052565b6080810190811067ffffffffffffffff821117612bf657604052565b6040810190811067ffffffffffffffff821117612bf657604052565b90601f7fffffffffffffffffffffffffffffffffffffffffffffffffffffffffffffffe0910116810190811067ffffffffffffffff821117612bf657604052565b67ffffffffffffffff8111612bf657601f017fffffffffffffffffffffffffffffffffffffffffffffffffffffffffffffffe01660200190565b60208082528251818301819052939260005b858110612d46575050507fffffffffffffffffffffffffffffffffffffffffffffffffffffffffffffffe0601f8460006040809697860101520116010190565b818101830151848201604001528201612d06565b34612bb2576000600319360112612bb2576020604051670de0b6b3a76400008152f35b91908201809211612d8a57565b7f4e487b7100000000000000000000000000000000000000000000000000000000600052601160045260246000fd5b91908203918211612d8a57565b81810292918115918404141715612d8a57565b8115612de3570490565b7f4e487b7100000000000000000000000000000000000000000000000000000000600052601260045260246000fd5b73ffffffffffffffffffffffffffffffffffffffff809116908115612ea4577f9016d09d72d40fdae2fd8ceac6b6234c7706214fd39c1cd1e609a0528c199300805490837fffffffffffffffffffffffff00000000000000000000000000000000000000008316179055167f8be0079c531659141344cd1fd0a4f28419497f9722a3daafe3b4186f6b6457e0600080a3565b60246040517f1e4fbdf700000000000000000000000000000000000000000000000000000000815260006004820152fd5b7f9b779b17422d0df92223018b32b4d1fa46e071723d6817e2486d003becc55f006002815414612f055760029055565b60046040517f3ee5aeb5000000000000000000000000000000000000000000000000000000008152fd5b6040517fa9059cbb00000000000000000000000000000000000000000000000000000000602082015273ffffffffffffffffffffffffffffffffffffffff929092166024830152604480830193909352918152612f9191610785606483612c79565b565b73ffffffffffffffffffffffffffffffffffffffff16806000526002602052604060002060ff600182015460881c1680613047575b612fd0575050565b807fa90a97f6c06008aba841d1bf432748f9985e01a1f3546fcdd87357542b056c619154908160801c91613017836fffffffffffffffffffffffffffffffff809316612d7d565b1690819055604080519283526fffffffffffffffffffffffffffffffff90911660208301524290820152606090a2565b50670de0b6b3a7640000815460801c1015612fc8565b73ffffffffffffffffffffffffffffffffffffffff7f9016d09d72d40fdae2fd8ceac6b6234c7706214fd39c1cd1e609a0528c1993005416330361309d57565b60246040517f118cdaa7000000000000000000000000000000000000000000000000000000008152336004820152fd5b73ffffffffffffffffffffffffffffffffffffffff80600092168252602090600282526040928381209284519261310384612bda565b60018554956fffffffffffffffffffffffffffffffff96878116875260801c84870152015467ffffffffffffffff8082168887015281881c16606086015260ff8160801c161560ff81159283608089015260881c16151560a08701529061321d575b613214579080839260249454168751948580927f537bb1370000000000000000000000000000000000000000000000000000000082523060048301525afa958615613209575081956131d2575b505050916131c6916131cf93511690612dc6565b60065490612dd9565b90565b909180939550813d8311613202575b6131eb8183612c79565b8101031261021d57505191816131cf6131c66131b2565b503d6131e1565b51913d9150823e3d90fd5b50509250505090565b5060065415613165565b90816020910312612bb257518015158103612bb25790565b60008073ffffffffffffffffffffffffffffffffffffffff61327693169360208151910182865af161326f613386565b90836133b6565b80519081151591826132bd575b505061328c5750565b602490604051907f5274afe70000000000000000000000000000000000000000000000000000000082526004820152fd5b6132d09250602080918301019101613227565b153880613283565b60ff7fcd5ed15c6e187e77e9aee88184c21f4f2182ab5827cb3b7e07fbedcd63f03300541661330357565b60046040517fd93c0665000000000000000000000000000000000000000000000000000000008152fd5b60ff7ff0c57e16840df040f15088dc2f81fe391c3923bec73e23a9662efc9c229c6a005460401c161561335c57565b60046040517fd7e6bcf8000000000000000000000000000000000000000000000000000000008152fd5b3d156133b1573d9061339782612cba565b916133a56040519384612c79565b82523d6000602084013e565b606090565b906133f557508051156133cb57805190602001fd5b60046040517f1425ea42000000000000000000000000000000000000000000000000000000008152fd5b8151158061344d575b613406575090565b60249073ffffffffffffffffffffffffffffffffffffffff604051917f9996b315000000000000000000000000000000000000000000000000000000008352166004820152fd5b50803b156133fe56fea26469706673582212206fef524b967a9f5e62c780e046a57552bb4e66eab8771442331f5d0bec933c0e64736f6c63430008190033",
    "linkReferences": {}
  },
  "methodIdentifiers": {
    "AUTO_COMPOUND_THRESHOLD()": "5571dce4",
    "MAX_DEPOSIT()": "dd5967c3",
    "MIN_DEPOSIT()": "e1e158a5",
    "MIN_WITHDRAWAL()": "d15ca166",
    "MUSD()": "43a82621",
    "UPGRADE_INTERFACE_VERSION()": "ad3cb1cc",
    "YIELD_AGGREGATOR()": "96f3556b",
    "claimReferralRewards()": "05eaab4b",
    "claimYield()": "406cf229",
    "deposit(uint256)": "b6b55f25",
    "depositWithReferral(uint256,address)": "16770c79",
    "emergencyMode()": "0905f560",
    "feeCollector()": "c415b95c",
    "getReferralStats(address)": "21bade13",
    "getUserInfo(address)": "6386c1c7",
    "getUserTotalBalance(address)": "7923076c",
    "initialize(address,address,address)": "c0c53b8b",
    "owner()": "8da5cb5b",
    "pause()": "8456cb59",
    "paused()": "5c975abb",
    "performanceFee()": "87788782",
    "proxiableUUID()": "52d1902d",
    "referralBonus()": "ce7842f5",
    "referralCount(address)": "db74559b",
    "referralRewards(address)": "53aaa63b",
    "referrers(address)": "4a3b68cc",
    "renounceOwnership()": "715018a6",
    "setAutoCompound(bool)": "86593454",
    "setEmergencyMode(bool)": "be32b3f8",
    "setFeeCollector(address)": "a42dce80",
    "setPerformanceFee(uint256)": "70897b23",
    "setReferralBonus(uint256)": "9a037aa0",
    "totalMusdDeposited()": "9a30722f",
    "totalReferralRewards()": "ad04673f",
    "totalYieldsGenerated()": "480225c3",
    "transferOwnership(address)": "f2fde38b",
    "unpause()": "3f4ba83a",
    "upgradeToAndCall(address,bytes)": "4f1ef286",
    "userDeposits(address)": "0ba36dcd",
    "version()": "54fd4d50",
    "withdraw()": "3ccfd60b",
    "withdrawPartial(uint256)": "1211540c"
  },
  "id": 64
}