{
  "abi": [
    {
      "type": "constructor",
      "inputs": [
        {
          "name": "_yieldAggregator",
          "type": "address",
          "internalType": "address"
        },
        {
          "name": "_musd",
          "type": "address",
          "internalType": "address"
        },
        {
          "name": "_feeCollector",
          "type": "address",
          "internalType": "address"
        }
      ],
      "stateMutability": "nonpayable"
    },
    {
      "type": "receive",
      "stateMutability": "payable"
    },
    {
      "type": "function",
      "name": "MAX_DEPOSIT",
      "inputs": [],
      "outputs": [
        {
          "name": "",
          "type": "uint256",
          "internalType": "uint256"
        }
      ],
      "stateMutability": "view"
    },
    {
      "type": "function",
      "name": "MIN_DEPOSIT",
      "inputs": [],
      "outputs": [
        {
          "name": "",
          "type": "uint256",
          "internalType": "uint256"
        }
      ],
      "stateMutability": "view"
    },
    {
      "type": "function",
      "name": "MUSD",
      "inputs": [],
      "outputs": [
        {
          "name": "",
          "type": "address",
          "internalType": "contract IERC20"
        }
      ],
      "stateMutability": "view"
    },
    {
      "type": "function",
      "name": "YIELD_AGGREGATOR",
      "inputs": [],
      "outputs": [
        {
          "name": "",
          "type": "address",
          "internalType": "contract IYieldAggregator"
        }
      ],
      "stateMutability": "view"
    },
    {
      "type": "function",
      "name": "calculateYield",
      "inputs": [
        {
          "name": "user",
          "type": "address",
          "internalType": "address"
        }
      ],
      "outputs": [
        {
          "name": "totalYield",
          "type": "uint256",
          "internalType": "uint256"
        }
      ],
      "stateMutability": "view"
    },
    {
      "type": "function",
      "name": "claimYield",
      "inputs": [],
      "outputs": [
        {
          "name": "yieldAmount",
          "type": "uint256",
          "internalType": "uint256"
        }
      ],
      "stateMutability": "nonpayable"
    },
    {
      "type": "function",
      "name": "deposit",
      "inputs": [
        {
          "name": "musdAmount",
          "type": "uint256",
          "internalType": "uint256"
        }
      ],
      "outputs": [],
      "stateMutability": "nonpayable"
    },
    {
      "type": "function",
      "name": "feeCollector",
      "inputs": [],
      "outputs": [
        {
          "name": "",
          "type": "address",
          "internalType": "address"
        }
      ],
      "stateMutability": "view"
    },
    {
      "type": "function",
      "name": "getPoolStats",
      "inputs": [],
      "outputs": [
        {
          "name": "totalBtc",
          "type": "uint256",
          "internalType": "uint256"
        },
        {
          "name": "totalMusd",
          "type": "uint256",
          "internalType": "uint256"
        },
        {
          "name": "totalYields",
          "type": "uint256",
          "internalType": "uint256"
        },
        {
          "name": "avgApr",
          "type": "uint256",
          "internalType": "uint256"
        }
      ],
      "stateMutability": "view"
    },
    {
      "type": "function",
      "name": "getUserInfo",
      "inputs": [
        {
          "name": "user",
          "type": "address",
          "internalType": "address"
        }
      ],
      "outputs": [
        {
          "name": "userDeposit",
          "type": "tuple",
          "internalType": "struct IndividualPool.UserDeposit",
          "components": [
            {
              "name": "musdAmount",
              "type": "uint256",
              "internalType": "uint256"
            },
            {
              "name": "yieldAccrued",
              "type": "uint256",
              "internalType": "uint256"
            },
            {
              "name": "depositTimestamp",
              "type": "uint256",
              "internalType": "uint256"
            },
            {
              "name": "lastYieldUpdate",
              "type": "uint256",
              "internalType": "uint256"
            },
            {
              "name": "active",
              "type": "bool",
              "internalType": "bool"
            }
          ]
        },
        {
          "name": "currentYield",
          "type": "uint256",
          "internalType": "uint256"
        },
        {
          "name": "netYield",
          "type": "uint256",
          "internalType": "uint256"
        }
      ],
      "stateMutability": "view"
    },
    {
      "type": "function",
      "name": "getUserRoi",
      "inputs": [
        {
          "name": "user",
          "type": "address",
          "internalType": "address"
        }
      ],
      "outputs": [
        {
          "name": "roi",
          "type": "uint256",
          "internalType": "uint256"
        }
      ],
      "stateMutability": "view"
    },
    {
      "type": "function",
      "name": "owner",
      "inputs": [],
      "outputs": [
        {
          "name": "",
          "type": "address",
          "internalType": "address"
        }
      ],
      "stateMutability": "view"
    },
    {
      "type": "function",
      "name": "pause",
      "inputs": [],
      "outputs": [],
      "stateMutability": "nonpayable"
    },
    {
      "type": "function",
      "name": "paused",
      "inputs": [],
      "outputs": [
        {
          "name": "",
          "type": "bool",
          "internalType": "bool"
        }
      ],
      "stateMutability": "view"
    },
    {
      "type": "function",
      "name": "performanceFee",
      "inputs": [],
      "outputs": [
        {
          "name": "",
          "type": "uint256",
          "internalType": "uint256"
        }
      ],
      "stateMutability": "view"
    },
    {
      "type": "function",
      "name": "renounceOwnership",
      "inputs": [],
      "outputs": [],
      "stateMutability": "nonpayable"
    },
    {
      "type": "function",
      "name": "setFeeCollector",
      "inputs": [
        {
          "name": "newCollector",
          "type": "address",
          "internalType": "address"
        }
      ],
      "outputs": [],
      "stateMutability": "nonpayable"
    },
    {
      "type": "function",
      "name": "setPerformanceFee",
      "inputs": [
        {
          "name": "newFee",
          "type": "uint256",
          "internalType": "uint256"
        }
      ],
      "outputs": [],
      "stateMutability": "nonpayable"
    },
    {
      "type": "function",
      "name": "totalMusdDeposited",
      "inputs": [],
      "outputs": [
        {
          "name": "",
          "type": "uint256",
          "internalType": "uint256"
        }
      ],
      "stateMutability": "view"
    },
    {
      "type": "function",
      "name": "totalYieldsGenerated",
      "inputs": [],
      "outputs": [
        {
          "name": "",
          "type": "uint256",
          "internalType": "uint256"
        }
      ],
      "stateMutability": "view"
    },
    {
      "type": "function",
      "name": "transferOwnership",
      "inputs": [
        {
          "name": "newOwner",
          "type": "address",
          "internalType": "address"
        }
      ],
      "outputs": [],
      "stateMutability": "nonpayable"
    },
    {
      "type": "function",
      "name": "unpause",
      "inputs": [],
      "outputs": [],
      "stateMutability": "nonpayable"
    },
    {
      "type": "function",
      "name": "updateYield",
      "inputs": [],
      "outputs": [],
      "stateMutability": "nonpayable"
    },
    {
      "type": "function",
      "name": "userDeposits",
      "inputs": [
        {
          "name": "",
          "type": "address",
          "internalType": "address"
        }
      ],
      "outputs": [
        {
          "name": "musdAmount",
          "type": "uint256",
          "internalType": "uint256"
        },
        {
          "name": "yieldAccrued",
          "type": "uint256",
          "internalType": "uint256"
        },
        {
          "name": "depositTimestamp",
          "type": "uint256",
          "internalType": "uint256"
        },
        {
          "name": "lastYieldUpdate",
          "type": "uint256",
          "internalType": "uint256"
        },
        {
          "name": "active",
          "type": "bool",
          "internalType": "bool"
        }
      ],
      "stateMutability": "view"
    },
    {
      "type": "function",
      "name": "withdraw",
      "inputs": [],
      "outputs": [
        {
          "name": "musdAmount",
          "type": "uint256",
          "internalType": "uint256"
        },
        {
          "name": "yieldAmount",
          "type": "uint256",
          "internalType": "uint256"
        }
      ],
      "stateMutability": "nonpayable"
    },
    {
      "type": "event",
      "name": "Deposited",
      "inputs": [
        {
          "name": "user",
          "type": "address",
          "indexed": true,
          "internalType": "address"
        },
        {
          "name": "musdAmount",
          "type": "uint256",
          "indexed": false,
          "internalType": "uint256"
        },
        {
          "name": "timestamp",
          "type": "uint256",
          "indexed": false,
          "internalType": "uint256"
        }
      ],
      "anonymous": false
    },
    {
      "type": "event",
      "name": "FeeCollectorUpdated",
      "inputs": [
        {
          "name": "oldCollector",
          "type": "address",
          "indexed": true,
          "internalType": "address"
        },
        {
          "name": "newCollector",
          "type": "address",
          "indexed": true,
          "internalType": "address"
        }
      ],
      "anonymous": false
    },
    {
      "type": "event",
      "name": "OwnershipTransferred",
      "inputs": [
        {
          "name": "previousOwner",
          "type": "address",
          "indexed": true,
          "internalType": "address"
        },
        {
          "name": "newOwner",
          "type": "address",
          "indexed": true,
          "internalType": "address"
        }
      ],
      "anonymous": false
    },
    {
      "type": "event",
      "name": "Paused",
      "inputs": [
        {
          "name": "account",
          "type": "address",
          "indexed": false,
          "internalType": "address"
        }
      ],
      "anonymous": false
    },
    {
      "type": "event",
      "name": "PerformanceFeeUpdated",
      "inputs": [
        {
          "name": "oldFee",
          "type": "uint256",
          "indexed": false,
          "internalType": "uint256"
        },
        {
          "name": "newFee",
          "type": "uint256",
          "indexed": false,
          "internalType": "uint256"
        }
      ],
      "anonymous": false
    },
    {
      "type": "event",
      "name": "Unpaused",
      "inputs": [
        {
          "name": "account",
          "type": "address",
          "indexed": false,
          "internalType": "address"
        }
      ],
      "anonymous": false
    },
    {
      "type": "event",
      "name": "Withdrawn",
      "inputs": [
        {
          "name": "user",
          "type": "address",
          "indexed": true,
          "internalType": "address"
        },
        {
          "name": "musdAmount",
          "type": "uint256",
          "indexed": false,
          "internalType": "uint256"
        },
        {
          "name": "yieldAmount",
          "type": "uint256",
          "indexed": false,
          "internalType": "uint256"
        }
      ],
      "anonymous": false
    },
    {
      "type": "event",
      "name": "YieldClaimed",
      "inputs": [
        {
          "name": "user",
          "type": "address",
          "indexed": true,
          "internalType": "address"
        },
        {
          "name": "yieldAmount",
          "type": "uint256",
          "indexed": false,
          "internalType": "uint256"
        },
        {
          "name": "feeAmount",
          "type": "uint256",
          "indexed": false,
          "internalType": "uint256"
        }
      ],
      "anonymous": false
    },
    {
      "type": "event",
      "name": "YieldUpdated",
      "inputs": [
        {
          "name": "user",
          "type": "address",
          "indexed": true,
          "internalType": "address"
        },
        {
          "name": "newYieldAmount",
          "type": "uint256",
          "indexed": false,
          "internalType": "uint256"
        }
      ],
      "anonymous": false
    },
    {
      "type": "error",
      "name": "AddressEmptyCode",
      "inputs": [
        {
          "name": "target",
          "type": "address",
          "internalType": "address"
        }
      ]
    },
    {
      "type": "error",
      "name": "AddressInsufficientBalance",
      "inputs": [
        {
          "name": "account",
          "type": "address",
          "internalType": "address"
        }
      ]
    },
    {
      "type": "error",
      "name": "DepositAlreadyExists",
      "inputs": []
    },
    {
      "type": "error",
      "name": "EnforcedPause",
      "inputs": []
    },
    {
      "type": "error",
      "name": "ExpectedPause",
      "inputs": []
    },
    {
      "type": "error",
      "name": "FailedInnerCall",
      "inputs": []
    },
    {
      "type": "error",
      "name": "InsufficientBalance",
      "inputs": []
    },
    {
      "type": "error",
      "name": "InvalidAddress",
      "inputs": []
    },
    {
      "type": "error",
      "name": "InvalidAmount",
      "inputs": []
    },
    {
      "type": "error",
      "name": "InvalidFee",
      "inputs": []
    },
    {
      "type": "error",
      "name": "MaximumDepositExceeded",
      "inputs": []
    },
    {
      "type": "error",
      "name": "MinimumDepositNotMet",
      "inputs": []
    },
    {
      "type": "error",
      "name": "NoActiveDeposit",
      "inputs": []
    },
    {
      "type": "error",
      "name": "OwnableInvalidOwner",
      "inputs": [
        {
          "name": "owner",
          "type": "address",
          "internalType": "address"
        }
      ]
    },
    {
      "type": "error",
      "name": "OwnableUnauthorizedAccount",
      "inputs": [
        {
          "name": "account",
          "type": "address",
          "internalType": "address"
        }
      ]
    },
    {
      "type": "error",
      "name": "ReentrancyGuardReentrantCall",
      "inputs": []
    },
    {
      "type": "error",
      "name": "SafeERC20FailedOperation",
      "inputs": [
        {
          "name": "token",
          "type": "address",
          "internalType": "address"
        }
      ]
    }
  ],
  "bytecode": {
    "object": "0x60c0346101bc57601f61218338819003918201601f19168301916001600160401b038311848410176101c1578084926060946040528339810103126101bc57610047816101d7565b906100606040610059602084016101d7565b92016101d7565b33156101a3576000549160018060a01b03928360018060a01b031995338784161760005560405192823391167f8be0079c531659141344cd1fd0a4f28419497f9722a3daafe3b4186f6b6457e0600080a36001805560ff19600254166002556064600655169081158015610199575b801561018f575b61018057509083916080521660a05216906007541617600755604051611f9790816101ec823960805181818161032301528181610568015281816109d501528181610e200152818161131d015281816113be015281816115c1015281816116650152611c20015260a0518181816104e001528181610d7701528181610e940152818161114d015281816111d8015281816112680152818161129901528181611473015261171a0152f35b63e6c4247b60e01b8152600490fd5b50848416156100d6565b50848316156100cf565b604051631e4fbdf760e01b815260006004820152602490fd5b600080fd5b634e487b7160e01b600052604160045260246000fd5b51906001600160a01b03821682036101bc5756fe608080604052600436101561001d575b50361561001b57600080fd5b005b60003560e01c9081630ba36dcd14611894575080633ccfd60b146110985780633f4ba83a14610ff8578063406cf22914610d9b57806343a8262114610d4a578063480225c314610d2c578063567add6414610cf05780635c975abb14610ccd5780636386c1c714610bc957806370897b2314610b41578063715018a614610ac35780638456cb5914610a4b5780638778878214610a2d5780638da5cb5b146109f957806396f3556b146109a85780639a30722f1461098a578063a42dce80146108cc578063b6b55f2514610480578063bb21a997146103b2578063bbb85188146102c7578063c415b95c14610293578063dd5967c31461026e578063e1e158a51461024b578063e69fe137146102075763f2fde38b1461013d573861000f565b346102025760206003193601126102025760043573ffffffffffffffffffffffffffffffffffffffff80821680920361020257610178611d2b565b81156101d157600054827fffffffffffffffffffffffff0000000000000000000000000000000000000000821617600055167f8be0079c531659141344cd1fd0a4f28419497f9722a3daafe3b4186f6b6457e0600080a3005b60246040517f1e4fbdf700000000000000000000000000000000000000000000000000000000815260006004820152fd5b600080fd5b346102025760206003193601126102025760043573ffffffffffffffffffffffffffffffffffffffff8116810361020257610243602091611a9b565b604051908152f35b34610202576000600319360112610202576020604051678ac7230489e800008152f35b3461020257600060031936011261020257602060405169152d02c7e14af68000008152f35b3461020257600060031936011261020257602073ffffffffffffffffffffffffffffffffffffffff60075416604051908152f35b346102025760006003193601126102025760045460055490604051917f5011ec7a00000000000000000000000000000000000000000000000000000000835260208360048173ffffffffffffffffffffffffffffffffffffffff7f0000000000000000000000000000000000000000000000000000000000000000165afa9081156103a657600091610371575b608093506040519260008452602084015260408301526060820152f35b90506020833d60201161039e575b8161038c602093836119be565b81010312610202576080925190610354565b3d915061037f565b6040513d6000823e3d90fd5b34610202576000600319360112610202576103cb611b3f565b336000526003602052604060002060ff60048201541615610456576103ef33611b7a565b806103fb575b60018055005b61041f90600183019261040f82855461190d565b845560034291015560055461190d565b600555546040519081527f18cb9436df0c2ab8f3a0284742076c6ddf8a478776316b4b0d008d793723549060203392a280806103f5565b60046040517fa542e6b3000000000000000000000000000000000000000000000000000000008152fd5b3461020257602080600319360112610202576004359061049e611b3f565b6104a6611d7c565b678ac7230489e8000082106108a25769152d02c7e14af6800000821161087857336000526003815260ff6004604060002001541661084e577f000000000000000000000000000000000000000000000000000000000000000061054f6040517f23b872dd000000000000000000000000000000000000000000000000000000008482015233602482015230604482015284606482015260648152610549816119a2565b82611dca565b73ffffffffffffffffffffffffffffffffffffffff90817f000000000000000000000000000000000000000000000000000000000000000016906040518481017f095ea7b30000000000000000000000000000000000000000000000000000000090818152610615836105e98a88602484016020909392919373ffffffffffffffffffffffffffffffffffffffff60408201951681520152565b037fffffffffffffffffffffffffffffffffffffffffffffffffffffffffffffffe081018552846119be565b6000808786169285519082855af19061062c611e63565b8261081b575b5081610810575b501561078b575b505050604060009160248251809481937fb6b55f250000000000000000000000000000000000000000000000000000000083528960048401525af180156103a657610752575b5050604051610694816119a2565b828152600482820191600083526040810142815260608201904282526080830194600186523360005260038752604060002093518455516001840155516002830155516003820155019051151560ff7fffffffffffffffffffffffffffffffffffffffffffffffffffffffffffffff0083541691161790556107188260045461190d565b60045560405191825242908201527f73a19dd210f1a7f902193214c0ee91dd35ee5b4d920cba8d519eca65a7b488ca60403392a260018055005b6040813d604011610783575b8161076b604093836119be565b81010312610202575190811603610202578280610686565b3d915061075e565b6040939192935190868201528160248201526000604482015260448152608081019281841067ffffffffffffffff8511176107e1576000946107d56107da93604096875282611dca565b611dca565b9186610640565b7f4e487b7100000000000000000000000000000000000000000000000000000000600052604160045260246000fd5b90503b151588610639565b809192505190888215928315610836575b5050509089610632565b6108469350820181019101611db2565b89888161082c565b60046040517fc44bd765000000000000000000000000000000000000000000000000000000008152fd5b60046040517f7a9548a4000000000000000000000000000000000000000000000000000000008152fd5b60046040517f20d01f06000000000000000000000000000000000000000000000000000000008152fd5b346102025760206003193601126102025760043573ffffffffffffffffffffffffffffffffffffffff80821680920361020257610907611d2b565b811561096057600754827fffffffffffffffffffffffff0000000000000000000000000000000000000000821617600755167f5d16ad41baeb009cd23eb8f6c7cde5c2e0cd5acf4a33926ab488875c37c37f38600080a3005b60046040517fe6c4247b000000000000000000000000000000000000000000000000000000008152fd5b34610202576000600319360112610202576020600454604051908152f35b3461020257600060031936011261020257602060405173ffffffffffffffffffffffffffffffffffffffff7f0000000000000000000000000000000000000000000000000000000000000000168152f35b3461020257600060031936011261020257602073ffffffffffffffffffffffffffffffffffffffff60005416604051908152f35b34610202576000600319360112610202576020600654604051908152f35b3461020257600060031936011261020257610a64611d2b565b610a6c611d7c565b60017fffffffffffffffffffffffffffffffffffffffffffffffffffffffffffffff0060025416176002557f62e78cea01bee320cd4e420270b5ea74000d11b0c9f74754ebdbfc544b05a2586020604051338152a1005b3461020257600060031936011261020257610adc611d2b565b600073ffffffffffffffffffffffffffffffffffffffff81547fffffffffffffffffffffffff000000000000000000000000000000000000000081168355167f8be0079c531659141344cd1fd0a4f28419497f9722a3daafe3b4186f6b6457e08280a3005b3461020257602060031936011261020257600435610b5d611d2b565b6103e88111610b9f5760407f607b1c943753982194530bf7133a5972ea2626e028005410efa54ab20035caf891600654908060065582519182526020820152a1005b60046040517f58d620b3000000000000000000000000000000000000000000000000000000008152fd5b346102025760206003193601126102025760043573ffffffffffffffffffffffffffffffffffffffff8116908181036102025760e09160006080604051610c0f816119a2565b8281528260208201528260408201528260608201520152600052600360205260406000209060405191610c41836119a2565b805483526001810154916020840192835260028201549160408501928352610c8560ff60046003840154936060890194855201541692608087019315158452611a15565b92610c9f612710610c9860065487611949565b0485611995565b9460405196518752516020870152516040860152516060850152511515608084015260a083015260c0820152f35b3461020257600060031936011261020257602060ff600254166040519015158152f35b346102025760206003193601126102025760043573ffffffffffffffffffffffffffffffffffffffff8116810361020257610243602091611a15565b34610202576000600319360112610202576020600554604051908152f35b3461020257600060031936011261020257602060405173ffffffffffffffffffffffffffffffffffffffff7f0000000000000000000000000000000000000000000000000000000000000000168152f35b3461020257600060031936011261020257610db4611b3f565b33600052602060038152604060002060ff6004820154161561045657600190610ddc33611b7a565b80610fdc575b500180548015610fb257610e06612710610dfe60065484611949565b048092611995565b9173ffffffffffffffffffffffffffffffffffffffff90817f000000000000000000000000000000000000000000000000000000000000000016604051907f537bb1370000000000000000000000000000000000000000000000000000000082523060048301528682602481845afa80156103a6578792600091610f83575b50610f1a575b505060009055817f0000000000000000000000000000000000000000000000000000000000000000610ebe853383611cc7565b81610f04575b50505060405190828252838201527f10d8dedfc0745b8c25ba10b06e304138b251c18dcaadf2d71c7f3214719dc4d160403392a260018055604051908152f35b610f12926007541690611cc7565b838181610ec4565b906000916004604051809481937f406cf2290000000000000000000000000000000000000000000000000000000083525af19081156103a657869115610e8b57813d8311610f7c575b610f6d81836119be565b81010312610202578486610e8b565b503d610f63565b83819492503d8311610fab575b610f9a81836119be565b810103126102025786915188610e85565b503d610f90565b60046040517f2c5211c6000000000000000000000000000000000000000000000000000000008152fd5b610fea83830191825461190d565b905542600382015583610de2565b3461020257600060031936011261020257611011611d2b565b60025460ff81161561106e577fffffffffffffffffffffffffffffffffffffffffffffffffffffffffffffff00166002557f5db9ee0a495bf2e6ff9c91a7834c1ba4fdd244a5e8aa4e537bd38aeae4b073aa6020604051338152a1005b60046040517f8dfc202b000000000000000000000000000000000000000000000000000000008152fd5b34610202576000600319360112610202576110b1611b3f565b336000526003602052604060002060048101549060ff821615610456578054906110da33611b7a565b8061187d575b506001810154926127106110f660065486611949565b04936111028582611995565b92604051927f70a0823100000000000000000000000000000000000000000000000000000000845230600485015260208460248173ffffffffffffffffffffffffffffffffffffffff7f0000000000000000000000000000000000000000000000000000000000000000165afa9384156103a657600094611829575b507fffffffffffffffffffffffffffffffffffffffffffffffffffffffffffffff0016600491820155546111b28582611995565b90816004556111c1838761190d565b8085106112c2575b50505050506040926111fc83337f0000000000000000000000000000000000000000000000000000000000000000611cc7565b81611292575b80611249575b5082518281528160208201527f92ccf450a286a957af52509bc1c9939d1a6a481783e142e41e2499f0bb66ebc6843392a26001805582519182526020820152f35b61128c9073ffffffffffffffffffffffffffffffffffffffff600754167f0000000000000000000000000000000000000000000000000000000000000000611cc7565b83611208565b6112bd82337f0000000000000000000000000000000000000000000000000000000000000000611cc7565b611202565b846112cc91611995565b91611571575050506040517f5b7c2dad00000000000000000000000000000000000000000000000000000000815230600482015260408160248173ffffffffffffffffffffffffffffffffffffffff7f0000000000000000000000000000000000000000000000000000000000000000165afa80156103a65761135a9160009060009261153f575b5061190d565b80611370575b50506040925b92848080806111c9565b604092919251907f2e1a7d4d0000000000000000000000000000000000000000000000000000000082526004820152602081602481600073ffffffffffffffffffffffffffffffffffffffff7f0000000000000000000000000000000000000000000000000000000000000000165af19081611514575b506114275750604092508180821061141d5761140291611995565b611414612710610dfe60065484611949565b905b9284611360565b5050600080611416565b9050604051927f70a0823100000000000000000000000000000000000000000000000000000000845230600485015260208460248173ffffffffffffffffffffffffffffffffffffffff7f0000000000000000000000000000000000000000000000000000000000000000165afa9384156103a6576000946114e0575b5082848160409610156114b9575b5050611416565b9091506114c69250611995565b6114d8612710610dfe60065484611949565b9082856114b2565b93506020843d60201161150c575b816114fb602093836119be565b8101031261020257925192826114a4565b3d91506114ee565b602090813d8311611538575b61152a81836119be565b8101031261020257856113e7565b503d611520565b9050611563915060403d60401161156a575b61155b81836119be565b8101906119ff565b9087611354565b503d611551565b604096929694939451907f5b7c2dad00000000000000000000000000000000000000000000000000000000825230600483015260408260248173ffffffffffffffffffffffffffffffffffffffff7f0000000000000000000000000000000000000000000000000000000000000000165afa9182156103a657876116066116109461160b93600090600092611807575061190d565b611949565b61195c565b8082101561180057505b604051907f2e1a7d4d0000000000000000000000000000000000000000000000000000000082526004820152602081602481600073ffffffffffffffffffffffffffffffffffffffff7f0000000000000000000000000000000000000000000000000000000000000000165af190816117d5575b506116cd5750604093508290508082106116c3576116ab91611995565b6116bd612710610dfe60065484611949565b90611366565b5050600080611366565b909150604051937f70a0823100000000000000000000000000000000000000000000000000000000855230600486015260208560248173ffffffffffffffffffffffffffffffffffffffff7f0000000000000000000000000000000000000000000000000000000000000000165afa9485156103a65760009561179f575b50936117596040958561190d565b8110611766575b50611366565b91508290508082106117955761177b91611995565b61178d612710610dfe60065484611949565b905b84611760565b505060008061178f565b94506020853d6020116117cd575b816117ba602093836119be565b810103126102025793519361175961174b565b3d91506117ad565b602090813d83116117f9575b6117eb81836119be565b81010312610202578661168e565b503d6117e1565b905061161a565b9050611822915060403d60401161156a5761155b81836119be565b908d611354565b9093506020813d602011611875575b81611845602093836119be565b810103126102025751927fffffffffffffffffffffffffffffffffffffffffffffffffffffffffffffff0061117e565b3d9150611838565b61188c6001830191825461190d565b9055836110e0565b34610202576020600319360112610202576004359073ffffffffffffffffffffffffffffffffffffffff82168092036102025760a09160005260036020526040600020805490600181015460028201549060ff600460038501549401541693855260208501526040840152606083015215156080820152f35b9190820180921161191a57565b7f4e487b7100000000000000000000000000000000000000000000000000000000600052601160045260246000fd5b8181029291811591840414171561191a57565b8115611966570490565b7f4e487b7100000000000000000000000000000000000000000000000000000000600052601260045260246000fd5b9190820391821161191a57565b60a0810190811067ffffffffffffffff8211176107e157604052565b90601f7fffffffffffffffffffffffffffffffffffffffffffffffffffffffffffffffe0910116810190811067ffffffffffffffff8211176107e157604052565b9190826040910312610202576020825192015190565b73ffffffffffffffffffffffffffffffffffffffff811660005260036020526040600020604051611a45816119a2565b8154815260ff6004600184015493602084019485526002810154604085015260038101546060850152015416159060808215910152611a9457611a8a611a9192611b7a565b905161190d565b90565b5050600090565b73ffffffffffffffffffffffffffffffffffffffff8116600052600360205260406000209060405191611acd836119a2565b60ff6004825492838652600181015460208701526002810154604087015260038101546060870152015416159081159182608086015291611b36575b50611a9457611b1790611a15565b6127109081810291818304149015171561191a57611a9191519061195c565b90501538611b09565b600260015414611b50576002600155565b60046040517f3ee5aeb5000000000000000000000000000000000000000000000000000000008152fd5b73ffffffffffffffffffffffffffffffffffffffff8060009216825260209160038352604081209160ff600460405194611bb3866119a2565b80548652600181015487870152600281015460408701526003810154606087015201541615801560808501819052611cbd575b611cb65783602491604051928380927f537bb1370000000000000000000000000000000000000000000000000000000082523060048301527f0000000000000000000000000000000000000000000000000000000000000000165afa938415611cab578294611c77575b50508215611c715750611a9191611c68915190611949565b6004549061195c565b91505090565b9080929450813d8311611ca4575b611c8f81836119be565b81010312611ca05751913880611c50565b8280fd5b503d611c85565b6040513d84823e3d90fd5b5091505090565b5060045415611be6565b6040517fa9059cbb00000000000000000000000000000000000000000000000000000000602082015273ffffffffffffffffffffffffffffffffffffffff929092166024830152604480830193909352918152611d29916107d56064836119be565b565b73ffffffffffffffffffffffffffffffffffffffff600054163303611d4c57565b60246040517f118cdaa7000000000000000000000000000000000000000000000000000000008152336004820152fd5b60ff60025416611d8857565b60046040517fd93c0665000000000000000000000000000000000000000000000000000000008152fd5b90816020910312610202575180151581036102025790565b60008073ffffffffffffffffffffffffffffffffffffffff611e0193169360208151910182865af1611dfa611e63565b9083611ec1565b8051908115159182611e48575b5050611e175750565b602490604051907f5274afe70000000000000000000000000000000000000000000000000000000082526004820152fd5b611e5b9250602080918301019101611db2565b153880611e0e565b3d15611ebc573d9067ffffffffffffffff82116107e15760405191611eb060207fffffffffffffffffffffffffffffffffffffffffffffffffffffffffffffffe0601f84011601846119be565b82523d6000602084013e565b606090565b90611f005750805115611ed657805190602001fd5b60046040517f1425ea42000000000000000000000000000000000000000000000000000000008152fd5b81511580611f58575b611f11575090565b60249073ffffffffffffffffffffffffffffffffffffffff604051917f9996b315000000000000000000000000000000000000000000000000000000008352166004820152fd5b50803b15611f0956fea26469706673582212201f476a3370932557f2c324ab6481252ae07874978bf87d4b2795d5e86d0baa1f64736f6c63430008190033",
    "linkReferences": {}
  },
  "methodIdentifiers": {
    "MAX_DEPOSIT()": "dd5967c3",
    "MIN_DEPOSIT()": "e1e158a5",
    "MUSD()": "43a82621",
    "YIELD_AGGREGATOR()": "96f3556b",
    "calculateYield(address)": "567add64",
    "claimYield()": "406cf229",
    "deposit(uint256)": "b6b55f25",
    "feeCollector()": "c415b95c",
    "getPoolStats()": "bbb85188",
    "getUserInfo(address)": "6386c1c7",
    "getUserRoi(address)": "e69fe137",
    "owner()": "8da5cb5b",
    "pause()": "8456cb59",
    "paused()": "5c975abb",
    "performanceFee()": "87788782",
    "renounceOwnership()": "715018a6",
    "setFeeCollector(address)": "a42dce80",
    "setPerformanceFee(uint256)": "70897b23",
    "totalMusdDeposited()": "9a30722f",
    "totalYieldsGenerated()": "480225c3",
    "transferOwnership(address)": "f2fde38b",
    "unpause()": "3f4ba83a",
    "updateYield()": "bb21a997",
    "userDeposits(address)": "0ba36dcd",
    "withdraw()": "3ccfd60b"
  },
  "id": 9
}