{
  "abi": [
    {
      "type": "constructor",
      "inputs": [
        {
          "name": "_wbtcToken",
          "type": "address",
          "internalType": "address"
        },
        {
          "name": "_musdToken",
          "type": "address",
          "internalType": "address"
        },
        {
          "name": "_borrowerOperations",
          "type": "address",
          "internalType": "address"
        },
        {
          "name": "_priceFeed",
          "type": "address",
          "internalType": "address"
        },
        {
          "name": "_hintHelpers",
          "type": "address",
          "internalType": "address"
        },
        {
          "name": "_troveManager",
          "type": "address",
          "internalType": "address"
        }
      ],
      "stateMutability": "nonpayable"
    },
    {
      "type": "receive",
      "stateMutability": "payable"
    },
    {
      "type": "function",
      "name": "BORROWER_OPERATIONS",
      "inputs": [],
      "outputs": [
        {
          "name": "",
          "type": "address",
          "internalType": "contract IMezoBorrowerOperations"
        }
      ],
      "stateMutability": "view"
    },
    {
      "type": "function",
      "name": "HINT_HELPERS",
      "inputs": [],
      "outputs": [
        {
          "name": "",
          "type": "address",
          "internalType": "contract IMezoHintHelpers"
        }
      ],
      "stateMutability": "view"
    },
    {
      "type": "function",
      "name": "HINT_TRIALS",
      "inputs": [],
      "outputs": [
        {
          "name": "",
          "type": "uint256",
          "internalType": "uint256"
        }
      ],
      "stateMutability": "view"
    },
    {
      "type": "function",
      "name": "MUSD_TOKEN",
      "inputs": [],
      "outputs": [
        {
          "name": "",
          "type": "address",
          "internalType": "contract IERC20"
        }
      ],
      "stateMutability": "view"
    },
    {
      "type": "function",
      "name": "PRICE_FEED",
      "inputs": [],
      "outputs": [
        {
          "name": "",
          "type": "address",
          "internalType": "contract IMezoPriceFeed"
        }
      ],
      "stateMutability": "view"
    },
    {
      "type": "function",
      "name": "PRICE_STALENESS_THRESHOLD",
      "inputs": [],
      "outputs": [
        {
          "name": "",
          "type": "uint256",
          "internalType": "uint256"
        }
      ],
      "stateMutability": "view"
    },
    {
      "type": "function",
      "name": "TROVE_MANAGER",
      "inputs": [],
      "outputs": [
        {
          "name": "",
          "type": "address",
          "internalType": "contract IMezoTroveManager"
        }
      ],
      "stateMutability": "view"
    },
    {
      "type": "function",
      "name": "WBTC_TOKEN",
      "inputs": [],
      "outputs": [
        {
          "name": "",
          "type": "address",
          "internalType": "contract IERC20"
        }
      ],
      "stateMutability": "view"
    },
    {
      "type": "function",
      "name": "addCollateral",
      "inputs": [
        {
          "name": "btcAmount",
          "type": "uint256",
          "internalType": "uint256"
        }
      ],
      "outputs": [],
      "stateMutability": "nonpayable"
    },
    {
      "type": "function",
      "name": "burnAndWithdraw",
      "inputs": [
        {
          "name": "musdAmount",
          "type": "uint256",
          "internalType": "uint256"
        }
      ],
      "outputs": [
        {
          "name": "btcAmount",
          "type": "uint256",
          "internalType": "uint256"
        }
      ],
      "stateMutability": "nonpayable"
    },
    {
      "type": "function",
      "name": "depositAndMint",
      "inputs": [
        {
          "name": "btcAmount",
          "type": "uint256",
          "internalType": "uint256"
        }
      ],
      "outputs": [
        {
          "name": "musdAmount",
          "type": "uint256",
          "internalType": "uint256"
        }
      ],
      "stateMutability": "nonpayable"
    },
    {
      "type": "function",
      "name": "emergencyWithdraw",
      "inputs": [
        {
          "name": "token",
          "type": "address",
          "internalType": "address"
        },
        {
          "name": "amount",
          "type": "uint256",
          "internalType": "uint256"
        }
      ],
      "outputs": [],
      "stateMutability": "nonpayable"
    },
    {
      "type": "function",
      "name": "getBorrowRate",
      "inputs": [],
      "outputs": [
        {
          "name": "rate",
          "type": "uint256",
          "internalType": "uint256"
        }
      ],
      "stateMutability": "view"
    },
    {
      "type": "function",
      "name": "getBtcBalance",
      "inputs": [
        {
          "name": "user",
          "type": "address",
          "internalType": "address"
        }
      ],
      "outputs": [
        {
          "name": "btcBalance",
          "type": "uint256",
          "internalType": "uint256"
        }
      ],
      "stateMutability": "view"
    },
    {
      "type": "function",
      "name": "getBtcPrice",
      "inputs": [],
      "outputs": [
        {
          "name": "price",
          "type": "uint256",
          "internalType": "uint256"
        }
      ],
      "stateMutability": "view"
    },
    {
      "type": "function",
      "name": "getCollateralRatio",
      "inputs": [
        {
          "name": "user",
          "type": "address",
          "internalType": "address"
        }
      ],
      "outputs": [
        {
          "name": "ratio",
          "type": "uint256",
          "internalType": "uint256"
        }
      ],
      "stateMutability": "view"
    },
    {
      "type": "function",
      "name": "getLiquidationThreshold",
      "inputs": [],
      "outputs": [
        {
          "name": "threshold",
          "type": "uint256",
          "internalType": "uint256"
        }
      ],
      "stateMutability": "view"
    },
    {
      "type": "function",
      "name": "getMinCollateralRatio",
      "inputs": [],
      "outputs": [
        {
          "name": "minRatio",
          "type": "uint256",
          "internalType": "uint256"
        }
      ],
      "stateMutability": "view"
    },
    {
      "type": "function",
      "name": "getMusdDebt",
      "inputs": [
        {
          "name": "user",
          "type": "address",
          "internalType": "address"
        }
      ],
      "outputs": [
        {
          "name": "musdDebt",
          "type": "uint256",
          "internalType": "uint256"
        }
      ],
      "stateMutability": "view"
    },
    {
      "type": "function",
      "name": "hintRandomSeed",
      "inputs": [],
      "outputs": [
        {
          "name": "",
          "type": "uint256",
          "internalType": "uint256"
        }
      ],
      "stateMutability": "view"
    },
    {
      "type": "function",
      "name": "isPositionHealthy",
      "inputs": [
        {
          "name": "user",
          "type": "address",
          "internalType": "address"
        }
      ],
      "outputs": [
        {
          "name": "isHealthy",
          "type": "bool",
          "internalType": "bool"
        }
      ],
      "stateMutability": "view"
    },
    {
      "type": "function",
      "name": "maxFeePercentage",
      "inputs": [],
      "outputs": [
        {
          "name": "",
          "type": "uint256",
          "internalType": "uint256"
        }
      ],
      "stateMutability": "view"
    },
    {
      "type": "function",
      "name": "mintMore",
      "inputs": [
        {
          "name": "musdAmount",
          "type": "uint256",
          "internalType": "uint256"
        }
      ],
      "outputs": [
        {
          "name": "success",
          "type": "bool",
          "internalType": "bool"
        }
      ],
      "stateMutability": "nonpayable"
    },
    {
      "type": "function",
      "name": "owner",
      "inputs": [],
      "outputs": [
        {
          "name": "",
          "type": "address",
          "internalType": "address"
        }
      ],
      "stateMutability": "view"
    },
    {
      "type": "function",
      "name": "pause",
      "inputs": [],
      "outputs": [],
      "stateMutability": "nonpayable"
    },
    {
      "type": "function",
      "name": "paused",
      "inputs": [],
      "outputs": [
        {
          "name": "",
          "type": "bool",
          "internalType": "bool"
        }
      ],
      "stateMutability": "view"
    },
    {
      "type": "function",
      "name": "refinanceTrove",
      "inputs": [],
      "outputs": [],
      "stateMutability": "nonpayable"
    },
    {
      "type": "function",
      "name": "renounceOwnership",
      "inputs": [],
      "outputs": [],
      "stateMutability": "nonpayable"
    },
    {
      "type": "function",
      "name": "repayDebt",
      "inputs": [
        {
          "name": "musdAmount",
          "type": "uint256",
          "internalType": "uint256"
        }
      ],
      "outputs": [],
      "stateMutability": "nonpayable"
    },
    {
      "type": "function",
      "name": "setMaxFeePercentage",
      "inputs": [
        {
          "name": "newMaxFee",
          "type": "uint256",
          "internalType": "uint256"
        }
      ],
      "outputs": [],
      "stateMutability": "nonpayable"
    },
    {
      "type": "function",
      "name": "setTargetLtv",
      "inputs": [
        {
          "name": "newLtv",
          "type": "uint256",
          "internalType": "uint256"
        }
      ],
      "outputs": [],
      "stateMutability": "nonpayable"
    },
    {
      "type": "function",
      "name": "targetLtv",
      "inputs": [],
      "outputs": [
        {
          "name": "",
          "type": "uint256",
          "internalType": "uint256"
        }
      ],
      "stateMutability": "view"
    },
    {
      "type": "function",
      "name": "totalBtcDeposited",
      "inputs": [],
      "outputs": [
        {
          "name": "",
          "type": "uint256",
          "internalType": "uint256"
        }
      ],
      "stateMutability": "view"
    },
    {
      "type": "function",
      "name": "totalMusdMinted",
      "inputs": [],
      "outputs": [
        {
          "name": "",
          "type": "uint256",
          "internalType": "uint256"
        }
      ],
      "stateMutability": "view"
    },
    {
      "type": "function",
      "name": "transferOwnership",
      "inputs": [
        {
          "name": "newOwner",
          "type": "address",
          "internalType": "address"
        }
      ],
      "outputs": [],
      "stateMutability": "nonpayable"
    },
    {
      "type": "function",
      "name": "unpause",
      "inputs": [],
      "outputs": [],
      "stateMutability": "nonpayable"
    },
    {
      "type": "function",
      "name": "userBtcCollateral",
      "inputs": [
        {
          "name": "",
          "type": "address",
          "internalType": "address"
        }
      ],
      "outputs": [
        {
          "name": "",
          "type": "uint256",
          "internalType": "uint256"
        }
      ],
      "stateMutability": "view"
    },
    {
      "type": "function",
      "name": "userMusdDebt",
      "inputs": [
        {
          "name": "",
          "type": "address",
          "internalType": "address"
        }
      ],
      "outputs": [
        {
          "name": "",
          "type": "uint256",
          "internalType": "uint256"
        }
      ],
      "stateMutability": "view"
    },
    {
      "type": "event",
      "name": "BTCDeposited",
      "inputs": [
        {
          "name": "user",
          "type": "address",
          "indexed": true,
          "internalType": "address"
        },
        {
          "name": "btcAmount",
          "type": "uint256",
          "indexed": false,
          "internalType": "uint256"
        },
        {
          "name": "musdMinted",
          "type": "uint256",
          "indexed": false,
          "internalType": "uint256"
        }
      ],
      "anonymous": false
    },
    {
      "type": "event",
      "name": "BTCWithdrawn",
      "inputs": [
        {
          "name": "user",
          "type": "address",
          "indexed": true,
          "internalType": "address"
        },
        {
          "name": "musdAmount",
          "type": "uint256",
          "indexed": false,
          "internalType": "uint256"
        },
        {
          "name": "btcReturned",
          "type": "uint256",
          "indexed": false,
          "internalType": "uint256"
        }
      ],
      "anonymous": false
    },
    {
      "type": "event",
      "name": "CollateralAdded",
      "inputs": [
        {
          "name": "user",
          "type": "address",
          "indexed": true,
          "internalType": "address"
        },
        {
          "name": "amount",
          "type": "uint256",
          "indexed": false,
          "internalType": "uint256"
        }
      ],
      "anonymous": false
    },
    {
      "type": "event",
      "name": "CollateralRatioUpdated",
      "inputs": [
        {
          "name": "user",
          "type": "address",
          "indexed": true,
          "internalType": "address"
        },
        {
          "name": "collateralRatio",
          "type": "uint256",
          "indexed": false,
          "internalType": "uint256"
        }
      ],
      "anonymous": false
    },
    {
      "type": "event",
      "name": "DebtRepaid",
      "inputs": [
        {
          "name": "user",
          "type": "address",
          "indexed": true,
          "internalType": "address"
        },
        {
          "name": "amount",
          "type": "uint256",
          "indexed": false,
          "internalType": "uint256"
        }
      ],
      "anonymous": false
    },
    {
      "type": "event",
      "name": "MaxFeeUpdated",
      "inputs": [
        {
          "name": "oldFee",
          "type": "uint256",
          "indexed": false,
          "internalType": "uint256"
        },
        {
          "name": "newFee",
          "type": "uint256",
          "indexed": false,
          "internalType": "uint256"
        }
      ],
      "anonymous": false
    },
    {
      "type": "event",
      "name": "OwnershipTransferred",
      "inputs": [
        {
          "name": "previousOwner",
          "type": "address",
          "indexed": true,
          "internalType": "address"
        },
        {
          "name": "newOwner",
          "type": "address",
          "indexed": true,
          "internalType": "address"
        }
      ],
      "anonymous": false
    },
    {
      "type": "event",
      "name": "Paused",
      "inputs": [
        {
          "name": "account",
          "type": "address",
          "indexed": false,
          "internalType": "address"
        }
      ],
      "anonymous": false
    },
    {
      "type": "event",
      "name": "TargetLtvUpdated",
      "inputs": [
        {
          "name": "oldLtv",
          "type": "uint256",
          "indexed": false,
          "internalType": "uint256"
        },
        {
          "name": "newLtv",
          "type": "uint256",
          "indexed": false,
          "internalType": "uint256"
        }
      ],
      "anonymous": false
    },
    {
      "type": "event",
      "name": "TroveRefinanced",
      "inputs": [
        {
          "name": "user",
          "type": "address",
          "indexed": true,
          "internalType": "address"
        },
        {
          "name": "oldRate",
          "type": "uint256",
          "indexed": false,
          "internalType": "uint256"
        },
        {
          "name": "newRate",
          "type": "uint256",
          "indexed": false,
          "internalType": "uint256"
        }
      ],
      "anonymous": false
    },
    {
      "type": "event",
      "name": "Unpaused",
      "inputs": [
        {
          "name": "account",
          "type": "address",
          "indexed": false,
          "internalType": "address"
        }
      ],
      "anonymous": false
    },
    {
      "type": "error",
      "name": "AddressEmptyCode",
      "inputs": [
        {
          "name": "target",
          "type": "address",
          "internalType": "address"
        }
      ]
    },
    {
      "type": "error",
      "name": "AddressInsufficientBalance",
      "inputs": [
        {
          "name": "account",
          "type": "address",
          "internalType": "address"
        }
      ]
    },
    {
      "type": "error",
      "name": "CollateralRatioTooLow",
      "inputs": []
    },
    {
      "type": "error",
      "name": "EnforcedPause",
      "inputs": []
    },
    {
      "type": "error",
      "name": "ExcessiveFee",
      "inputs": []
    },
    {
      "type": "error",
      "name": "ExpectedPause",
      "inputs": []
    },
    {
      "type": "error",
      "name": "FailedInnerCall",
      "inputs": []
    },
    {
      "type": "error",
      "name": "InsufficientBalance",
      "inputs": []
    },
    {
      "type": "error",
      "name": "InsufficientCollateral",
      "inputs": []
    },
    {
      "type": "error",
      "name": "InvalidAddress",
      "inputs": []
    },
    {
      "type": "error",
      "name": "InvalidAmount",
      "inputs": []
    },
    {
      "type": "error",
      "name": "InvalidLtv",
      "inputs": []
    },
    {
      "type": "error",
      "name": "OwnableInvalidOwner",
      "inputs": [
        {
          "name": "owner",
          "type": "address",
          "internalType": "address"
        }
      ]
    },
    {
      "type": "error",
      "name": "OwnableUnauthorizedAccount",
      "inputs": [
        {
          "name": "account",
          "type": "address",
          "internalType": "address"
        }
      ]
    },
    {
      "type": "error",
      "name": "PriceFeedFailure",
      "inputs": []
    },
    {
      "type": "error",
      "name": "ReentrancyGuardReentrantCall",
      "inputs": []
    },
    {
      "type": "error",
      "name": "SafeERC20FailedOperation",
      "inputs": [
        {
          "name": "token",
          "type": "address",
          "internalType": "address"
        }
      ]
    },
    {
      "type": "error",
      "name": "StalePriceData",
      "inputs": []
    },
    {
      "type": "error",
      "name": "TroveNotExists",
      "inputs": []
    },
    {
      "type": "error",
      "name": "UnhealthyPosition",
      "inputs": []
    }
  ],
  "bytecode": {
    "object": "0x610140346102e357601f6136dc38819003918201601f19168301916001600160401b038311848410176102e85780849260c0946040528339810103126102e357610048816102fe565b610054602083016102fe565b90610061604084016102fe565b61006d606085016102fe565b9061008660a061007f608088016102fe565b96016102fe565b9333156102ca5760008054336001600160a01b03198216811783556040516001600160a01b0397909388939192918416907f8be0079c531659141344cd1fd0a4f28419497f9722a3daafe3b4186f6b6457e09080a36001805560ff19600254166002556113886007556101f4600855602a6009551690811580156102c0575b80156102b6575b80156102ac575b80156102a2575b8015610298575b6102895750608052831660a052821660c052811660e05291821661010090815291166101209081526040516133c9929091908361031384396080518381816108f30152818161119e01528181611fcb0152612721015260a051838181611036015281816117ac01528181611969015281816122530152612772015260c05183818161044f01528181610a2101528181610c8601528181610dfd015281816110c3015281816116ec015281816119b2015281816121610152612445015260e051838181611d150152818161266a015281816126d0015281816128ef01528181612b240152612f3901525182818161031e015281816107b001528181610959015281816112400152818161162301528181611a0101528181612098015261237e0152518181816103e70152818161070f0152818161083a01528181610d25015281816115dd01528181611d4801528181611f5b015281816120600152818161297c0152612ba40152f35b63e6c4247b60e01b8152600490fd5b5085871615610121565b508588161561011a565b5085851615610113565b508584161561010c565b5085831615610105565b604051631e4fbdf760e01b815260006004820152602490fd5b600080fd5b634e487b7160e01b600052604160045260246000fd5b51906001600160a01b03821682036102e35756fe60806040818152600480361015610021575b505050361561001f57600080fd5b005b600092833560e01c9081630c51bb50146127e25750806315a3ba43146127b5578063251e2970146127965780632e5a6e25146127455780632ed41384146126f457806331eb318a146126a35780633a3610bc146126175780633f4ba83a1461257757806345fd046514611f945780634ae9b8bc14611f085780634c8f35ab14611cbe5780634d18598814611c9f5780635c975abb14611c7b578063609f2abd14611c395780636b09de451461192c5780636f8aba4c1461150b5780636fbd7987146114ec578063715018a61461146e5780637c695cc114610ff65780638033b34314610fb25780638456cb5914610f395780638da5cb5b14610f06578063908ee91c14610e7057806395ccea6714610e21578063a616236a14610dd0578063a66cd09414610d49578063a96e874d14610cf8578063ba1c5e8014610c33578063bafca75e14610c04578063bcc46e83146108b1578063bf654aac14610892578063bfbe0113146107d4578063c145208f14610783578063ea6a0631146106a9578063ec921dc11461068a578063f1f29448146102b4578063f25b9caa146102935763f2fde38b03610011573461028f57602060031936011261028f576101e56127fd565b906101ee612db4565b73ffffffffffffffffffffffffffffffffffffffff8092169283156102605750508254827fffffffffffffffffffffffff00000000000000000000000000000000000000008216178455167f8be0079c531659141344cd1fd0a4f28419497f9722a3daafe3b4186f6b6457e08380a380f35b908460249251917f1e4fbdf7000000000000000000000000000000000000000000000000000000008352820152fd5b8280fd5b5050346102b057816003193601126102b05760209051610e108152f35b5080fd5b50903461028f578260031936011261028f576102ce612e05565b6102d6612e40565b3383526020908282528084205415610662576102f0612ef4565b50338452600382528084205491838152818520549373ffffffffffffffffffffffffffffffffffffffff93847f000000000000000000000000000000000000000000000000000000000000000016958451917fc394a7fa0000000000000000000000000000000000000000000000000000000083528383015260248201528281604481895afa8015610658578790610626575b6060915060646009549161039683612fca565b600955865198899384927f7b41bdbe00000000000000000000000000000000000000000000000000000000845287840152600f602484015260448301525afa94851561061c5786956105e9575b50837f00000000000000000000000000000000000000000000000000000000000000001693868451967f92b7659b000000000000000000000000000000000000000000000000000000009283895233858a015285896024818b5afa9889156105df5783996105b0575b507f00000000000000000000000000000000000000000000000000000000000000001690813b1561028f5786517fdc1cdb2c00000000000000000000000000000000000000000000000000000000815273ffffffffffffffffffffffffffffffffffffffff9091168582018181526020810191909152909291839182908490829060400103925af180156105a65791602491859493610597575b5085519687938492835233908301525afa90811561058d57859161053a575b7fff54fd63bdaf9b02e179257caaba483509c9fad0061b4ffdc78de616094802fb935082519485528401523392a26001805580f35b80915083813d8311610586575b6105518183612868565b81010312610582577fff54fd63bdaf9b02e179257caaba483509c9fad0061b4ffdc78de616094802fb925190610505565b8480fd5b503d610547565b82513d87823e3d90fd5b6105a090612825565b386104e6565b85513d8a823e3d90fd5b9098508581813d83116105d8575b6105c88183612868565b8101031261028f5751973861044c565b503d6105be565b87513d85823e3d90fd5b61060c91955060603d606011610615575b6106048183612868565b810190612ff7565b505093386103e3565b503d6105fa565b83513d88823e3d90fd5b508281813d8311610651575b61063c8183612868565b8101031261064d5760609051610383565b8680fd5b503d610632565b84513d89823e3d90fd5b9050517faac50b9a000000000000000000000000000000000000000000000000000000008152fd5b5050346102b057816003193601126102b0576020906007549051908152f35b50903461028f57602060031936011261028f57806106c56127fd565b602473ffffffffffffffffffffffffffffffffffffffff9182845196879485937f6535983400000000000000000000000000000000000000000000000000000000855216908301527f0000000000000000000000000000000000000000000000000000000000000000165afa9182156107795760209392610748575b5051908152f35b816107699293503d8411610772575b6107618183612868565b810190612a1a565b90509038610741565b503d610757565b81513d85823e3d90fd5b5050346102b057816003193601126102b0576020905173ffffffffffffffffffffffffffffffffffffffff7f0000000000000000000000000000000000000000000000000000000000000000168152f35b50903461028f57602060031936011261028f57806107f06127fd565b602473ffffffffffffffffffffffffffffffffffffffff9182845196879485937f6535983400000000000000000000000000000000000000000000000000000000855216908301527f0000000000000000000000000000000000000000000000000000000000000000165afa9182156107795760209392610872575051908152f35b8161088a9293503d8411610772576107618183612868565b509038610741565b5050346102b057816003193601126102b0576020906008549051908152f35b503461028f57602080600319360112610b9f5781356108ce612e05565b6108d6612e40565b8015610bdc573385528282528385205415610bb4576109178130337f0000000000000000000000000000000000000000000000000000000000000000612e76565b61091f612ef4565b5033855260038252846109358286832054612a30565b338252848452858220549073ffffffffffffffffffffffffffffffffffffffff90817f000000000000000000000000000000000000000000000000000000000000000016928851917fc394a7fa0000000000000000000000000000000000000000000000000000000083528883015260248201528581604481865afa8015610baa578490610b78575b606091506064600954916109d183612fca565b6009558a5195869384927f7b41bdbe0000000000000000000000000000000000000000000000000000000084528c840152600f602484015260448301525afa9182156105df578392610b55575b507f000000000000000000000000000000000000000000000000000000000000000016803b1561028f5786517f68647db100000000000000000000000000000000000000000000000000000000815273ffffffffffffffffffffffffffffffffffffffff9092169582018681526020810196909652909485919082908590829060400103925af1928315610b4b577f5df4a380d031a0e376374afc135a169947507e8d855a4053204d5756c9b3770a93610b3c575b5033855260038252838520610ae9828254612a30565b9055610af781600554612a30565b60055583519081527f7dba1be544024070cd5eebfa8bdd80a8b198cea8058c7d3cc1f8dd36e41ab2f7823392a2610b2d336128a9565b92519283523392a26001805580f35b610b4590612825565b38610ad3565b84513d87823e3d90fd5b610b6f91925060603d606011610615576106048183612868565b50509038610a1e565b508581813d8311610ba3575b610b8e8183612868565b81010312610b9f57606090516109be565b8380fd5b503d610b84565b88513d86823e3d90fd5b8284517faac50b9a000000000000000000000000000000000000000000000000000000008152fd5b8284517f2c5211c6000000000000000000000000000000000000000000000000000000008152fd5b5050346102b05760206003193601126102b057602090610c2a610c256127fd565b612add565b90519015158152f35b50903461028f578260031936011261028f576020815180937ff36b24250000000000000000000000000000000000000000000000000000000082528173ffffffffffffffffffffffffffffffffffffffff7f0000000000000000000000000000000000000000000000000000000000000000165afa918215610779578392610cc0575b6020838351908152f35b9091506020813d602011610cf0575b81610cdc60209383612868565b8101031261028f5760209250519038610cb6565b3d9150610ccf565b5050346102b057816003193601126102b0576020905173ffffffffffffffffffffffffffffffffffffffff7f0000000000000000000000000000000000000000000000000000000000000000168152f35b503461028f57602060031936011261028f57803590610d66612db4565b6103e88211610da95750907f55da9d9f29042024b8aad914fbf7f6bccc42cf3222745e3cbcb20eee5858880c91600854908060085582519182526020820152a180f35b82517f2977da44000000000000000000000000000000000000000000000000000000008152fd5b5050346102b057816003193601126102b0576020905173ffffffffffffffffffffffffffffffffffffffff7f0000000000000000000000000000000000000000000000000000000000000000168152f35b5050346102b057600319360112610e6d57610e6a610e3d6127fd565b610e45612db4565b73ffffffffffffffffffffffffffffffffffffffff906024359180855416911661302f565b80f35b80fd5b503461028f57602060031936011261028f57803590610e8d612db4565b81158015610efb575b610ed45750907f0bd7982682c978add3b1b136759e3532886101b4dab456d4b6e2d42f0db3562391600754908060075582519182526020820152a180f35b82517f649641c2000000000000000000000000000000000000000000000000000000008152fd5b50611f408211610e96565b5050346102b057816003193601126102b05773ffffffffffffffffffffffffffffffffffffffff60209254169051908152f35b5050346102b057816003193601126102b05760207f62e78cea01bee320cd4e420270b5ea74000d11b0c9f74754ebdbfc544b05a25891610f77612db4565b610f7f612e40565b60017fffffffffffffffffffffffffffffffffffffffffffffffffffffffffffffff00600254161760025551338152a180f35b5050346102b05760206003193601126102b0578060209273ffffffffffffffffffffffffffffffffffffffff610fe66127fd565b1681526003845220549051908152f35b50903461028f5760209283600319360112610e6d57823590611016612e05565b61101e612e40565b81156114465733815283855281838220541061141e577f000000000000000000000000000000000000000000000000000000000000000061106183303384612e76565b670de0b6b3a764000080840284810482036113f25761108d61109d91338652888a528786205490612aa4565b3385526003895286852054612a91565b046110a6612ef4565b5073ffffffffffffffffffffffffffffffffffffffff6110ea85827f0000000000000000000000000000000000000000000000000000000000000000168095613096565b338452868852858420548510611214575050803b156102b057818091868651809481937f0e704d500000000000000000000000000000000000000000000000000000000083525af1801561120a57908492916111fb575b503381526003865281812054945b33825260038752828220611164878254612a84565b9055338252865220611177828254612a84565b905561118583600554612a84565b60055561119481600654612a84565b6006556111c283337f000000000000000000000000000000000000000000000000000000000000000061302f565b815190815282848201527f71efa43b3781b588a139cf6286b2178ba93e86642b9650907687a9a1bb6bfc13823392a26001805551908152f35b61120490612825565b38611141565b84513d84823e3d90fd5b60038897939297526112298787862054612a84565b33855283895261123c8688872054612a84565b90827f000000000000000000000000000000000000000000000000000000000000000016918851917fc394a7fa0000000000000000000000000000000000000000000000000000000083528683015260248201528981604481855afa80156113e85786906113b6575b606091506064600954916112b883612fca565b6009558a5194859384927f7b41bdbe0000000000000000000000000000000000000000000000000000000084528a840152600f602484015260448301525afa9081156113ac57859161138b575b50823b15610582579060a4859283895195869485937f45c842e60000000000000000000000000000000000000000000000000000000085528d8a8601528b60248601528360448601521680606485015260848401525af18015611381579085939291611372575b5061114f565b61137b90612825565b3861136c565b85513d85823e3d90fd5b6113a4915060603d606011610615576106048183612868565b505038611305565b87513d87823e3d90fd5b508981813d83116113e1575b6113cc8183612868565b810103126113dd57606090516112a5565b8580fd5b503d6113c2565b88513d88823e3d90fd5b6024846011897f4e487b7100000000000000000000000000000000000000000000000000000000835252fd5b5050517ff4d678b8000000000000000000000000000000000000000000000000000000008152fd5b5050517f2c5211c6000000000000000000000000000000000000000000000000000000008152fd5b8334610e6d5780600319360112610e6d57611487612db4565b8073ffffffffffffffffffffffffffffffffffffffff81547fffffffffffffffffffffffff000000000000000000000000000000000000000081168355167f8be0079c531659141344cd1fd0a4f28419497f9722a3daafe3b4186f6b6457e08280a380f35b5050346102b057816003193601126102b0576020906006549051908152f35b509134610e6d57602092836003193601126102b05780359161152b612e05565b611533612e40565b82156119045733815281855283812054156118dc57611550612ef4565b913382528086526305f5e10061157d61156c8688862054612a30565b943385526003895287852054612a91565b04612710908181029181830414901517156118b0578361159c91612aa4565b85517f794e572400000000000000000000000000000000000000000000000000000000815273ffffffffffffffffffffffffffffffffffffffff91888285817f000000000000000000000000000000000000000000000000000000000000000087165afa91821561184f578592611881575b501061185957338352600387528583205490807f000000000000000000000000000000000000000000000000000000000000000016918751907fc394a7fa000000000000000000000000000000000000000000000000000000008252848201528560248201528881604481865afa801561184f578590611821575b6060915060646009549161169c83612fca565b6009558a5195869384927f7b41bdbe00000000000000000000000000000000000000000000000000000000845289840152600f602484015260448301525afa9182156118175784926117f4575b507f000000000000000000000000000000000000000000000000000000000000000016600854813b156105825787517f5f705f690000000000000000000000000000000000000000000000000000000081528481019182526020820188905273ffffffffffffffffffffffffffffffffffffffff9093166040820181905260608201528491839182908490829060800103925af180156117ea57916117d09594939187936117db575b50338252875220556117a681600654612a30565b600655337f000000000000000000000000000000000000000000000000000000000000000061302f565b600180555160018152f35b6117e490612825565b38611792565b86513d85823e3d90fd5b61180e91925060603d606011610615576106048183612868565b505090386116e9565b87513d86823e3d90fd5b508881813d8311611848575b6118378183612868565b810103126105825760609051611689565b503d61182d565b88513d87823e3d90fd5b5084517fe247bc92000000000000000000000000000000000000000000000000000000008152fd5b9091508881813d83116118a9575b6118998183612868565b810103126105825751903861160e565b503d61188f565b6024836011847f4e487b7100000000000000000000000000000000000000000000000000000000835252fd5b5082517faac50b9a000000000000000000000000000000000000000000000000000000008152fd5b5082517f2c5211c6000000000000000000000000000000000000000000000000000000008152fd5b503461028f57602080600319360112610b9f578135611949612e05565b611951612e40565b8015610bdc57338552828252808486205410611c11577f00000000000000000000000000000000000000000000000000000000000000009261199582303387612e76565b8573ffffffffffffffffffffffffffffffffffffffff6119d984827f0000000000000000000000000000000000000000000000000000000000000000168098613096565b6119e1612ef4565b5033825260038552868220548386526119fd8589852054612a84565b90827f000000000000000000000000000000000000000000000000000000000000000016918951917fc394a7fa0000000000000000000000000000000000000000000000000000000083528683015260248201528681604481855afa8015611c07578490611bd9575b60609150606460095491611a7983612fca565b6009558b5194859384927f7b41bdbe0000000000000000000000000000000000000000000000000000000084528a840152600f602484015260448301525afa908115611bcf578391611bae575b50863b1561028f5760649083895198899485937fdc283bb300000000000000000000000000000000000000000000000000000000855289898601521680602485015260448401525af1938415611ba4577f5df4a380d031a0e376374afc135a169947507e8d855a4053204d5756c9b3770a94611b95575b503386528252838520611b51828254612a84565b9055611b5f81600654612a84565b60065583519081527fe8b606ac1e5df7657db58d297ca8f41c090fc94c5fd2d6958f043e41736e9fa6823392a2610b2d336128a9565b611b9e90612825565b38611b3d565b85513d88823e3d90fd5b611bc7915060603d606011610615576106048183612868565b505038611ac6565b88513d85823e3d90fd5b508681813d8311611c00575b611bef8183612868565b81010312610b9f5760609051611a66565b503d611be5565b89513d86823e3d90fd5b8284517ff4d678b8000000000000000000000000000000000000000000000000000000008152fd5b503461028f57602060031936011261028f57602092829173ffffffffffffffffffffffffffffffffffffffff611c6d6127fd565b168252845220549051908152f35b5050346102b057816003193601126102b05760209060ff6002541690519015158152f35b5050346102b057816003193601126102b0576020906009549051908152f35b509134610e6d5780600319360112610e6d5773ffffffffffffffffffffffffffffffffffffffff9282517f0490be8300000000000000000000000000000000000000000000000000000000815260209485828481847f0000000000000000000000000000000000000000000000000000000000000000165afa918215611ecf578492611ed9575b507f000000000000000000000000000000000000000000000000000000000000000016908451907f4e443d9e000000000000000000000000000000000000000000000000000000008252838201528581602481855afa908115611ecf57908692918591611ea2575b5015611e31578451928380927f5733d58f0000000000000000000000000000000000000000000000000000000082525afa918215611e26578092611df6575b5050905b51908152f35b9091508382813d8311611e1f575b611e0e8183612868565b81010312610e6d5750513880611dec565b503d611e04565b8351903d90823e3d90fd5b8451928380927f794e57240000000000000000000000000000000000000000000000000000000082525afa918215611e26578092611e72575b505090611df0565b9091508382813d8311611e9b575b611e8a8183612868565b81010312610e6d5750513880611e6a565b503d611e80565b611ec29150833d8511611ec8575b611eba8183612868565b810190612a6c565b38611dad565b503d611eb0565b85513d86823e3d90fd5b9091508581813d8311611f01575b611ef18183612868565b81010312610b9f57519038611d45565b503d611ee7565b50903461028f578260031936011261028f576020815180937f794e57240000000000000000000000000000000000000000000000000000000082528173ffffffffffffffffffffffffffffffffffffffff7f0000000000000000000000000000000000000000000000000000000000000000165afa918215610779578392610cc0576020838351908152f35b509190346102b0576020928360031936011261028f57803590611fb5612e05565b611fbd612e40565b811561255057611fef8230337f0000000000000000000000000000000000000000000000000000000000000000612e76565b612710612015611ffd612ef4565b6305f5e10061200f6007549287612a91565b04612a91565b049373ffffffffffffffffffffffffffffffffffffffff84517f65359834000000000000000000000000000000000000000000000000000000008152338482015260249086818381867f0000000000000000000000000000000000000000000000000000000000000000165afa908115611817578491612531575b5061235257817f0000000000000000000000000000000000000000000000000000000000000000168651907fc394a7fa000000000000000000000000000000000000000000000000000000008252868683015288838301528982604481845afa91821561184f578592612322575b50916064606092600f959460095461211581612fca565b6009558b5197889586947f7b41bdbe0000000000000000000000000000000000000000000000000000000086528c86015284015260448301525afa9182156117ea5783926122ff575b507f000000000000000000000000000000000000000000000000000000000000000016600854813b15610b9f5786517f860665b30000000000000000000000000000000000000000000000000000000081528581019182526020820189905273ffffffffffffffffffffffffffffffffffffffff9093166040820181905260608201528391839182908890829060800103925af180156122f557908592916122e6575b505b33815260038752818120612218858254612a30565b90553381528287522061222c858254612a30565b905561223a82600554612a30565b60055561224984600654612a30565b60065561227784337f000000000000000000000000000000000000000000000000000000000000000061302f565b61228033612add565b156122bf5750815190815282848201527ff1048c0beef5b81978cccc9de417eba45a7814dd31609c3d5be8ce66685f336b823392a26001805551908152f35b82517fe247bc92000000000000000000000000000000000000000000000000000000008152fd5b6122ef90612825565b38612201565b85513d84823e3d90fd5b61231991925060603d606011610615576106048183612868565b5050903861215e565b9091508981813d831161234b575b61233a8183612868565b8101031261058257519060646120fe565b503d612330565b338352600388526123668587852054612a30565b9133845284895261237a8888862054612a30565b92817f000000000000000000000000000000000000000000000000000000000000000016938851917fc394a7fa00000000000000000000000000000000000000000000000000000000835287830152838201528981604481875afa801561184f578590612503575b606091506064600954916123f583612fca565b6009558a5196879384927f7b41bdbe0000000000000000000000000000000000000000000000000000000084528b840152600f8884015260448301525afa9283156118175784936124e0575b50807f00000000000000000000000000000000000000000000000000000000000000001690813b15610582578492878a9360a4938b5197889687957f45c842e6000000000000000000000000000000000000000000000000000000008752898d880152860152600160448601521680606485015260848401525af180156122f557908592916124d1575b50612203565b6124da90612825565b386124cb565b6124fa91935060603d606011610615576106048183612868565b50509138612441565b508981813d831161252a575b6125198183612868565b8101031261058257606090516123e2565b503d61250f565b6125489150873d8911610772576107618183612868565b905038612090565b82517f2c5211c6000000000000000000000000000000000000000000000000000000008152fd5b503461028f578260031936011261028f57612590612db4565b6002549060ff8216156125f057507f5db9ee0a495bf2e6ff9c91a7834c1ba4fdd244a5e8aa4e537bd38aeae4b073aa917fffffffffffffffffffffffffffffffffffffffffffffffffffffffffffffff006020921660025551338152a180f35b82517f8dfc202b000000000000000000000000000000000000000000000000000000008152fd5b50903461028f578260031936011261028f576020815180937f0490be830000000000000000000000000000000000000000000000000000000082528173ffffffffffffffffffffffffffffffffffffffff7f0000000000000000000000000000000000000000000000000000000000000000165afa918215610779578392610cc0576020838351908152f35b5050346102b057816003193601126102b0576020905173ffffffffffffffffffffffffffffffffffffffff7f0000000000000000000000000000000000000000000000000000000000000000168152f35b5050346102b057816003193601126102b0576020905173ffffffffffffffffffffffffffffffffffffffff7f0000000000000000000000000000000000000000000000000000000000000000168152f35b5050346102b057816003193601126102b0576020905173ffffffffffffffffffffffffffffffffffffffff7f0000000000000000000000000000000000000000000000000000000000000000168152f35b5050346102b057816003193601126102b0576020906005549051908152f35b5050346102b05760206003193601126102b0576020906127db6127d66127fd565b6128a9565b9051908152f35b8490346102b057816003193601126102b05780600f60209252f35b6004359073ffffffffffffffffffffffffffffffffffffffff8216820361282057565b600080fd5b67ffffffffffffffff811161283957604052565b7f4e487b7100000000000000000000000000000000000000000000000000000000600052604160045260246000fd5b90601f7fffffffffffffffffffffffffffffffffffffffffffffffffffffffffffffffe0910116810190811067ffffffffffffffff82111761283957604052565b73ffffffffffffffffffffffffffffffffffffffff6040517f0490be830000000000000000000000000000000000000000000000000000000081526020928382600481867f0000000000000000000000000000000000000000000000000000000000000000165afa9081156129db5784926000926129e7575b506040517fd293c71000000000000000000000000000000000000000000000000000000000815273ffffffffffffffffffffffffffffffffffffffff909116600482015260248101919091529182908180604481015b03917f0000000000000000000000000000000000000000000000000000000000000000165afa9182156129db576000926129b157505090565b90809250813d83116129d4575b6129c88183612868565b81010312612820575190565b503d6129be565b6040513d6000823e3d90fd5b8381949293503d8311612a13575b6129ff8183612868565b810103126128205790518391612978612922565b503d6129f5565b9190826040910312612820576020825192015190565b91908201809211612a3d57565b7f4e487b7100000000000000000000000000000000000000000000000000000000600052601160045260246000fd5b90816020910312612820575180151581036128205790565b91908203918211612a3d57565b81810292918115918404141715612a3d57565b8115612aae570490565b7f4e487b7100000000000000000000000000000000000000000000000000000000600052601260045260246000fd5b604080517f0490be8300000000000000000000000000000000000000000000000000000000815273ffffffffffffffffffffffffffffffffffffffff9260209081836004817f000000000000000000000000000000000000000000000000000000000000000089165afa928315612d4957600093612d83575b5083517fd293c71000000000000000000000000000000000000000000000000000000000815273ffffffffffffffffffffffffffffffffffffffff91909116600482015260248101839052937f0000000000000000000000000000000000000000000000000000000000000000168185604481845afa948515612d4957600095612d54575b508351927f4e443d9e00000000000000000000000000000000000000000000000000000000845260048401528183602481845afa928315612d4957906004939291600093612d2a575b5060009215612caa578192508451938480927f5733d58f0000000000000000000000000000000000000000000000000000000082525afa928315612ca05750600092612c72575b5050111590565b90809250813d8311612c99575b612c898183612868565b8101031261282057513880612c6b565b503d612c7f565b513d6000823e3d90fd5b81908551948580927f794e57240000000000000000000000000000000000000000000000000000000082525afa938415612d1f57508193612cee575b505050111590565b9091809350813d8311612d18575b612d068183612868565b81010312610e6d575051388080612ce6565b503d612cfc565b51913d9150823e3d90fd5b612d42919350823d8411611ec857611eba8183612868565b9138612c24565b84513d6000823e3d90fd5b9094508181813d8311612d7c575b612d6c8183612868565b8101031261282057519338612bdb565b503d612d62565b9492508185813d8311612dad575b612d9b8183612868565b81010312612820579351919381612b56565b503d612d91565b73ffffffffffffffffffffffffffffffffffffffff600054163303612dd557565b60246040517f118cdaa7000000000000000000000000000000000000000000000000000000008152336004820152fd5b600260015414612e16576002600155565b60046040517f3ee5aeb5000000000000000000000000000000000000000000000000000000008152fd5b60ff60025416612e4c57565b60046040517fd93c0665000000000000000000000000000000000000000000000000000000008152fd5b9290604051927f23b872dd00000000000000000000000000000000000000000000000000000000602085015273ffffffffffffffffffffffffffffffffffffffff809216602485015216604483015260648201526064815260a081019181831067ffffffffffffffff84111761283957612ef2926040526131fc565b565b6040517f0fdb11cf000000000000000000000000000000000000000000000000000000008152602081600481600073ffffffffffffffffffffffffffffffffffffffff7f0000000000000000000000000000000000000000000000000000000000000000165af160009181612f96575b50612f935760046040517f21eff197000000000000000000000000000000000000000000000000000000008152fd5b90565b9091506020813d602011612fc2575b81612fb260209383612868565b8101031261282057519038612f64565b3d9150612fa5565b7fffffffffffffffffffffffffffffffffffffffffffffffffffffffffffffffff8114612a3d5760010190565b9081606091031261282057805173ffffffffffffffffffffffffffffffffffffffff8116810361282057916040602083015192015190565b6040517fa9059cbb00000000000000000000000000000000000000000000000000000000602082015273ffffffffffffffffffffffffffffffffffffffff929092166024830152604480830193909352918152612ef291613091606483612868565b6131fc565b6040517f095ea7b3000000000000000000000000000000000000000000000000000000006020820181815273ffffffffffffffffffffffffffffffffffffffff85166024840152604480840196909652948252949390926130f8606485612868565b73ffffffffffffffffffffffffffffffffffffffff90818416600080809588519082855af190613126613295565b826131ca575b50816131bf575b5015613143575b50505050509050565b60405196602088015216602486015280604486015260448552608085019085821067ffffffffffffffff8311176131925750613187939461309191604052826131fc565b80388080808061313a565b807f4e487b7100000000000000000000000000000000000000000000000000000000602492526041600452fd5b90503b151538613133565b805191925081159182156131e2575b5050903861312c565b6131f59250602080918301019101612a6c565b38806131d9565b60008073ffffffffffffffffffffffffffffffffffffffff61323393169360208151910182865af161322c613295565b90836132f3565b805190811515918261327a575b50506132495750565b602490604051907f5274afe70000000000000000000000000000000000000000000000000000000082526004820152fd5b61328d9250602080918301019101612a6c565b153880613240565b3d156132ee573d9067ffffffffffffffff821161283957604051916132e260207fffffffffffffffffffffffffffffffffffffffffffffffffffffffffffffffe0601f8401160184612868565b82523d6000602084013e565b606090565b90613332575080511561330857805190602001fd5b60046040517f1425ea42000000000000000000000000000000000000000000000000000000008152fd5b8151158061338a575b613343575090565b60249073ffffffffffffffffffffffffffffffffffffffff604051917f9996b315000000000000000000000000000000000000000000000000000000008352166004820152fd5b50803b1561333b56fea264697066735822122023d1fd8629930afb7c0a9ff74a59d1e232bdc17e7486d0e1d49732d65d9a2e4c64736f6c63430008190033",
    "linkReferences": {}
  },
  "methodIdentifiers": {
    "BORROWER_OPERATIONS()": "a616236a",
    "HINT_HELPERS()": "c145208f",
    "HINT_TRIALS()": "0c51bb50",
    "MUSD_TOKEN()": "2e5a6e25",
    "PRICE_FEED()": "31eb318a",
    "PRICE_STALENESS_THRESHOLD()": "f25b9caa",
    "TROVE_MANAGER()": "a96e874d",
    "WBTC_TOKEN()": "2ed41384",
    "addCollateral(uint256)": "bcc46e83",
    "burnAndWithdraw(uint256)": "7c695cc1",
    "depositAndMint(uint256)": "45fd0465",
    "emergencyWithdraw(address,uint256)": "95ccea67",
    "getBorrowRate()": "ba1c5e80",
    "getBtcBalance(address)": "ea6a0631",
    "getBtcPrice()": "3a3610bc",
    "getCollateralRatio(address)": "15a3ba43",
    "getLiquidationThreshold()": "4ae9b8bc",
    "getMinCollateralRatio()": "4c8f35ab",
    "getMusdDebt(address)": "bfbe0113",
    "hintRandomSeed()": "4d185988",
    "isPositionHealthy(address)": "bafca75e",
    "maxFeePercentage()": "bf654aac",
    "mintMore(uint256)": "6f8aba4c",
    "owner()": "8da5cb5b",
    "pause()": "8456cb59",
    "paused()": "5c975abb",
    "refinanceTrove()": "f1f29448",
    "renounceOwnership()": "715018a6",
    "repayDebt(uint256)": "6b09de45",
    "setMaxFeePercentage(uint256)": "a66cd094",
    "setTargetLtv(uint256)": "908ee91c",
    "targetLtv()": "ec921dc1",
    "totalBtcDeposited()": "251e2970",
    "totalMusdMinted()": "6fbd7987",
    "transferOwnership(address)": "f2fde38b",
    "unpause()": "3f4ba83a",
    "userBtcCollateral(address)": "8033b343",
    "userMusdDebt(address)": "609f2abd"
  },
  "id": 38
}