{
  "abi": [
    {
      "type": "constructor",
      "inputs": [
        {
          "name": "_mezoIntegration",
          "type": "address",
          "internalType": "address"
        },
        {
          "name": "_yieldAggregator",
          "type": "address",
          "internalType": "address"
        },
        {
          "name": "_wbtc",
          "type": "address",
          "internalType": "address"
        },
        {
          "name": "_musd",
          "type": "address",
          "internalType": "address"
        },
        {
          "name": "_feeCollector",
          "type": "address",
          "internalType": "address"
        }
      ],
      "stateMutability": "nonpayable"
    },
    {
      "type": "receive",
      "stateMutability": "payable"
    },
    {
      "type": "function",
      "name": "MAX_CONTRIBUTION",
      "inputs": [],
      "outputs": [
        {
          "name": "",
          "type": "uint256",
          "internalType": "uint256"
        }
      ],
      "stateMutability": "view"
    },
    {
      "type": "function",
      "name": "MAX_MEMBERS",
      "inputs": [],
      "outputs": [
        {
          "name": "",
          "type": "uint256",
          "internalType": "uint256"
        }
      ],
      "stateMutability": "view"
    },
    {
      "type": "function",
      "name": "MAX_PERIOD_DURATION",
      "inputs": [],
      "outputs": [
        {
          "name": "",
          "type": "uint256",
          "internalType": "uint256"
        }
      ],
      "stateMutability": "view"
    },
    {
      "type": "function",
      "name": "MEZO_INTEGRATION",
      "inputs": [],
      "outputs": [
        {
          "name": "",
          "type": "address",
          "internalType": "contract IMezoIntegration"
        }
      ],
      "stateMutability": "view"
    },
    {
      "type": "function",
      "name": "MIN_CONTRIBUTION",
      "inputs": [],
      "outputs": [
        {
          "name": "",
          "type": "uint256",
          "internalType": "uint256"
        }
      ],
      "stateMutability": "view"
    },
    {
      "type": "function",
      "name": "MIN_MEMBERS",
      "inputs": [],
      "outputs": [
        {
          "name": "",
          "type": "uint256",
          "internalType": "uint256"
        }
      ],
      "stateMutability": "view"
    },
    {
      "type": "function",
      "name": "MIN_PERIOD_DURATION",
      "inputs": [],
      "outputs": [
        {
          "name": "",
          "type": "uint256",
          "internalType": "uint256"
        }
      ],
      "stateMutability": "view"
    },
    {
      "type": "function",
      "name": "MUSD",
      "inputs": [],
      "outputs": [
        {
          "name": "",
          "type": "address",
          "internalType": "contract IERC20"
        }
      ],
      "stateMutability": "view"
    },
    {
      "type": "function",
      "name": "WBTC",
      "inputs": [],
      "outputs": [
        {
          "name": "",
          "type": "address",
          "internalType": "contract IERC20"
        }
      ],
      "stateMutability": "view"
    },
    {
      "type": "function",
      "name": "YIELD_AGGREGATOR",
      "inputs": [],
      "outputs": [
        {
          "name": "",
          "type": "address",
          "internalType": "contract IYieldAggregator"
        }
      ],
      "stateMutability": "view"
    },
    {
      "type": "function",
      "name": "advancePeriod",
      "inputs": [
        {
          "name": "poolId",
          "type": "uint256",
          "internalType": "uint256"
        }
      ],
      "outputs": [],
      "stateMutability": "nonpayable"
    },
    {
      "type": "function",
      "name": "cancelPool",
      "inputs": [
        {
          "name": "poolId",
          "type": "uint256",
          "internalType": "uint256"
        },
        {
          "name": "reason",
          "type": "string",
          "internalType": "string"
        }
      ],
      "outputs": [],
      "stateMutability": "nonpayable"
    },
    {
      "type": "function",
      "name": "claimPayout",
      "inputs": [
        {
          "name": "poolId",
          "type": "uint256",
          "internalType": "uint256"
        }
      ],
      "outputs": [],
      "stateMutability": "nonpayable"
    },
    {
      "type": "function",
      "name": "claimRefund",
      "inputs": [
        {
          "name": "poolId",
          "type": "uint256",
          "internalType": "uint256"
        }
      ],
      "outputs": [],
      "stateMutability": "nonpayable"
    },
    {
      "type": "function",
      "name": "createPool",
      "inputs": [
        {
          "name": "name",
          "type": "string",
          "internalType": "string"
        },
        {
          "name": "memberCount",
          "type": "uint256",
          "internalType": "uint256"
        },
        {
          "name": "contributionAmount",
          "type": "uint256",
          "internalType": "uint256"
        },
        {
          "name": "periodDuration",
          "type": "uint256",
          "internalType": "uint256"
        },
        {
          "name": "useNativeBtc",
          "type": "bool",
          "internalType": "bool"
        },
        {
          "name": "memberAddresses",
          "type": "address[]",
          "internalType": "address[]"
        }
      ],
      "outputs": [
        {
          "name": "poolId",
          "type": "uint256",
          "internalType": "uint256"
        }
      ],
      "stateMutability": "nonpayable"
    },
    {
      "type": "function",
      "name": "depositBlock",
      "inputs": [
        {
          "name": "",
          "type": "address",
          "internalType": "address"
        }
      ],
      "outputs": [
        {
          "name": "",
          "type": "uint256",
          "internalType": "uint256"
        }
      ],
      "stateMutability": "view"
    },
    {
      "type": "function",
      "name": "feeCollector",
      "inputs": [],
      "outputs": [
        {
          "name": "",
          "type": "address",
          "internalType": "address"
        }
      ],
      "stateMutability": "view"
    },
    {
      "type": "function",
      "name": "getMemberAtIndex",
      "inputs": [
        {
          "name": "poolId",
          "type": "uint256",
          "internalType": "uint256"
        },
        {
          "name": "index",
          "type": "uint256",
          "internalType": "uint256"
        }
      ],
      "outputs": [
        {
          "name": "",
          "type": "address",
          "internalType": "address"
        }
      ],
      "stateMutability": "view"
    },
    {
      "type": "function",
      "name": "getMemberInfo",
      "inputs": [
        {
          "name": "poolId",
          "type": "uint256",
          "internalType": "uint256"
        },
        {
          "name": "member",
          "type": "address",
          "internalType": "address"
        }
      ],
      "outputs": [
        {
          "name": "",
          "type": "tuple",
          "internalType": "struct RotatingPool.MemberInfo",
          "components": [
            {
              "name": "memberAddress",
              "type": "address",
              "internalType": "address"
            },
            {
              "name": "memberIndex",
              "type": "uint256",
              "internalType": "uint256"
            },
            {
              "name": "contributionsMade",
              "type": "uint256",
              "internalType": "uint256"
            },
            {
              "name": "totalContributed",
              "type": "uint256",
              "internalType": "uint256"
            },
            {
              "name": "payoutReceived",
              "type": "uint256",
              "internalType": "uint256"
            },
            {
              "name": "yieldReceived",
              "type": "uint256",
              "internalType": "uint256"
            },
            {
              "name": "hasReceivedPayout",
              "type": "bool",
              "internalType": "bool"
            },
            {
              "name": "active",
              "type": "bool",
              "internalType": "bool"
            }
          ]
        }
      ],
      "stateMutability": "view"
    },
    {
      "type": "function",
      "name": "getPendingYield",
      "inputs": [
        {
          "name": "",
          "type": "uint256",
          "internalType": "uint256"
        }
      ],
      "outputs": [
        {
          "name": "",
          "type": "uint256",
          "internalType": "uint256"
        }
      ],
      "stateMutability": "view"
    },
    {
      "type": "function",
      "name": "getPeriodInfo",
      "inputs": [
        {
          "name": "poolId",
          "type": "uint256",
          "internalType": "uint256"
        },
        {
          "name": "periodNumber",
          "type": "uint256",
          "internalType": "uint256"
        }
      ],
      "outputs": [
        {
          "name": "",
          "type": "tuple",
          "internalType": "struct RotatingPool.PeriodInfo",
          "components": [
            {
              "name": "periodNumber",
              "type": "uint256",
              "internalType": "uint256"
            },
            {
              "name": "startTime",
              "type": "uint256",
              "internalType": "uint256"
            },
            {
              "name": "endTime",
              "type": "uint256",
              "internalType": "uint256"
            },
            {
              "name": "recipient",
              "type": "address",
              "internalType": "address"
            },
            {
              "name": "payoutAmount",
              "type": "uint256",
              "internalType": "uint256"
            },
            {
              "name": "yieldAmount",
              "type": "uint256",
              "internalType": "uint256"
            },
            {
              "name": "completed",
              "type": "bool",
              "internalType": "bool"
            },
            {
              "name": "paid",
              "type": "bool",
              "internalType": "bool"
            }
          ]
        }
      ],
      "stateMutability": "view"
    },
    {
      "type": "function",
      "name": "getPoolInfo",
      "inputs": [
        {
          "name": "poolId",
          "type": "uint256",
          "internalType": "uint256"
        }
      ],
      "outputs": [
        {
          "name": "",
          "type": "tuple",
          "internalType": "struct RotatingPool.PoolInfo",
          "components": [
            {
              "name": "poolId",
              "type": "uint256",
              "internalType": "uint256"
            },
            {
              "name": "name",
              "type": "string",
              "internalType": "string"
            },
            {
              "name": "creator",
              "type": "address",
              "internalType": "address"
            },
            {
              "name": "memberCount",
              "type": "uint256",
              "internalType": "uint256"
            },
            {
              "name": "contributionAmount",
              "type": "uint256",
              "internalType": "uint256"
            },
            {
              "name": "periodDuration",
              "type": "uint256",
              "internalType": "uint256"
            },
            {
              "name": "currentPeriod",
              "type": "uint256",
              "internalType": "uint256"
            },
            {
              "name": "totalPeriods",
              "type": "uint256",
              "internalType": "uint256"
            },
            {
              "name": "startTime",
              "type": "uint256",
              "internalType": "uint256"
            },
            {
              "name": "totalBtcCollected",
              "type": "uint256",
              "internalType": "uint256"
            },
            {
              "name": "totalMusdMinted",
              "type": "uint256",
              "internalType": "uint256"
            },
            {
              "name": "totalYieldGenerated",
              "type": "uint256",
              "internalType": "uint256"
            },
            {
              "name": "yieldDistributed",
              "type": "uint256",
              "internalType": "uint256"
            },
            {
              "name": "status",
              "type": "uint8",
              "internalType": "enum RotatingPool.PoolStatus"
            },
            {
              "name": "autoAdvance",
              "type": "bool",
              "internalType": "bool"
            },
            {
              "name": "useNativeBtc",
              "type": "bool",
              "internalType": "bool"
            }
          ]
        }
      ],
      "stateMutability": "view"
    },
    {
      "type": "function",
      "name": "getPoolMembers",
      "inputs": [
        {
          "name": "poolId",
          "type": "uint256",
          "internalType": "uint256"
        }
      ],
      "outputs": [
        {
          "name": "",
          "type": "address[]",
          "internalType": "address[]"
        }
      ],
      "stateMutability": "view"
    },
    {
      "type": "function",
      "name": "getPoolStats",
      "inputs": [
        {
          "name": "poolId",
          "type": "uint256",
          "internalType": "uint256"
        }
      ],
      "outputs": [
        {
          "name": "totalBtc",
          "type": "uint256",
          "internalType": "uint256"
        },
        {
          "name": "totalMusd",
          "type": "uint256",
          "internalType": "uint256"
        },
        {
          "name": "totalYield",
          "type": "uint256",
          "internalType": "uint256"
        },
        {
          "name": "periodsCompleted",
          "type": "uint256",
          "internalType": "uint256"
        },
        {
          "name": "membersWithPayout",
          "type": "uint256",
          "internalType": "uint256"
        }
      ],
      "stateMutability": "view"
    },
    {
      "type": "function",
      "name": "hasClaimedRefund",
      "inputs": [
        {
          "name": "",
          "type": "uint256",
          "internalType": "uint256"
        },
        {
          "name": "",
          "type": "address",
          "internalType": "address"
        }
      ],
      "outputs": [
        {
          "name": "",
          "type": "bool",
          "internalType": "bool"
        }
      ],
      "stateMutability": "view"
    },
    {
      "type": "function",
      "name": "joinPool",
      "inputs": [
        {
          "name": "poolId",
          "type": "uint256",
          "internalType": "uint256"
        }
      ],
      "outputs": [],
      "stateMutability": "nonpayable"
    },
    {
      "type": "function",
      "name": "makeContribution",
      "inputs": [
        {
          "name": "poolId",
          "type": "uint256",
          "internalType": "uint256"
        }
      ],
      "outputs": [],
      "stateMutability": "nonpayable"
    },
    {
      "type": "function",
      "name": "makeContributionNative",
      "inputs": [
        {
          "name": "poolId",
          "type": "uint256",
          "internalType": "uint256"
        }
      ],
      "outputs": [],
      "stateMutability": "payable"
    },
    {
      "type": "function",
      "name": "membersWithPayoutCount",
      "inputs": [
        {
          "name": "",
          "type": "uint256",
          "internalType": "uint256"
        }
      ],
      "outputs": [
        {
          "name": "",
          "type": "uint256",
          "internalType": "uint256"
        }
      ],
      "stateMutability": "view"
    },
    {
      "type": "function",
      "name": "owner",
      "inputs": [],
      "outputs": [
        {
          "name": "",
          "type": "address",
          "internalType": "address"
        }
      ],
      "stateMutability": "view"
    },
    {
      "type": "function",
      "name": "pause",
      "inputs": [],
      "outputs": [],
      "stateMutability": "nonpayable"
    },
    {
      "type": "function",
      "name": "paused",
      "inputs": [],
      "outputs": [
        {
          "name": "",
          "type": "bool",
          "internalType": "bool"
        }
      ],
      "stateMutability": "view"
    },
    {
      "type": "function",
      "name": "performanceFee",
      "inputs": [],
      "outputs": [
        {
          "name": "",
          "type": "uint256",
          "internalType": "uint256"
        }
      ],
      "stateMutability": "view"
    },
    {
      "type": "function",
      "name": "periodContributions",
      "inputs": [
        {
          "name": "",
          "type": "uint256",
          "internalType": "uint256"
        },
        {
          "name": "",
          "type": "uint256",
          "internalType": "uint256"
        }
      ],
      "outputs": [
        {
          "name": "",
          "type": "uint256",
          "internalType": "uint256"
        }
      ],
      "stateMutability": "view"
    },
    {
      "type": "function",
      "name": "poolCounter",
      "inputs": [],
      "outputs": [
        {
          "name": "",
          "type": "uint256",
          "internalType": "uint256"
        }
      ],
      "stateMutability": "view"
    },
    {
      "type": "function",
      "name": "poolMemberOrder",
      "inputs": [
        {
          "name": "",
          "type": "uint256",
          "internalType": "uint256"
        },
        {
          "name": "",
          "type": "uint256",
          "internalType": "uint256"
        }
      ],
      "outputs": [
        {
          "name": "",
          "type": "address",
          "internalType": "address"
        }
      ],
      "stateMutability": "view"
    },
    {
      "type": "function",
      "name": "poolMembers",
      "inputs": [
        {
          "name": "",
          "type": "uint256",
          "internalType": "uint256"
        },
        {
          "name": "",
          "type": "address",
          "internalType": "address"
        }
      ],
      "outputs": [
        {
          "name": "memberAddress",
          "type": "address",
          "internalType": "address"
        },
        {
          "name": "memberIndex",
          "type": "uint256",
          "internalType": "uint256"
        },
        {
          "name": "contributionsMade",
          "type": "uint256",
          "internalType": "uint256"
        },
        {
          "name": "totalContributed",
          "type": "uint256",
          "internalType": "uint256"
        },
        {
          "name": "payoutReceived",
          "type": "uint256",
          "internalType": "uint256"
        },
        {
          "name": "yieldReceived",
          "type": "uint256",
          "internalType": "uint256"
        },
        {
          "name": "hasReceivedPayout",
          "type": "bool",
          "internalType": "bool"
        },
        {
          "name": "active",
          "type": "bool",
          "internalType": "bool"
        }
      ],
      "stateMutability": "view"
    },
    {
      "type": "function",
      "name": "poolMembersList",
      "inputs": [
        {
          "name": "",
          "type": "uint256",
          "internalType": "uint256"
        },
        {
          "name": "",
          "type": "uint256",
          "internalType": "uint256"
        }
      ],
      "outputs": [
        {
          "name": "",
          "type": "address",
          "internalType": "address"
        }
      ],
      "stateMutability": "view"
    },
    {
      "type": "function",
      "name": "poolPeriods",
      "inputs": [
        {
          "name": "",
          "type": "uint256",
          "internalType": "uint256"
        },
        {
          "name": "",
          "type": "uint256",
          "internalType": "uint256"
        }
      ],
      "outputs": [
        {
          "name": "periodNumber",
          "type": "uint256",
          "internalType": "uint256"
        },
        {
          "name": "startTime",
          "type": "uint256",
          "internalType": "uint256"
        },
        {
          "name": "endTime",
          "type": "uint256",
          "internalType": "uint256"
        },
        {
          "name": "recipient",
          "type": "address",
          "internalType": "address"
        },
        {
          "name": "payoutAmount",
          "type": "uint256",
          "internalType": "uint256"
        },
        {
          "name": "yieldAmount",
          "type": "uint256",
          "internalType": "uint256"
        },
        {
          "name": "completed",
          "type": "bool",
          "internalType": "bool"
        },
        {
          "name": "paid",
          "type": "bool",
          "internalType": "bool"
        }
      ],
      "stateMutability": "view"
    },
    {
      "type": "function",
      "name": "pools",
      "inputs": [
        {
          "name": "",
          "type": "uint256",
          "internalType": "uint256"
        }
      ],
      "outputs": [
        {
          "name": "poolId",
          "type": "uint256",
          "internalType": "uint256"
        },
        {
          "name": "name",
          "type": "string",
          "internalType": "string"
        },
        {
          "name": "creator",
          "type": "address",
          "internalType": "address"
        },
        {
          "name": "memberCount",
          "type": "uint256",
          "internalType": "uint256"
        },
        {
          "name": "contributionAmount",
          "type": "uint256",
          "internalType": "uint256"
        },
        {
          "name": "periodDuration",
          "type": "uint256",
          "internalType": "uint256"
        },
        {
          "name": "currentPeriod",
          "type": "uint256",
          "internalType": "uint256"
        },
        {
          "name": "totalPeriods",
          "type": "uint256",
          "internalType": "uint256"
        },
        {
          "name": "startTime",
          "type": "uint256",
          "internalType": "uint256"
        },
        {
          "name": "totalBtcCollected",
          "type": "uint256",
          "internalType": "uint256"
        },
        {
          "name": "totalMusdMinted",
          "type": "uint256",
          "internalType": "uint256"
        },
        {
          "name": "totalYieldGenerated",
          "type": "uint256",
          "internalType": "uint256"
        },
        {
          "name": "yieldDistributed",
          "type": "uint256",
          "internalType": "uint256"
        },
        {
          "name": "status",
          "type": "uint8",
          "internalType": "enum RotatingPool.PoolStatus"
        },
        {
          "name": "autoAdvance",
          "type": "bool",
          "internalType": "bool"
        },
        {
          "name": "useNativeBtc",
          "type": "bool",
          "internalType": "bool"
        }
      ],
      "stateMutability": "view"
    },
    {
      "type": "function",
      "name": "renounceOwnership",
      "inputs": [],
      "outputs": [],
      "stateMutability": "nonpayable"
    },
    {
      "type": "function",
      "name": "setFeeCollector",
      "inputs": [
        {
          "name": "newCollector",
          "type": "address",
          "internalType": "address"
        }
      ],
      "outputs": [],
      "stateMutability": "nonpayable"
    },
    {
      "type": "function",
      "name": "setPerformanceFee",
      "inputs": [
        {
          "name": "newFee",
          "type": "uint256",
          "internalType": "uint256"
        }
      ],
      "outputs": [],
      "stateMutability": "nonpayable"
    },
    {
      "type": "function",
      "name": "startPool",
      "inputs": [
        {
          "name": "poolId",
          "type": "uint256",
          "internalType": "uint256"
        }
      ],
      "outputs": [],
      "stateMutability": "nonpayable"
    },
    {
      "type": "function",
      "name": "transferOwnership",
      "inputs": [
        {
          "name": "newOwner",
          "type": "address",
          "internalType": "address"
        }
      ],
      "outputs": [],
      "stateMutability": "nonpayable"
    },
    {
      "type": "function",
      "name": "unpause",
      "inputs": [],
      "outputs": [],
      "stateMutability": "nonpayable"
    },
    {
      "type": "event",
      "name": "ContributionMade",
      "inputs": [
        {
          "name": "poolId",
          "type": "uint256",
          "indexed": true,
          "internalType": "uint256"
        },
        {
          "name": "member",
          "type": "address",
          "indexed": true,
          "internalType": "address"
        },
        {
          "name": "periodNumber",
          "type": "uint256",
          "indexed": false,
          "internalType": "uint256"
        },
        {
          "name": "amount",
          "type": "uint256",
          "indexed": false,
          "internalType": "uint256"
        }
      ],
      "anonymous": false
    },
    {
      "type": "event",
      "name": "FeeCollectorUpdated",
      "inputs": [
        {
          "name": "oldCollector",
          "type": "address",
          "indexed": true,
          "internalType": "address"
        },
        {
          "name": "newCollector",
          "type": "address",
          "indexed": true,
          "internalType": "address"
        }
      ],
      "anonymous": false
    },
    {
      "type": "event",
      "name": "MemberJoined",
      "inputs": [
        {
          "name": "poolId",
          "type": "uint256",
          "indexed": true,
          "internalType": "uint256"
        },
        {
          "name": "member",
          "type": "address",
          "indexed": true,
          "internalType": "address"
        },
        {
          "name": "memberIndex",
          "type": "uint256",
          "indexed": false,
          "internalType": "uint256"
        }
      ],
      "anonymous": false
    },
    {
      "type": "event",
      "name": "NativeBtcReceived",
      "inputs": [
        {
          "name": "sender",
          "type": "address",
          "indexed": true,
          "internalType": "address"
        },
        {
          "name": "amount",
          "type": "uint256",
          "indexed": false,
          "internalType": "uint256"
        }
      ],
      "anonymous": false
    },
    {
      "type": "event",
      "name": "OwnershipTransferred",
      "inputs": [
        {
          "name": "previousOwner",
          "type": "address",
          "indexed": true,
          "internalType": "address"
        },
        {
          "name": "newOwner",
          "type": "address",
          "indexed": true,
          "internalType": "address"
        }
      ],
      "anonymous": false
    },
    {
      "type": "event",
      "name": "Paused",
      "inputs": [
        {
          "name": "account",
          "type": "address",
          "indexed": false,
          "internalType": "address"
        }
      ],
      "anonymous": false
    },
    {
      "type": "event",
      "name": "PayoutDistributed",
      "inputs": [
        {
          "name": "poolId",
          "type": "uint256",
          "indexed": true,
          "internalType": "uint256"
        },
        {
          "name": "periodNumber",
          "type": "uint256",
          "indexed": false,
          "internalType": "uint256"
        },
        {
          "name": "recipient",
          "type": "address",
          "indexed": true,
          "internalType": "address"
        },
        {
          "name": "payoutAmount",
          "type": "uint256",
          "indexed": false,
          "internalType": "uint256"
        },
        {
          "name": "yieldAmount",
          "type": "uint256",
          "indexed": false,
          "internalType": "uint256"
        }
      ],
      "anonymous": false
    },
    {
      "type": "event",
      "name": "PerformanceFeeUpdated",
      "inputs": [
        {
          "name": "oldFee",
          "type": "uint256",
          "indexed": false,
          "internalType": "uint256"
        },
        {
          "name": "newFee",
          "type": "uint256",
          "indexed": false,
          "internalType": "uint256"
        }
      ],
      "anonymous": false
    },
    {
      "type": "event",
      "name": "PeriodAdvanced",
      "inputs": [
        {
          "name": "poolId",
          "type": "uint256",
          "indexed": true,
          "internalType": "uint256"
        },
        {
          "name": "newPeriod",
          "type": "uint256",
          "indexed": false,
          "internalType": "uint256"
        }
      ],
      "anonymous": false
    },
    {
      "type": "event",
      "name": "PoolCancelled",
      "inputs": [
        {
          "name": "poolId",
          "type": "uint256",
          "indexed": true,
          "internalType": "uint256"
        },
        {
          "name": "reason",
          "type": "string",
          "indexed": false,
          "internalType": "string"
        }
      ],
      "anonymous": false
    },
    {
      "type": "event",
      "name": "PoolCompleted",
      "inputs": [
        {
          "name": "poolId",
          "type": "uint256",
          "indexed": true,
          "internalType": "uint256"
        },
        {
          "name": "totalYieldDistributed",
          "type": "uint256",
          "indexed": false,
          "internalType": "uint256"
        }
      ],
      "anonymous": false
    },
    {
      "type": "event",
      "name": "PoolCreated",
      "inputs": [
        {
          "name": "poolId",
          "type": "uint256",
          "indexed": true,
          "internalType": "uint256"
        },
        {
          "name": "creator",
          "type": "address",
          "indexed": true,
          "internalType": "address"
        },
        {
          "name": "name",
          "type": "string",
          "indexed": false,
          "internalType": "string"
        },
        {
          "name": "memberCount",
          "type": "uint256",
          "indexed": false,
          "internalType": "uint256"
        },
        {
          "name": "contributionAmount",
          "type": "uint256",
          "indexed": false,
          "internalType": "uint256"
        },
        {
          "name": "periodDuration",
          "type": "uint256",
          "indexed": false,
          "internalType": "uint256"
        }
      ],
      "anonymous": false
    },
    {
      "type": "event",
      "name": "RefundClaimed",
      "inputs": [
        {
          "name": "poolId",
          "type": "uint256",
          "indexed": true,
          "internalType": "uint256"
        },
        {
          "name": "member",
          "type": "address",
          "indexed": true,
          "internalType": "address"
        },
        {
          "name": "amount",
          "type": "uint256",
          "indexed": false,
          "internalType": "uint256"
        }
      ],
      "anonymous": false
    },
    {
      "type": "event",
      "name": "Unpaused",
      "inputs": [
        {
          "name": "account",
          "type": "address",
          "indexed": false,
          "internalType": "address"
        }
      ],
      "anonymous": false
    },
    {
      "type": "error",
      "name": "AddressEmptyCode",
      "inputs": [
        {
          "name": "target",
          "type": "address",
          "internalType": "address"
        }
      ]
    },
    {
      "type": "error",
      "name": "AddressInsufficientBalance",
      "inputs": [
        {
          "name": "account",
          "type": "address",
          "internalType": "address"
        }
      ]
    },
    {
      "type": "error",
      "name": "AlreadyMember",
      "inputs": []
    },
    {
      "type": "error",
      "name": "ContributionAlreadyMade",
      "inputs": []
    },
    {
      "type": "error",
      "name": "EnforcedPause",
      "inputs": []
    },
    {
      "type": "error",
      "name": "ExpectedPause",
      "inputs": []
    },
    {
      "type": "error",
      "name": "FailedInnerCall",
      "inputs": []
    },
    {
      "type": "error",
      "name": "InsufficientContributions",
      "inputs": []
    },
    {
      "type": "error",
      "name": "InsufficientNativeBtcBalance",
      "inputs": []
    },
    {
      "type": "error",
      "name": "InvalidAddress",
      "inputs": []
    },
    {
      "type": "error",
      "name": "InvalidAmount",
      "inputs": []
    },
    {
      "type": "error",
      "name": "InvalidContribution",
      "inputs": []
    },
    {
      "type": "error",
      "name": "InvalidFee",
      "inputs": []
    },
    {
      "type": "error",
      "name": "InvalidMemberCount",
      "inputs": []
    },
    {
      "type": "error",
      "name": "InvalidPeriod",
      "inputs": []
    },
    {
      "type": "error",
      "name": "InvalidPeriodDuration",
      "inputs": []
    },
    {
      "type": "error",
      "name": "InvalidPoolId",
      "inputs": []
    },
    {
      "type": "error",
      "name": "NoRefundAvailable",
      "inputs": []
    },
    {
      "type": "error",
      "name": "NotMember",
      "inputs": []
    },
    {
      "type": "error",
      "name": "OwnableInvalidOwner",
      "inputs": [
        {
          "name": "owner",
          "type": "address",
          "internalType": "address"
        }
      ]
    },
    {
      "type": "error",
      "name": "OwnableUnauthorizedAccount",
      "inputs": [
        {
          "name": "account",
          "type": "address",
          "internalType": "address"
        }
      ]
    },
    {
      "type": "error",
      "name": "PayoutAlreadyDistributed",
      "inputs": []
    },
    {
      "type": "error",
      "name": "PeriodNotEnded",
      "inputs": []
    },
    {
      "type": "error",
      "name": "PoolFull",
      "inputs": []
    },
    {
      "type": "error",
      "name": "PoolNotActive",
      "inputs": []
    },
    {
      "type": "error",
      "name": "PoolNotCancelled",
      "inputs": []
    },
    {
      "type": "error",
      "name": "PoolNotCompleted",
      "inputs": []
    },
    {
      "type": "error",
      "name": "PoolNotForming",
      "inputs": []
    },
    {
      "type": "error",
      "name": "ReentrancyGuardReentrantCall",
      "inputs": []
    },
    {
      "type": "error",
      "name": "RefundAlreadyClaimed",
      "inputs": []
    },
    {
      "type": "error",
      "name": "SafeERC20FailedOperation",
      "inputs": [
        {
          "name": "token",
          "type": "address",
          "internalType": "address"
        }
      ]
    },
    {
      "type": "error",
      "name": "SameBlockWithdrawal",
      "inputs": []
    },
    {
      "type": "error",
      "name": "WrongContributionMode",
      "inputs": []
    }
  ],
  "bytecode": {
    "object": "0x610100346101f357601f613f3e38819003918201601f19168301916001600160401b038311848410176101f85780849260a0946040528339810103126101f3576100488161020e565b906100556020820161020e565b906100626040820161020e565b9061007b60806100746060840161020e565b920161020e565b9133156101da576000549360018060a01b03948560018060a01b031997338984161760005560405192823391167f8be0079c531659141344cd1fd0a4f28419497f9722a3daafe3b4186f6b6457e0600080a36001805560ff196002541660025560646009551690811580156101d0575b80156101c6575b80156101bc575b80156101b2575b6101a35750608052841660a052831660c052821660e052600a80549093169116179055604051613d1b908161022382396080518161027d015260a051818181610dd6015281816112020152818161265b01528181612de00152613582015260c051818181611111015281816121d7015281816122ab015261255d015260e0518181816110260152818161105701528181611153015281816122fc01526125910152f35b63e6c4247b60e01b8152600490fd5b5086861615610100565b50868516156100f9565b50868416156100f2565b50868316156100eb565b604051631e4fbdf760e01b815260006004820152602490fd5b600080fd5b634e487b7160e01b600052604160045260246000fd5b51906001600160a01b03821682036101f35756fe6080806040526004361015610049575b50361561001b57600080fd5b6040513481527ff50e4328cb44b3e7925c1cc88935fa79380cf17e6c5940f4321988eb36966ce760203392a2005b60003560e01c9081630235e7e714612e475750806316e63fea14612d865780631e67939e14612c86578063202019a614612c3f5780632f380b35146129e557806334e7a19f146128eb578063360a2bcb146123f75780633c0490f9146123c45780633f4ba83a146123425780633fa8ae481461038657806340650c911461232057806343a82621146122cf5780634dede3de1461227e5780635b7baf641461204d5780635c975abb1461202a578063601acc9214611f7d5780636791799d14611e4257806370897b2314611dba5780637103702414611d1d578063715018a614611c9f57806373273fb3146116435780637fb84bed1461162557806384562c0f1461145f5780638456cb591461140557806387788782146113e75780638a69614e14610e515780638da5cb5b14610e1d57806394d95f8f14610dfa57806396f3556b14610da95780639e3079cb14610d8b578063a0de878014610c77578063a42dce8014610be4578063a901d15c146108a2578063ac4afa381461078a578063b1219e73146106b8578063b154afc31461065d578063c3bbf4a914610631578063c415b95c146105fd578063c60b6e2d146105a6578063d6336d55146104de578063d9a67220146104c2578063dc0990e8146103cf578063e2e91dbf14610386578063ea0e35b11461036a578063f2fde38b146102a65763fc2c01f814610250573861000f565b346102a15760006003193601126102a157602060405173ffffffffffffffffffffffffffffffffffffffff7f0000000000000000000000000000000000000000000000000000000000000000168152f35b600080fd5b346102a15760206003193601126102a1576102bf612e86565b6102c7613833565b73ffffffffffffffffffffffffffffffffffffffff80911690811561033957600054827fffffffffffffffffffffffff0000000000000000000000000000000000000000821617600055167f8be0079c531659141344cd1fd0a4f28419497f9722a3daafe3b4186f6b6457e0600080a3005b60246040517f1e4fbdf700000000000000000000000000000000000000000000000000000000815260006004820152fd5b346102a15760006003193601126102a157602060405160328152f35b346102a15761039436612f14565b906000526006602052604060002090600052602052602073ffffffffffffffffffffffffffffffffffffffff60406000205416604051908152f35b346102a1576103dd36612f14565b906103e6613166565b50600052600760205260406000209060005260205261010060406000206040519061041082612f2a565b8054918281526001820154916020820192835260028101546040830190815273ffffffffffffffffffffffffffffffffffffffff806003840154166060850190815260048401549260808601938452600660058601549560a0880196875201549660ff60e060c0890198828b1615158a52019860081c1615158852604051988952516020890152516040880152511660608601525160808501525160a084015251151560c083015251151560e0820152f35b346102a15760006003193601126102a157602060405160038152f35b346102a15760406003193601126102a15760043560243567ffffffffffffffff81116102a157610512903690600401612fdf565b61051a613833565b816000526004602052604060002080541561057c577f7f4407032861af82a3485fe13a59182f0e8e7ce9788eb972659f64a08f39dad191600d6105779201600360ff19825416179055604051918291602083526020830190612ea9565b0390a2005b60046040517f0afa7ee8000000000000000000000000000000000000000000000000000000008152fd5b346102a1576105b436612f14565b90600052600860205260406000209081548110156102a1576105ed73ffffffffffffffffffffffffffffffffffffffff9160209361311f565b9190546040519260031b1c168152f35b346102a15760006003193601126102a157602073ffffffffffffffffffffffffffffffffffffffff600a5416604051908152f35b346102a15760206003193601126102a157600435600052600e6020526020604060002054604051908152f35b346102a15760406003193601126102a157610676612e63565b600435600052600c60205273ffffffffffffffffffffffffffffffffffffffff60406000209116600052602052602060ff604060002054166040519015158152f35b346102a1576020806003193601126102a15760043560005260088152604060002060405190818382549182815201908192600052846000209060005b8682821061076057868661070a82880383612f64565b604051928392818401908285525180915260408401929160005b82811061073357505050500390f35b835173ffffffffffffffffffffffffffffffffffffffff1685528695509381019392810192600101610724565b835473ffffffffffffffffffffffffffffffffffffffff16855290930192600192830192016106f4565b346102a15760206003193601126102a157600435600052600460205260406000208054600182016107ba90613079565b90600283015473ffffffffffffffffffffffffffffffffffffffff16926003810154906004810154600582015460068301546007840154600885015490600986015492600a87015494600b88015496600c89015498600d0154996040519d8e9d8e9d8e6102009181528160208201520161083391612ea9565b6040909d015260608d015260808c015260a08b015260c08a015260e08901526101008801526101208701526101408601526101608501526101808401526108816101a0840160ff8316612f07565b8060081c60ff1615156101c084015260101c60ff1615156101e08301520390f35b346102a1576020806003193601126102a157600435906108c061327d565b816000526004815260406000209182541561057c57600d8301805460ff81166004811015610bb557610b8b5773ffffffffffffffffffffffffffffffffffffffff806002870154163303610b61578360005260088552604060002054600387015403610b3757610b3195610afd93600160ff1960069516179055600842910155836000526004855260406000209060405161095a81612f47565b8254815261096a60018401613079565b8782015281600284015416604082015260038301546060820152600483015460808201526101e060ff600d60058601549560a085019687528781015460c0860152600781015460e086015260088101546101008601526009810154610120860152600a810154610140860152600b810154610160860152600c81015461018086015201546109fe8282166101a086016131a4565b818160081c1615156101c085015260101c161515910152846000528286526040600020600080528652610a3a816040600020541692514261320c565b60405192610a4784612f2a565b6000845287840192428452604085019283526060850191825260808501926000845260a08601946000865260c087019a60008c5260e088019a60008c52600052600781526040600020906000805252604060002096518755516001870155516002860155600385019151167fffffffffffffffffffffffff00000000000000000000000000000000000000008254161790555160048301555160058201550192511515839060ff60ff1983541691151516179055565b5181547fffffffffffffffffffffffffffffffffffffffffffffffffffffffffffff00ff1690151560081b61ff0016179055565b60018055005b60046040517fda3cb5f4000000000000000000000000000000000000000000000000000000008152fd5b60046040517fe6c4247b000000000000000000000000000000000000000000000000000000008152fd5b60046040517f4eb0513e000000000000000000000000000000000000000000000000000000008152fd5b7f4e487b7100000000000000000000000000000000000000000000000000000000600052602160045260246000fd5b346102a15760206003193601126102a157610bfd612e86565b610c05613833565b73ffffffffffffffffffffffffffffffffffffffff809116908115610b6157600a54827fffffffffffffffffffffffff0000000000000000000000000000000000000000821617600a55167f5d16ad41baeb009cd23eb8f6c7cde5c2e0cd5acf4a33926ab488875c37c37f38600080a3005b346102a1576020806003193601126102a15760043590610c9561327d565b8160005260048152604060002080541561057c5760ff600d820154166004811015610bb557600103610d6157610d14908360005260078352604060002060068201546000528352604060002092846000526005815260406000209033600052526005600160ff60066040600020015460081c169401549101549061320c565b42109073ffffffffffffffffffffffffffffffffffffffff60005416331490159182610d59575b5081610d50575b50610b6157610b31906138e6565b90501582610d42565b915083610d3b565b60046040517f71815202000000000000000000000000000000000000000000000000000000008152fd5b346102a15760006003193601126102a1576020600354604051908152f35b346102a15760006003193601126102a157602060405173ffffffffffffffffffffffffffffffffffffffff7f0000000000000000000000000000000000000000000000000000000000000000168152f35b346102a15760006003193601126102a1576020604051678ac7230489e800008152f35b346102a15760006003193601126102a157602073ffffffffffffffffffffffffffffffffffffffff60005416604051908152f35b346102a1576020806003193601126102a157600435610e6e61327d565b33600052600b825260406000205443146113bd578060005260048252604060002091600581526040600020336000528152604060002083541561057c57600681019384549360ff8560081c16156113935760ff851661133f57806000526007845260406000206001840190815460005285526040600020936006850197885460ff8116156113695760081c60ff1661133f57610f309860ff199860058060048a01549901549461271094600186610f276009548a61325d565b049e8f89613270565b9d8e951617905589600482015501556101007fffffffffffffffffffffffffffffffffffffffffffffffffffffffffffff00ff82541617905583600052600e87526040600020610f8081546131b0565b90558161113a575b505091600d9160ff93549060405191825285878301528760408301527f361c61d25e573b81c4f29477a915ff059161fc6927cffdc7897e2010625d8da060603393a3015460101c1615611109578047106110df57600080808093335af1610fed613219565b501561108157505b80611050575b50806110075760018055005b61104a9073ffffffffffffffffffffffffffffffffffffffff600a54167f0000000000000000000000000000000000000000000000000000000000000000613884565b80610b31565b61107b90337f0000000000000000000000000000000000000000000000000000000000000000613884565b81610ffb565b606490604051907f08c379a00000000000000000000000000000000000000000000000000000000082526004820152601a60248201527f4e617469766520425443207472616e73666572206661696c65640000000000006044820152fd5b60046040517ff08b131c000000000000000000000000000000000000000000000000000000008152fd5b6111359150337f0000000000000000000000000000000000000000000000000000000000000000613884565b610ff5565b73ffffffffffffffffffffffffffffffffffffffff91827f00000000000000000000000000000000000000000000000000000000000000001692604051917f70a0823100000000000000000000000000000000000000000000000000000000928381523060048201528a81602481895afa9081156112ca57600091611312575b50106111c8575b5050610f88565b8880600092600460409e96989d95979e51809581937f406cf2290000000000000000000000000000000000000000000000000000000083527f0000000000000000000000000000000000000000000000000000000000000000165af191826112e9575b50506112d657505085906024604051809a819382523060048301525afa9687156112ca5760009761129b575b5086156112885791600d9161127c60ff946112746009548b61325d565b048099613270565b965b919381938a6111c1565b509450600d60ff9160009660009661127e565b9096508481813d83116112c3575b6112b38183612f64565b810103126102a157519587611257565b503d6112a9565b6040513d6000823e3d90fd5b9790985060ff949250600d93915061127e565b813d831161130b575b6112fc8183612f64565b810103126102a157888c61122b565b503d6112f2565b90508a81813d8311611338575b6113298183612f64565b810103126102a157518d6111ba565b503d61131f565b60046040517f237e7f57000000000000000000000000000000000000000000000000000000008152fd5b60046040517fac59a02d000000000000000000000000000000000000000000000000000000008152fd5b60046040517f291fc442000000000000000000000000000000000000000000000000000000008152fd5b60046040517f4837511c000000000000000000000000000000000000000000000000000000008152fd5b346102a15760006003193601126102a1576020600954604051908152f35b346102a15760006003193601126102a15761141e613833565b6114266132b8565b600160ff1960025416176002557f62e78cea01bee320cd4e420270b5ea74000d11b0c9f74754ebdbfc544b05a2586020604051338152a1005b6020806003193601126102a15760043561147761327d565b61147f6132b8565b806000526004825260406000209160058152604060002033600052815260406000209280541561057c57600d8101549060ff82166004811015610bb557600103610d615760ff600686015460081c16156113935760028501918254600783015411156115fb5760101c60ff16156115d1576004810154918234036115a757610b319560039133600052600b86524360406000205561151d81546131b0565b90550161152b83825461320c565b90556009810161153c83825461320c565b905583600052600d83526006604060002091019081546000528352604060002061156681546131b0565b905554918360005260048152604051928352820152817ff9b7589b7a8d939b9da5dae90770378fe5fd7802be5d66432e85bedbdbfbcb7a60403393a36134be565b60046040517f2c5211c6000000000000000000000000000000000000000000000000000000008152fd5b60046040517f8fdba5f4000000000000000000000000000000000000000000000000000000008152fd5b60046040517f084175a5000000000000000000000000000000000000000000000000000000008152fd5b346102a15760006003193601126102a15760206040516276a7008152f35b346102a15760c06003193601126102a15760043567ffffffffffffffff81116102a157611674903690600401612fdf565b6084359081151582036102a15767ffffffffffffffff60a435116102a15736602360a4350112156102a15767ffffffffffffffff60a4356004013511611b9857604051906116ce602060a4356004013560051b0183612f64565b60a43560040135825260208201602460a4356004013560051b60a43501013681116102a157602460a43501915b818310611c725750505061170d6132b8565b6003602435108015611c66575b611c3c5766038d7ea4c68000604435108015611c29575b611bff5762093a80606435108015611bf1575b611bc7576117536003546131b0565b92836003556040519061176582612f47565b8482528260208301523360408301526024356060830152604435608083015260643560a0830152600060c083015260243560e08301526000610100830152600061012083015260006101408301526000610160830152600061018083015260006101a083015260006101c083015215156101e0820152836000526004602052604060002081518155602082015180519067ffffffffffffffff8211611b98576118116001840154613026565b601f8111611b51575b50602090601f8311600114611a8457600d93929160009183611a79575b50507fffffffffffffffffffffffffffffffffffffffffffffffffffffffffffffffff8260011b9260031b1c19161760018201555b73ffffffffffffffffffffffffffffffffffffffff6040840151167fffffffffffffffffffffffff0000000000000000000000000000000000000000600283015416176002820155606083015160038201556080830151600482015560a0830151600582015560c0830151600682015560e0830151600782015561010083015160088201556101208301516009820155610140830151600a820155610160830151600b820155610180830151600c82015501906101a0810151906004821015610bb55782546101c08201516101e0909201517fffffffffffffffffffffffffffffffffffffffffffffffffffffffffff00000090911660ff939093169290921790151560081b61ff00161790151560101b62ff0000161790556040516080808252909184917f80eb862b1ebf91ef46e8085c1e47b348af9ad8f1248fb18302612a57ad3a2b55916119bf91850190612ea9565b926024356020820152604435604082015260643560608201528033940390a380516119f0575b602082604051908152f35b60005b8151811080611a6e575b15611a65578073ffffffffffffffffffffffffffffffffffffffff611a25611a309385613249565b5116611a35576131b0565b6119f3565b611a608173ffffffffffffffffffffffffffffffffffffffff611a588287613249565b5116866132ee565b6131b0565b505060206119e5565b5060243581106119fd565b015190508880611837565b906001840160005260206000209160005b7fffffffffffffffffffffffffffffffffffffffffffffffffffffffffffffffe085168110611b395750918391600193837fffffffffffffffffffffffffffffffffffffffffffffffffffffffffffffffe0600d98971610611b02575b505050811b01600182015561186c565b01517fffffffffffffffffffffffffffffffffffffffffffffffffffffffffffffffff60f88460031b161c19169055888080611af2565b91926020600181928685015181550194019201611a95565b600184016000526020600020601f840160051c810160208510611b91575b601f830160051c82018110611b8557505061181a565b60008155600101611b6f565b5080611b6f565b7f4e487b7100000000000000000000000000000000000000000000000000000000600052604160045260246000fd5b60046040517f9e11b5e6000000000000000000000000000000000000000000000000000000008152fd5b506276a70060643511611744565b60046040517f652122d9000000000000000000000000000000000000000000000000000000008152fd5b50678ac7230489e8000060443511611731565b60046040517f4fdd01a0000000000000000000000000000000000000000000000000000000008152fd5b5060326024351161171a565b823573ffffffffffffffffffffffffffffffffffffffff811681036102a1578152602092830192016116fb565b346102a15760006003193601126102a157611cb8613833565b600073ffffffffffffffffffffffffffffffffffffffff81547fffffffffffffffffffffffff000000000000000000000000000000000000000081168355167f8be0079c531659141344cd1fd0a4f28419497f9722a3daafe3b4186f6b6457e08280a3005b346102a157611d2b36612f14565b906000526007602052604060002090600052602052610100604060002060ff815491600181015490600281015473ffffffffffffffffffffffffffffffffffffffff6003830154166004830154916006600585015494015494604051978852602088015260408701526060860152608085015260a0840152818116151560c084015260081c16151560e0820152f35b346102a15760206003193601126102a157600435611dd6613833565b6103e88111611e185760407f607b1c943753982194530bf7133a5972ea2626e028005410efa54ab20035caf891600954908060095582519182526020820152a1005b60046040517f58d620b3000000000000000000000000000000000000000000000000000000008152fd5b346102a15760206003193601126102a15760a0600435806000526004602052604060002060405191611e7383612f47565b81548352611e8360018301613079565b602084015273ffffffffffffffffffffffffffffffffffffffff60028301541660408401526003820154606084015260048201546080840152600582015484840152600682015460c08401908152600783015460e0850152600883015461010085015260098301546101208501908152600a8401549461014081019586526101e060ff600d600b880154976101608501988952600c8101546101808601520154611f338282166101a086016131a4565b818160081c1615156101c085015260101c1615159101525193519251905191600052600e602052604060002054926040519485526020850152604084015260608301526080820152f35b346102a15760406003193601126102a157610100611f99612e63565b6004356000526005602052604060002073ffffffffffffffffffffffffffffffffffffffff80921660005260205260ff60406000209182541691600181015490600281015460038201546004830154916006600585015494015494604051978852602088015260408701526060860152608085015260a0840152818116151560c084015260081c16151560e0820152f35b346102a15760006003193601126102a157602060ff600254166040519015158152f35b346102a1576020806003193601126102a15760043561206a61327d565b6120726132b8565b806000526004825260406000209060058352604060002033600052835260406000209180541561057c57600d019160ff8354166004811015610bb5576003036122545760ff600682015460081c16156113935781600052600c8452604060002033600052845260ff6040600020541661222a5760030154918215612200578160ff92600052600c855260406000203360005285526040600020600160ff19825416179055604051908482527ff3f402280ef0a7905e124aa621b65eaeb2725c343e8b36d398ed78c29daf285c863393a35460101c16156121cf578047106110df57600080808093335af1612164613219565b5015612171575060018055005b606490604051907f08c379a00000000000000000000000000000000000000000000000000000000082526004820152601860248201527f4e61746976652042544320726566756e64206661696c656400000000000000006044820152fd5b6121fb9150337f0000000000000000000000000000000000000000000000000000000000000000613884565b610b31565b60046040517fe49c14cb000000000000000000000000000000000000000000000000000000008152fd5b60046040517f7697c5dd000000000000000000000000000000000000000000000000000000008152fd5b60046040517f08a548ee000000000000000000000000000000000000000000000000000000008152fd5b346102a15760006003193601126102a157602060405173ffffffffffffffffffffffffffffffffffffffff7f0000000000000000000000000000000000000000000000000000000000000000168152f35b346102a15760006003193601126102a157602060405173ffffffffffffffffffffffffffffffffffffffff7f0000000000000000000000000000000000000000000000000000000000000000168152f35b346102a15760006003193601126102a157602060405166038d7ea4c680008152f35b346102a15760006003193601126102a15761235b613833565b60025460ff81161561239a5760ff19166002557f5db9ee0a495bf2e6ff9c91a7834c1ba4fdd244a5e8aa4e537bd38aeae4b073aa6020604051338152a1005b60046040517f8dfc202b000000000000000000000000000000000000000000000000000000008152fd5b346102a1576123d236612f14565b90600052600d6020526040600020906000526020526020604060002054604051908152f35b346102a1576020806003193601126102a15760043561241461327d565b61241c6132b8565b8060005260048252604060002060058352604060002033600052835260406000209080541561057c57600d8101549160ff83166004811015610bb557600103610d615760ff600682015460081c16156113935760028101928354600784015411156115fb5760101c60ff166115d15760039060048301549333600052600b8752436040600020556124ad81546131b0565b9055016124bb83825461320c565b9055600981016124cc83825461320c565b905582600052600d8452600660406000209101908154600052845260406000206124f681546131b0565b90555490604051937f23b872dd000000000000000000000000000000000000000000000000000000008186015260249433868201523060448201528260648201526064815260a0810167ffffffffffffffff91808210838311176128bd57612581916040527f0000000000000000000000000000000000000000000000000000000000000000613bac565b84600052600482526040600020907f00000000000000000000000000000000000000000000000000000000000000009073ffffffffffffffffffffffffffffffffffffffff91828116916040517f70a0823100000000000000000000000000000000000000000000000000000000815230600482015286818c81875afa80156112ca57889160009161288c575b501015612652575b610b3189898989604051928352820152817ff9b7589b7a8d939b9da5dae90770378fe5fd7802be5d66432e85bedbdbfbcb7a60403393a36134be565b90896126dd92857f000000000000000000000000000000000000000000000000000000000000000016946000808b6127098c604051998a918201938c7f095ea7b3000000000000000000000000000000000000000000000000000000009a8b875284016020909392919373ffffffffffffffffffffffffffffffffffffffff60408201951681520152565b037fffffffffffffffffffffffffffffffffffffffffffffffffffffffffffffffe081018a5289612f64565b87519082855af190612719613219565b82612859575b508161284e575b50156127d2575b505050506040906000988251809a81937fb6b55f250000000000000000000000000000000000000000000000000000000083528960048401525af19687612799575b5050610b3195612783575b80808080612616565b600a0161279183825461320c565b90558561277a565b6040813d6040116127ca575b816127b260409383612f64565b810103126102a15751908116036102a157868061276f565b3d91506127a5565b6040519188830152848c8301526000604483015260448252608082019082821090821117612820579260009b926128126128179360409796885282613bac565b613bac565b9881928b61272d565b8b7f4e487b710000000000000000000000000000000000000000000000000000000060005260416004526000fd5b90503b15158d612726565b8091925051908a8215928315612874575b505050908e61271f565b6128849350820181019101613b94565b8e8a8161286a565b809250888092503d83116128b6575b6128a58183612f64565b810103126102a1578790518c61260e565b503d61289b565b877f4e487b710000000000000000000000000000000000000000000000000000000060005260416004526000fd5b346102a1576020806003193601126102a15760043561290861327d565b6129106132b8565b8060005260048252604060002080541561057c5760ff600d820154166004811015610bb557610b8b578160005260088352600360406000205491015411156129bb578060005260058252604060002033600052825260ff60066040600020015460081c16612991576008610b319282600052526040600020549033906132ee565b60046040517f810074be000000000000000000000000000000000000000000000000000000008152fd5b60046040517f9e80781c000000000000000000000000000000000000000000000000000000008152fd5b346102a15760206003193601126102a15760006101e0604051612a0781612f47565b828152606060208201528260408201528260608201528260808201528260a08201528260c08201528260e08201528261010082015282610120820152826101408201528261016082015282610180820152826101a0820152826101c082015201526004356000526004602052604060002060ff600d60405192612a8984612f47565b80548452612a9960018201613079565b602085015273ffffffffffffffffffffffffffffffffffffffff60028201541660408501526003810154606085015260048101546080850152600581015460a0850152600681015460c0850152600781015460e085015260088101546101008501526009810154610120850152600a810154610140850152600b810154610160850152600c8101546101808501520154612b398282166101a085016131a4565b818160081c1615156101c084015260101c1615156101e0820152604051809160208252805160208301526101e0612b8160208301516102006040860152610220850190612ea9565b9173ffffffffffffffffffffffffffffffffffffffff604082015116606085015260608101516080850152608081015160a085015260a081015160c085015260c081015160e085015260e08101516101008501526101008101516101208501526101208101516101408501526101408101516101608501526101608101516101808501526101808101516101a0850152612c256101a08201516101c0860190612f07565b6101c0810151151582850152015115156102008301520390f35b346102a15760206003193601126102a15773ffffffffffffffffffffffffffffffffffffffff612c6d612e86565b16600052600b6020526020604060002054604051908152f35b346102a15760406003193601126102a157610100612ca2612e63565b612caa613166565b506004356000526005602052604060002073ffffffffffffffffffffffffffffffffffffffff809216600052602052604060002060405191612ceb83612f2a565b815416918281526001820154916020820192835260028101546040830190815260038201546060840190815260048301549160808501928352600660058501549460a0870195865201549560ff60e060c0880197828a1615158952019760081c16151587526040519788525160208801525160408701525160608601525160808501525160a084015251151560c083015251151560e0820152f35b346102a1576020806003193601126102a1576040517f537bb137000000000000000000000000000000000000000000000000000000008152306004820152818160248173ffffffffffffffffffffffffffffffffffffffff7f0000000000000000000000000000000000000000000000000000000000000000165afa9081156112ca57600091612e1a575b50604051908152f35b90508181813d8311612e40575b612e318183612f64565b810103126102a1575182612e11565b503d612e27565b346102a15760006003193601126102a1578062093a8060209252f35b6024359073ffffffffffffffffffffffffffffffffffffffff821682036102a157565b6004359073ffffffffffffffffffffffffffffffffffffffff821682036102a157565b919082519283825260005b848110612ef35750507fffffffffffffffffffffffffffffffffffffffffffffffffffffffffffffffe0601f8460006020809697860101520116010190565b602081830181015184830182015201612eb4565b906004821015610bb55752565b60031960409101126102a1576004359060243590565b610100810190811067ffffffffffffffff821117611b9857604052565b610200810190811067ffffffffffffffff821117611b9857604052565b90601f7fffffffffffffffffffffffffffffffffffffffffffffffffffffffffffffffe0910116810190811067ffffffffffffffff821117611b9857604052565b67ffffffffffffffff8111611b9857601f017fffffffffffffffffffffffffffffffffffffffffffffffffffffffffffffffe01660200190565b81601f820112156102a157803590612ff682612fa5565b926130046040519485612f64565b828452602083830101116102a157816000926020809301838601378301015290565b90600182811c9216801561306f575b602083101461304057565b7f4e487b7100000000000000000000000000000000000000000000000000000000600052602260045260246000fd5b91607f1691613035565b9060405191826000825461308c81613026565b908184526020946001916001811690816000146130fc57506001146130bd575b5050506130bb92500383612f64565b565b600090815285812095935091905b8183106130e45750506130bb93508201013880806130ac565b855488840185015294850194879450918301916130cb565b9150506130bb95935060ff1991501682840152151560051b8201013880806130ac565b80548210156131375760005260206000200190600090565b7f4e487b7100000000000000000000000000000000000000000000000000000000600052603260045260246000fd5b6040519061317382612f2a565b8160e06000918281528260208201528260408201528260608201528260808201528260a08201528260c08201520152565b6004821015610bb55752565b7fffffffffffffffffffffffffffffffffffffffffffffffffffffffffffffffff81146131dd5760010190565b7f4e487b7100000000000000000000000000000000000000000000000000000000600052601160045260246000fd5b919082018092116131dd57565b3d15613244573d9061322a82612fa5565b916132386040519384612f64565b82523d6000602084013e565b606090565b80518210156131375760209160051b010190565b818102929181159184041417156131dd57565b919082039182116131dd57565b60026001541461328e576002600155565b60046040517f3ee5aeb5000000000000000000000000000000000000000000000000000000008152fd5b60ff600254166132c457565b60046040517fd93c0665000000000000000000000000000000000000000000000000000000008152fd5b92919260409182519461330086612f2a565b73ffffffffffffffffffffffffffffffffffffffff80921693848752602092838801908382528486848b019a8960008d819e8290526060840190828252878a608087019480865260a088019681885260c089019a828c5260e08a019a60018c528352600581528383209183525220955116987fffffffffffffffffffffffff0000000000000000000000000000000000000000998a875416178655516001860155516002850155516003840155516004830155516005820155600601915115156133d790839060ff60ff1983541691151516179055565b5181547fffffffffffffffffffffffffffffffffffffffffffffffffffffffffffff00ff1690151560081b61ff00161790558589526008855282892080549068010000000000000000821015613491579988999a92613460837ff4f82575ee84a81aac4be52b6a368e9ba9df524b4f5cf8177d7cfbabe861820c9a9b956001899601815561311f565b819291549060031b9186831b921b1916179055888152600687528181208682528752209182541617905551908152a3565b60248b7f4e487b710000000000000000000000000000000000000000000000000000000081526041600452fd5b6000818152600490602090828252604080822091600683015492600d85528282208483528552600383832054910154146134fb575b505050505050565b8581528484528181209460078552828220848352855282822093600685019283549360ff851661380b57838901549260038a01549061353a828661325d565b918851957f537bb13700000000000000000000000000000000000000000000000000000000875230888801528b8760248173ffffffffffffffffffffffffffffffffffffffff7f0000000000000000000000000000000000000000000000000000000000000000165afa9687156138015786976137cc575b50906135bd9161325d565b908b60078101966135d08854809561325d565b1515806137bf575b156137b057600c6135eb92015490613270565b917fffffffffffffffffffffffffffffffffffffffffffffffffffffffffffffffff81018181116137845782036137275750506005909889925b878201550155600160ff19809616179055600b88019561364681885461320c565b809755613658600c8a0191825461320c565b905560068801549154927fffffffffffffffffffffffffffffffffffffffffffffffffffffffffffffffff84019384116136fb57505010156136c35750505050600d015460081c60ff166136b4575b505b3880808080806134f3565b6136bd906138e6565b386136a7565b6002600d7fe6e3f8167a0352c51f4a5dc639deb5c5679ccf396f92c55db62037faa0a2351296019182541617905551908152a26136a9565b9060116024927f4e487b7100000000000000000000000000000000000000000000000000000000835252fd5b9061373191613270565b908115806137765761374a579060059104988992613625565b6024856012897f4e487b7100000000000000000000000000000000000000000000000000000000835252fd5b505050600583988992613625565b60248760118b7f4e487b7100000000000000000000000000000000000000000000000000000000835252fd5b50505050600583988992613625565b50600c82015481116135d8565b9096508b81813d83116137fa575b6137e48183612f64565b810103126137f65751956135bd6135b2565b8580fd5b503d6137da565b8a513d88823e3d90fd5b8386517f237e7f57000000000000000000000000000000000000000000000000000000008152fd5b73ffffffffffffffffffffffffffffffffffffffff60005416330361385457565b60246040517f118cdaa7000000000000000000000000000000000000000000000000000000008152336004820152fd5b6040517fa9059cbb00000000000000000000000000000000000000000000000000000000602082015273ffffffffffffffffffffffffffffffffffffffff9290921660248301526044808301939093529181526130bb91612812606483612f64565b6000818152600490602090828252604090818120936006850180549560018701809711613b685760070154861015613b4057908583925586825280855286848320918686519361393585612f47565b8054855261394560018201613079565b8286015273ffffffffffffffffffffffffffffffffffffffff9485600283015416898201526003820154606082015283820154608082015260058201549160a08201928352600681015460c0830152600781015460e083015260088101546101008301526009810154610120830152600a810154610140830152600b810154610160830152600c810154610180830152600d015460ff81166101a08301906139ec916131a4565b8060081c60ff1615156101c083015260101c60ff161515906101e00152838652600682528786208a8752825284888720541690514290613a2b9161320c565b94885195613a3887612f2a565b8b87528b8a89868a0192428452828b0194855260608b0196875260808b019782895260a08c019a838c5260c08d019e8f5260e08d019d8e528352600781528383209183525220975188555160018801555160028701556003860191511681547fffffffffffffffffffffffff000000000000000000000000000000000000000016179055519083015551600582015560060191511515613ae590839060ff60ff1983541691151516179055565b5181547fffffffffffffffffffffffffffffffffffffffffffffffffffffffffffff00ff1690151560081b61ff0016179055519182527f5c12640e4659b07c515609d150d36890ae4b15c3d83514b006a6dfd16700cdc991a2565b5082517f17479ac8000000000000000000000000000000000000000000000000000000008152fd5b6024846011857f4e487b7100000000000000000000000000000000000000000000000000000000835252fd5b908160209103126102a1575180151581036102a15790565b60008073ffffffffffffffffffffffffffffffffffffffff613be393169360208151910182865af1613bdc613219565b9083613c45565b8051908115159182613c2a575b5050613bf95750565b602490604051907f5274afe70000000000000000000000000000000000000000000000000000000082526004820152fd5b613c3d9250602080918301019101613b94565b153880613bf0565b90613c845750805115613c5a57805190602001fd5b60046040517f1425ea42000000000000000000000000000000000000000000000000000000008152fd5b81511580613cdc575b613c95575090565b60249073ffffffffffffffffffffffffffffffffffffffff604051917f9996b315000000000000000000000000000000000000000000000000000000008352166004820152fd5b50803b15613c8d56fea26469706673582212206bcb9f22de2ae3320986f18783a9ae88d7a4dcd15706d45062f637371d71299564736f6c63430008190033",
    "linkReferences": {}
  },
  "methodIdentifiers": {
    "MAX_CONTRIBUTION()": "94d95f8f",
    "MAX_MEMBERS()": "ea0e35b1",
    "MAX_PERIOD_DURATION()": "7fb84bed",
    "MEZO_INTEGRATION()": "fc2c01f8",
    "MIN_CONTRIBUTION()": "40650c91",
    "MIN_MEMBERS()": "d9a67220",
    "MIN_PERIOD_DURATION()": "0235e7e7",
    "MUSD()": "43a82621",
    "WBTC()": "4dede3de",
    "YIELD_AGGREGATOR()": "96f3556b",
    "advancePeriod(uint256)": "a0de8780",
    "cancelPool(uint256,string)": "d6336d55",
    "claimPayout(uint256)": "8a69614e",
    "claimRefund(uint256)": "5b7baf64",
    "createPool(string,uint256,uint256,uint256,bool,address[])": "73273fb3",
    "depositBlock(address)": "202019a6",
    "feeCollector()": "c415b95c",
    "getMemberAtIndex(uint256,uint256)": "e2e91dbf",
    "getMemberInfo(uint256,address)": "1e67939e",
    "getPendingYield(uint256)": "16e63fea",
    "getPeriodInfo(uint256,uint256)": "dc0990e8",
    "getPoolInfo(uint256)": "2f380b35",
    "getPoolMembers(uint256)": "b1219e73",
    "getPoolStats(uint256)": "6791799d",
    "hasClaimedRefund(uint256,address)": "b154afc3",
    "joinPool(uint256)": "34e7a19f",
    "makeContribution(uint256)": "360a2bcb",
    "makeContributionNative(uint256)": "84562c0f",
    "membersWithPayoutCount(uint256)": "c3bbf4a9",
    "owner()": "8da5cb5b",
    "pause()": "8456cb59",
    "paused()": "5c975abb",
    "performanceFee()": "87788782",
    "periodContributions(uint256,uint256)": "3c0490f9",
    "poolCounter()": "9e3079cb",
    "poolMemberOrder(uint256,uint256)": "3fa8ae48",
    "poolMembers(uint256,address)": "601acc92",
    "poolMembersList(uint256,uint256)": "c60b6e2d",
    "poolPeriods(uint256,uint256)": "71037024",
    "pools(uint256)": "ac4afa38",
    "renounceOwnership()": "715018a6",
    "setFeeCollector(address)": "a42dce80",
    "setPerformanceFee(uint256)": "70897b23",
    "startPool(uint256)": "a901d15c",
    "transferOwnership(address)": "f2fde38b",
    "unpause()": "3f4ba83a"
  },
  "id": 75
}