{
  "abi": [
    {
      "type": "constructor",
      "inputs": [
        {
          "name": "_mezoIntegration",
          "type": "address",
          "internalType": "address"
        },
        {
          "name": "_yieldAggregator",
          "type": "address",
          "internalType": "address"
        },
        {
          "name": "_wbtc",
          "type": "address",
          "internalType": "address"
        },
        {
          "name": "_musd",
          "type": "address",
          "internalType": "address"
        },
        {
          "name": "_feeCollector",
          "type": "address",
          "internalType": "address"
        }
      ],
      "stateMutability": "nonpayable"
    },
    {
      "type": "receive",
      "stateMutability": "payable"
    },
    {
      "type": "function",
      "name": "MAX_CONTRIBUTION",
      "inputs": [],
      "outputs": [
        {
          "name": "",
          "type": "uint256",
          "internalType": "uint256"
        }
      ],
      "stateMutability": "view"
    },
    {
      "type": "function",
      "name": "MAX_MEMBERS",
      "inputs": [],
      "outputs": [
        {
          "name": "",
          "type": "uint256",
          "internalType": "uint256"
        }
      ],
      "stateMutability": "view"
    },
    {
      "type": "function",
      "name": "MAX_PERIOD_DURATION",
      "inputs": [],
      "outputs": [
        {
          "name": "",
          "type": "uint256",
          "internalType": "uint256"
        }
      ],
      "stateMutability": "view"
    },
    {
      "type": "function",
      "name": "MEZO_INTEGRATION",
      "inputs": [],
      "outputs": [
        {
          "name": "",
          "type": "address",
          "internalType": "contract IMezoIntegration"
        }
      ],
      "stateMutability": "view"
    },
    {
      "type": "function",
      "name": "MIN_CONTRIBUTION",
      "inputs": [],
      "outputs": [
        {
          "name": "",
          "type": "uint256",
          "internalType": "uint256"
        }
      ],
      "stateMutability": "view"
    },
    {
      "type": "function",
      "name": "MIN_MEMBERS",
      "inputs": [],
      "outputs": [
        {
          "name": "",
          "type": "uint256",
          "internalType": "uint256"
        }
      ],
      "stateMutability": "view"
    },
    {
      "type": "function",
      "name": "MIN_PERIOD_DURATION",
      "inputs": [],
      "outputs": [
        {
          "name": "",
          "type": "uint256",
          "internalType": "uint256"
        }
      ],
      "stateMutability": "view"
    },
    {
      "type": "function",
      "name": "MUSD",
      "inputs": [],
      "outputs": [
        {
          "name": "",
          "type": "address",
          "internalType": "contract IERC20"
        }
      ],
      "stateMutability": "view"
    },
    {
      "type": "function",
      "name": "WBTC",
      "inputs": [],
      "outputs": [
        {
          "name": "",
          "type": "address",
          "internalType": "contract IERC20"
        }
      ],
      "stateMutability": "view"
    },
    {
      "type": "function",
      "name": "YIELD_AGGREGATOR",
      "inputs": [],
      "outputs": [
        {
          "name": "",
          "type": "address",
          "internalType": "contract IYieldAggregator"
        }
      ],
      "stateMutability": "view"
    },
    {
      "type": "function",
      "name": "advancePeriod",
      "inputs": [
        {
          "name": "poolId",
          "type": "uint256",
          "internalType": "uint256"
        }
      ],
      "outputs": [],
      "stateMutability": "nonpayable"
    },
    {
      "type": "function",
      "name": "cancelPool",
      "inputs": [
        {
          "name": "poolId",
          "type": "uint256",
          "internalType": "uint256"
        },
        {
          "name": "reason",
          "type": "string",
          "internalType": "string"
        }
      ],
      "outputs": [],
      "stateMutability": "nonpayable"
    },
    {
      "type": "function",
      "name": "claimPayout",
      "inputs": [
        {
          "name": "poolId",
          "type": "uint256",
          "internalType": "uint256"
        }
      ],
      "outputs": [],
      "stateMutability": "nonpayable"
    },
    {
      "type": "function",
      "name": "claimRefund",
      "inputs": [
        {
          "name": "poolId",
          "type": "uint256",
          "internalType": "uint256"
        }
      ],
      "outputs": [],
      "stateMutability": "nonpayable"
    },
    {
      "type": "function",
      "name": "createPool",
      "inputs": [
        {
          "name": "name",
          "type": "string",
          "internalType": "string"
        },
        {
          "name": "memberCount",
          "type": "uint256",
          "internalType": "uint256"
        },
        {
          "name": "contributionAmount",
          "type": "uint256",
          "internalType": "uint256"
        },
        {
          "name": "periodDuration",
          "type": "uint256",
          "internalType": "uint256"
        },
        {
          "name": "memberAddresses",
          "type": "address[]",
          "internalType": "address[]"
        }
      ],
      "outputs": [
        {
          "name": "poolId",
          "type": "uint256",
          "internalType": "uint256"
        }
      ],
      "stateMutability": "nonpayable"
    },
    {
      "type": "function",
      "name": "depositBlock",
      "inputs": [
        {
          "name": "",
          "type": "address",
          "internalType": "address"
        }
      ],
      "outputs": [
        {
          "name": "",
          "type": "uint256",
          "internalType": "uint256"
        }
      ],
      "stateMutability": "view"
    },
    {
      "type": "function",
      "name": "feeCollector",
      "inputs": [],
      "outputs": [
        {
          "name": "",
          "type": "address",
          "internalType": "address"
        }
      ],
      "stateMutability": "view"
    },
    {
      "type": "function",
      "name": "getMemberAtIndex",
      "inputs": [
        {
          "name": "poolId",
          "type": "uint256",
          "internalType": "uint256"
        },
        {
          "name": "index",
          "type": "uint256",
          "internalType": "uint256"
        }
      ],
      "outputs": [
        {
          "name": "",
          "type": "address",
          "internalType": "address"
        }
      ],
      "stateMutability": "view"
    },
    {
      "type": "function",
      "name": "getMemberInfo",
      "inputs": [
        {
          "name": "poolId",
          "type": "uint256",
          "internalType": "uint256"
        },
        {
          "name": "member",
          "type": "address",
          "internalType": "address"
        }
      ],
      "outputs": [
        {
          "name": "",
          "type": "tuple",
          "internalType": "struct RotatingPool.MemberInfo",
          "components": [
            {
              "name": "memberAddress",
              "type": "address",
              "internalType": "address"
            },
            {
              "name": "memberIndex",
              "type": "uint256",
              "internalType": "uint256"
            },
            {
              "name": "contributionsMade",
              "type": "uint256",
              "internalType": "uint256"
            },
            {
              "name": "totalContributed",
              "type": "uint256",
              "internalType": "uint256"
            },
            {
              "name": "payoutReceived",
              "type": "uint256",
              "internalType": "uint256"
            },
            {
              "name": "yieldReceived",
              "type": "uint256",
              "internalType": "uint256"
            },
            {
              "name": "hasReceivedPayout",
              "type": "bool",
              "internalType": "bool"
            },
            {
              "name": "active",
              "type": "bool",
              "internalType": "bool"
            }
          ]
        }
      ],
      "stateMutability": "view"
    },
    {
      "type": "function",
      "name": "getPendingYield",
      "inputs": [
        {
          "name": "",
          "type": "uint256",
          "internalType": "uint256"
        }
      ],
      "outputs": [
        {
          "name": "",
          "type": "uint256",
          "internalType": "uint256"
        }
      ],
      "stateMutability": "view"
    },
    {
      "type": "function",
      "name": "getPeriodInfo",
      "inputs": [
        {
          "name": "poolId",
          "type": "uint256",
          "internalType": "uint256"
        },
        {
          "name": "periodNumber",
          "type": "uint256",
          "internalType": "uint256"
        }
      ],
      "outputs": [
        {
          "name": "",
          "type": "tuple",
          "internalType": "struct RotatingPool.PeriodInfo",
          "components": [
            {
              "name": "periodNumber",
              "type": "uint256",
              "internalType": "uint256"
            },
            {
              "name": "startTime",
              "type": "uint256",
              "internalType": "uint256"
            },
            {
              "name": "endTime",
              "type": "uint256",
              "internalType": "uint256"
            },
            {
              "name": "recipient",
              "type": "address",
              "internalType": "address"
            },
            {
              "name": "payoutAmount",
              "type": "uint256",
              "internalType": "uint256"
            },
            {
              "name": "yieldAmount",
              "type": "uint256",
              "internalType": "uint256"
            },
            {
              "name": "completed",
              "type": "bool",
              "internalType": "bool"
            },
            {
              "name": "paid",
              "type": "bool",
              "internalType": "bool"
            }
          ]
        }
      ],
      "stateMutability": "view"
    },
    {
      "type": "function",
      "name": "getPoolInfo",
      "inputs": [
        {
          "name": "poolId",
          "type": "uint256",
          "internalType": "uint256"
        }
      ],
      "outputs": [
        {
          "name": "",
          "type": "tuple",
          "internalType": "struct RotatingPool.PoolInfo",
          "components": [
            {
              "name": "poolId",
              "type": "uint256",
              "internalType": "uint256"
            },
            {
              "name": "name",
              "type": "string",
              "internalType": "string"
            },
            {
              "name": "creator",
              "type": "address",
              "internalType": "address"
            },
            {
              "name": "memberCount",
              "type": "uint256",
              "internalType": "uint256"
            },
            {
              "name": "contributionAmount",
              "type": "uint256",
              "internalType": "uint256"
            },
            {
              "name": "periodDuration",
              "type": "uint256",
              "internalType": "uint256"
            },
            {
              "name": "currentPeriod",
              "type": "uint256",
              "internalType": "uint256"
            },
            {
              "name": "totalPeriods",
              "type": "uint256",
              "internalType": "uint256"
            },
            {
              "name": "startTime",
              "type": "uint256",
              "internalType": "uint256"
            },
            {
              "name": "totalBtcCollected",
              "type": "uint256",
              "internalType": "uint256"
            },
            {
              "name": "totalMusdMinted",
              "type": "uint256",
              "internalType": "uint256"
            },
            {
              "name": "totalYieldGenerated",
              "type": "uint256",
              "internalType": "uint256"
            },
            {
              "name": "yieldDistributed",
              "type": "uint256",
              "internalType": "uint256"
            },
            {
              "name": "status",
              "type": "uint8",
              "internalType": "enum RotatingPool.PoolStatus"
            },
            {
              "name": "autoAdvance",
              "type": "bool",
              "internalType": "bool"
            },
            {
              "name": "useNativeBtc",
              "type": "bool",
              "internalType": "bool"
            }
          ]
        }
      ],
      "stateMutability": "view"
    },
    {
      "type": "function",
      "name": "getPoolMembers",
      "inputs": [
        {
          "name": "poolId",
          "type": "uint256",
          "internalType": "uint256"
        }
      ],
      "outputs": [
        {
          "name": "",
          "type": "address[]",
          "internalType": "address[]"
        }
      ],
      "stateMutability": "view"
    },
    {
      "type": "function",
      "name": "getPoolStats",
      "inputs": [
        {
          "name": "poolId",
          "type": "uint256",
          "internalType": "uint256"
        }
      ],
      "outputs": [
        {
          "name": "totalBtc",
          "type": "uint256",
          "internalType": "uint256"
        },
        {
          "name": "totalMusd",
          "type": "uint256",
          "internalType": "uint256"
        },
        {
          "name": "totalYield",
          "type": "uint256",
          "internalType": "uint256"
        },
        {
          "name": "periodsCompleted",
          "type": "uint256",
          "internalType": "uint256"
        },
        {
          "name": "membersWithPayout",
          "type": "uint256",
          "internalType": "uint256"
        }
      ],
      "stateMutability": "view"
    },
    {
      "type": "function",
      "name": "hasClaimedRefund",
      "inputs": [
        {
          "name": "",
          "type": "uint256",
          "internalType": "uint256"
        },
        {
          "name": "",
          "type": "address",
          "internalType": "address"
        }
      ],
      "outputs": [
        {
          "name": "",
          "type": "bool",
          "internalType": "bool"
        }
      ],
      "stateMutability": "view"
    },
    {
      "type": "function",
      "name": "joinPool",
      "inputs": [
        {
          "name": "poolId",
          "type": "uint256",
          "internalType": "uint256"
        }
      ],
      "outputs": [],
      "stateMutability": "nonpayable"
    },
    {
      "type": "function",
      "name": "makeContribution",
      "inputs": [
        {
          "name": "poolId",
          "type": "uint256",
          "internalType": "uint256"
        }
      ],
      "outputs": [],
      "stateMutability": "nonpayable"
    },
    {
      "type": "function",
      "name": "makeContributionNative",
      "inputs": [
        {
          "name": "poolId",
          "type": "uint256",
          "internalType": "uint256"
        }
      ],
      "outputs": [],
      "stateMutability": "payable"
    },
    {
      "type": "function",
      "name": "owner",
      "inputs": [],
      "outputs": [
        {
          "name": "",
          "type": "address",
          "internalType": "address"
        }
      ],
      "stateMutability": "view"
    },
    {
      "type": "function",
      "name": "pause",
      "inputs": [],
      "outputs": [],
      "stateMutability": "nonpayable"
    },
    {
      "type": "function",
      "name": "paused",
      "inputs": [],
      "outputs": [
        {
          "name": "",
          "type": "bool",
          "internalType": "bool"
        }
      ],
      "stateMutability": "view"
    },
    {
      "type": "function",
      "name": "performanceFee",
      "inputs": [],
      "outputs": [
        {
          "name": "",
          "type": "uint256",
          "internalType": "uint256"
        }
      ],
      "stateMutability": "view"
    },
    {
      "type": "function",
      "name": "poolCounter",
      "inputs": [],
      "outputs": [
        {
          "name": "",
          "type": "uint256",
          "internalType": "uint256"
        }
      ],
      "stateMutability": "view"
    },
    {
      "type": "function",
      "name": "poolMemberOrder",
      "inputs": [
        {
          "name": "",
          "type": "uint256",
          "internalType": "uint256"
        },
        {
          "name": "",
          "type": "uint256",
          "internalType": "uint256"
        }
      ],
      "outputs": [
        {
          "name": "",
          "type": "address",
          "internalType": "address"
        }
      ],
      "stateMutability": "view"
    },
    {
      "type": "function",
      "name": "poolMembers",
      "inputs": [
        {
          "name": "",
          "type": "uint256",
          "internalType": "uint256"
        },
        {
          "name": "",
          "type": "address",
          "internalType": "address"
        }
      ],
      "outputs": [
        {
          "name": "memberAddress",
          "type": "address",
          "internalType": "address"
        },
        {
          "name": "memberIndex",
          "type": "uint256",
          "internalType": "uint256"
        },
        {
          "name": "contributionsMade",
          "type": "uint256",
          "internalType": "uint256"
        },
        {
          "name": "totalContributed",
          "type": "uint256",
          "internalType": "uint256"
        },
        {
          "name": "payoutReceived",
          "type": "uint256",
          "internalType": "uint256"
        },
        {
          "name": "yieldReceived",
          "type": "uint256",
          "internalType": "uint256"
        },
        {
          "name": "hasReceivedPayout",
          "type": "bool",
          "internalType": "bool"
        },
        {
          "name": "active",
          "type": "bool",
          "internalType": "bool"
        }
      ],
      "stateMutability": "view"
    },
    {
      "type": "function",
      "name": "poolMembersList",
      "inputs": [
        {
          "name": "",
          "type": "uint256",
          "internalType": "uint256"
        },
        {
          "name": "",
          "type": "uint256",
          "internalType": "uint256"
        }
      ],
      "outputs": [
        {
          "name": "",
          "type": "address",
          "internalType": "address"
        }
      ],
      "stateMutability": "view"
    },
    {
      "type": "function",
      "name": "poolPeriods",
      "inputs": [
        {
          "name": "",
          "type": "uint256",
          "internalType": "uint256"
        },
        {
          "name": "",
          "type": "uint256",
          "internalType": "uint256"
        }
      ],
      "outputs": [
        {
          "name": "periodNumber",
          "type": "uint256",
          "internalType": "uint256"
        },
        {
          "name": "startTime",
          "type": "uint256",
          "internalType": "uint256"
        },
        {
          "name": "endTime",
          "type": "uint256",
          "internalType": "uint256"
        },
        {
          "name": "recipient",
          "type": "address",
          "internalType": "address"
        },
        {
          "name": "payoutAmount",
          "type": "uint256",
          "internalType": "uint256"
        },
        {
          "name": "yieldAmount",
          "type": "uint256",
          "internalType": "uint256"
        },
        {
          "name": "completed",
          "type": "bool",
          "internalType": "bool"
        },
        {
          "name": "paid",
          "type": "bool",
          "internalType": "bool"
        }
      ],
      "stateMutability": "view"
    },
    {
      "type": "function",
      "name": "pools",
      "inputs": [
        {
          "name": "",
          "type": "uint256",
          "internalType": "uint256"
        }
      ],
      "outputs": [
        {
          "name": "poolId",
          "type": "uint256",
          "internalType": "uint256"
        },
        {
          "name": "name",
          "type": "string",
          "internalType": "string"
        },
        {
          "name": "creator",
          "type": "address",
          "internalType": "address"
        },
        {
          "name": "memberCount",
          "type": "uint256",
          "internalType": "uint256"
        },
        {
          "name": "contributionAmount",
          "type": "uint256",
          "internalType": "uint256"
        },
        {
          "name": "periodDuration",
          "type": "uint256",
          "internalType": "uint256"
        },
        {
          "name": "currentPeriod",
          "type": "uint256",
          "internalType": "uint256"
        },
        {
          "name": "totalPeriods",
          "type": "uint256",
          "internalType": "uint256"
        },
        {
          "name": "startTime",
          "type": "uint256",
          "internalType": "uint256"
        },
        {
          "name": "totalBtcCollected",
          "type": "uint256",
          "internalType": "uint256"
        },
        {
          "name": "totalMusdMinted",
          "type": "uint256",
          "internalType": "uint256"
        },
        {
          "name": "totalYieldGenerated",
          "type": "uint256",
          "internalType": "uint256"
        },
        {
          "name": "yieldDistributed",
          "type": "uint256",
          "internalType": "uint256"
        },
        {
          "name": "status",
          "type": "uint8",
          "internalType": "enum RotatingPool.PoolStatus"
        },
        {
          "name": "autoAdvance",
          "type": "bool",
          "internalType": "bool"
        },
        {
          "name": "useNativeBtc",
          "type": "bool",
          "internalType": "bool"
        }
      ],
      "stateMutability": "view"
    },
    {
      "type": "function",
      "name": "renounceOwnership",
      "inputs": [],
      "outputs": [],
      "stateMutability": "nonpayable"
    },
    {
      "type": "function",
      "name": "setFeeCollector",
      "inputs": [
        {
          "name": "newCollector",
          "type": "address",
          "internalType": "address"
        }
      ],
      "outputs": [],
      "stateMutability": "nonpayable"
    },
    {
      "type": "function",
      "name": "setPerformanceFee",
      "inputs": [
        {
          "name": "newFee",
          "type": "uint256",
          "internalType": "uint256"
        }
      ],
      "outputs": [],
      "stateMutability": "nonpayable"
    },
    {
      "type": "function",
      "name": "startPool",
      "inputs": [
        {
          "name": "poolId",
          "type": "uint256",
          "internalType": "uint256"
        }
      ],
      "outputs": [],
      "stateMutability": "nonpayable"
    },
    {
      "type": "function",
      "name": "transferOwnership",
      "inputs": [
        {
          "name": "newOwner",
          "type": "address",
          "internalType": "address"
        }
      ],
      "outputs": [],
      "stateMutability": "nonpayable"
    },
    {
      "type": "function",
      "name": "unpause",
      "inputs": [],
      "outputs": [],
      "stateMutability": "nonpayable"
    },
    {
      "type": "event",
      "name": "ContributionMade",
      "inputs": [
        {
          "name": "poolId",
          "type": "uint256",
          "indexed": true,
          "internalType": "uint256"
        },
        {
          "name": "member",
          "type": "address",
          "indexed": true,
          "internalType": "address"
        },
        {
          "name": "periodNumber",
          "type": "uint256",
          "indexed": false,
          "internalType": "uint256"
        },
        {
          "name": "amount",
          "type": "uint256",
          "indexed": false,
          "internalType": "uint256"
        }
      ],
      "anonymous": false
    },
    {
      "type": "event",
      "name": "MemberJoined",
      "inputs": [
        {
          "name": "poolId",
          "type": "uint256",
          "indexed": true,
          "internalType": "uint256"
        },
        {
          "name": "member",
          "type": "address",
          "indexed": true,
          "internalType": "address"
        },
        {
          "name": "memberIndex",
          "type": "uint256",
          "indexed": false,
          "internalType": "uint256"
        }
      ],
      "anonymous": false
    },
    {
      "type": "event",
      "name": "OwnershipTransferred",
      "inputs": [
        {
          "name": "previousOwner",
          "type": "address",
          "indexed": true,
          "internalType": "address"
        },
        {
          "name": "newOwner",
          "type": "address",
          "indexed": true,
          "internalType": "address"
        }
      ],
      "anonymous": false
    },
    {
      "type": "event",
      "name": "Paused",
      "inputs": [
        {
          "name": "account",
          "type": "address",
          "indexed": false,
          "internalType": "address"
        }
      ],
      "anonymous": false
    },
    {
      "type": "event",
      "name": "PayoutDistributed",
      "inputs": [
        {
          "name": "poolId",
          "type": "uint256",
          "indexed": true,
          "internalType": "uint256"
        },
        {
          "name": "periodNumber",
          "type": "uint256",
          "indexed": false,
          "internalType": "uint256"
        },
        {
          "name": "recipient",
          "type": "address",
          "indexed": true,
          "internalType": "address"
        },
        {
          "name": "payoutAmount",
          "type": "uint256",
          "indexed": false,
          "internalType": "uint256"
        },
        {
          "name": "yieldAmount",
          "type": "uint256",
          "indexed": false,
          "internalType": "uint256"
        }
      ],
      "anonymous": false
    },
    {
      "type": "event",
      "name": "PeriodAdvanced",
      "inputs": [
        {
          "name": "poolId",
          "type": "uint256",
          "indexed": true,
          "internalType": "uint256"
        },
        {
          "name": "newPeriod",
          "type": "uint256",
          "indexed": false,
          "internalType": "uint256"
        }
      ],
      "anonymous": false
    },
    {
      "type": "event",
      "name": "PoolCancelled",
      "inputs": [
        {
          "name": "poolId",
          "type": "uint256",
          "indexed": true,
          "internalType": "uint256"
        },
        {
          "name": "reason",
          "type": "string",
          "indexed": false,
          "internalType": "string"
        }
      ],
      "anonymous": false
    },
    {
      "type": "event",
      "name": "PoolCompleted",
      "inputs": [
        {
          "name": "poolId",
          "type": "uint256",
          "indexed": true,
          "internalType": "uint256"
        },
        {
          "name": "totalYieldDistributed",
          "type": "uint256",
          "indexed": false,
          "internalType": "uint256"
        }
      ],
      "anonymous": false
    },
    {
      "type": "event",
      "name": "PoolCreated",
      "inputs": [
        {
          "name": "poolId",
          "type": "uint256",
          "indexed": true,
          "internalType": "uint256"
        },
        {
          "name": "creator",
          "type": "address",
          "indexed": true,
          "internalType": "address"
        },
        {
          "name": "name",
          "type": "string",
          "indexed": false,
          "internalType": "string"
        },
        {
          "name": "memberCount",
          "type": "uint256",
          "indexed": false,
          "internalType": "uint256"
        },
        {
          "name": "contributionAmount",
          "type": "uint256",
          "indexed": false,
          "internalType": "uint256"
        },
        {
          "name": "periodDuration",
          "type": "uint256",
          "indexed": false,
          "internalType": "uint256"
        }
      ],
      "anonymous": false
    },
    {
      "type": "event",
      "name": "RefundClaimed",
      "inputs": [
        {
          "name": "poolId",
          "type": "uint256",
          "indexed": true,
          "internalType": "uint256"
        },
        {
          "name": "member",
          "type": "address",
          "indexed": true,
          "internalType": "address"
        },
        {
          "name": "amount",
          "type": "uint256",
          "indexed": false,
          "internalType": "uint256"
        }
      ],
      "anonymous": false
    },
    {
      "type": "event",
      "name": "Unpaused",
      "inputs": [
        {
          "name": "account",
          "type": "address",
          "indexed": false,
          "internalType": "address"
        }
      ],
      "anonymous": false
    },
    {
      "type": "error",
      "name": "AddressEmptyCode",
      "inputs": [
        {
          "name": "target",
          "type": "address",
          "internalType": "address"
        }
      ]
    },
    {
      "type": "error",
      "name": "AddressInsufficientBalance",
      "inputs": [
        {
          "name": "account",
          "type": "address",
          "internalType": "address"
        }
      ]
    },
    {
      "type": "error",
      "name": "AlreadyMember",
      "inputs": []
    },
    {
      "type": "error",
      "name": "ContributionAlreadyMade",
      "inputs": []
    },
    {
      "type": "error",
      "name": "EnforcedPause",
      "inputs": []
    },
    {
      "type": "error",
      "name": "ExpectedPause",
      "inputs": []
    },
    {
      "type": "error",
      "name": "FailedInnerCall",
      "inputs": []
    },
    {
      "type": "error",
      "name": "InsufficientContributions",
      "inputs": []
    },
    {
      "type": "error",
      "name": "InvalidAddress",
      "inputs": []
    },
    {
      "type": "error",
      "name": "InvalidAmount",
      "inputs": []
    },
    {
      "type": "error",
      "name": "InvalidContribution",
      "inputs": []
    },
    {
      "type": "error",
      "name": "InvalidFee",
      "inputs": []
    },
    {
      "type": "error",
      "name": "InvalidMemberCount",
      "inputs": []
    },
    {
      "type": "error",
      "name": "InvalidPeriod",
      "inputs": []
    },
    {
      "type": "error",
      "name": "InvalidPeriodDuration",
      "inputs": []
    },
    {
      "type": "error",
      "name": "InvalidPoolId",
      "inputs": []
    },
    {
      "type": "error",
      "name": "NoRefundAvailable",
      "inputs": []
    },
    {
      "type": "error",
      "name": "NotMember",
      "inputs": []
    },
    {
      "type": "error",
      "name": "OwnableInvalidOwner",
      "inputs": [
        {
          "name": "owner",
          "type": "address",
          "internalType": "address"
        }
      ]
    },
    {
      "type": "error",
      "name": "OwnableUnauthorizedAccount",
      "inputs": [
        {
          "name": "account",
          "type": "address",
          "internalType": "address"
        }
      ]
    },
    {
      "type": "error",
      "name": "PayoutAlreadyDistributed",
      "inputs": []
    },
    {
      "type": "error",
      "name": "PeriodNotEnded",
      "inputs": []
    },
    {
      "type": "error",
      "name": "PoolFull",
      "inputs": []
    },
    {
      "type": "error",
      "name": "PoolNotActive",
      "inputs": []
    },
    {
      "type": "error",
      "name": "PoolNotCancelled",
      "inputs": []
    },
    {
      "type": "error",
      "name": "PoolNotCompleted",
      "inputs": []
    },
    {
      "type": "error",
      "name": "PoolNotForming",
      "inputs": []
    },
    {
      "type": "error",
      "name": "ReentrancyGuardReentrantCall",
      "inputs": []
    },
    {
      "type": "error",
      "name": "RefundAlreadyClaimed",
      "inputs": []
    },
    {
      "type": "error",
      "name": "SafeERC20FailedOperation",
      "inputs": [
        {
          "name": "token",
          "type": "address",
          "internalType": "address"
        }
      ]
    },
    {
      "type": "error",
      "name": "SameBlockWithdrawal",
      "inputs": []
    }
  ],
  "bytecode": {
    "object": "0x610100346101fa57601f613f8338819003918201601f19168301916001600160401b038311848410176101ff5780849260a0946040528339810103126101fa5761004881610215565b9061005560208201610215565b9061006260408201610215565b9061007b608061007460608401610215565b9201610215565b9133156101e1576000549360018060a01b03948560018060a01b031997338984161760005560405192823391167f8be0079c531659141344cd1fd0a4f28419497f9722a3daafe3b4186f6b6457e0600080a36001805560ff196002541660025560646009551690811580156101d7575b80156101cd575b80156101c3575b80156101b9575b6101aa5750608052841660a052831660c052821660e052600a80549093169116179055604051613d59908161022a82396080518161023b015260a051818181610d400152818161176a015281816125d601528181612d5b0152613594015260c051818181611671015281816121b90152818161228d01526124d8015260e0518181816115b1015281816115e2015281816116e3015281816117e4015281816122de015261250c0152f35b63e6c4247b60e01b8152600490fd5b5086861615610100565b50868516156100f9565b50868416156100f2565b50868316156100eb565b604051631e4fbdf760e01b815260006004820152602490fd5b600080fd5b634e487b7160e01b600052604160045260246000fd5b51906001600160a01b03821682036101fa5756fe608080604052600436101561001d575b50361561001b57600080fd5b005b60003560e01c9081630235e7e714612dc25750806316e63fea14612d015780631e67939e14612c01578063202019a614612bba5780632f380b351461296057806334e7a19f14612866578063360a2bcb146123a65780633f4ba83a146123245780633fa8ae481461034457806340650c911461230257806343a82621146122b15780634dede3de146122605780635b7baf64146120365780635c975abb14612013578063601acc9214611f665780636791799d14611d6157806370897b2314611d0d5780637103702414611c70578063715018a614611bf25780637fb84bed14611bd457806384562c0f14611a2c5780638456cb59146119d257806387788782146119b45780638a69614e146113f05780638da5cb5b146113bc5780638f78b14f14610d8757806394d95f8f14610d6457806396f3556b14610d135780639e3079cb14610cf5578063a0de878014610be1578063a42dce8014610b76578063a901d15c14610834578063ac4afa381461071c578063b1219e731461064a578063b154afc3146105ef578063c415b95c146105bb578063c60b6e2d14610564578063d6336d551461049c578063d9a6722014610480578063dc0990e81461038d578063e2e91dbf14610344578063ea0e35b114610328578063f2fde38b146102645763fc2c01f81461020e573861000f565b3461025f57600060031936011261025f57602060405173ffffffffffffffffffffffffffffffffffffffff7f0000000000000000000000000000000000000000000000000000000000000000168152f35b600080fd5b3461025f57602060031936011261025f5761027d612e01565b610285613871565b73ffffffffffffffffffffffffffffffffffffffff8091169081156102f757600054827fffffffffffffffffffffffff0000000000000000000000000000000000000000821617600055167f8be0079c531659141344cd1fd0a4f28419497f9722a3daafe3b4186f6b6457e0600080a3005b60246040517f1e4fbdf700000000000000000000000000000000000000000000000000000000815260006004820152fd5b3461025f57600060031936011261025f57602060405160328152f35b3461025f5761035236612e8f565b906000526006602052604060002090600052602052602073ffffffffffffffffffffffffffffffffffffffff60406000205416604051908152f35b3461025f5761039b36612e8f565b906103a46130e1565b5060005260076020526040600020906000526020526101006040600020604051906103ce82612ea5565b8054918281526001820154916020820192835260028101546040830190815273ffffffffffffffffffffffffffffffffffffffff806003840154166060850190815260048401549260808601938452600660058601549560a0880196875201549660ff60e060c0890198828b1615158a52019860081c1615158852604051988952516020890152516040880152511660608601525160808501525160a084015251151560c083015251151560e0820152f35b3461025f57600060031936011261025f57602060405160038152f35b3461025f57604060031936011261025f5760043560243567ffffffffffffffff811161025f576104d0903690600401612f5a565b6104d8613871565b816000526004602052604060002080541561053a577f7f4407032861af82a3485fe13a59182f0e8e7ce9788eb972659f64a08f39dad191600d6105359201600360ff19825416179055604051918291602083526020830190612e24565b0390a2005b60046040517f0afa7ee8000000000000000000000000000000000000000000000000000000008152fd5b3461025f5761057236612e8f565b906000526008602052604060002090815481101561025f576105ab73ffffffffffffffffffffffffffffffffffffffff9160209361309a565b9190546040519260031b1c168152f35b3461025f57600060031936011261025f57602073ffffffffffffffffffffffffffffffffffffffff600a5416604051908152f35b3461025f57604060031936011261025f57610608612dde565b600435600052600c60205273ffffffffffffffffffffffffffffffffffffffff60406000209116600052602052602060ff604060002054166040519015158152f35b3461025f5760208060031936011261025f5760043560005260088152604060002060405190818382549182815201908192600052846000209060005b868282106106f257868661069c82880383612edf565b604051928392818401908285525180915260408401929160005b8281106106c557505050500390f35b835173ffffffffffffffffffffffffffffffffffffffff16855286955093810193928101926001016106b6565b835473ffffffffffffffffffffffffffffffffffffffff1685529093019260019283019201610686565b3461025f57602060031936011261025f576004356000526004602052604060002080546001820161074c90612ff4565b90600283015473ffffffffffffffffffffffffffffffffffffffff16926003810154906004810154600582015460068301546007840154600885015490600986015492600a87015494600b88015496600c89015498600d0154996040519d8e9d8e9d8e610200918152816020820152016107c591612e24565b6040909d015260608d015260808c015260a08b015260c08a015260e08901526101008801526101208701526101408601526101608501526101808401526108136101a0840160ff8316612e82565b8060081c60ff1615156101c084015260101c60ff1615156101e08301520390f35b3461025f5760208060031936011261025f57600435906108526131f8565b816000526004815260406000209182541561053a57600d8301805460ff81166004811015610b4757610b1d5773ffffffffffffffffffffffffffffffffffffffff806002870154163303610af3578360005260088552604060002054600387015403610ac957610ac395610a8f93600160ff196006951617905560084291015583600052600485526040600020906040516108ec81612ec2565b825481526108fc60018401612ff4565b8782015281600284015416604082015260038301546060820152600483015460808201526101e060ff600d60058601549560a085019687528781015460c0860152600781015460e086015260088101546101008601526009810154610120860152600a810154610140860152600b810154610160860152600c81015461018086015201546109908282166101a0860161311f565b818160081c1615156101c085015260101c1615159101528460005282865260406000206000805286526109cc8160406000205416925142613187565b604051926109d984612ea5565b6000845287840192428452604085019283526060850191825260808501926000845260a08601946000865260c087019a60008c5260e088019a60008c52600052600781526040600020906000805252604060002096518755516001870155516002860155600385019151167fffffffffffffffffffffffff00000000000000000000000000000000000000008254161790555160048301555160058201550192511515839060ff60ff1983541691151516179055565b5181547fffffffffffffffffffffffffffffffffffffffffffffffffffffffffffff00ff1690151560081b61ff0016179055565b60018055005b60046040517fda3cb5f4000000000000000000000000000000000000000000000000000000008152fd5b60046040517fe6c4247b000000000000000000000000000000000000000000000000000000008152fd5b60046040517f4eb0513e000000000000000000000000000000000000000000000000000000008152fd5b7f4e487b7100000000000000000000000000000000000000000000000000000000600052602160045260246000fd5b3461025f57602060031936011261025f5773ffffffffffffffffffffffffffffffffffffffff610ba4612e01565b610bac613871565b168015610af3577fffffffffffffffffffffffff0000000000000000000000000000000000000000600a541617600a55600080f35b3461025f5760208060031936011261025f5760043590610bff6131f8565b8160005260048152604060002080541561053a5760ff600d820154166004811015610b4757600103610ccb57610c7e908360005260078352604060002060068201546000528352604060002092846000526005815260406000209033600052526005600160ff60066040600020015460081c1694015491015490613187565b42109073ffffffffffffffffffffffffffffffffffffffff60005416331490159182610cc3575b5081610cba575b50610af357610ac390613924565b90501582610cac565b915083610ca5565b60046040517f71815202000000000000000000000000000000000000000000000000000000008152fd5b3461025f57600060031936011261025f576020600354604051908152f35b3461025f57600060031936011261025f57602060405173ffffffffffffffffffffffffffffffffffffffff7f0000000000000000000000000000000000000000000000000000000000000000168152f35b3461025f57600060031936011261025f576020604051678ac7230489e800008152f35b3461025f5760a060031936011261025f5760043567ffffffffffffffff811161025f57610db8903690600401612f5a565b60843567ffffffffffffffff811161025f573660238201121561025f5780600401359067ffffffffffffffff82116112b5578160051b9060405192610e006020840185612edf565b8352602460208401928201019036821161025f57602401915b81831061138f57505050610e2b613233565b6003602435108015611383575b6113595766038d7ea4c68000604435108015611346575b61131c5762093a8060643510801561130e575b6112e457610e7160035461312b565b9182600355604051610e8281612ec2565b8381528160208201523360408201526024356060820152604435608082015260643560a0820152600060c082015260243560e08201526000610100820152600061012082015260006101408201526000610160820152600061018082015260006101a082015260006101c082015260006101e0820152836000526004602052604060002081518155602082015180519067ffffffffffffffff82116112b557610f2e6001840154612fa1565b601f811161126e575b50602090601f83116001146111a157600d93929160009183611196575b50507fffffffffffffffffffffffffffffffffffffffffffffffffffffffffffffffff8260011b9260031b1c19161760018201555b73ffffffffffffffffffffffffffffffffffffffff6040840151167fffffffffffffffffffffffff0000000000000000000000000000000000000000600283015416176002820155606083015160038201556080830151600482015560a0830151600582015560c0830151600682015560e0830151600782015561010083015160088201556101208301516009820155610140830151600a820155610160830151600b820155610180830151600c82015501906101a0810151906004821015610b475782546101c08201516101e0909201517fffffffffffffffffffffffffffffffffffffffffffffffffffffffffff00000090911660ff939093169290921790151560081b61ff00161790151560101b62ff0000161790556040516080808252909184917f80eb862b1ebf91ef46e8085c1e47b348af9ad8f1248fb18302612a57ad3a2b55916110dc91850190612e24565b926024356020820152604435604082015260643560608201528033940390a3805161110d575b602082604051908152f35b60005b815181108061118b575b15611182578073ffffffffffffffffffffffffffffffffffffffff61114261114d93856131c4565b51166111525761312b565b611110565b61117d8173ffffffffffffffffffffffffffffffffffffffff61117582876131c4565b511686613269565b61312b565b50506020611102565b50602435811061111a565b015190508880610f54565b906001840160005260206000209160005b7fffffffffffffffffffffffffffffffffffffffffffffffffffffffffffffffe0851681106112565750918391600193837fffffffffffffffffffffffffffffffffffffffffffffffffffffffffffffffe0600d9897161061121f575b505050811b016001820155610f89565b01517fffffffffffffffffffffffffffffffffffffffffffffffffffffffffffffffff60f88460031b161c1916905588808061120f565b919260206001819286850151815501940192016111b2565b600184016000526020600020601f840160051c8101602085106112ae575b601f830160051c820181106112a2575050610f37565b6000815560010161128c565b508061128c565b7f4e487b7100000000000000000000000000000000000000000000000000000000600052604160045260246000fd5b60046040517f9e11b5e6000000000000000000000000000000000000000000000000000000008152fd5b506276a70060643511610e62565b60046040517f652122d9000000000000000000000000000000000000000000000000000000008152fd5b50678ac7230489e8000060443511610e4f565b60046040517f4fdd01a0000000000000000000000000000000000000000000000000000000008152fd5b50603260243511610e38565b823573ffffffffffffffffffffffffffffffffffffffff8116810361025f57815260209283019201610e19565b3461025f57600060031936011261025f57602073ffffffffffffffffffffffffffffffffffffffff60005416604051908152f35b3461025f57602060031936011261025f576114096131f8565b33600052600b602052604060002054431461198a57600435600052600460205260406000206005602052604060002033600052602052604060002081541561053a57600681015460ff8160081c16156119605760ff1661190c57600435600052600760205260406000206001820154600052602052604060002091600683015460ff8116156119365760081c60ff1661190c576004830154906005840154926127106114b7600954866131d8565b04946114c386866131eb565b948061169a575b509160018260ff948260ff196006600d9701541617600683015586600483015587600583015560066101007fffffffffffffffffffffffffffffffffffffffffffffffffffffffffffff00ff828401541617910155015460405190815284602082015285604082015233907f361c61d25e573b81c4f29477a915ff059161fc6927cffdc7897e2010625d8da0606060043592a3015460101c161561166a57600080808093335af1611579613194565b501561160c575b806115db575b50806115925760018055005b6115d59073ffffffffffffffffffffffffffffffffffffffff600a54167f00000000000000000000000000000000000000000000000000000000000000006138c2565b80610ac3565b61160690337f00000000000000000000000000000000000000000000000000000000000000006138c2565b81611586565b60646040517f08c379a000000000000000000000000000000000000000000000000000000000815260206004820152601a60248201527f4e617469766520425443207472616e73666572206661696c65640000000000006044820152fd5b61169590337f00000000000000000000000000000000000000000000000000000000000000006138c2565b611580565b6040517f70a0823100000000000000000000000000000000000000000000000000000000815230600482015260208160248173ffffffffffffffffffffffffffffffffffffffff7f0000000000000000000000000000000000000000000000000000000000000000165afa908115611893576000916118da575b5010611721575b866114ca565b936040959195517f406cf229000000000000000000000000000000000000000000000000000000008152602081600481600073ffffffffffffffffffffffffffffffffffffffff7f0000000000000000000000000000000000000000000000000000000000000000165af190816118af575b5061189f575050604051937f70a0823100000000000000000000000000000000000000000000000000000000855230600486015260208560248173ffffffffffffffffffffffffffffffffffffffff7f0000000000000000000000000000000000000000000000000000000000000000165afa9485156118935760009561185f575b50841561184b5760ff916001600d9261183e6127106118366009548b6131d8565b0480996131eb565b965b92945092505061171b565b9350600d60ff916001600096600096611840565b9094506020813d60201161188b575b8161187b60209383612edf565b8101031261025f57519385611815565b3d915061186e565b6040513d6000823e3d90fd5b93916001600d929660ff94611840565b602090813d83116118d3575b6118c58183612edf565b8101031261025f5787611793565b503d6118bb565b90506020813d602011611904575b816118f560209383612edf565b8101031261025f575188611714565b3d91506118e8565b60046040517f237e7f57000000000000000000000000000000000000000000000000000000008152fd5b60046040517fac59a02d000000000000000000000000000000000000000000000000000000008152fd5b60046040517f291fc442000000000000000000000000000000000000000000000000000000008152fd5b60046040517f4837511c000000000000000000000000000000000000000000000000000000008152fd5b3461025f57600060031936011261025f576020600954604051908152f35b3461025f57600060031936011261025f576119eb613871565b6119f3613233565b600160ff1960025416176002557f62e78cea01bee320cd4e420270b5ea74000d11b0c9f74754ebdbfc544b05a2586020604051338152a1005b60208060031936011261025f57600435611a446131f8565b611a4c613233565b806000526004825260406000209160058152604060002033600052815260406000209280541561053a57600d81019081549060ff82166004811015610b4757600103610ccb5760ff600687015460081c1615611960576002860191825460078301541115611baa57600482015493843403611b8057610ac3976006946003926009860194855415611b50575b505033600052600b885243604060002055611af3815461312b565b905501611b01858254613187565b9055611b0e848254613187565b90550154918360005260048152604051928352820152817ff9b7589b7a8d939b9da5dae90770378fe5fd7802be5d66432e85bedbdbfbcb7a60403393a3613439565b7fffffffffffffffffffffffffffffffffffffffffffffffffffffffffff00ffff16620100001790558a80611ad8565b60046040517f2c5211c6000000000000000000000000000000000000000000000000000000008152fd5b60046040517f084175a5000000000000000000000000000000000000000000000000000000008152fd5b3461025f57600060031936011261025f5760206040516276a7008152f35b3461025f57600060031936011261025f57611c0b613871565b600073ffffffffffffffffffffffffffffffffffffffff81547fffffffffffffffffffffffff000000000000000000000000000000000000000081168355167f8be0079c531659141344cd1fd0a4f28419497f9722a3daafe3b4186f6b6457e08280a3005b3461025f57611c7e36612e8f565b906000526007602052604060002090600052602052610100604060002060ff815491600181015490600281015473ffffffffffffffffffffffffffffffffffffffff6003830154166004830154916006600585015494015494604051978852602088015260408701526060860152608085015260a0840152818116151560c084015260081c16151560e0820152f35b3461025f57602060031936011261025f57600435611d29613871565b6103e88111611d3757600955005b60046040517f58d620b3000000000000000000000000000000000000000000000000000000008152fd5b3461025f5760208060031936011261025f57600435906000826000526004825260406000209260405190611d9482612ec2565b84548252600194611da760018201612ff4565b8584015273ffffffffffffffffffffffffffffffffffffffff948560028301541660408501526003820154606085015260048201546080850152600593600583015460a08201526006808401549460c08301958652600785015460e084015260088501546101008401526009850154986101208401998a52600a8601549961014085019a8b52600d600b880154976101608701988952600c8101546101808801520154946101e060ff8097611e628282166101a0860161311f565b818160081c1615156101c085015260101c16151591015251995195519651978260005260088652604060002092604051938d85898354918281520192600052896000209060005b8b828210611f5157505050505084611ec2910385612edf565b60008d5b611eed575b60a08d8d8d8d8d8d604051958652850152604084015260608301526080820152f35b8451811015611f4c57908d96959493929181600052828952604060002084611f1583886131c4565b5116600052895286866040600020015416611f39575b870190919293949596611ec6565b9b611f44889161312b565b9c9050611f2b565b611ecb565b83548916865290940193918301918301611ea9565b3461025f57604060031936011261025f57610100611f82612dde565b6004356000526005602052604060002073ffffffffffffffffffffffffffffffffffffffff80921660005260205260ff60406000209182541691600181015490600281015460038201546004830154916006600585015494015494604051978852602088015260408701526060860152608085015260a0840152818116151560c084015260081c16151560e0820152f35b3461025f57600060031936011261025f57602060ff600254166040519015158152f35b3461025f5760208060031936011261025f576004356120536131f8565b61205b613233565b806000526004825260406000209060058352604060002033600052835260406000209180541561053a57600d019160ff8354166004811015610b47576003036122365760ff600682015460081c16156119605781600052600c8452604060002033600052845260ff6040600020541661220c57600301549182156121e2578160ff92600052600c855260406000203360005285526040600020600160ff19825416179055604051908482527ff3f402280ef0a7905e124aa621b65eaeb2725c343e8b36d398ed78c29daf285c863393a35460101c16156121b157600080808093335af1612146613194565b5015612153575060018055005b606490604051907f08c379a00000000000000000000000000000000000000000000000000000000082526004820152601860248201527f4e61746976652042544320726566756e64206661696c656400000000000000006044820152fd5b6121dd9150337f00000000000000000000000000000000000000000000000000000000000000006138c2565b610ac3565b60046040517fe49c14cb000000000000000000000000000000000000000000000000000000008152fd5b60046040517f7697c5dd000000000000000000000000000000000000000000000000000000008152fd5b60046040517f08a548ee000000000000000000000000000000000000000000000000000000008152fd5b3461025f57600060031936011261025f57602060405173ffffffffffffffffffffffffffffffffffffffff7f0000000000000000000000000000000000000000000000000000000000000000168152f35b3461025f57600060031936011261025f57602060405173ffffffffffffffffffffffffffffffffffffffff7f0000000000000000000000000000000000000000000000000000000000000000168152f35b3461025f57600060031936011261025f57602060405166038d7ea4c680008152f35b3461025f57600060031936011261025f5761233d613871565b60025460ff81161561237c5760ff19166002557f5db9ee0a495bf2e6ff9c91a7834c1ba4fdd244a5e8aa4e537bd38aeae4b073aa6020604051338152a1005b60046040517f8dfc202b000000000000000000000000000000000000000000000000000000008152fd5b3461025f5760208060031936011261025f576004356123c36131f8565b6123cb613233565b80600052600482526040600020600583526040600020336000528352604060002081541561053a5760ff600d830154166004811015610b4757600103610ccb5760ff600682015460081c1615611960576002810191825460078201541115611baa57600360069260048301549433600052600b885243604060002055612451815461312b565b90550161245f848254613187565b905560098101612470848254613187565b9055015490604051937f23b872dd000000000000000000000000000000000000000000000000000000008186015260249433868201523060448201528260648201526064815260a0810167ffffffffffffffff9180821083831117612838576124fc916040527f0000000000000000000000000000000000000000000000000000000000000000613bea565b84600052600482526040600020907f00000000000000000000000000000000000000000000000000000000000000009073ffffffffffffffffffffffffffffffffffffffff91828116916040517f70a0823100000000000000000000000000000000000000000000000000000000815230600482015286818c81875afa8015611893578891600091612807575b5010156125cd575b610ac389898989604051928352820152817ff9b7589b7a8d939b9da5dae90770378fe5fd7802be5d66432e85bedbdbfbcb7a60403393a3613439565b908961265892857f000000000000000000000000000000000000000000000000000000000000000016946000808b6126848c604051998a918201938c7f095ea7b3000000000000000000000000000000000000000000000000000000009a8b875284016020909392919373ffffffffffffffffffffffffffffffffffffffff60408201951681520152565b037fffffffffffffffffffffffffffffffffffffffffffffffffffffffffffffffe081018a5289612edf565b87519082855af190612694613194565b826127d4575b50816127c9575b501561274d575b505050506040906000988251809a81937fb6b55f250000000000000000000000000000000000000000000000000000000083528960048401525af19687612714575b5050610ac3956126fe575b80808080612591565b600a0161270c838254613187565b9055856126f5565b6040813d604011612745575b8161272d60409383612edf565b8101031261025f57519081160361025f5786806126ea565b3d9150612720565b6040519188830152848c830152600060448301526044825260808201908282109082111761279b579260009b9261278d6127929360409796885282613bea565b613bea565b9881928b6126a8565b8b7f4e487b710000000000000000000000000000000000000000000000000000000060005260416004526000fd5b90503b15158d6126a1565b8091925051908a82159283156127ef575b505050908e61269a565b6127ff9350820181019101613bd2565b8e8a816127e5565b809250888092503d8311612831575b6128208183612edf565b8101031261025f578790518c612589565b503d612816565b877f4e487b710000000000000000000000000000000000000000000000000000000060005260416004526000fd5b3461025f5760208060031936011261025f576004356128836131f8565b61288b613233565b8060005260048252604060002080541561053a5760ff600d820154166004811015610b4757610b1d57816000526008835260036040600020549101541115612936578060005260058252604060002033600052825260ff60066040600020015460081c1661290c576008610ac3928260005252604060002054903390613269565b60046040517f810074be000000000000000000000000000000000000000000000000000000008152fd5b60046040517f9e80781c000000000000000000000000000000000000000000000000000000008152fd5b3461025f57602060031936011261025f5760006101e060405161298281612ec2565b828152606060208201528260408201528260608201528260808201528260a08201528260c08201528260e08201528261010082015282610120820152826101408201528261016082015282610180820152826101a0820152826101c082015201526004356000526004602052604060002060ff600d60405192612a0484612ec2565b80548452612a1460018201612ff4565b602085015273ffffffffffffffffffffffffffffffffffffffff60028201541660408501526003810154606085015260048101546080850152600581015460a0850152600681015460c0850152600781015460e085015260088101546101008501526009810154610120850152600a810154610140850152600b810154610160850152600c8101546101808501520154612ab48282166101a0850161311f565b818160081c1615156101c084015260101c1615156101e0820152604051809160208252805160208301526101e0612afc60208301516102006040860152610220850190612e24565b9173ffffffffffffffffffffffffffffffffffffffff604082015116606085015260608101516080850152608081015160a085015260a081015160c085015260c081015160e085015260e08101516101008501526101008101516101208501526101208101516101408501526101408101516101608501526101608101516101808501526101808101516101a0850152612ba06101a08201516101c0860190612e82565b6101c0810151151582850152015115156102008301520390f35b3461025f57602060031936011261025f5773ffffffffffffffffffffffffffffffffffffffff612be8612e01565b16600052600b6020526020604060002054604051908152f35b3461025f57604060031936011261025f57610100612c1d612dde565b612c256130e1565b506004356000526005602052604060002073ffffffffffffffffffffffffffffffffffffffff809216600052602052604060002060405191612c6683612ea5565b815416918281526001820154916020820192835260028101546040830190815260038201546060840190815260048301549160808501928352600660058501549460a0870195865201549560ff60e060c0880197828a1615158952019760081c16151587526040519788525160208801525160408701525160608601525160808501525160a084015251151560c083015251151560e0820152f35b3461025f5760208060031936011261025f576040517f537bb137000000000000000000000000000000000000000000000000000000008152306004820152818160248173ffffffffffffffffffffffffffffffffffffffff7f0000000000000000000000000000000000000000000000000000000000000000165afa90811561189357600091612d95575b50604051908152f35b90508181813d8311612dbb575b612dac8183612edf565b8101031261025f575182612d8c565b503d612da2565b3461025f57600060031936011261025f578062093a8060209252f35b6024359073ffffffffffffffffffffffffffffffffffffffff8216820361025f57565b6004359073ffffffffffffffffffffffffffffffffffffffff8216820361025f57565b919082519283825260005b848110612e6e5750507fffffffffffffffffffffffffffffffffffffffffffffffffffffffffffffffe0601f8460006020809697860101520116010190565b602081830181015184830182015201612e2f565b906004821015610b475752565b600319604091011261025f576004359060243590565b610100810190811067ffffffffffffffff8211176112b557604052565b610200810190811067ffffffffffffffff8211176112b557604052565b90601f7fffffffffffffffffffffffffffffffffffffffffffffffffffffffffffffffe0910116810190811067ffffffffffffffff8211176112b557604052565b67ffffffffffffffff81116112b557601f017fffffffffffffffffffffffffffffffffffffffffffffffffffffffffffffffe01660200190565b81601f8201121561025f57803590612f7182612f20565b92612f7f6040519485612edf565b8284526020838301011161025f57816000926020809301838601378301015290565b90600182811c92168015612fea575b6020831014612fbb57565b7f4e487b7100000000000000000000000000000000000000000000000000000000600052602260045260246000fd5b91607f1691612fb0565b9060405191826000825461300781612fa1565b908184526020946001916001811690816000146130775750600114613038575b50505061303692500383612edf565b565b600090815285812095935091905b81831061305f5750506130369350820101388080613027565b85548884018501529485019487945091830191613046565b91505061303695935060ff1991501682840152151560051b820101388080613027565b80548210156130b25760005260206000200190600090565b7f4e487b7100000000000000000000000000000000000000000000000000000000600052603260045260246000fd5b604051906130ee82612ea5565b8160e06000918281528260208201528260408201528260608201528260808201528260a08201528260c08201520152565b6004821015610b475752565b7fffffffffffffffffffffffffffffffffffffffffffffffffffffffffffffffff81146131585760010190565b7f4e487b7100000000000000000000000000000000000000000000000000000000600052601160045260246000fd5b9190820180921161315857565b3d156131bf573d906131a582612f20565b916131b36040519384612edf565b82523d6000602084013e565b606090565b80518210156130b25760209160051b010190565b8181029291811591840414171561315857565b9190820391821161315857565b600260015414613209576002600155565b60046040517f3ee5aeb5000000000000000000000000000000000000000000000000000000008152fd5b60ff6002541661323f57565b60046040517fd93c0665000000000000000000000000000000000000000000000000000000008152fd5b92919260409182519461327b86612ea5565b73ffffffffffffffffffffffffffffffffffffffff80921693848752602092838801908382528486848b019a8960008d819e8290526060840190828252878a608087019480865260a088019681885260c089019a828c5260e08a019a60018c528352600581528383209183525220955116987fffffffffffffffffffffffff0000000000000000000000000000000000000000998a8754161786555160018601555160028501555160038401555160048301555160058201556006019151151561335290839060ff60ff1983541691151516179055565b5181547fffffffffffffffffffffffffffffffffffffffffffffffffffffffffffff00ff1690151560081b61ff0016179055858952600885528289208054906801000000000000000082101561340c579988999a926133db837ff4f82575ee84a81aac4be52b6a368e9ba9df524b4f5cf8177d7cfbabe861820c9a9b956001899601815561309a565b819291549060031b9186831b921b1916179055888152600687528181208682528752209182541617905551908152a3565b60248b7f4e487b710000000000000000000000000000000000000000000000000000000081526041600452fd5b600091818352600491602092808452604090818620946006860154938795600883528489209385518086868298549384815201908d52868d20928d5b888282106138455750505061348c92500386612edf565b895b85518110156134f057838b5260058552868b2073ffffffffffffffffffffffffffffffffffffffff6134c083896131c4565b51168c528552876002888d200154116134dc575b60010161348e565b976134e860019161312b565b9890506134d4565b5096919760039199939695945001541461350d575b505050505050565b8581528484528181209460078552828220848352855282822093600685019283549360ff851661381d57838901549260038a01549061354c82866131d8565b918851957f537bb13700000000000000000000000000000000000000000000000000000000875230888801528b8760248173ffffffffffffffffffffffffffffffffffffffff7f0000000000000000000000000000000000000000000000000000000000000000165afa9687156138135786976137de575b50906135cf916131d8565b908b60078101966135e2885480956131d8565b1515806137d1575b156137c257600c6135fd920154906131eb565b917fffffffffffffffffffffffffffffffffffffffffffffffffffffffffffffffff81018181116137965782036137395750506005909889925b878201550155600160ff19809616179055600b880195613658818854613187565b80975561366a600c8a01918254613187565b905560068801549154927fffffffffffffffffffffffffffffffffffffffffffffffffffffffffffffffff840193841161370d57505010156136d55750505050600d015460081c60ff166136c6575b505b388080808080613505565b6136cf90613924565b386136b9565b6002600d7fe6e3f8167a0352c51f4a5dc639deb5c5679ccf396f92c55db62037faa0a2351296019182541617905551908152a26136bb565b9060116024927f4e487b7100000000000000000000000000000000000000000000000000000000835252fd5b90613743916131eb565b908115806137885761375c579060059104988992613637565b6024856012897f4e487b7100000000000000000000000000000000000000000000000000000000835252fd5b505050600583988992613637565b60248760118b7f4e487b7100000000000000000000000000000000000000000000000000000000835252fd5b50505050600583988992613637565b50600c82015481116135ea565b9096508b81813d831161380c575b6137f68183612edf565b810103126138085751956135cf6135c4565b8580fd5b503d6137ec565b8a513d88823e3d90fd5b8386517f237e7f57000000000000000000000000000000000000000000000000000000008152fd5b855473ffffffffffffffffffffffffffffffffffffffff1684526001958601958b955093019201613475565b73ffffffffffffffffffffffffffffffffffffffff60005416330361389257565b60246040517f118cdaa7000000000000000000000000000000000000000000000000000000008152336004820152fd5b6040517fa9059cbb00000000000000000000000000000000000000000000000000000000602082015273ffffffffffffffffffffffffffffffffffffffff9290921660248301526044808301939093529181526130369161278d606483612edf565b6000818152600490602090828252604090818120936006850180549560018701809711613ba65760070154861015613b7e57908583925586825280855286848320918686519361397385612ec2565b8054855261398360018201612ff4565b8286015273ffffffffffffffffffffffffffffffffffffffff9485600283015416898201526003820154606082015283820154608082015260058201549160a08201928352600681015460c0830152600781015460e083015260088101546101008301526009810154610120830152600a810154610140830152600b810154610160830152600c810154610180830152600d015460ff81166101a0830190613a2a9161311f565b8060081c60ff1615156101c083015260101c60ff161515906101e00152838652600682528786208a8752825284888720541690514290613a6991613187565b94885195613a7687612ea5565b8b87528b8a89868a0192428452828b0194855260608b0196875260808b019782895260a08c019a838c5260c08d019e8f5260e08d019d8e528352600781528383209183525220975188555160018801555160028701556003860191511681547fffffffffffffffffffffffff000000000000000000000000000000000000000016179055519083015551600582015560060191511515613b2390839060ff60ff1983541691151516179055565b5181547fffffffffffffffffffffffffffffffffffffffffffffffffffffffffffff00ff1690151560081b61ff0016179055519182527f5c12640e4659b07c515609d150d36890ae4b15c3d83514b006a6dfd16700cdc991a2565b5082517f17479ac8000000000000000000000000000000000000000000000000000000008152fd5b6024846011857f4e487b7100000000000000000000000000000000000000000000000000000000835252fd5b9081602091031261025f5751801515810361025f5790565b60008073ffffffffffffffffffffffffffffffffffffffff613c2193169360208151910182865af1613c1a613194565b9083613c83565b8051908115159182613c68575b5050613c375750565b602490604051907f5274afe70000000000000000000000000000000000000000000000000000000082526004820152fd5b613c7b9250602080918301019101613bd2565b153880613c2e565b90613cc25750805115613c9857805190602001fd5b60046040517f1425ea42000000000000000000000000000000000000000000000000000000008152fd5b81511580613d1a575b613cd3575090565b60249073ffffffffffffffffffffffffffffffffffffffff604051917f9996b315000000000000000000000000000000000000000000000000000000008352166004820152fd5b50803b15613ccb56fea26469706673582212204a1350d33ec8a160fc6b76d839ba43eb17c650c417de616b7c18a67d3d408ded64736f6c63430008190033",
    "linkReferences": {}
  },
  "methodIdentifiers": {
    "MAX_CONTRIBUTION()": "94d95f8f",
    "MAX_MEMBERS()": "ea0e35b1",
    "MAX_PERIOD_DURATION()": "7fb84bed",
    "MEZO_INTEGRATION()": "fc2c01f8",
    "MIN_CONTRIBUTION()": "40650c91",
    "MIN_MEMBERS()": "d9a67220",
    "MIN_PERIOD_DURATION()": "0235e7e7",
    "MUSD()": "43a82621",
    "WBTC()": "4dede3de",
    "YIELD_AGGREGATOR()": "96f3556b",
    "advancePeriod(uint256)": "a0de8780",
    "cancelPool(uint256,string)": "d6336d55",
    "claimPayout(uint256)": "8a69614e",
    "claimRefund(uint256)": "5b7baf64",
    "createPool(string,uint256,uint256,uint256,address[])": "8f78b14f",
    "depositBlock(address)": "202019a6",
    "feeCollector()": "c415b95c",
    "getMemberAtIndex(uint256,uint256)": "e2e91dbf",
    "getMemberInfo(uint256,address)": "1e67939e",
    "getPendingYield(uint256)": "16e63fea",
    "getPeriodInfo(uint256,uint256)": "dc0990e8",
    "getPoolInfo(uint256)": "2f380b35",
    "getPoolMembers(uint256)": "b1219e73",
    "getPoolStats(uint256)": "6791799d",
    "hasClaimedRefund(uint256,address)": "b154afc3",
    "joinPool(uint256)": "34e7a19f",
    "makeContribution(uint256)": "360a2bcb",
    "makeContributionNative(uint256)": "84562c0f",
    "owner()": "8da5cb5b",
    "pause()": "8456cb59",
    "paused()": "5c975abb",
    "performanceFee()": "87788782",
    "poolCounter()": "9e3079cb",
    "poolMemberOrder(uint256,uint256)": "3fa8ae48",
    "poolMembers(uint256,address)": "601acc92",
    "poolMembersList(uint256,uint256)": "c60b6e2d",
    "poolPeriods(uint256,uint256)": "71037024",
    "pools(uint256)": "ac4afa38",
    "renounceOwnership()": "715018a6",
    "setFeeCollector(address)": "a42dce80",
    "setPerformanceFee(uint256)": "70897b23",
    "startPool(uint256)": "a901d15c",
    "transferOwnership(address)": "f2fde38b",
    "unpause()": "3f4ba83a"
  },
  "id": 74
}