{
  "abi": [
    {
      "type": "constructor",
      "inputs": [
        {
          "name": "_mezoIntegration",
          "type": "address",
          "internalType": "address"
        },
        {
          "name": "_yieldAggregator",
          "type": "address",
          "internalType": "address"
        },
        {
          "name": "_wbtc",
          "type": "address",
          "internalType": "address"
        },
        {
          "name": "_musd",
          "type": "address",
          "internalType": "address"
        },
        {
          "name": "_feeCollector",
          "type": "address",
          "internalType": "address"
        }
      ],
      "stateMutability": "nonpayable"
    },
    {
      "type": "function",
      "name": "MAX_CONTRIBUTION",
      "inputs": [],
      "outputs": [
        {
          "name": "",
          "type": "uint256",
          "internalType": "uint256"
        }
      ],
      "stateMutability": "view"
    },
    {
      "type": "function",
      "name": "MAX_MEMBERS",
      "inputs": [],
      "outputs": [
        {
          "name": "",
          "type": "uint256",
          "internalType": "uint256"
        }
      ],
      "stateMutability": "view"
    },
    {
      "type": "function",
      "name": "MAX_PERIOD_DURATION",
      "inputs": [],
      "outputs": [
        {
          "name": "",
          "type": "uint256",
          "internalType": "uint256"
        }
      ],
      "stateMutability": "view"
    },
    {
      "type": "function",
      "name": "MEZO_INTEGRATION",
      "inputs": [],
      "outputs": [
        {
          "name": "",
          "type": "address",
          "internalType": "contract IMezoIntegration"
        }
      ],
      "stateMutability": "view"
    },
    {
      "type": "function",
      "name": "MIN_CONTRIBUTION",
      "inputs": [],
      "outputs": [
        {
          "name": "",
          "type": "uint256",
          "internalType": "uint256"
        }
      ],
      "stateMutability": "view"
    },
    {
      "type": "function",
      "name": "MIN_MEMBERS",
      "inputs": [],
      "outputs": [
        {
          "name": "",
          "type": "uint256",
          "internalType": "uint256"
        }
      ],
      "stateMutability": "view"
    },
    {
      "type": "function",
      "name": "MIN_PERIOD_DURATION",
      "inputs": [],
      "outputs": [
        {
          "name": "",
          "type": "uint256",
          "internalType": "uint256"
        }
      ],
      "stateMutability": "view"
    },
    {
      "type": "function",
      "name": "MUSD",
      "inputs": [],
      "outputs": [
        {
          "name": "",
          "type": "address",
          "internalType": "contract IERC20"
        }
      ],
      "stateMutability": "view"
    },
    {
      "type": "function",
      "name": "WBTC",
      "inputs": [],
      "outputs": [
        {
          "name": "",
          "type": "address",
          "internalType": "contract IERC20"
        }
      ],
      "stateMutability": "view"
    },
    {
      "type": "function",
      "name": "YIELD_AGGREGATOR",
      "inputs": [],
      "outputs": [
        {
          "name": "",
          "type": "address",
          "internalType": "contract IYieldAggregator"
        }
      ],
      "stateMutability": "view"
    },
    {
      "type": "function",
      "name": "advancePeriod",
      "inputs": [
        {
          "name": "poolId",
          "type": "uint256",
          "internalType": "uint256"
        }
      ],
      "outputs": [],
      "stateMutability": "nonpayable"
    },
    {
      "type": "function",
      "name": "cancelPool",
      "inputs": [
        {
          "name": "poolId",
          "type": "uint256",
          "internalType": "uint256"
        },
        {
          "name": "reason",
          "type": "string",
          "internalType": "string"
        }
      ],
      "outputs": [],
      "stateMutability": "nonpayable"
    },
    {
      "type": "function",
      "name": "claimPayout",
      "inputs": [
        {
          "name": "poolId",
          "type": "uint256",
          "internalType": "uint256"
        }
      ],
      "outputs": [],
      "stateMutability": "nonpayable"
    },
    {
      "type": "function",
      "name": "createPool",
      "inputs": [
        {
          "name": "name",
          "type": "string",
          "internalType": "string"
        },
        {
          "name": "memberCount",
          "type": "uint256",
          "internalType": "uint256"
        },
        {
          "name": "contributionAmount",
          "type": "uint256",
          "internalType": "uint256"
        },
        {
          "name": "periodDuration",
          "type": "uint256",
          "internalType": "uint256"
        },
        {
          "name": "memberAddresses",
          "type": "address[]",
          "internalType": "address[]"
        }
      ],
      "outputs": [
        {
          "name": "poolId",
          "type": "uint256",
          "internalType": "uint256"
        }
      ],
      "stateMutability": "nonpayable"
    },
    {
      "type": "function",
      "name": "feeCollector",
      "inputs": [],
      "outputs": [
        {
          "name": "",
          "type": "address",
          "internalType": "address"
        }
      ],
      "stateMutability": "view"
    },
    {
      "type": "function",
      "name": "getMemberAtIndex",
      "inputs": [
        {
          "name": "poolId",
          "type": "uint256",
          "internalType": "uint256"
        },
        {
          "name": "index",
          "type": "uint256",
          "internalType": "uint256"
        }
      ],
      "outputs": [
        {
          "name": "",
          "type": "address",
          "internalType": "address"
        }
      ],
      "stateMutability": "view"
    },
    {
      "type": "function",
      "name": "getMemberInfo",
      "inputs": [
        {
          "name": "poolId",
          "type": "uint256",
          "internalType": "uint256"
        },
        {
          "name": "member",
          "type": "address",
          "internalType": "address"
        }
      ],
      "outputs": [
        {
          "name": "",
          "type": "tuple",
          "internalType": "struct RotatingPool.MemberInfo",
          "components": [
            {
              "name": "memberAddress",
              "type": "address",
              "internalType": "address"
            },
            {
              "name": "memberIndex",
              "type": "uint256",
              "internalType": "uint256"
            },
            {
              "name": "contributionsMade",
              "type": "uint256",
              "internalType": "uint256"
            },
            {
              "name": "totalContributed",
              "type": "uint256",
              "internalType": "uint256"
            },
            {
              "name": "payoutReceived",
              "type": "uint256",
              "internalType": "uint256"
            },
            {
              "name": "yieldReceived",
              "type": "uint256",
              "internalType": "uint256"
            },
            {
              "name": "hasReceivedPayout",
              "type": "bool",
              "internalType": "bool"
            },
            {
              "name": "active",
              "type": "bool",
              "internalType": "bool"
            }
          ]
        }
      ],
      "stateMutability": "view"
    },
    {
      "type": "function",
      "name": "getPendingYield",
      "inputs": [
        {
          "name": "poolId",
          "type": "uint256",
          "internalType": "uint256"
        }
      ],
      "outputs": [
        {
          "name": "",
          "type": "uint256",
          "internalType": "uint256"
        }
      ],
      "stateMutability": "view"
    },
    {
      "type": "function",
      "name": "getPeriodInfo",
      "inputs": [
        {
          "name": "poolId",
          "type": "uint256",
          "internalType": "uint256"
        },
        {
          "name": "periodNumber",
          "type": "uint256",
          "internalType": "uint256"
        }
      ],
      "outputs": [
        {
          "name": "",
          "type": "tuple",
          "internalType": "struct RotatingPool.PeriodInfo",
          "components": [
            {
              "name": "periodNumber",
              "type": "uint256",
              "internalType": "uint256"
            },
            {
              "name": "startTime",
              "type": "uint256",
              "internalType": "uint256"
            },
            {
              "name": "endTime",
              "type": "uint256",
              "internalType": "uint256"
            },
            {
              "name": "recipient",
              "type": "address",
              "internalType": "address"
            },
            {
              "name": "payoutAmount",
              "type": "uint256",
              "internalType": "uint256"
            },
            {
              "name": "yieldAmount",
              "type": "uint256",
              "internalType": "uint256"
            },
            {
              "name": "completed",
              "type": "bool",
              "internalType": "bool"
            },
            {
              "name": "paid",
              "type": "bool",
              "internalType": "bool"
            }
          ]
        }
      ],
      "stateMutability": "view"
    },
    {
      "type": "function",
      "name": "getPoolInfo",
      "inputs": [
        {
          "name": "poolId",
          "type": "uint256",
          "internalType": "uint256"
        }
      ],
      "outputs": [
        {
          "name": "",
          "type": "tuple",
          "internalType": "struct RotatingPool.PoolInfo",
          "components": [
            {
              "name": "poolId",
              "type": "uint256",
              "internalType": "uint256"
            },
            {
              "name": "name",
              "type": "string",
              "internalType": "string"
            },
            {
              "name": "creator",
              "type": "address",
              "internalType": "address"
            },
            {
              "name": "memberCount",
              "type": "uint256",
              "internalType": "uint256"
            },
            {
              "name": "contributionAmount",
              "type": "uint256",
              "internalType": "uint256"
            },
            {
              "name": "periodDuration",
              "type": "uint256",
              "internalType": "uint256"
            },
            {
              "name": "currentPeriod",
              "type": "uint256",
              "internalType": "uint256"
            },
            {
              "name": "totalPeriods",
              "type": "uint256",
              "internalType": "uint256"
            },
            {
              "name": "startTime",
              "type": "uint256",
              "internalType": "uint256"
            },
            {
              "name": "totalBtcCollected",
              "type": "uint256",
              "internalType": "uint256"
            },
            {
              "name": "totalMusdMinted",
              "type": "uint256",
              "internalType": "uint256"
            },
            {
              "name": "totalYieldGenerated",
              "type": "uint256",
              "internalType": "uint256"
            },
            {
              "name": "yieldDistributed",
              "type": "uint256",
              "internalType": "uint256"
            },
            {
              "name": "status",
              "type": "uint8",
              "internalType": "enum RotatingPool.PoolStatus"
            },
            {
              "name": "autoAdvance",
              "type": "bool",
              "internalType": "bool"
            }
          ]
        }
      ],
      "stateMutability": "view"
    },
    {
      "type": "function",
      "name": "getPoolMembers",
      "inputs": [
        {
          "name": "poolId",
          "type": "uint256",
          "internalType": "uint256"
        }
      ],
      "outputs": [
        {
          "name": "",
          "type": "address[]",
          "internalType": "address[]"
        }
      ],
      "stateMutability": "view"
    },
    {
      "type": "function",
      "name": "getPoolStats",
      "inputs": [
        {
          "name": "poolId",
          "type": "uint256",
          "internalType": "uint256"
        }
      ],
      "outputs": [
        {
          "name": "totalBtc",
          "type": "uint256",
          "internalType": "uint256"
        },
        {
          "name": "totalMusd",
          "type": "uint256",
          "internalType": "uint256"
        },
        {
          "name": "totalYield",
          "type": "uint256",
          "internalType": "uint256"
        },
        {
          "name": "periodsCompleted",
          "type": "uint256",
          "internalType": "uint256"
        },
        {
          "name": "membersWithPayout",
          "type": "uint256",
          "internalType": "uint256"
        }
      ],
      "stateMutability": "view"
    },
    {
      "type": "function",
      "name": "joinPool",
      "inputs": [
        {
          "name": "poolId",
          "type": "uint256",
          "internalType": "uint256"
        }
      ],
      "outputs": [],
      "stateMutability": "nonpayable"
    },
    {
      "type": "function",
      "name": "makeContribution",
      "inputs": [
        {
          "name": "poolId",
          "type": "uint256",
          "internalType": "uint256"
        }
      ],
      "outputs": [],
      "stateMutability": "nonpayable"
    },
    {
      "type": "function",
      "name": "owner",
      "inputs": [],
      "outputs": [
        {
          "name": "",
          "type": "address",
          "internalType": "address"
        }
      ],
      "stateMutability": "view"
    },
    {
      "type": "function",
      "name": "pause",
      "inputs": [],
      "outputs": [],
      "stateMutability": "nonpayable"
    },
    {
      "type": "function",
      "name": "paused",
      "inputs": [],
      "outputs": [
        {
          "name": "",
          "type": "bool",
          "internalType": "bool"
        }
      ],
      "stateMutability": "view"
    },
    {
      "type": "function",
      "name": "performanceFee",
      "inputs": [],
      "outputs": [
        {
          "name": "",
          "type": "uint256",
          "internalType": "uint256"
        }
      ],
      "stateMutability": "view"
    },
    {
      "type": "function",
      "name": "poolCounter",
      "inputs": [],
      "outputs": [
        {
          "name": "",
          "type": "uint256",
          "internalType": "uint256"
        }
      ],
      "stateMutability": "view"
    },
    {
      "type": "function",
      "name": "poolMemberOrder",
      "inputs": [
        {
          "name": "",
          "type": "uint256",
          "internalType": "uint256"
        },
        {
          "name": "",
          "type": "uint256",
          "internalType": "uint256"
        }
      ],
      "outputs": [
        {
          "name": "",
          "type": "address",
          "internalType": "address"
        }
      ],
      "stateMutability": "view"
    },
    {
      "type": "function",
      "name": "poolMembers",
      "inputs": [
        {
          "name": "",
          "type": "uint256",
          "internalType": "uint256"
        },
        {
          "name": "",
          "type": "address",
          "internalType": "address"
        }
      ],
      "outputs": [
        {
          "name": "memberAddress",
          "type": "address",
          "internalType": "address"
        },
        {
          "name": "memberIndex",
          "type": "uint256",
          "internalType": "uint256"
        },
        {
          "name": "contributionsMade",
          "type": "uint256",
          "internalType": "uint256"
        },
        {
          "name": "totalContributed",
          "type": "uint256",
          "internalType": "uint256"
        },
        {
          "name": "payoutReceived",
          "type": "uint256",
          "internalType": "uint256"
        },
        {
          "name": "yieldReceived",
          "type": "uint256",
          "internalType": "uint256"
        },
        {
          "name": "hasReceivedPayout",
          "type": "bool",
          "internalType": "bool"
        },
        {
          "name": "active",
          "type": "bool",
          "internalType": "bool"
        }
      ],
      "stateMutability": "view"
    },
    {
      "type": "function",
      "name": "poolMembersList",
      "inputs": [
        {
          "name": "",
          "type": "uint256",
          "internalType": "uint256"
        },
        {
          "name": "",
          "type": "uint256",
          "internalType": "uint256"
        }
      ],
      "outputs": [
        {
          "name": "",
          "type": "address",
          "internalType": "address"
        }
      ],
      "stateMutability": "view"
    },
    {
      "type": "function",
      "name": "poolPeriods",
      "inputs": [
        {
          "name": "",
          "type": "uint256",
          "internalType": "uint256"
        },
        {
          "name": "",
          "type": "uint256",
          "internalType": "uint256"
        }
      ],
      "outputs": [
        {
          "name": "periodNumber",
          "type": "uint256",
          "internalType": "uint256"
        },
        {
          "name": "startTime",
          "type": "uint256",
          "internalType": "uint256"
        },
        {
          "name": "endTime",
          "type": "uint256",
          "internalType": "uint256"
        },
        {
          "name": "recipient",
          "type": "address",
          "internalType": "address"
        },
        {
          "name": "payoutAmount",
          "type": "uint256",
          "internalType": "uint256"
        },
        {
          "name": "yieldAmount",
          "type": "uint256",
          "internalType": "uint256"
        },
        {
          "name": "completed",
          "type": "bool",
          "internalType": "bool"
        },
        {
          "name": "paid",
          "type": "bool",
          "internalType": "bool"
        }
      ],
      "stateMutability": "view"
    },
    {
      "type": "function",
      "name": "pools",
      "inputs": [
        {
          "name": "",
          "type": "uint256",
          "internalType": "uint256"
        }
      ],
      "outputs": [
        {
          "name": "poolId",
          "type": "uint256",
          "internalType": "uint256"
        },
        {
          "name": "name",
          "type": "string",
          "internalType": "string"
        },
        {
          "name": "creator",
          "type": "address",
          "internalType": "address"
        },
        {
          "name": "memberCount",
          "type": "uint256",
          "internalType": "uint256"
        },
        {
          "name": "contributionAmount",
          "type": "uint256",
          "internalType": "uint256"
        },
        {
          "name": "periodDuration",
          "type": "uint256",
          "internalType": "uint256"
        },
        {
          "name": "currentPeriod",
          "type": "uint256",
          "internalType": "uint256"
        },
        {
          "name": "totalPeriods",
          "type": "uint256",
          "internalType": "uint256"
        },
        {
          "name": "startTime",
          "type": "uint256",
          "internalType": "uint256"
        },
        {
          "name": "totalBtcCollected",
          "type": "uint256",
          "internalType": "uint256"
        },
        {
          "name": "totalMusdMinted",
          "type": "uint256",
          "internalType": "uint256"
        },
        {
          "name": "totalYieldGenerated",
          "type": "uint256",
          "internalType": "uint256"
        },
        {
          "name": "yieldDistributed",
          "type": "uint256",
          "internalType": "uint256"
        },
        {
          "name": "status",
          "type": "uint8",
          "internalType": "enum RotatingPool.PoolStatus"
        },
        {
          "name": "autoAdvance",
          "type": "bool",
          "internalType": "bool"
        }
      ],
      "stateMutability": "view"
    },
    {
      "type": "function",
      "name": "renounceOwnership",
      "inputs": [],
      "outputs": [],
      "stateMutability": "nonpayable"
    },
    {
      "type": "function",
      "name": "setFeeCollector",
      "inputs": [
        {
          "name": "newCollector",
          "type": "address",
          "internalType": "address"
        }
      ],
      "outputs": [],
      "stateMutability": "nonpayable"
    },
    {
      "type": "function",
      "name": "setPerformanceFee",
      "inputs": [
        {
          "name": "newFee",
          "type": "uint256",
          "internalType": "uint256"
        }
      ],
      "outputs": [],
      "stateMutability": "nonpayable"
    },
    {
      "type": "function",
      "name": "startPool",
      "inputs": [
        {
          "name": "poolId",
          "type": "uint256",
          "internalType": "uint256"
        }
      ],
      "outputs": [],
      "stateMutability": "nonpayable"
    },
    {
      "type": "function",
      "name": "transferOwnership",
      "inputs": [
        {
          "name": "newOwner",
          "type": "address",
          "internalType": "address"
        }
      ],
      "outputs": [],
      "stateMutability": "nonpayable"
    },
    {
      "type": "function",
      "name": "unpause",
      "inputs": [],
      "outputs": [],
      "stateMutability": "nonpayable"
    },
    {
      "type": "event",
      "name": "ContributionMade",
      "inputs": [
        {
          "name": "poolId",
          "type": "uint256",
          "indexed": true,
          "internalType": "uint256"
        },
        {
          "name": "member",
          "type": "address",
          "indexed": true,
          "internalType": "address"
        },
        {
          "name": "periodNumber",
          "type": "uint256",
          "indexed": false,
          "internalType": "uint256"
        },
        {
          "name": "amount",
          "type": "uint256",
          "indexed": false,
          "internalType": "uint256"
        }
      ],
      "anonymous": false
    },
    {
      "type": "event",
      "name": "MemberJoined",
      "inputs": [
        {
          "name": "poolId",
          "type": "uint256",
          "indexed": true,
          "internalType": "uint256"
        },
        {
          "name": "member",
          "type": "address",
          "indexed": true,
          "internalType": "address"
        },
        {
          "name": "memberIndex",
          "type": "uint256",
          "indexed": false,
          "internalType": "uint256"
        }
      ],
      "anonymous": false
    },
    {
      "type": "event",
      "name": "OwnershipTransferred",
      "inputs": [
        {
          "name": "previousOwner",
          "type": "address",
          "indexed": true,
          "internalType": "address"
        },
        {
          "name": "newOwner",
          "type": "address",
          "indexed": true,
          "internalType": "address"
        }
      ],
      "anonymous": false
    },
    {
      "type": "event",
      "name": "Paused",
      "inputs": [
        {
          "name": "account",
          "type": "address",
          "indexed": false,
          "internalType": "address"
        }
      ],
      "anonymous": false
    },
    {
      "type": "event",
      "name": "PayoutDistributed",
      "inputs": [
        {
          "name": "poolId",
          "type": "uint256",
          "indexed": true,
          "internalType": "uint256"
        },
        {
          "name": "periodNumber",
          "type": "uint256",
          "indexed": false,
          "internalType": "uint256"
        },
        {
          "name": "recipient",
          "type": "address",
          "indexed": true,
          "internalType": "address"
        },
        {
          "name": "payoutAmount",
          "type": "uint256",
          "indexed": false,
          "internalType": "uint256"
        },
        {
          "name": "yieldAmount",
          "type": "uint256",
          "indexed": false,
          "internalType": "uint256"
        }
      ],
      "anonymous": false
    },
    {
      "type": "event",
      "name": "PeriodAdvanced",
      "inputs": [
        {
          "name": "poolId",
          "type": "uint256",
          "indexed": true,
          "internalType": "uint256"
        },
        {
          "name": "newPeriod",
          "type": "uint256",
          "indexed": false,
          "internalType": "uint256"
        }
      ],
      "anonymous": false
    },
    {
      "type": "event",
      "name": "PoolCancelled",
      "inputs": [
        {
          "name": "poolId",
          "type": "uint256",
          "indexed": true,
          "internalType": "uint256"
        },
        {
          "name": "reason",
          "type": "string",
          "indexed": false,
          "internalType": "string"
        }
      ],
      "anonymous": false
    },
    {
      "type": "event",
      "name": "PoolCompleted",
      "inputs": [
        {
          "name": "poolId",
          "type": "uint256",
          "indexed": true,
          "internalType": "uint256"
        },
        {
          "name": "totalYieldDistributed",
          "type": "uint256",
          "indexed": false,
          "internalType": "uint256"
        }
      ],
      "anonymous": false
    },
    {
      "type": "event",
      "name": "PoolCreated",
      "inputs": [
        {
          "name": "poolId",
          "type": "uint256",
          "indexed": true,
          "internalType": "uint256"
        },
        {
          "name": "creator",
          "type": "address",
          "indexed": true,
          "internalType": "address"
        },
        {
          "name": "name",
          "type": "string",
          "indexed": false,
          "internalType": "string"
        },
        {
          "name": "memberCount",
          "type": "uint256",
          "indexed": false,
          "internalType": "uint256"
        },
        {
          "name": "contributionAmount",
          "type": "uint256",
          "indexed": false,
          "internalType": "uint256"
        },
        {
          "name": "periodDuration",
          "type": "uint256",
          "indexed": false,
          "internalType": "uint256"
        }
      ],
      "anonymous": false
    },
    {
      "type": "event",
      "name": "Unpaused",
      "inputs": [
        {
          "name": "account",
          "type": "address",
          "indexed": false,
          "internalType": "address"
        }
      ],
      "anonymous": false
    },
    {
      "type": "error",
      "name": "AddressEmptyCode",
      "inputs": [
        {
          "name": "target",
          "type": "address",
          "internalType": "address"
        }
      ]
    },
    {
      "type": "error",
      "name": "AddressInsufficientBalance",
      "inputs": [
        {
          "name": "account",
          "type": "address",
          "internalType": "address"
        }
      ]
    },
    {
      "type": "error",
      "name": "AlreadyMember",
      "inputs": []
    },
    {
      "type": "error",
      "name": "ContributionAlreadyMade",
      "inputs": []
    },
    {
      "type": "error",
      "name": "EnforcedPause",
      "inputs": []
    },
    {
      "type": "error",
      "name": "ExpectedPause",
      "inputs": []
    },
    {
      "type": "error",
      "name": "FailedInnerCall",
      "inputs": []
    },
    {
      "type": "error",
      "name": "InsufficientContributions",
      "inputs": []
    },
    {
      "type": "error",
      "name": "InvalidAddress",
      "inputs": []
    },
    {
      "type": "error",
      "name": "InvalidContribution",
      "inputs": []
    },
    {
      "type": "error",
      "name": "InvalidFee",
      "inputs": []
    },
    {
      "type": "error",
      "name": "InvalidMemberCount",
      "inputs": []
    },
    {
      "type": "error",
      "name": "InvalidPeriod",
      "inputs": []
    },
    {
      "type": "error",
      "name": "InvalidPeriodDuration",
      "inputs": []
    },
    {
      "type": "error",
      "name": "InvalidPoolId",
      "inputs": []
    },
    {
      "type": "error",
      "name": "NotMember",
      "inputs": []
    },
    {
      "type": "error",
      "name": "OwnableInvalidOwner",
      "inputs": [
        {
          "name": "owner",
          "type": "address",
          "internalType": "address"
        }
      ]
    },
    {
      "type": "error",
      "name": "OwnableUnauthorizedAccount",
      "inputs": [
        {
          "name": "account",
          "type": "address",
          "internalType": "address"
        }
      ]
    },
    {
      "type": "error",
      "name": "PayoutAlreadyDistributed",
      "inputs": []
    },
    {
      "type": "error",
      "name": "PeriodNotEnded",
      "inputs": []
    },
    {
      "type": "error",
      "name": "PoolFull",
      "inputs": []
    },
    {
      "type": "error",
      "name": "PoolNotActive",
      "inputs": []
    },
    {
      "type": "error",
      "name": "PoolNotCompleted",
      "inputs": []
    },
    {
      "type": "error",
      "name": "PoolNotForming",
      "inputs": []
    },
    {
      "type": "error",
      "name": "ReentrancyGuardReentrantCall",
      "inputs": []
    },
    {
      "type": "error",
      "name": "SafeERC20FailedOperation",
      "inputs": [
        {
          "name": "token",
          "type": "address",
          "internalType": "address"
        }
      ]
    }
  ],
  "bytecode": {
    "object": "0x6101003461020157601f6139d238819003918201601f19168301916001600160401b038311848410176102065780849260a094604052833981010312610201576100488161021c565b906100556020820161021c565b906100626040820161021c565b9061007b60806100746060840161021c565b920161021c565b9133156101e8576000549360018060a01b03948560018060a01b031997338984161760005560405192823391167f8be0079c531659141344cd1fd0a4f28419497f9722a3daafe3b4186f6b6457e0600080a36001805560ff196002541660025560646009551690811580156101de575b80156101d4575b80156101ca575b80156101c0575b6101b15750608052841660a052831660c052821660e052600a805490931691161790556040516137a1908161023182396080518181816102040152611fab015260a051818181610c52015281816115e401528181612031015281816120c2015281816122a70152612a54015260c05181818161141a01528181611d030152611eca015260e0518181816114ad015281816114de015281816115510152818161165e01528181611d5401526120530152f35b63e6c4247b60e01b8152600490fd5b5086861615610100565b50868516156100f9565b50868416156100f2565b50868316156100eb565b604051631e4fbdf760e01b815260006004820152602490fd5b600080fd5b634e487b7160e01b600052604160045260246000fd5b51906001600160a01b03821682036102015756fe608080604052600436101561001357600080fd5b60003560e01c9081630235e7e714612abb5750806316e63fea146129fa5780631e67939e146128fa5780632f380b35146126c357806334e7a19f146125c9578063360a2bcb14611e3a5780633f4ba83a14611d9a5780633fa8ae481461030d57806340650c9114611d7857806343a8262114611d275780634dede3de14611cd65780635c975abb14611cb3578063601acc9214611c065780636791799d14611a0f57806370897b23146119bb578063710370241461191e578063715018a6146118a05780637fb84bed146118825780638456cb591461180a57806387788782146117ec5780638a69614e146112e25780638da5cb5b146112ae5780638f78b14f14610c9957806394d95f8f14610c7657806396f3556b14610c255780639e3079cb14610c07578063a0de878014610b8c578063a42dce8014610b21578063a901d15c146107b1578063ac4afa38146106a8578063b1219e73146105d6578063c415b95c146105a2578063c60b6e2d1461054b578063d6336d5514610465578063d9a6722014610449578063dc0990e814610356578063e2e91dbf1461030d578063ea0e35b1146102f1578063f2fde38b1461022d5763fc2c01f8146101d757600080fd5b3461022857600060031936011261022857602060405173ffffffffffffffffffffffffffffffffffffffff7f0000000000000000000000000000000000000000000000000000000000000000168152f35b600080fd5b3461022857602060031936011261022857610246612afa565b61024e61310f565b73ffffffffffffffffffffffffffffffffffffffff8091169081156102c057600054827fffffffffffffffffffffffff0000000000000000000000000000000000000000821617600055167f8be0079c531659141344cd1fd0a4f28419497f9722a3daafe3b4186f6b6457e0600080a3005b60246040517f1e4fbdf700000000000000000000000000000000000000000000000000000000815260006004820152fd5b3461022857600060031936011261022857602060405160328152f35b346102285761031b36612b88565b906000526006602052604060002090600052602052602073ffffffffffffffffffffffffffffffffffffffff60406000205416604051908152f35b346102285761036436612b88565b9061036d612df8565b50600052600760205260406000209060005260205261010060406000206040519061039782612b9e565b8054918281526001820154916020820192835260028101546040830190815273ffffffffffffffffffffffffffffffffffffffff806003840154166060850190815260048401549260808601938452600660058601549560a0880196875201549660ff60e060c0890198828b1615158a52019860081c1615158852604051988952516020890152516040880152511660608601525160808501525160a084015251151560c083015251151560e0820152f35b3461022857600060031936011261022857602060405160038152f35b346102285760406003193601126102285760043560243567ffffffffffffffff811161022857610499903690600401612c53565b6104a161310f565b8160005260046020526040600020805415610521577f7f4407032861af82a3485fe13a59182f0e8e7ce9788eb972659f64a08f39dad191600d61051c920160037fffffffffffffffffffffffffffffffffffffffffffffffffffffffffffffff00825416179055604051918291602083526020830190612b1d565b0390a2005b60046040517f0afa7ee8000000000000000000000000000000000000000000000000000000008152fd5b346102285761055936612b88565b90600052600860205260406000209081548110156102285761059273ffffffffffffffffffffffffffffffffffffffff91602093612db1565b9190546040519260031b1c168152f35b3461022857600060031936011261022857602073ffffffffffffffffffffffffffffffffffffffff600a5416604051908152f35b34610228576020806003193601126102285760043560005260088152604060002060405190818382549182815201908192600052846000209060005b8682821061067e57868661062882880383612bd8565b604051928392818401908285525180915260408401929160005b82811061065157505050500390f35b835173ffffffffffffffffffffffffffffffffffffffff1685528695509381019392810192600101610642565b835473ffffffffffffffffffffffffffffffffffffffff1685529093019260019283019201610612565b3461022857602060031936011261022857600435600052600460205260406000208054600182016106d890612ced565b90600283015473ffffffffffffffffffffffffffffffffffffffff16926003810154906004810154600582015460068301546007840154600885015490600986015492600a87015494600b88015496600c89015498600d0154996040519d8e9d8e9d8e6101e09181528160208201520161075191612b1d565b6040909d015260608d015260808c015260a08b015260c08a015260e089015261010088015261012087015261014086015261016085015261018084015261079f6101a0840160ff8316612b7b565b60081c60ff1615156101c08301520390f35b346102285760208060031936011261022857600435906107cf612eb0565b816000526004815260406000209182541561052157600d8301805460ff81166004811015610af257610ac85773ffffffffffffffffffffffffffffffffffffffff806002870154163303610a9e578360005260088552604060002054600387015403610a7457610a6e95610a3a9360017fffffffffffffffffffffffffffffffffffffffffffffffffffffffffffffff0060069516179055600842910155836000526004855260406000209060405161088781612bbb565b8254815261089760018401612ced565b8782015281600284015416604082015260038301546060820152600483015460808201526101c060ff600d60058601549560a085019687528781015460c0860152600781015460e086015260088101546101008601526009810154610120860152600a810154610140860152600b810154610160860152600c810154610180860152015461092b8282166101a08601612e36565b60081c1615159101528460005282865260406000206000805286526109598160406000205416925142612e6f565b6040519261096684612b9e565b6000845287840192428452604085019283526060850191825260808501926000845260a08601946000865260c087019a60008c5260e088019a60008c52600052600781526040600020906000805252604060002096518755516001870155516002860155600385019151167fffffffffffffffffffffffff00000000000000000000000000000000000000008254161790555160048301555160058201550192511515839060ff7fffffffffffffffffffffffffffffffffffffffffffffffffffffffffffffff0083541691151516179055565b5181547fffffffffffffffffffffffffffffffffffffffffffffffffffffffffffff00ff1690151560081b61ff0016179055565b60018055005b60046040517fda3cb5f4000000000000000000000000000000000000000000000000000000008152fd5b60046040517fe6c4247b000000000000000000000000000000000000000000000000000000008152fd5b60046040517f4eb0513e000000000000000000000000000000000000000000000000000000008152fd5b7f4e487b7100000000000000000000000000000000000000000000000000000000600052602160045260246000fd5b346102285760206003193601126102285773ffffffffffffffffffffffffffffffffffffffff610b4f612afa565b610b5761310f565b168015610a9e577fffffffffffffffffffffffff0000000000000000000000000000000000000000600a541617600a55600080f35b3461022857602060031936011261022857600435610ba8612eb0565b806000526004602052604060002080541561052157600d015460ff166004811015610af257600103610bdd57610a6e906131c7565b60046040517f71815202000000000000000000000000000000000000000000000000000000008152fd5b34610228576000600319360112610228576020600354604051908152f35b3461022857600060031936011261022857602060405173ffffffffffffffffffffffffffffffffffffffff7f0000000000000000000000000000000000000000000000000000000000000000168152f35b34610228576000600319360112610228576020604051678ac7230489e800008152f35b346102285760a06003193601126102285760043567ffffffffffffffff811161022857610cca903690600401612c53565b60843567ffffffffffffffff811161022857366023820112156102285780600401359067ffffffffffffffff82116111a7578160051b9060405192610d126020840185612bd8565b8352602460208401928201019036821161022857602401915b81831061128157505050610d3d612eeb565b6003602435108015611275575b61124b5766038d7ea4c68000604435108015611238575b61120e5762093a80606435108015611200575b6111d657610d83600354612e42565b9182600355604051610d9481612bbb565b8381528160208201523360408201526024356060820152604435608082015260643560a0820152600060c082015260243560e08201526000610100820152600061012082015260006101408201526000610160820152600061018082015260006101a082015260006101c0820152836000526004602052604060002081518155602082015180519067ffffffffffffffff82116111a757610e386001840154612c9a565b601f8111611160575b50602090601f831160011461109357600d93929160009183611088575b50507fffffffffffffffffffffffffffffffffffffffffffffffffffffffffffffffff8260011b9260031b1c19161760018201555b73ffffffffffffffffffffffffffffffffffffffff6040840151167fffffffffffffffffffffffff0000000000000000000000000000000000000000600283015416176002820155606083015160038201556080830151600482015560a0830151600582015560c0830151600682015560e0830151600782015561010083015160088201556101208301516009820155610140830151600a820155610160830151600b820155610180830151600c820155016101a08201516004811015610af25781546101c0909301517fffffffffffffffffffffffffffffffffffffffffffffffffffffffffffff000090931660ff9091161791151560081b61ff0016919091179055827f80eb862b1ebf91ef46e8085c1e47b348af9ad8f1248fb18302612a57ad3a2b55610fce60405193608085526080850190612b1d565b926024356020820152604435604082015260643560608201528033940390a38051610fff575b602082604051908152f35b60005b815181108061107d575b15611074578073ffffffffffffffffffffffffffffffffffffffff61103461103f9385612e7c565b511661104457612e42565b611002565b61106f8173ffffffffffffffffffffffffffffffffffffffff6110678287612e7c565b511686612f21565b612e42565b50506020610ff4565b50602435811061100c565b015190508880610e5e565b906001840160005260206000209160005b7fffffffffffffffffffffffffffffffffffffffffffffffffffffffffffffffe0851681106111485750918391600193837fffffffffffffffffffffffffffffffffffffffffffffffffffffffffffffffe0600d98971610611111575b505050811b016001820155610e93565b01517fffffffffffffffffffffffffffffffffffffffffffffffffffffffffffffffff60f88460031b161c19169055888080611101565b919260206001819286850151815501940192016110a4565b600184016000526020600020601f840160051c8101602085106111a0575b601f830160051c82018110611194575050610e41565b6000815560010161117e565b508061117e565b7f4e487b7100000000000000000000000000000000000000000000000000000000600052604160045260246000fd5b60046040517f9e11b5e6000000000000000000000000000000000000000000000000000000008152fd5b506276a70060643511610d74565b60046040517f652122d9000000000000000000000000000000000000000000000000000000008152fd5b50678ac7230489e8000060443511610d61565b60046040517f4fdd01a0000000000000000000000000000000000000000000000000000000008152fd5b50603260243511610d4a565b823573ffffffffffffffffffffffffffffffffffffffff8116810361022857815260209283019201610d2b565b3461022857600060031936011261022857602073ffffffffffffffffffffffffffffffffffffffff60005416604051908152f35b34610228576020600319360112610228576112fb612eb0565b600435600052600460205260406000206005602052604060002033600052602052604060002090541561052157600681015460ff8160081c16156117c25760ff1661176e576004356000526007602052604060002060018201546000526020526040600020600681015460ff8116156117985760081c60ff1661176e5760048101549160058201549061271061139360095484612e90565b0461139e8184612ea3565b9280611507575b5060019293837fffffffffffffffffffffffffffffffffffffffffffffffffffffffffffffff0060068501541617600684015585600484015584600584015560066101007fffffffffffffffffffffffffffffffffffffffffffffffffffffffffffff00ff82840154161791015561143e85337f0000000000000000000000000000000000000000000000000000000000000000613160565b836114d7575b8061148e575b500154916040519283526020830152604082015233907f361c61d25e573b81c4f29477a915ff059161fc6927cffdc7897e2010625d8da0606060043592a360018055005b6114d19073ffffffffffffffffffffffffffffffffffffffff600a54167f0000000000000000000000000000000000000000000000000000000000000000613160565b8461144a565b61150284337f0000000000000000000000000000000000000000000000000000000000000000613160565b611444565b604051907f70a0823100000000000000000000000000000000000000000000000000000000825230600483015260208260248173ffffffffffffffffffffffffffffffffffffffff7f0000000000000000000000000000000000000000000000000000000000000000165afa9182156116f95760009261173a575b50808210611591575b506113a5565b9061159e91949394612ea3565b506040517f406cf229000000000000000000000000000000000000000000000000000000008152602081600481600073ffffffffffffffffffffffffffffffffffffffff7f0000000000000000000000000000000000000000000000000000000000000000165af1908161170f575b50611705575050604051907f70a0823100000000000000000000000000000000000000000000000000000000825230600483015260208260248173ffffffffffffffffffffffffffffffffffffffff7f0000000000000000000000000000000000000000000000000000000000000000165afa80156116f9576000906116c6575b6001925080156116bc576116b26127106116aa60095484612e90565b048092612ea3565b935b93928661158b565b50600080936116b4565b506020823d6020116116f1575b816116e060209383612bd8565b81010312610228576001915161168e565b3d91506116d3565b6040513d6000823e3d90fd5b60019291936116b4565b602090813d8311611733575b6117258183612bd8565b81010312610228578661160d565b503d61171b565b9091506020813d602011611766575b8161175660209383612bd8565b8101031261022857519087611582565b3d9150611749565b60046040517f237e7f57000000000000000000000000000000000000000000000000000000008152fd5b60046040517fac59a02d000000000000000000000000000000000000000000000000000000008152fd5b60046040517f291fc442000000000000000000000000000000000000000000000000000000008152fd5b34610228576000600319360112610228576020600954604051908152f35b346102285760006003193601126102285761182361310f565b61182b612eeb565b60017fffffffffffffffffffffffffffffffffffffffffffffffffffffffffffffff0060025416176002557f62e78cea01bee320cd4e420270b5ea74000d11b0c9f74754ebdbfc544b05a2586020604051338152a1005b346102285760006003193601126102285760206040516276a7008152f35b34610228576000600319360112610228576118b961310f565b600073ffffffffffffffffffffffffffffffffffffffff81547fffffffffffffffffffffffff000000000000000000000000000000000000000081168355167f8be0079c531659141344cd1fd0a4f28419497f9722a3daafe3b4186f6b6457e08280a3005b346102285761192c36612b88565b906000526007602052604060002090600052602052610100604060002060ff815491600181015490600281015473ffffffffffffffffffffffffffffffffffffffff6003830154166004830154916006600585015494015494604051978852602088015260408701526060860152608085015260a0840152818116151560c084015260081c16151560e0820152f35b34610228576020600319360112610228576004356119d761310f565b6103e881116119e557600955005b60046040517f58d620b3000000000000000000000000000000000000000000000000000000008152fd5b346102285760208060031936011261022857600435906000826000526004825260406000209260405190611a4282612bbb565b84548252600194611a5560018201612ced565b8584015273ffffffffffffffffffffffffffffffffffffffff948560028301541660408501526003820154606085015260048201546080850152600593600583015460a08201526006808401549460c08301958652600785015460e084015260088501546101008401526009850154986101208401998a52600a8601549961014085019a8b52600d600b880154976101608701988952600c8101546101808801520154946101c060ff8097611b108282166101a08601612e36565b60081c16151591015251995195519651978260005260088652604060002092604051938d85898354918281520192600052896000209060005b8b828210611bf157505050505084611b62910385612bd8565b60008d5b611b8d575b60a08d8d8d8d8d8d604051958652850152604084015260608301526080820152f35b8451811015611bec57908d96959493929181600052828952604060002084611bb58388612e7c565b5116600052895286866040600020015416611bd9575b870190919293949596611b66565b9b611be48891612e42565b9c9050611bcb565b611b6b565b83548916865290940193918301918301611b49565b3461022857604060031936011261022857610100611c22612ad7565b6004356000526005602052604060002073ffffffffffffffffffffffffffffffffffffffff80921660005260205260ff60406000209182541691600181015490600281015460038201546004830154916006600585015494015494604051978852602088015260408701526060860152608085015260a0840152818116151560c084015260081c16151560e0820152f35b3461022857600060031936011261022857602060ff600254166040519015158152f35b3461022857600060031936011261022857602060405173ffffffffffffffffffffffffffffffffffffffff7f0000000000000000000000000000000000000000000000000000000000000000168152f35b3461022857600060031936011261022857602060405173ffffffffffffffffffffffffffffffffffffffff7f0000000000000000000000000000000000000000000000000000000000000000168152f35b3461022857600060031936011261022857602060405166038d7ea4c680008152f35b3461022857600060031936011261022857611db361310f565b60025460ff811615611e10577fffffffffffffffffffffffffffffffffffffffffffffffffffffffffffffff00166002557f5db9ee0a495bf2e6ff9c91a7834c1ba4fdd244a5e8aa4e537bd38aeae4b073aa6020604051338152a1005b60046040517f8dfc202b000000000000000000000000000000000000000000000000000000008152fd5b3461022857602060031936011261022857611e53612eb0565b611e5b612eeb565b60043560005260046020526040600020600560205260406000203360005260205260406000208154156105215760ff600d830154166004811015610af257600103610bdd5760ff600682015460081c16156117c257600281019182546007820154111561259f576004810154927f000000000000000000000000000000000000000000000000000000000000000092604051917f23b872dd0000000000000000000000000000000000000000000000000000000060208401523360248401523060448401528560648401526064835260a0830183811067ffffffffffffffff8211176111a757600393611f51916040528661349c565b611f5b8154612e42565b905501611f69848254612e6f565b905560098101611f7a848254612e6f565b90556004356000526004602052600060206040822093611fd28673ffffffffffffffffffffffffffffffffffffffff7f0000000000000000000000000000000000000000000000000000000000000000168093613535565b6024604051809481937f45fd04650000000000000000000000000000000000000000000000000000000083528960048401525af19081156116f95760009161256d575b506120778173ffffffffffffffffffffffffffffffffffffffff7f0000000000000000000000000000000000000000000000000000000000000000167f0000000000000000000000000000000000000000000000000000000000000000613535565b6040517fb6b55f25000000000000000000000000000000000000000000000000000000008152816004820152604081602481600073ffffffffffffffffffffffffffffffffffffffff7f0000000000000000000000000000000000000000000000000000000000000000165af180156116f957612521575b50612101600a60069401918254612e6f565b9055015490604051918252602082015233907ff9b7589b7a8d939b9da5dae90770378fe5fd7802be5d66432e85bedbdbfbcb7a604060043592a3600435600052600460205260406000206006810154600060086020526040600020916040518084602082965493848152019060005260206000209260005b8181106124f257505061218e92500384612bd8565b60005b83518110156121fd576004356000526005602052604060002073ffffffffffffffffffffffffffffffffffffffff6121c98387612e7c565b511660005260205281600260406000200154116121e9575b600101612191565b916121f5600191612e42565b9290506121e1565b509060038401541461220f5760018055005b60043560005260046020526040600020906007602052604060002081600052602052604060002090600682019081549160ff831661176e57600485015460038601549261225c8483612e90565b91604051907f537bb13700000000000000000000000000000000000000000000000000000000825230600483015260208260248173ffffffffffffffffffffffffffffffffffffffff7f0000000000000000000000000000000000000000000000000000000000000000165afa9586156116f95789926000976124b8575b50806122e96122ef9284612e90565b92612e90565b956123006007840197885490612e90565b91821515806124ab575b1561249a5761232d8161232861233394600c61233998015490612ea3565b612e90565b94612e90565b90612ea3565b801561246b57600591049586925b6004820155015560017fffffffffffffffffffffffffffffffffffffffffffffffffffffffffffffff00809416179055600b840192612387818554612e6f565b809455612399600c8601918254612e6f565b905560068401549054907fffffffffffffffffffffffffffffffffffffffffffffffffffffffffffffffff820191821161243c5710156123fa575050600d015460081c60ff166123ea575b80610a6e565b6123f56004356131c7565b6123e4565b9091600d60029101918254161790556040519081527fe6e3f8167a0352c51f4a5dc639deb5c5679ccf396f92c55db62037faa0a23512602060043592a26123e4565b7f4e487b7100000000000000000000000000000000000000000000000000000000600052601160045260246000fd5b7f4e487b7100000000000000000000000000000000000000000000000000000000600052601260045260246000fd5b505050505060056000958692612347565b50600c840154821161230a565b925095506020823d6020116124ea575b816124d560209383612bd8565b81010312610228576122ef89925196906122da565b3d91506124c8565b845473ffffffffffffffffffffffffffffffffffffffff16835260019485019488945060209093019201612179565b6040813d604011612565575b8161253a60409383612bd8565b81010312610228575173ffffffffffffffffffffffffffffffffffffffff81160361022857846120ef565b3d915061252d565b90506020813d602011612597575b8161258860209383612bd8565b81010312610228575184612015565b3d915061257b565b60046040517f084175a5000000000000000000000000000000000000000000000000000000008152fd5b3461022857602080600319360112610228576004356125e6612eb0565b6125ee612eeb565b806000526004825260406000208054156105215760ff600d820154166004811015610af257610ac857816000526008835260036040600020549101541115612699578060005260058252604060002033600052825260ff60066040600020015460081c1661266f576008610a6e928260005252604060002054903390612f21565b60046040517f810074be000000000000000000000000000000000000000000000000000000008152fd5b60046040517f9e80781c000000000000000000000000000000000000000000000000000000008152fd5b346102285760206003193601126102285760006101c06040516126e581612bbb565b828152606060208201528260408201528260608201528260808201528260a08201528260c08201528260e08201528261010082015282610120820152826101408201528261016082015282610180820152826101a082015201526004356000526004602052604060002060ff600d6040519261276084612bbb565b8054845261277060018201612ced565b602085015273ffffffffffffffffffffffffffffffffffffffff60028201541660408501526003810154606085015260048101546080850152600581015460a0850152600681015460c0850152600781015460e085015260088101546101008501526009810154610120850152600a810154610140850152600b810154610160850152600c81015461018085015201546128108282166101a08501612e36565b60081c1615156101c0820152604051809160208252805160208301526101c061284a60208301516101e06040860152610200850190612b1d565b9173ffffffffffffffffffffffffffffffffffffffff604082015116606085015260608101516080850152608081015160a085015260a081015160c085015260c081015160e085015260e08101516101008501526101008101516101208501526101208101516101408501526101408101516101608501526101608101516101808501526101808101516101a08501526128ec6101a082015183860190612b7b565b015115156101e08301520390f35b3461022857604060031936011261022857610100612916612ad7565b61291e612df8565b506004356000526005602052604060002073ffffffffffffffffffffffffffffffffffffffff80921660005260205260406000206040519161295f83612b9e565b815416918281526001820154916020820192835260028101546040830190815260038201546060840190815260048301549160808501928352600660058501549460a0870195865201549560ff60e060c0880197828a1615158952019760081c16151587526040519788525160208801525160408701525160608601525160808501525160a084015251151560c083015251151560e0820152f35b3461022857602080600319360112610228576040517f537bb137000000000000000000000000000000000000000000000000000000008152306004820152818160248173ffffffffffffffffffffffffffffffffffffffff7f0000000000000000000000000000000000000000000000000000000000000000165afa9081156116f957600091612a8e575b50604051908152f35b90508181813d8311612ab4575b612aa58183612bd8565b81010312610228575182612a85565b503d612a9b565b34610228576000600319360112610228578062093a8060209252f35b6024359073ffffffffffffffffffffffffffffffffffffffff8216820361022857565b6004359073ffffffffffffffffffffffffffffffffffffffff8216820361022857565b919082519283825260005b848110612b675750507fffffffffffffffffffffffffffffffffffffffffffffffffffffffffffffffe0601f8460006020809697860101520116010190565b602081830181015184830182015201612b28565b906004821015610af25752565b6003196040910112610228576004359060243590565b610100810190811067ffffffffffffffff8211176111a757604052565b6101e0810190811067ffffffffffffffff8211176111a757604052565b90601f7fffffffffffffffffffffffffffffffffffffffffffffffffffffffffffffffe0910116810190811067ffffffffffffffff8211176111a757604052565b67ffffffffffffffff81116111a757601f017fffffffffffffffffffffffffffffffffffffffffffffffffffffffffffffffe01660200190565b81601f8201121561022857803590612c6a82612c19565b92612c786040519485612bd8565b8284526020838301011161022857816000926020809301838601378301015290565b90600182811c92168015612ce3575b6020831014612cb457565b7f4e487b7100000000000000000000000000000000000000000000000000000000600052602260045260246000fd5b91607f1691612ca9565b90604051918260008254612d0081612c9a565b90818452602094600191600181169081600014612d705750600114612d31575b505050612d2f92500383612bd8565b565b600090815285812095935091905b818310612d58575050612d2f9350820101388080612d20565b85548884018501529485019487945091830191612d3f565b915050612d2f9593507fffffffffffffffffffffffffffffffffffffffffffffffffffffffffffffff0091501682840152151560051b820101388080612d20565b8054821015612dc95760005260206000200190600090565b7f4e487b7100000000000000000000000000000000000000000000000000000000600052603260045260246000fd5b60405190612e0582612b9e565b8160e06000918281528260208201528260408201528260608201528260808201528260a08201528260c08201520152565b6004821015610af25752565b7fffffffffffffffffffffffffffffffffffffffffffffffffffffffffffffffff811461243c5760010190565b9190820180921161243c57565b8051821015612dc95760209160051b010190565b8181029291811591840414171561243c57565b9190820391821161243c57565b600260015414612ec1576002600155565b60046040517f3ee5aeb5000000000000000000000000000000000000000000000000000000008152fd5b60ff60025416612ef757565b60046040517fd93c0665000000000000000000000000000000000000000000000000000000008152fd5b929192604091825194612f3386612b9e565b73ffffffffffffffffffffffffffffffffffffffff80921693848752602092838801908382528486848b019a8960008d819e8290526060840190828252878a608087019480865260a088019681885260c089019a828c5260e08a019a60018c528352600581528383209183525220955116987fffffffffffffffffffffffff0000000000000000000000000000000000000000998a8754161786555160018601555160028501555160038401555160048301555160058201556006019151151561302890839060ff7fffffffffffffffffffffffffffffffffffffffffffffffffffffffffffffff0083541691151516179055565b5181547fffffffffffffffffffffffffffffffffffffffffffffffffffffffffffff00ff1690151560081b61ff001617905585895260088552828920805490680100000000000000008210156130e2579988999a926130b1837ff4f82575ee84a81aac4be52b6a368e9ba9df524b4f5cf8177d7cfbabe861820c9a9b9560018996018155612db1565b819291549060031b9186831b921b1916179055888152600687528181208682528752209182541617905551908152a3565b60248b7f4e487b710000000000000000000000000000000000000000000000000000000081526041600452fd5b73ffffffffffffffffffffffffffffffffffffffff60005416330361313057565b60246040517f118cdaa7000000000000000000000000000000000000000000000000000000008152336004820152fd5b6040517fa9059cbb00000000000000000000000000000000000000000000000000000000602082015273ffffffffffffffffffffffffffffffffffffffff929092166024830152604480830193909352918152612d2f916131c2606483612bd8565b61349c565b6000818152600490602090828252604090818120936006850180549560018701809711613458576007015486101561343057908583925586825280855286848320918686519361321685612bbb565b8054855261322660018201612ced565b8286015273ffffffffffffffffffffffffffffffffffffffff9485600283015416898201526003820154606082015283820154608082015260058201549160a08201928352600681015460c0830152600781015460e083015260088101546101008301526009810154610120830152600a810154610140830152600b810154610160830152600c810154610180830152600d015460ff81166101a08301906132cd91612e36565b60081c60ff161515906101c00152838652600682528786208a87528252848887205416905142906132fd91612e6f565b9488519561330a87612b9e565b8b87528b8a89868a0192428452828b0194855260608b0196875260808b019782895260a08c019a838c5260c08d019e8f5260e08d019d8e528352600781528383209183525220975188555160018801555160028701556003860191511681547fffffffffffffffffffffffff0000000000000000000000000000000000000000161790555190830155516005820155600601915115156133d590839060ff7fffffffffffffffffffffffffffffffffffffffffffffffffffffffffffffff0083541691151516179055565b5181547fffffffffffffffffffffffffffffffffffffffffffffffffffffffffffff00ff1690151560081b61ff0016179055519182527f5c12640e4659b07c515609d150d36890ae4b15c3d83514b006a6dfd16700cdc991a2565b5082517f17479ac8000000000000000000000000000000000000000000000000000000008152fd5b6024846011857f4e487b7100000000000000000000000000000000000000000000000000000000835252fd5b90816020910312610228575180151581036102285790565b60008073ffffffffffffffffffffffffffffffffffffffff6134d393169360208151910182865af16134cc61369b565b90836136cb565b805190811515918261351a575b50506134e95750565b602490604051907f5274afe70000000000000000000000000000000000000000000000000000000082526004820152fd5b61352d9250602080918301019101613484565b1538806134e0565b6040517f095ea7b3000000000000000000000000000000000000000000000000000000006020820181815273ffffffffffffffffffffffffffffffffffffffff8516602484015260448084019690965294825294939092613597606485612bd8565b73ffffffffffffffffffffffffffffffffffffffff90818416600080809588519082855af1906135c561369b565b82613669575b508161365e575b50156135e2575b50505050509050565b60405196602088015216602486015280604486015260448552608085019085821067ffffffffffffffff831117613631575061362693946131c2916040528261349c565b8038808080806135d9565b807f4e487b7100000000000000000000000000000000000000000000000000000000602492526041600452fd5b90503b1515386135d2565b80519192508115918215613681575b505090386135cb565b6136949250602080918301019101613484565b3880613678565b3d156136c6573d906136ac82612c19565b916136ba6040519384612bd8565b82523d6000602084013e565b606090565b9061370a57508051156136e057805190602001fd5b60046040517f1425ea42000000000000000000000000000000000000000000000000000000008152fd5b81511580613762575b61371b575090565b60249073ffffffffffffffffffffffffffffffffffffffff604051917f9996b315000000000000000000000000000000000000000000000000000000008352166004820152fd5b50803b1561371356fea264697066735822122068ab75b8ff7fbad3fe8d4e7068d7176e1a780eb0463d502158df32d4be7ab67b64736f6c63430008190033",
    "linkReferences": {}
  },
  "methodIdentifiers": {
    "MAX_CONTRIBUTION()": "94d95f8f",
    "MAX_MEMBERS()": "ea0e35b1",
    "MAX_PERIOD_DURATION()": "7fb84bed",
    "MEZO_INTEGRATION()": "fc2c01f8",
    "MIN_CONTRIBUTION()": "40650c91",
    "MIN_MEMBERS()": "d9a67220",
    "MIN_PERIOD_DURATION()": "0235e7e7",
    "MUSD()": "43a82621",
    "WBTC()": "4dede3de",
    "YIELD_AGGREGATOR()": "96f3556b",
    "advancePeriod(uint256)": "a0de8780",
    "cancelPool(uint256,string)": "d6336d55",
    "claimPayout(uint256)": "8a69614e",
    "createPool(string,uint256,uint256,uint256,address[])": "8f78b14f",
    "feeCollector()": "c415b95c",
    "getMemberAtIndex(uint256,uint256)": "e2e91dbf",
    "getMemberInfo(uint256,address)": "1e67939e",
    "getPendingYield(uint256)": "16e63fea",
    "getPeriodInfo(uint256,uint256)": "dc0990e8",
    "getPoolInfo(uint256)": "2f380b35",
    "getPoolMembers(uint256)": "b1219e73",
    "getPoolStats(uint256)": "6791799d",
    "joinPool(uint256)": "34e7a19f",
    "makeContribution(uint256)": "360a2bcb",
    "owner()": "8da5cb5b",
    "pause()": "8456cb59",
    "paused()": "5c975abb",
    "performanceFee()": "87788782",
    "poolCounter()": "9e3079cb",
    "poolMemberOrder(uint256,uint256)": "3fa8ae48",
    "poolMembers(uint256,address)": "601acc92",
    "poolMembersList(uint256,uint256)": "c60b6e2d",
    "poolPeriods(uint256,uint256)": "71037024",
    "pools(uint256)": "ac4afa38",
    "renounceOwnership()": "715018a6",
    "setFeeCollector(address)": "a42dce80",
    "setPerformanceFee(uint256)": "70897b23",
    "startPool(uint256)": "a901d15c",
    "transferOwnership(address)": "f2fde38b",
    "unpause()": "3f4ba83a"
  },
  "id": 41
}