{"abi":[{"type":"constructor","inputs":[{"name":"_musdToken","type":"address","internalType":"address"}],"stateMutability":"nonpayable"},{"type":"function","name":"MAX_VAULTS","inputs":[],"outputs":[{"name":"","type":"uint256","internalType":"uint256"}],"stateMutability":"view"},{"type":"function","name":"MIN_DEPOSIT","inputs":[],"outputs":[{"name":"","type":"uint256","internalType":"uint256"}],"stateMutability":"view"},{"type":"function","name":"MUSD_TOKEN","inputs":[],"outputs":[{"name":"","type":"address","internalType":"contract IERC20"}],"stateMutability":"view"},{"type":"function","name":"activeVaultsList","inputs":[{"name":"","type":"uint256","internalType":"uint256"}],"outputs":[{"name":"","type":"address","internalType":"address"}],"stateMutability":"view"},{"type":"function","name":"addVault","inputs":[{"name":"vaultAddress","type":"address","internalType":"address"},{"name":"strategy","type":"uint8","internalType":"enum IYieldAggregator.YieldStrategy"},{"name":"apr","type":"uint256","internalType":"uint256"}],"outputs":[],"stateMutability":"nonpayable"},{"type":"function","name":"calculateExpectedYield","inputs":[{"name":"amount","type":"uint256","internalType":"uint256"},{"name":"vaultAddress","type":"address","internalType":"address"},{"name":"timeInSeconds","type":"uint256","internalType":"uint256"}],"outputs":[{"name":"expectedYield","type":"uint256","internalType":"uint256"}],"stateMutability":"view"},{"type":"function","name":"claimYield","inputs":[],"outputs":[{"name":"yieldAmount","type":"uint256","internalType":"uint256"}],"stateMutability":"nonpayable"},{"type":"function","name":"compoundYields","inputs":[],"outputs":[{"name":"compoundedAmount","type":"uint256","internalType":"uint256"}],"stateMutability":"nonpayable"},{"type":"function","name":"deposit","inputs":[{"name":"amount","type":"uint256","internalType":"uint256"}],"outputs":[{"name":"vaultAddress","type":"address","internalType":"address"},{"name":"shares","type":"uint256","internalType":"uint256"}],"stateMutability":"nonpayable"},{"type":"function","name":"depositToVault","inputs":[{"name":"vaultAddress","type":"address","internalType":"address"},{"name":"amount","type":"uint256","internalType":"uint256"}],"outputs":[{"name":"shares","type":"uint256","internalType":"uint256"}],"stateMutability":"nonpayable"},{"type":"function","name":"depositsPaused","inputs":[],"outputs":[{"name":"","type":"bool","internalType":"bool"}],"stateMutability":"view"},{"type":"function","name":"emergencyWithdrawFromVault","inputs":[{"name":"vaultAddress","type":"address","internalType":"address"}],"outputs":[],"stateMutability":"nonpayable"},{"type":"function","name":"getActiveVaults","inputs":[],"outputs":[{"name":"","type":"address[]","internalType":"address[]"}],"stateMutability":"view"},{"type":"function","name":"getAverageApr","inputs":[],"outputs":[{"name":"avgApr","type":"uint256","internalType":"uint256"}],"stateMutability":"view"},{"type":"function","name":"getBestVault","inputs":[],"outputs":[{"name":"vaultAddress","type":"address","internalType":"address"},{"name":"apr","type":"uint256","internalType":"uint256"}],"stateMutability":"view"},{"type":"function","name":"getPendingYield","inputs":[{"name":"user","type":"address","internalType":"address"}],"outputs":[{"name":"pendingYield","type":"uint256","internalType":"uint256"}],"stateMutability":"view"},{"type":"function","name":"getPendingYieldInVault","inputs":[{"name":"user","type":"address","internalType":"address"},{"name":"vaultAddress","type":"address","internalType":"address"}],"outputs":[{"name":"pendingYield","type":"uint256","internalType":"uint256"}],"stateMutability":"view"},{"type":"function","name":"getTotalValueLocked","inputs":[],"outputs":[{"name":"tvl","type":"uint256","internalType":"uint256"}],"stateMutability":"view"},{"type":"function","name":"getUserPosition","inputs":[{"name":"user","type":"address","internalType":"address"}],"outputs":[{"name":"principal","type":"uint256","internalType":"uint256"},{"name":"yields","type":"uint256","internalType":"uint256"}],"stateMutability":"view"},{"type":"function","name":"getUserPositionInVault","inputs":[{"name":"user","type":"address","internalType":"address"},{"name":"vaultAddress","type":"address","internalType":"address"}],"outputs":[{"name":"position","type":"tuple","internalType":"struct IYieldAggregator.UserPosition","components":[{"name":"principal","type":"uint256","internalType":"uint256"},{"name":"yieldAccrued","type":"uint256","internalType":"uint256"},{"name":"lastUpdateTime","type":"uint256","internalType":"uint256"},{"name":"shares","type":"uint256","internalType":"uint256"}]}],"stateMutability":"view"},{"type":"function","name":"getVaultInfo","inputs":[{"name":"vaultAddress","type":"address","internalType":"address"}],"outputs":[{"name":"info","type":"tuple","internalType":"struct IYieldAggregator.VaultInfo","components":[{"name":"vaultAddress","type":"address","internalType":"address"},{"name":"strategy","type":"uint8","internalType":"enum IYieldAggregator.YieldStrategy"},{"name":"apr","type":"uint256","internalType":"uint256"},{"name":"totalDeposited","type":"uint256","internalType":"uint256"},{"name":"totalYield","type":"uint256","internalType":"uint256"},{"name":"active","type":"bool","internalType":"bool"},{"name":"minDeposit","type":"uint256","internalType":"uint256"},{"name":"maxDeposit","type":"uint256","internalType":"uint256"}]}],"stateMutability":"view"},{"type":"function","name":"owner","inputs":[],"outputs":[{"name":"","type":"address","internalType":"address"}],"stateMutability":"view"},{"type":"function","name":"pause","inputs":[],"outputs":[],"stateMutability":"nonpayable"},{"type":"function","name":"pauseDeposits","inputs":[],"outputs":[],"stateMutability":"nonpayable"},{"type":"function","name":"paused","inputs":[],"outputs":[{"name":"","type":"bool","internalType":"bool"}],"stateMutability":"view"},{"type":"function","name":"renounceOwnership","inputs":[],"outputs":[],"stateMutability":"nonpayable"},{"type":"function","name":"resumeDeposits","inputs":[],"outputs":[],"stateMutability":"nonpayable"},{"type":"function","name":"setVaultActive","inputs":[{"name":"vaultAddress","type":"address","internalType":"address"},{"name":"active","type":"bool","internalType":"bool"}],"outputs":[],"stateMutability":"nonpayable"},{"type":"function","name":"totalValueLocked","inputs":[],"outputs":[{"name":"","type":"uint256","internalType":"uint256"}],"stateMutability":"view"},{"type":"function","name":"totalYieldGenerated","inputs":[],"outputs":[{"name":"","type":"uint256","internalType":"uint256"}],"stateMutability":"view"},{"type":"function","name":"transferOwnership","inputs":[{"name":"newOwner","type":"address","internalType":"address"}],"outputs":[],"stateMutability":"nonpayable"},{"type":"function","name":"unpause","inputs":[],"outputs":[],"stateMutability":"nonpayable"},{"type":"function","name":"updateVaultApr","inputs":[{"name":"vaultAddress","type":"address","internalType":"address"},{"name":"newApr","type":"uint256","internalType":"uint256"}],"outputs":[],"stateMutability":"nonpayable"},{"type":"function","name":"userTotalDeposited","inputs":[{"name":"","type":"address","internalType":"address"}],"outputs":[{"name":"","type":"uint256","internalType":"uint256"}],"stateMutability":"view"},{"type":"function","name":"userVaultPositions","inputs":[{"name":"","type":"address","internalType":"address"},{"name":"","type":"address","internalType":"address"}],"outputs":[{"name":"principal","type":"uint256","internalType":"uint256"},{"name":"yieldAccrued","type":"uint256","internalType":"uint256"},{"name":"lastUpdateTime","type":"uint256","internalType":"uint256"},{"name":"shares","type":"uint256","internalType":"uint256"}],"stateMutability":"view"},{"type":"function","name":"vaults","inputs":[{"name":"","type":"address","internalType":"address"}],"outputs":[{"name":"vaultAddress","type":"address","internalType":"address"},{"name":"strategy","type":"uint8","internalType":"enum IYieldAggregator.YieldStrategy"},{"name":"apr","type":"uint256","internalType":"uint256"},{"name":"totalDeposited","type":"uint256","internalType":"uint256"},{"name":"totalYield","type":"uint256","internalType":"uint256"},{"name":"active","type":"bool","internalType":"bool"},{"name":"minDeposit","type":"uint256","internalType":"uint256"},{"name":"maxDeposit","type":"uint256","internalType":"uint256"}],"stateMutability":"view"},{"type":"function","name":"withdraw","inputs":[{"name":"amount","type":"uint256","internalType":"uint256"}],"outputs":[{"name":"totalWithdrawn","type":"uint256","internalType":"uint256"}],"stateMutability":"nonpayable"},{"type":"function","name":"withdrawFromVault","inputs":[{"name":"vaultAddress","type":"address","internalType":"address"},{"name":"shares","type":"uint256","internalType":"uint256"}],"outputs":[{"name":"amount","type":"uint256","internalType":"uint256"}],"stateMutability":"nonpayable"},{"type":"event","name":"OwnershipTransferred","inputs":[{"name":"previousOwner","type":"address","indexed":true,"internalType":"address"},{"name":"newOwner","type":"address","indexed":true,"internalType":"address"}],"anonymous":false},{"type":"event","name":"Paused","inputs":[{"name":"account","type":"address","indexed":false,"internalType":"address"}],"anonymous":false},{"type":"event","name":"Unpaused","inputs":[{"name":"account","type":"address","indexed":false,"internalType":"address"}],"anonymous":false},{"type":"event","name":"VaultAdded","inputs":[{"name":"vault","type":"address","indexed":true,"internalType":"address"},{"name":"strategy","type":"uint8","indexed":false,"internalType":"enum IYieldAggregator.YieldStrategy"},{"name":"apr","type":"uint256","indexed":false,"internalType":"uint256"}],"anonymous":false},{"type":"event","name":"VaultUpdated","inputs":[{"name":"vault","type":"address","indexed":true,"internalType":"address"},{"name":"newApr","type":"uint256","indexed":false,"internalType":"uint256"},{"name":"active","type":"bool","indexed":false,"internalType":"bool"}],"anonymous":false},{"type":"event","name":"YieldClaimed","inputs":[{"name":"user","type":"address","indexed":true,"internalType":"address"},{"name":"amount","type":"uint256","indexed":false,"internalType":"uint256"}],"anonymous":false},{"type":"event","name":"YieldCompounded","inputs":[{"name":"user","type":"address","indexed":true,"internalType":"address"},{"name":"amount","type":"uint256","indexed":false,"internalType":"uint256"}],"anonymous":false},{"type":"event","name":"YieldDeposited","inputs":[{"name":"user","type":"address","indexed":true,"internalType":"address"},{"name":"vault","type":"address","indexed":true,"internalType":"address"},{"name":"amount","type":"uint256","indexed":false,"internalType":"uint256"},{"name":"shares","type":"uint256","indexed":false,"internalType":"uint256"}],"anonymous":false},{"type":"event","name":"YieldWithdrawn","inputs":[{"name":"user","type":"address","indexed":true,"internalType":"address"},{"name":"vault","type":"address","indexed":true,"internalType":"address"},{"name":"amount","type":"uint256","indexed":false,"internalType":"uint256"},{"name":"yield","type":"uint256","indexed":false,"internalType":"uint256"}],"anonymous":false},{"type":"error","name":"AddressEmptyCode","inputs":[{"name":"target","type":"address","internalType":"address"}]},{"type":"error","name":"AddressInsufficientBalance","inputs":[{"name":"account","type":"address","internalType":"address"}]},{"type":"error","name":"DepositsPaused","inputs":[]},{"type":"error","name":"EnforcedPause","inputs":[]},{"type":"error","name":"ExpectedPause","inputs":[]},{"type":"error","name":"FailedInnerCall","inputs":[]},{"type":"error","name":"InvalidAddress","inputs":[]},{"type":"error","name":"InvalidAmount","inputs":[]},{"type":"error","name":"InvalidVault","inputs":[]},{"type":"error","name":"NoDeposit","inputs":[]},{"type":"error","name":"OwnableInvalidOwner","inputs":[{"name":"owner","type":"address","internalType":"address"}]},{"type":"error","name":"OwnableUnauthorizedAccount","inputs":[{"name":"account","type":"address","internalType":"address"}]},{"type":"error","name":"ReentrancyGuardReentrantCall","inputs":[]},{"type":"error","name":"SafeERC20FailedOperation","inputs":[{"name":"token","type":"address","internalType":"address"}]},{"type":"error","name":"TooManyVaults","inputs":[]},{"type":"error","name":"VaultAlreadyExists","inputs":[]},{"type":"error","name":"VaultInactive","inputs":[]},{"type":"error","name":"VaultNotFound","inputs":[]}],"bytecode":{"object":"0x60a03461010357601f6125f538819003918201601f19168301916001600160401b038311848410176101085780849260209460405283398101031261010357516001600160a01b03808216918290036101035733156100ea576000543360018060a01b0319821617600055604051913391167f8be0079c531659141344cd1fd0a4f28419497f9722a3daafe3b4186f6b6457e0600080a36001805560ff196002541660025581156100db57506080526040516124d6908161011f8239608051818181611289015281816114bf015281816115d401526122330152f35b63e6c4247b60e01b8152600490fd5b604051631e4fbdf760e01b815260006004820152602490fd5b600080fd5b634e487b7160e01b600052604160045260246000fdfe6040608081526004908136101561001557600080fd5b60009160e08335811c9081630219198014611927578163122cc1cc146118fa5781631f7bb1bb146118ab578163201933bf146117ce57816321116f4e146116905781632e1a7d4d146114e35781632e5a6e251461149157816339fda35f146113d35781633f4ba83a14611332578163406cf229146111be5781635011ec7a146111a0578163537bb137146111795781635b7c2dad146111275781635c975abb1461110257816360da3e83146110dd57816364398676146110a7578163698b4c2814610fa85781636b4eabef14610ee2578163715018a614610e645781638456cb5914610dea5781638c82505614610dca5781638da5cb5b14610d9657816390229af714610c675781639ca0ac3814610c23578163a38afdab14610b73578163a3d1115814610a40578163a622ee7c1461099f578163aa80e8a21461095a578163b26025aa1461093a578163b6b55f25146107e8578163b6eaea17146107cb578163ce2df72d14610750578163d57ad5471461048c57508063db77519f1461043c578063e1e158a514610419578063e4484dc3146102b0578063ec18154e1461028d5763f2fde38b146101c657600080fd5b34610289576020600319360112610289576101df611996565b906101e8611ea4565b73ffffffffffffffffffffffffffffffffffffffff80921692831561025a5750508254827fffffffffffffffffffffffff00000000000000000000000000000000000000008216178455167f8be0079c531659141344cd1fd0a4f28419497f9722a3daafe3b4186f6b6457e08380a380f35b908460249251917f1e4fbdf7000000000000000000000000000000000000000000000000000000008352820152fd5b8280fd5b5050346102ac57816003193601126102ac576020906007549051908152f35b5080fd5b5090346102895782600319360112610289576102ca611ef5565b3383526020926006845281812054156103f25773ffffffffffffffffffffffffffffffffffffffff6102fa611dbe565b501680156103ca5761030b33611d65565b9384156103a35750908291338252600586528282208183528652828220610333868254611c51565b8155826001820155600242910155815260038552600282822001610358858254611c51565b9055338152600685522061036d838254611c51565b905580518281527f05c69ab20afd15eceba4719679c248fd89f4b84d69e15164c93204b1d227ee7a843392a26001805551908152f35b83517f2c5211c6000000000000000000000000000000000000000000000000000000008152fd5b5050517fdee790fb000000000000000000000000000000000000000000000000000000008152fd5b50517f3a6a68b1000000000000000000000000000000000000000000000000000000008152fd5b5050346102ac57816003193601126102ac5760209051670de0b6b3a76400008152f35b5050346102ac57816003193601126102ac576104889061045a611dbe565b915173ffffffffffffffffffffffffffffffffffffffff909116815260208101919091529081906040820190565b0390f35b8491508334610289576060600319360112610289576104a9611996565b60243590600582101561074c57604435906104c2611ea4565b73ffffffffffffffffffffffffffffffffffffffff8091169485156107245785875260036020528185882054166106fc57600a885410156106d4578585519161050a83611ab2565b818352886020840161051c8882611a5b565b88850187815260608601908382526080870192848452888c60a08a01966001885260c08b0198670de0b6b3a76400008a528b0199818b5281526003602052209851168854915160058110156106a657916106029593917fffffffffffffffffffffff00000000000000000000000000000000000000000074ff000000000000000000000000000000000000000060069b9a99979560a01b169216171789555160018901555160028801555160038701555115158c86019060ff7fffffffffffffffffffffffffffffffffffffffffffffffffffffffffffffff0083541691151516179055565b5160058401555191015586546801000000000000000081101561067a57807ff0035eebee51b9dfa26a29ef60e4ce4df924b64ae6e67f38a90f77e93d48b90f9697986001610652930190556119b9565b819291549060031b9188831b921b191617905561067183518093611a1f565b6020820152a280f35b60248760418a7f4e487b7100000000000000000000000000000000000000000000000000000000835252fd5b508f8f60216024927f4e487b7100000000000000000000000000000000000000000000000000000000835252fd5b8785517f0c931210000000000000000000000000000000000000000000000000000000008152fd5b8785517f04aabf33000000000000000000000000000000000000000000000000000000008152fd5b8785517fe6c4247b000000000000000000000000000000000000000000000000000000008152fd5b8480fd5b505050346102ac57806003193601126102ac578060809261076f611996565b61077761196e565b9073ffffffffffffffffffffffffffffffffffffffff809116835260056020528383209116825260205220908154916001810154916003600283015492015492815194855260208501528301526060820152f35b505050346102ac57816003193601126102ac5760209051600a8152f35b505082346109375760206003193601126109375750803591610808611ef5565b61081061217e565b60ff6009541661091157670de0b6b3a764000083106108eb57610831611dbe565b509173ffffffffffffffffffffffffffffffffffffffff83169081156108c4575090610488916108628585336121b4565b9482519081528560208201527f45afc1f2190a9c643b622e703b26867b231ca9ec5626176f118eb6f693964528833392a36001805551928392836020909392919373ffffffffffffffffffffffffffffffffffffffff60408201951681520152565b82517fdee790fb000000000000000000000000000000000000000000000000000000008152fd5b517f2c5211c6000000000000000000000000000000000000000000000000000000008152fd5b517fdeeb6943000000000000000000000000000000000000000000000000000000008152fd5b80fd5b505050346102ac57816003193601126102ac576020906007549051908152f35b505050346102ac5760206003193601126102ac578060209273ffffffffffffffffffffffffffffffffffffffff61098f611996565b1681526006845220549051908152f35b849291503461028957602060031936011261028957836101009473ffffffffffffffffffffffffffffffffffffffff94856109d8611996565b16815260036020522090815493600183015460028401549060ff6003860154938601541693610a22600660058801549701549882519a81168b5260ff60208c019160a01c16611a1f565b88015260608701526080860152151560a085015260c0840152820152f35b50509034610289578060031936011261028957610a5b611996565b9260243592610a68611ef5565b610a7061217e565b60ff60095416610b4c57670de0b6b3a76400008410610b255760ff818473ffffffffffffffffffffffffffffffffffffffff88169485815260036020522001541615610afe5750610ac483602095336121b4565b92825190815283858201527f45afc1f2190a9c643b622e703b26867b231ca9ec5626176f118eb6f693964528833392a36001805551908152f35b82517f4aaeea09000000000000000000000000000000000000000000000000000000008152fd5b82517f2c5211c6000000000000000000000000000000000000000000000000000000008152fd5b82517fdeeb6943000000000000000000000000000000000000000000000000000000008152fd5b5050903461028957602060031936011261028957610b8f611996565b610b97611ea4565b73ffffffffffffffffffffffffffffffffffffffff80911692838552600360205282852091825416156108c457816001917f927b16480391adfa56777f7f3c966ac767580b78e8a9ff424363bd1c8b622ff19493017fffffffffffffffffffffffffffffffffffffffffffffffffffffffffffffff00815416905501548151908152846020820152a280f35b8434610937578060031936011261093757610c3c611ea4565b7fffffffffffffffffffffffffffffffffffffffffffffffffffffffffffffff006009541660095580f35b9192905034610d92576020600319360112610d9257928361010094610c8a611996565b9280858351610c9881611ab2565b82815282602082015282858201528260608201528260808201528260a08201528260c0820152015273ffffffffffffffffffffffffffffffffffffffff809416815260036020522090805194610ced86611ab2565b8254918483168752610d0960ff602089019460a01c1684611a5b565b60018401549080880191825260028501549160608901928352610d6c60ff60038801549560808c01968752880154169560a08b019615158752600660058901549860c08d01998a520154988a8c01998a5284519b51168b525160208b0190611a1f565b519088015251606087015251608086015251151560a08501525160c08401525190820152f35b8380fd5b505050346102ac57816003193601126102ac5773ffffffffffffffffffffffffffffffffffffffff60209254169051908152f35b505050346102ac57816003193601126102ac576020906008549051908152f35b505050346102ac57816003193601126102ac5760207f62e78cea01bee320cd4e420270b5ea74000d11b0c9f74754ebdbfc544b05a25891610e29611ea4565b610e3161217e565b60017fffffffffffffffffffffffffffffffffffffffffffffffffffffffffffffff00600254161760025551338152a180f35b8434610937578060031936011261093757610e7d611ea4565b8073ffffffffffffffffffffffffffffffffffffffff81547fffffffffffffffffffffffff000000000000000000000000000000000000000081168355167f8be0079c531659141344cd1fd0a4f28419497f9722a3daafe3b4186f6b6457e08280a380f35b828585346102ac57806003193601126102ac57610efd611996565b90602435610f09611ea4565b73ffffffffffffffffffffffffffffffffffffffff8093169283855260036020528285209081541615610f80576001810182905590940154905193845260ff161515602084015290917f927b16480391adfa56777f7f3c966ac767580b78e8a9ff424363bd1c8b622ff19080604081015b0390a280f35b8583517fdee790fb000000000000000000000000000000000000000000000000000000008152fd5b828585346102ac57806003193601126102ac57610fc3611996565b90602435908115158203610d9257610fd9611ea4565b73ffffffffffffffffffffffffffffffffffffffff809316928385526003602052818520908154161561107f57600181611066857f927b16480391adfa56777f7f3c966ac767580b78e8a9ff424363bd1c8b622ff1979899610f7a95019060ff7fffffffffffffffffffffffffffffffffffffffffffffffffffffffffffffff0083541691151516179055565b0154915191825291151560208201529081906040820190565b8582517fdee790fb000000000000000000000000000000000000000000000000000000008152fd5b505050346102ac57806003193601126102ac576020906110d66110c8611996565b6110d061196e565b90612055565b9051908152f35b505050346102ac57816003193601126102ac5760209060ff6009541690519015158152f35b505050346102ac57816003193601126102ac5760209060ff6002541690519015158152f35b8385346109375760206003193601126109375761116d82611146611996565b9273ffffffffffffffffffffffffffffffffffffffff841681526006602052205491611d65565b82519182526020820152f35b505050346102ac5760206003193601126102ac576020906110d661119b611996565b611d65565b505050346102ac57816003193601126102ac576020906110d6611c5e565b505091346109375780600319360112610937576111d9611ef5565b80338152602091600660205283822054156113095781905b85548210156112755773ffffffffffffffffffffffffffffffffffffffff611218836119b9565b90549060031b1c1691338452600585528584208385528552858420928354611246575b5060010191506111f1565b6112509033612055565b801561123b5761126290600193611c51565b928483820155600242910155829161123b565b85908581156112e157602092506112ad82337f0000000000000000000000000000000000000000000000000000000000000000611fec565b80518281527fc04825ba3f383b602255d2a13065a68e325c65c9e0ed5d031ea2b06f641873af843392a26001805551908152f35b9050517f2c5211c6000000000000000000000000000000000000000000000000000000008152fd5b505050517f3a6a68b1000000000000000000000000000000000000000000000000000000008152fd5b50503461028957826003193601126102895761134c611ea4565b6002549060ff8216156113ac57507f5db9ee0a495bf2e6ff9c91a7834c1ba4fdd244a5e8aa4e537bd38aeae4b073aa917fffffffffffffffffffffffffffffffffffffffffffffffffffffffffffffff006020921660025551338152a180f35b82517f8dfc202b000000000000000000000000000000000000000000000000000000008152fd5b505050346102ac57806003193601126102ac57806080926113f2611996565b6113fa61196e565b90826060855161140981611a67565b8281528260208201528287820152015273ffffffffffffffffffffffffffffffffffffffff8091168352600560205283832091168252602052209080519061145082611a67565b825492838352600181015460208401908152606060036002840154938587019485520154940193845282519485525160208501525190830152516060820152f35b505050346102ac57816003193601126102ac576020905173ffffffffffffffffffffffffffffffffffffffff7f0000000000000000000000000000000000000000000000000000000000000000168152f35b5050903461028957602080600319360112610d9257823591611503611ef5565b849133865260068152818620549384156116685780611662575083915b84831161163a57865b86548110156115b15773ffffffffffffffffffffffffffffffffffffffff611550826119b9565b90549060031b1c1633895260058452828920818a52845286838a20548061157d575b505050600101611529565b6115a89261159b60019599936115966115a2948b611b10565b611b52565b9033611f30565b90611c51565b94908638611572565b5086849293338252600685528282206115cb828254611c44565b90556115f884337f0000000000000000000000000000000000000000000000000000000000000000611fec565b6116028185611c44565b8351918252858201527fa0b74f939fb29d54926019ff2505b0413dfadf71a0d6dad6e26bfd514fd86931833392a36001805551908152f35b8590517f2c5211c6000000000000000000000000000000000000000000000000000000008152fd5b91611520565b8583517f3a6a68b1000000000000000000000000000000000000000000000000000000008152fd5b828585346102ac57806003193601126102ac576116ab611996565b602435926116b7611ef5565b73ffffffffffffffffffffffffffffffffffffffff9485831692838352602096600388528584205416156117a6573383526005875284832084845287528483209586541561177e578061177857506003860154905b6003870192835483116117515750916117358261172e61173d94899633611f30565b9854611b10565b905490611b52565b9133815260068752206115cb828254611c44565b86517f2c5211c6000000000000000000000000000000000000000000000000000000008152fd5b9061170c565b8286517f3a6a68b1000000000000000000000000000000000000000000000000000000008152fd5b5083517fdee790fb000000000000000000000000000000000000000000000000000000008152fd5b505082346109375780600319360112610937579190815192838254808652602080960190819484527f8a35acfbc15ff81a39ae7d344fd709f28e8600b4aa8c65c6b64bfe7fe36bd19b90845b8181106118815750505081611830910382611acf565b83519485948186019282875251809352850193925b82811061185457505050500390f35b835173ffffffffffffffffffffffffffffffffffffffff1685528695509381019392810192600101611845565b825473ffffffffffffffffffffffffffffffffffffffff168452928801926001928301920161181a565b505091346109375760206003193601126109375782359254831015610937575073ffffffffffffffffffffffffffffffffffffffff6118eb6020936119b9565b92905490519260031b1c168152f35b5050913461093757606060031936011261093757506110d660209261191d61196e565b6044359135611b8b565b8434610937578060031936011261093757611940611ea4565b60017fffffffffffffffffffffffffffffffffffffffffffffffffffffffffffffff00600954161760095580f35b6024359073ffffffffffffffffffffffffffffffffffffffff8216820361199157565b600080fd5b6004359073ffffffffffffffffffffffffffffffffffffffff8216820361199157565b6004548110156119f05760046000527f8a35acfbc15ff81a39ae7d344fd709f28e8600b4aa8c65c6b64bfe7fe36bd19b0190600090565b7f4e487b7100000000000000000000000000000000000000000000000000000000600052603260045260246000fd5b906005821015611a2c5752565b7f4e487b7100000000000000000000000000000000000000000000000000000000600052602160045260246000fd5b6005821015611a2c5752565b6080810190811067ffffffffffffffff821117611a8357604052565b7f4e487b7100000000000000000000000000000000000000000000000000000000600052604160045260246000fd5b610100810190811067ffffffffffffffff821117611a8357604052565b90601f7fffffffffffffffffffffffffffffffffffffffffffffffffffffffffffffffe0910116810190811067ffffffffffffffff821117611a8357604052565b81810292918115918404141715611b2357565b7f4e487b7100000000000000000000000000000000000000000000000000000000600052601160045260246000fd5b8115611b5c570490565b7f4e487b7100000000000000000000000000000000000000000000000000000000600052601260045260246000fd5b9173ffffffffffffffffffffffffffffffffffffffff8092166000526003602052604060002091604051611bbe81611ab2565b611bd760ff8554848116845260a01c1660208301611a5b565b6006600185015494856040840152600281015460608401526003810154608084015260ff600482015416151560a0840152600581015460c0840152015460e0820152511615611c3c57611c33611c389264496cebb80094611b10565b611b10565b0490565b505050600090565b91908203918211611b2357565b91908201809211611b2357565b600754908115611d5f57600091600060048054915b828110611c8a57505050611c879192611b52565b90565b611c93816119b9565b9073ffffffffffffffffffffffffffffffffffffffff809154600393841b1c1660005260209082825260409160e0600684600020855193611cd385611ab2565b81549586168552611cef60ff918260a098891c16908701611a5b565b600182015480978601526002820154978860608701528201546080860152898201541615158095850152600581015460c0850152015491015280611d56575b611d3d575b5050600101611c73565b966115a2611d4e9260019499611b10565b959038611d33565b50811515611d2e565b60009150565b90600091600090600454905b818310611d7d57505050565b909193611db56001916115a273ffffffffffffffffffffffffffffffffffffffff611da7896119b9565b90549060031b1c1685612055565b94019190611d71565b60048054600092839290919083805b838110611dda5750505050565b611de3816119b9565b9073ffffffffffffffffffffffffffffffffffffffff809154600393841b1c1684526020918083526040906006828720835195611e1f87611ab2565b8154938685168852611e3c60ff928360a097881c16908a01611a5b565b60018301548096890152600283015460608901528201546080880152898201541615158093870152600581015460c0870152015460e085015280611e9b575b611e8b575b505050600101611dcd565b9151169750955060013880611e80565b50888111611e7b565b73ffffffffffffffffffffffffffffffffffffffff600054163303611ec557565b60246040517f118cdaa7000000000000000000000000000000000000000000000000000000008152336004820152fd5b600260015414611f06576002600155565b60046040517f3ee5aeb5000000000000000000000000000000000000000000000000000000008152fd5b916002611fe792949373ffffffffffffffffffffffffffffffffffffffff9560009680831688526005602052604088209082168852602052611f88611f826040892092600360205260408a2094612055565b85611c51565b96611f94858354611c44565b808355611fc56003840191611fbf835491611fb98a611fb38186611b10565b92611c51565b90611b52565b90611c44565b90556001820155824291015501611fdd828254611c44565b9055600754611c44565b600755565b6040517fa9059cbb00000000000000000000000000000000000000000000000000000000602082015273ffffffffffffffffffffffffffffffffffffffff9290921660248301526044808301939093529181526120539161204e606483611acf565b6122ce565b565b9073ffffffffffffffffffffffffffffffffffffffff91826000911681526005602052604090838282209316928382526020528181209082519461209886611a67565b825494858752600184015495602088019687526003600286015495878a0196875201546060890152156121745782526003602052838220906120f560ff8651926120e184611ab2565b8454908116845260a01c1660208301611a5b565b6001820154948101948552600282015460608201526003820154608082015260e0600660ff6004850154161593841560a0850152600581015460c0850152015491015261216c5750611c8793611c3364496cebb80093612159612163945142611c44565b9251905190611b10565b04905190611c51565b935050505090565b5050935050505090565b60ff6002541661218a57565b60046040517fd93c0665000000000000000000000000000000000000000000000000000000008152fd5b90929160408051927f23b872dd00000000000000000000000000000000000000000000000000000000602085015273ffffffffffffffffffffffffffffffffffffffff8091168060248601523060448601528360648601526064855260a0850185811067ffffffffffffffff821117611a8357611fe7956122579185527f00000000000000000000000000000000000000000000000000000000000000006122ce565b8396600092828452600560205284842091169081845260205283832061227e868254611c51565b81556003810161228f878254611c51565b9055600242910155825260036020526002838320016122af858254611c51565b905581526006602052206122c4828254611c51565b9055600754611c51565b73ffffffffffffffffffffffffffffffffffffffff1690600080826020829451910182865af13d156123f4573d9067ffffffffffffffff82116123c75790612356916040519161234660207fffffffffffffffffffffffffffffffffffffffffffffffffffffffffffffffe0601f8401160184611acf565b82523d84602084013e5b84612400565b90815191821515928361239f575b50505061236e5750565b602490604051907f5274afe70000000000000000000000000000000000000000000000000000000082526004820152fd5b8192935090602091810103126102ac5760200151908115918215036109375750388080612364565b6024837f4e487b710000000000000000000000000000000000000000000000000000000081526041600452fd5b61235690606090612350565b9061243f575080511561241557805190602001fd5b60046040517f1425ea42000000000000000000000000000000000000000000000000000000008152fd5b81511580612497575b612450575090565b60249073ffffffffffffffffffffffffffffffffffffffff604051917f9996b315000000000000000000000000000000000000000000000000000000008352166004820152fd5b50803b1561244856fea26469706673582212205f21a2501eaccf2a991c734c9d3ffb64a260d72a1c31edf0ae6c484caf3a49ba64736f6c63430008190033","linkReferences":{}},"methodIdentifiers":{"MAX_VAULTS()":"b6eaea17","MIN_DEPOSIT()":"e1e158a5","MUSD_TOKEN()":"2e5a6e25","activeVaultsList(uint256)":"1f7bb1bb","addVault(address,uint8,uint256)":"d57ad547","calculateExpectedYield(uint256,address,uint256)":"122cc1cc","claimYield()":"406cf229","compoundYields()":"e4484dc3","deposit(uint256)":"b6b55f25","depositToVault(address,uint256)":"a3d11158","depositsPaused()":"60da3e83","emergencyWithdrawFromVault(address)":"a38afdab","getActiveVaults()":"201933bf","getAverageApr()":"5011ec7a","getBestVault()":"db77519f","getPendingYield(address)":"537bb137","getPendingYieldInVault(address,address)":"64398676","getTotalValueLocked()":"b26025aa","getUserPosition(address)":"5b7c2dad","getUserPositionInVault(address,address)":"39fda35f","getVaultInfo(address)":"90229af7","owner()":"8da5cb5b","pause()":"8456cb59","pauseDeposits()":"02191980","paused()":"5c975abb","renounceOwnership()":"715018a6","resumeDeposits()":"9ca0ac38","setVaultActive(address,bool)":"698b4c28","totalValueLocked()":"ec18154e","totalYieldGenerated()":"8c825056","transferOwnership(address)":"f2fde38b","unpause()":"3f4ba83a","updateVaultApr(address,uint256)":"6b4eabef","userTotalDeposited(address)":"aa80e8a2","userVaultPositions(address,address)":"ce2df72d","vaults(address)":"a622ee7c","withdraw(uint256)":"2e1a7d4d","withdrawFromVault(address,uint256)":"21116f4e"},"id":39}