{
  "abi": [
    {
      "type": "constructor",
      "inputs": [],
      "stateMutability": "nonpayable"
    },
    {
      "type": "function",
      "name": "MAX_VAULTS",
      "inputs": [],
      "outputs": [
        {
          "name": "",
          "type": "uint256",
          "internalType": "uint256"
        }
      ],
      "stateMutability": "view"
    },
    {
      "type": "function",
      "name": "MIN_DEPOSIT",
      "inputs": [],
      "outputs": [
        {
          "name": "",
          "type": "uint256",
          "internalType": "uint256"
        }
      ],
      "stateMutability": "view"
    },
    {
      "type": "function",
      "name": "MUSD_TOKEN",
      "inputs": [],
      "outputs": [
        {
          "name": "",
          "type": "address",
          "internalType": "contract IERC20"
        }
      ],
      "stateMutability": "view"
    },
    {
      "type": "function",
      "name": "UPGRADE_INTERFACE_VERSION",
      "inputs": [],
      "outputs": [
        {
          "name": "",
          "type": "string",
          "internalType": "string"
        }
      ],
      "stateMutability": "view"
    },
    {
      "type": "function",
      "name": "activeVaultsList",
      "inputs": [
        {
          "name": "",
          "type": "uint256",
          "internalType": "uint256"
        }
      ],
      "outputs": [
        {
          "name": "",
          "type": "address",
          "internalType": "address"
        }
      ],
      "stateMutability": "view"
    },
    {
      "type": "function",
      "name": "addVault",
      "inputs": [
        {
          "name": "vaultAddress",
          "type": "address",
          "internalType": "address"
        },
        {
          "name": "strategy",
          "type": "uint8",
          "internalType": "enum IYieldAggregator.YieldStrategy"
        },
        {
          "name": "apr",
          "type": "uint256",
          "internalType": "uint256"
        }
      ],
      "outputs": [],
      "stateMutability": "nonpayable"
    },
    {
      "type": "function",
      "name": "authorizedCallers",
      "inputs": [
        {
          "name": "",
          "type": "address",
          "internalType": "address"
        }
      ],
      "outputs": [
        {
          "name": "",
          "type": "bool",
          "internalType": "bool"
        }
      ],
      "stateMutability": "view"
    },
    {
      "type": "function",
      "name": "calculateExpectedYield",
      "inputs": [
        {
          "name": "amount",
          "type": "uint256",
          "internalType": "uint256"
        },
        {
          "name": "vaultAddress",
          "type": "address",
          "internalType": "address"
        },
        {
          "name": "timeInSeconds",
          "type": "uint256",
          "internalType": "uint256"
        }
      ],
      "outputs": [
        {
          "name": "expectedYield",
          "type": "uint256",
          "internalType": "uint256"
        }
      ],
      "stateMutability": "view"
    },
    {
      "type": "function",
      "name": "claimYield",
      "inputs": [],
      "outputs": [
        {
          "name": "yieldAmount",
          "type": "uint256",
          "internalType": "uint256"
        }
      ],
      "stateMutability": "nonpayable"
    },
    {
      "type": "function",
      "name": "compoundYields",
      "inputs": [],
      "outputs": [
        {
          "name": "compoundedAmount",
          "type": "uint256",
          "internalType": "uint256"
        }
      ],
      "stateMutability": "nonpayable"
    },
    {
      "type": "function",
      "name": "deposit",
      "inputs": [
        {
          "name": "amount",
          "type": "uint256",
          "internalType": "uint256"
        }
      ],
      "outputs": [
        {
          "name": "vaultAddress",
          "type": "address",
          "internalType": "address"
        },
        {
          "name": "shares",
          "type": "uint256",
          "internalType": "uint256"
        }
      ],
      "stateMutability": "nonpayable"
    },
    {
      "type": "function",
      "name": "depositToVault",
      "inputs": [
        {
          "name": "vaultAddress",
          "type": "address",
          "internalType": "address"
        },
        {
          "name": "amount",
          "type": "uint256",
          "internalType": "uint256"
        }
      ],
      "outputs": [
        {
          "name": "shares",
          "type": "uint256",
          "internalType": "uint256"
        }
      ],
      "stateMutability": "nonpayable"
    },
    {
      "type": "function",
      "name": "depositsPaused",
      "inputs": [],
      "outputs": [
        {
          "name": "",
          "type": "bool",
          "internalType": "bool"
        }
      ],
      "stateMutability": "view"
    },
    {
      "type": "function",
      "name": "emergencyMode",
      "inputs": [],
      "outputs": [
        {
          "name": "",
          "type": "bool",
          "internalType": "bool"
        }
      ],
      "stateMutability": "view"
    },
    {
      "type": "function",
      "name": "emergencyWithdrawFromVault",
      "inputs": [
        {
          "name": "vaultAddress",
          "type": "address",
          "internalType": "address"
        }
      ],
      "outputs": [],
      "stateMutability": "nonpayable"
    },
    {
      "type": "function",
      "name": "getActiveVaults",
      "inputs": [],
      "outputs": [
        {
          "name": "",
          "type": "address[]",
          "internalType": "address[]"
        }
      ],
      "stateMutability": "view"
    },
    {
      "type": "function",
      "name": "getAverageApr",
      "inputs": [],
      "outputs": [
        {
          "name": "avgApr",
          "type": "uint256",
          "internalType": "uint256"
        }
      ],
      "stateMutability": "view"
    },
    {
      "type": "function",
      "name": "getBestVault",
      "inputs": [],
      "outputs": [
        {
          "name": "vaultAddress",
          "type": "address",
          "internalType": "address"
        },
        {
          "name": "apr",
          "type": "uint256",
          "internalType": "uint256"
        }
      ],
      "stateMutability": "view"
    },
    {
      "type": "function",
      "name": "getPendingYield",
      "inputs": [
        {
          "name": "user",
          "type": "address",
          "internalType": "address"
        }
      ],
      "outputs": [
        {
          "name": "pendingYield",
          "type": "uint256",
          "internalType": "uint256"
        }
      ],
      "stateMutability": "view"
    },
    {
      "type": "function",
      "name": "getPendingYieldInVault",
      "inputs": [
        {
          "name": "user",
          "type": "address",
          "internalType": "address"
        },
        {
          "name": "vaultAddress",
          "type": "address",
          "internalType": "address"
        }
      ],
      "outputs": [
        {
          "name": "pendingYield",
          "type": "uint256",
          "internalType": "uint256"
        }
      ],
      "stateMutability": "view"
    },
    {
      "type": "function",
      "name": "getTotalValueLocked",
      "inputs": [],
      "outputs": [
        {
          "name": "tvl",
          "type": "uint256",
          "internalType": "uint256"
        }
      ],
      "stateMutability": "view"
    },
    {
      "type": "function",
      "name": "getUserPosition",
      "inputs": [
        {
          "name": "user",
          "type": "address",
          "internalType": "address"
        }
      ],
      "outputs": [
        {
          "name": "principal",
          "type": "uint256",
          "internalType": "uint256"
        },
        {
          "name": "yields",
          "type": "uint256",
          "internalType": "uint256"
        }
      ],
      "stateMutability": "view"
    },
    {
      "type": "function",
      "name": "getUserPositionInVault",
      "inputs": [
        {
          "name": "user",
          "type": "address",
          "internalType": "address"
        },
        {
          "name": "vaultAddress",
          "type": "address",
          "internalType": "address"
        }
      ],
      "outputs": [
        {
          "name": "position",
          "type": "tuple",
          "internalType": "struct IYieldAggregator.UserPosition",
          "components": [
            {
              "name": "principal",
              "type": "uint256",
              "internalType": "uint256"
            },
            {
              "name": "yieldAccrued",
              "type": "uint256",
              "internalType": "uint256"
            },
            {
              "name": "lastUpdateTime",
              "type": "uint256",
              "internalType": "uint256"
            },
            {
              "name": "shares",
              "type": "uint256",
              "internalType": "uint256"
            }
          ]
        }
      ],
      "stateMutability": "view"
    },
    {
      "type": "function",
      "name": "getVaultInfo",
      "inputs": [
        {
          "name": "vaultAddress",
          "type": "address",
          "internalType": "address"
        }
      ],
      "outputs": [
        {
          "name": "info",
          "type": "tuple",
          "internalType": "struct IYieldAggregator.VaultInfo",
          "components": [
            {
              "name": "vaultAddress",
              "type": "address",
              "internalType": "address"
            },
            {
              "name": "strategy",
              "type": "uint8",
              "internalType": "enum IYieldAggregator.YieldStrategy"
            },
            {
              "name": "apr",
              "type": "uint256",
              "internalType": "uint256"
            },
            {
              "name": "totalDeposited",
              "type": "uint256",
              "internalType": "uint256"
            },
            {
              "name": "totalYield",
              "type": "uint256",
              "internalType": "uint256"
            },
            {
              "name": "active",
              "type": "bool",
              "internalType": "bool"
            },
            {
              "name": "minDeposit",
              "type": "uint256",
              "internalType": "uint256"
            },
            {
              "name": "maxDeposit",
              "type": "uint256",
              "internalType": "uint256"
            }
          ]
        }
      ],
      "stateMutability": "view"
    },
    {
      "type": "function",
      "name": "initialize",
      "inputs": [
        {
          "name": "_musdToken",
          "type": "address",
          "internalType": "address"
        }
      ],
      "outputs": [],
      "stateMutability": "nonpayable"
    },
    {
      "type": "function",
      "name": "owner",
      "inputs": [],
      "outputs": [
        {
          "name": "",
          "type": "address",
          "internalType": "address"
        }
      ],
      "stateMutability": "view"
    },
    {
      "type": "function",
      "name": "pause",
      "inputs": [],
      "outputs": [],
      "stateMutability": "nonpayable"
    },
    {
      "type": "function",
      "name": "pauseDeposits",
      "inputs": [],
      "outputs": [],
      "stateMutability": "nonpayable"
    },
    {
      "type": "function",
      "name": "paused",
      "inputs": [],
      "outputs": [
        {
          "name": "",
          "type": "bool",
          "internalType": "bool"
        }
      ],
      "stateMutability": "view"
    },
    {
      "type": "function",
      "name": "proxiableUUID",
      "inputs": [],
      "outputs": [
        {
          "name": "",
          "type": "bytes32",
          "internalType": "bytes32"
        }
      ],
      "stateMutability": "view"
    },
    {
      "type": "function",
      "name": "renounceOwnership",
      "inputs": [],
      "outputs": [],
      "stateMutability": "nonpayable"
    },
    {
      "type": "function",
      "name": "resumeDeposits",
      "inputs": [],
      "outputs": [],
      "stateMutability": "nonpayable"
    },
    {
      "type": "function",
      "name": "setAuthorizedCaller",
      "inputs": [
        {
          "name": "caller",
          "type": "address",
          "internalType": "address"
        },
        {
          "name": "authorized",
          "type": "bool",
          "internalType": "bool"
        }
      ],
      "outputs": [],
      "stateMutability": "nonpayable"
    },
    {
      "type": "function",
      "name": "setEmergencyMode",
      "inputs": [
        {
          "name": "_enabled",
          "type": "bool",
          "internalType": "bool"
        }
      ],
      "outputs": [],
      "stateMutability": "nonpayable"
    },
    {
      "type": "function",
      "name": "setVaultActive",
      "inputs": [
        {
          "name": "vaultAddress",
          "type": "address",
          "internalType": "address"
        },
        {
          "name": "active",
          "type": "bool",
          "internalType": "bool"
        }
      ],
      "outputs": [],
      "stateMutability": "nonpayable"
    },
    {
      "type": "function",
      "name": "totalValueLocked",
      "inputs": [],
      "outputs": [
        {
          "name": "",
          "type": "uint256",
          "internalType": "uint256"
        }
      ],
      "stateMutability": "view"
    },
    {
      "type": "function",
      "name": "totalYieldGenerated",
      "inputs": [],
      "outputs": [
        {
          "name": "",
          "type": "uint256",
          "internalType": "uint256"
        }
      ],
      "stateMutability": "view"
    },
    {
      "type": "function",
      "name": "transferOwnership",
      "inputs": [
        {
          "name": "newOwner",
          "type": "address",
          "internalType": "address"
        }
      ],
      "outputs": [],
      "stateMutability": "nonpayable"
    },
    {
      "type": "function",
      "name": "unpause",
      "inputs": [],
      "outputs": [],
      "stateMutability": "nonpayable"
    },
    {
      "type": "function",
      "name": "updateVaultApr",
      "inputs": [
        {
          "name": "vaultAddress",
          "type": "address",
          "internalType": "address"
        },
        {
          "name": "newApr",
          "type": "uint256",
          "internalType": "uint256"
        }
      ],
      "outputs": [],
      "stateMutability": "nonpayable"
    },
    {
      "type": "function",
      "name": "upgradeToAndCall",
      "inputs": [
        {
          "name": "newImplementation",
          "type": "address",
          "internalType": "address"
        },
        {
          "name": "data",
          "type": "bytes",
          "internalType": "bytes"
        }
      ],
      "outputs": [],
      "stateMutability": "payable"
    },
    {
      "type": "function",
      "name": "userTotalDeposited",
      "inputs": [
        {
          "name": "",
          "type": "address",
          "internalType": "address"
        }
      ],
      "outputs": [
        {
          "name": "",
          "type": "uint256",
          "internalType": "uint256"
        }
      ],
      "stateMutability": "view"
    },
    {
      "type": "function",
      "name": "userVaultPositions",
      "inputs": [
        {
          "name": "",
          "type": "address",
          "internalType": "address"
        },
        {
          "name": "",
          "type": "address",
          "internalType": "address"
        }
      ],
      "outputs": [
        {
          "name": "principal",
          "type": "uint128",
          "internalType": "uint128"
        },
        {
          "name": "shares",
          "type": "uint128",
          "internalType": "uint128"
        },
        {
          "name": "lastUpdateTime",
          "type": "uint64",
          "internalType": "uint64"
        },
        {
          "name": "yieldAccrued",
          "type": "uint64",
          "internalType": "uint64"
        }
      ],
      "stateMutability": "view"
    },
    {
      "type": "function",
      "name": "vaults",
      "inputs": [
        {
          "name": "",
          "type": "address",
          "internalType": "address"
        }
      ],
      "outputs": [
        {
          "name": "totalDeposited",
          "type": "uint128",
          "internalType": "uint128"
        },
        {
          "name": "totalYield",
          "type": "uint128",
          "internalType": "uint128"
        },
        {
          "name": "apr",
          "type": "uint64",
          "internalType": "uint64"
        },
        {
          "name": "minDeposit",
          "type": "uint64",
          "internalType": "uint64"
        },
        {
          "name": "strategy",
          "type": "uint8",
          "internalType": "enum IYieldAggregator.YieldStrategy"
        },
        {
          "name": "active",
          "type": "bool",
          "internalType": "bool"
        },
        {
          "name": "vaultAddress",
          "type": "address",
          "internalType": "address"
        }
      ],
      "stateMutability": "view"
    },
    {
      "type": "function",
      "name": "version",
      "inputs": [],
      "outputs": [
        {
          "name": "",
          "type": "string",
          "internalType": "string"
        }
      ],
      "stateMutability": "pure"
    },
    {
      "type": "function",
      "name": "withdraw",
      "inputs": [
        {
          "name": "amount",
          "type": "uint256",
          "internalType": "uint256"
        }
      ],
      "outputs": [
        {
          "name": "totalWithdrawn",
          "type": "uint256",
          "internalType": "uint256"
        }
      ],
      "stateMutability": "nonpayable"
    },
    {
      "type": "function",
      "name": "withdrawFromVault",
      "inputs": [
        {
          "name": "vaultAddress",
          "type": "address",
          "internalType": "address"
        },
        {
          "name": "shares",
          "type": "uint256",
          "internalType": "uint256"
        }
      ],
      "outputs": [
        {
          "name": "amount",
          "type": "uint256",
          "internalType": "uint256"
        }
      ],
      "stateMutability": "nonpayable"
    },
    {
      "type": "event",
      "name": "EmergencyModeUpdated",
      "inputs": [
        {
          "name": "enabled",
          "type": "bool",
          "indexed": false,
          "internalType": "bool"
        }
      ],
      "anonymous": false
    },
    {
      "type": "event",
      "name": "Initialized",
      "inputs": [
        {
          "name": "version",
          "type": "uint64",
          "indexed": false,
          "internalType": "uint64"
        }
      ],
      "anonymous": false
    },
    {
      "type": "event",
      "name": "OwnershipTransferred",
      "inputs": [
        {
          "name": "previousOwner",
          "type": "address",
          "indexed": true,
          "internalType": "address"
        },
        {
          "name": "newOwner",
          "type": "address",
          "indexed": true,
          "internalType": "address"
        }
      ],
      "anonymous": false
    },
    {
      "type": "event",
      "name": "Paused",
      "inputs": [
        {
          "name": "account",
          "type": "address",
          "indexed": false,
          "internalType": "address"
        }
      ],
      "anonymous": false
    },
    {
      "type": "event",
      "name": "Unpaused",
      "inputs": [
        {
          "name": "account",
          "type": "address",
          "indexed": false,
          "internalType": "address"
        }
      ],
      "anonymous": false
    },
    {
      "type": "event",
      "name": "Upgraded",
      "inputs": [
        {
          "name": "implementation",
          "type": "address",
          "indexed": true,
          "internalType": "address"
        }
      ],
      "anonymous": false
    },
    {
      "type": "event",
      "name": "VaultAdded",
      "inputs": [
        {
          "name": "vault",
          "type": "address",
          "indexed": true,
          "internalType": "address"
        },
        {
          "name": "strategy",
          "type": "uint8",
          "indexed": false,
          "internalType": "enum IYieldAggregator.YieldStrategy"
        },
        {
          "name": "apr",
          "type": "uint256",
          "indexed": false,
          "internalType": "uint256"
        }
      ],
      "anonymous": false
    },
    {
      "type": "event",
      "name": "VaultUpdated",
      "inputs": [
        {
          "name": "vault",
          "type": "address",
          "indexed": true,
          "internalType": "address"
        },
        {
          "name": "newApr",
          "type": "uint256",
          "indexed": false,
          "internalType": "uint256"
        },
        {
          "name": "active",
          "type": "bool",
          "indexed": false,
          "internalType": "bool"
        }
      ],
      "anonymous": false
    },
    {
      "type": "event",
      "name": "YieldClaimed",
      "inputs": [
        {
          "name": "user",
          "type": "address",
          "indexed": true,
          "internalType": "address"
        },
        {
          "name": "amount",
          "type": "uint256",
          "indexed": false,
          "internalType": "uint256"
        }
      ],
      "anonymous": false
    },
    {
      "type": "event",
      "name": "YieldCompounded",
      "inputs": [
        {
          "name": "user",
          "type": "address",
          "indexed": true,
          "internalType": "address"
        },
        {
          "name": "amount",
          "type": "uint256",
          "indexed": false,
          "internalType": "uint256"
        }
      ],
      "anonymous": false
    },
    {
      "type": "event",
      "name": "YieldDeposited",
      "inputs": [
        {
          "name": "user",
          "type": "address",
          "indexed": true,
          "internalType": "address"
        },
        {
          "name": "vault",
          "type": "address",
          "indexed": true,
          "internalType": "address"
        },
        {
          "name": "amount",
          "type": "uint256",
          "indexed": false,
          "internalType": "uint256"
        },
        {
          "name": "shares",
          "type": "uint256",
          "indexed": false,
          "internalType": "uint256"
        }
      ],
      "anonymous": false
    },
    {
      "type": "event",
      "name": "YieldWithdrawn",
      "inputs": [
        {
          "name": "user",
          "type": "address",
          "indexed": true,
          "internalType": "address"
        },
        {
          "name": "vault",
          "type": "address",
          "indexed": true,
          "internalType": "address"
        },
        {
          "name": "amount",
          "type": "uint256",
          "indexed": false,
          "internalType": "uint256"
        },
        {
          "name": "yield",
          "type": "uint256",
          "indexed": false,
          "internalType": "uint256"
        }
      ],
      "anonymous": false
    },
    {
      "type": "error",
      "name": "AddressEmptyCode",
      "inputs": [
        {
          "name": "target",
          "type": "address",
          "internalType": "address"
        }
      ]
    },
    {
      "type": "error",
      "name": "AddressInsufficientBalance",
      "inputs": [
        {
          "name": "account",
          "type": "address",
          "internalType": "address"
        }
      ]
    },
    {
      "type": "error",
      "name": "DepositsPaused",
      "inputs": []
    },
    {
      "type": "error",
      "name": "ERC1967InvalidImplementation",
      "inputs": [
        {
          "name": "implementation",
          "type": "address",
          "internalType": "address"
        }
      ]
    },
    {
      "type": "error",
      "name": "ERC1967NonPayable",
      "inputs": []
    },
    {
      "type": "error",
      "name": "EnforcedPause",
      "inputs": []
    },
    {
      "type": "error",
      "name": "ExpectedPause",
      "inputs": []
    },
    {
      "type": "error",
      "name": "FailedInnerCall",
      "inputs": []
    },
    {
      "type": "error",
      "name": "FlashLoanDetected",
      "inputs": []
    },
    {
      "type": "error",
      "name": "InvalidAddress",
      "inputs": []
    },
    {
      "type": "error",
      "name": "InvalidAmount",
      "inputs": []
    },
    {
      "type": "error",
      "name": "InvalidInitialization",
      "inputs": []
    },
    {
      "type": "error",
      "name": "InvalidVault",
      "inputs": []
    },
    {
      "type": "error",
      "name": "NoDeposit",
      "inputs": []
    },
    {
      "type": "error",
      "name": "NotInitializing",
      "inputs": []
    },
    {
      "type": "error",
      "name": "OwnableInvalidOwner",
      "inputs": [
        {
          "name": "owner",
          "type": "address",
          "internalType": "address"
        }
      ]
    },
    {
      "type": "error",
      "name": "OwnableUnauthorizedAccount",
      "inputs": [
        {
          "name": "account",
          "type": "address",
          "internalType": "address"
        }
      ]
    },
    {
      "type": "error",
      "name": "ReentrancyGuardReentrantCall",
      "inputs": []
    },
    {
      "type": "error",
      "name": "SafeERC20FailedOperation",
      "inputs": [
        {
          "name": "token",
          "type": "address",
          "internalType": "address"
        }
      ]
    },
    {
      "type": "error",
      "name": "TooManyVaults",
      "inputs": []
    },
    {
      "type": "error",
      "name": "UUPSUnauthorizedCallContext",
      "inputs": []
    },
    {
      "type": "error",
      "name": "UUPSUnsupportedProxiableUUID",
      "inputs": [
        {
          "name": "slot",
          "type": "bytes32",
          "internalType": "bytes32"
        }
      ]
    },
    {
      "type": "error",
      "name": "VaultAlreadyExists",
      "inputs": []
    },
    {
      "type": "error",
      "name": "VaultInactive",
      "inputs": []
    },
    {
      "type": "error",
      "name": "VaultNotFound",
      "inputs": []
    }
  ],
  "bytecode": {
    "object": "0x60a0806040523460c857306080527ff0c57e16840df040f15088dc2f81fe391c3923bec73e23a9662efc9c229c6a009081549060ff8260401c1660b957506001600160401b036002600160401b0319828216016075575b6040516135d790816100ce823960805181818161192b0152611a460152f35b6001600160401b031990911681179091556040519081527fc7f505b2f371ae2175ee4913f4499e1f2633a7b5936321eed1cdaeb6115181d290602090a13880806056565b63f92ee8a960e01b8152600490fd5b600080fdfe60406080815260048036101561001457600080fd5b600091823560e01c918263021919801461269d5782630905f56014612676578263122cc1cc1461264a5782631f7bb1bb146125fa578263201933bf1461251b57826321116f4e146123515782632e1a7d4d1461211c5782632e5a6e25146120e957826339fda35f14611ff25782633f4ba83a14611f30578263406cf22914611d31578263454bbd2914611cb55782634f1ef286146119bd5782635011ec7a146119a057826352d1902d14611901578263536fff6c146118b8578263537bb1371461189257826354fd4d501461183d5782635b7c2dad146117ed5782635c975abb146117aa57826360da3e83146117865782636439867614611751578263698b4c28146116705782636b4eabef14611582578263715018a6146114e25782638456cb591461144a5782638c8250561461142b5782638da5cb5b146113d757826390229af71461120d5782639ca0ac38146111c9578263a38afdab1461110e578263a3d1115814610f59578263a622ee7c14610eaa578263aa80e8a214610e66578263ad3cb1cc14610e11578263b26025aa14610df2578263b6b55f2514610c47578263b6eaea1714610c2b578263be32b3f814610ba4578263c4d66de814610910578263ce2df72d1461087e578263d57ad5471461052f578263db77519f146104df578263e1e158a5146104bc578263e4484dc31461027a57508163ec18154e14610257575063f2fde38b1461022857600080fd5b346102545760206003193601126102545761025161024461270c565b61024c612e1b565b612d58565b80f35b80fd5b9050346102765781600319360112610276576020906005549051908152f35b5080fd5b9150346104b857826003193601126104b857610294612e8b565b60ff60075460081c1615806104a2575b80610498575b61047257338352602092828452818120541561044b5773ffffffffffffffffffffffffffffffffffffffff6102dd612c55565b5016928315610424576102ef33612bfc565b9384156103fc57908392913383526003875283832081845287528383209081549160016fffffffffffffffffffffffffffffffff91826103318b828816612ac5565b167fffffffffffffffffffffffffffffffff000000000000000000000000000000008096161781550180548467ffffffffffffffff421691161790558185526001895261038388828888205416612ac5565b1690845260018852848420918254161790553382528552206103a6838254612ac5565b905580518281527f05c69ab20afd15eceba4719679c248fd89f4b84d69e15164c93204b1d227ee7a843392a260017f9b779b17422d0df92223018b32b4d1fa46e071723d6817e2486d003becc55f005551908152f35b5082517f2c5211c6000000000000000000000000000000000000000000000000000000008152fd5b82517fdee790fb000000000000000000000000000000000000000000000000000000008152fd5b50517f3a6a68b1000000000000000000000000000000000000000000000000000000008152fd5b517ff073bef9000000000000000000000000000000000000000000000000000000008152fd5b50333214156102aa565b50338352600860205260ff8184205416156102a4565b8280fd5b83823461027657816003193601126102765760209051670de0b6b3a76400008152f35b83823461027657816003193601126102765761052b906104fd612c55565b915173ffffffffffffffffffffffffffffffffffffffff909116815260208101919091529081906040820190565b0390f35b8382346102765760606003193601126102765761054a61270c565b90602435600581101561087a57604435610562612e1b565b73ffffffffffffffffffffffffffffffffffffffff80941693841561085257848652600160205280600285882001541661082a57600a6002541015610802578467ffffffffffffffff85516105b68161280c565b8881528860208201928184528883019281881684526060810191670de0b6b3a7640000835261065060808301926105ed8c85612961565b600160a0820181815260c083018b81529a8852602091909152958d90209051975160801b7fffffffffffffffffffffffffffffffff00000000000000000000000000000000166fffffffffffffffffffffffffffffffff98909816979097178755565b600186019451166fffffffffffffffff0000000000000000855493518c1b16915160058110156107d4579260029592899795927fffffffffffffffffffffffffffffff000000000000000000000000000000000070ff0000000000000000000000000000000061070c9760801b16931617171782555115157fffffffffffffffffffffffffffff00ffffffffffffffffffffffffffffffffff71ff0000000000000000000000000000000000835492151560881b169116179055565b019151167fffffffffffffffffffffffff0000000000000000000000000000000000000000825416179055600254680100000000000000008110156107a8577ff0035eebee51b9dfa26a29ef60e4ce4df924b64ae6e67f38a90f77e93d48b90f95969750806001610780920160025561272f565b819291549060031b9188831b921b191617905561079f83518093612925565b6020820152a280f35b60248760418a7f4e487b7100000000000000000000000000000000000000000000000000000000835252fd5b505060248c60218f7f4e487b7100000000000000000000000000000000000000000000000000000000835252fd5b8684517f0c931210000000000000000000000000000000000000000000000000000000008152fd5b8684517f04aabf33000000000000000000000000000000000000000000000000000000008152fd5b8684517fe6c4247b000000000000000000000000000000000000000000000000000000008152fd5b8380fd5b8382346102765780600319360112610276578060809261089c61270c565b6108a46126e4565b9073ffffffffffffffffffffffffffffffffffffffff809116835260036020528383209116825260205220906001825492015467ffffffffffffffff918051936fffffffffffffffffffffffffffffffff81168552851c6020850152828216818501521c166060820152f35b909150346104b85760206003193601126104b85761092c61270c565b7ff0c57e16840df040f15088dc2f81fe391c3923bec73e23a9662efc9c229c6a009182549160ff83861c16159267ffffffffffffffff811680159081610b9c575b6001149081610b92575b159081610b89575b50610b615790818460017fffffffffffffffffffffffffffffffffffffffffffffffff000000000000000073ffffffffffffffffffffffffffffffffffffffff9516178755610b2c575b5016908115610b0557506109db613478565b6109e3613478565b6109ec33612d58565b6109f4613478565b6109fc613478565b610a04613478565b60017f9b779b17422d0df92223018b32b4d1fa46e071723d6817e2486d003becc55f0055610a30613478565b610a38613478565b7fcd5ed15c6e187e77e9aee88184c21f4f2182ab5827cb3b7e07fbedcd63f033007fffffffffffffffffffffffffffffffffffffffffffffffffffffffffffffff0081541690557fffffffffffffffffffffffff0000000000000000000000000000000000000000855416178455610aae578280f35b7fc7f505b2f371ae2175ee4913f4499e1f2633a7b5936321eed1cdaeb6115181d291817fffffffffffffffffffffffffffffffffffffffffffffff00ffffffffffffffff602093541690555160018152a138808280f35b84517fe6c4247b000000000000000000000000000000000000000000000000000000008152fd5b7fffffffffffffffffffffffffffffffffffffffffffffff0000000000000000001668010000000000000001178555386109c9565b8286517ff92ee8a9000000000000000000000000000000000000000000000000000000008152fd5b9050153861097f565b303b159150610977565b85915061096d565b909150346104b85760206003193601126104b85735908115158092036104b8577f2e5a1930def2f974808cd3dd28f6606d8d2cb5d7adb78f6761ea31062ced1a3391602091610bf1612e1b565b6007547fffffffffffffffffffffffffffffffffffffffffffffffffffffffffffff00ff61ff008460081b1691161760075551908152a180f35b83823461027657816003193601126102765760209051600a8152f35b9150346104b85760206003193601126104b857813592610c65612e8b565b610c6d6131dd565b600754908260ff8360081c16159182610ddb575b505080610dd1575b610daa5760ff16610d8457670de0b6b3a76400008310610d5e57610cab612c55565b509173ffffffffffffffffffffffffffffffffffffffff831690811561042457509061052b91610cdc858533613232565b9482519081528560208201527f45afc1f2190a9c643b622e703b26867b231ca9ec5626176f118eb6f693964528833392a360017f9b779b17422d0df92223018b32b4d1fa46e071723d6817e2486d003becc55f005551928392836020909392919373ffffffffffffffffffffffffffffffffffffffff60408201951681520152565b517f2c5211c6000000000000000000000000000000000000000000000000000000008152fd5b517fdeeb6943000000000000000000000000000000000000000000000000000000008152fd5b50517ff073bef9000000000000000000000000000000000000000000000000000000008152fd5b5033321415610c89565b60ff92503381526008602052205416158238610c81565b8382346102765781600319360112610276576020906005549051908152f35b838234610276578160031936011261027657805161052b91610e3282612828565b600582527f352e302e30000000000000000000000000000000000000000000000000000000602083015251918291826128bf565b909150346104b85760206003193601126104b857602092829173ffffffffffffffffffffffffffffffffffffffff610e9c61270c565b168252845220549051908152f35b83823461027657602060031936011261027657908160ff60e09373ffffffffffffffffffffffffffffffffffffffff9384610ee361270c565b1681526001602052209283549360018101548092600267ffffffffffffffff93015416948051966fffffffffffffffffffffffffffffffff8116885260801c6020880152828216818801521c166060850152610f4760808501838360801c16612925565b60881c16151560a083015260c0820152f35b9150346104b857806003193601126104b857610f7361270c565b9260243592610f80612e8b565b610f886131dd565b60075460ff8160081c1615806110f8575b806110ee575b6110c65760ff1661109f57670de0b6b3a764000084106110785760ff60018473ffffffffffffffffffffffffffffffffffffffff8816948581528260205220015460881c16156110515750610ff78360209533613232565b92825190815283858201527f45afc1f2190a9c643b622e703b26867b231ca9ec5626176f118eb6f693964528833392a360017f9b779b17422d0df92223018b32b4d1fa46e071723d6817e2486d003becc55f005551908152f35b82517f4aaeea09000000000000000000000000000000000000000000000000000000008152fd5b82517f2c5211c6000000000000000000000000000000000000000000000000000000008152fd5b82517fdeeb6943000000000000000000000000000000000000000000000000000000008152fd5b5082517ff073bef9000000000000000000000000000000000000000000000000000000008152fd5b5033321415610f9f565b50338352600860205260ff848420541615610f99565b9150346104b85760206003193601126104b85761112961270c565b611131612e1b565b73ffffffffffffffffffffffffffffffffffffffff809116928385526001602052828520916002830154161561042457509060017f927b16480391adfa56777f7f3c966ac767580b78e8a9ff424363bd1c8b622ff192018054907fffffffffffffffffffffffffffff00ffffffffffffffffffffffffffffffffff8216905567ffffffffffffffff825191168152846020820152a280f35b83346102545780600319360112610254576111e2612e1b565b7fffffffffffffffffffffffffffffffffffffffffffffffffffffffffffffff006007541660075580f35b90833461025457602091826003193601126102765761122a61270c565b908051611236816127ef565b838152838582015283828201528360608201528360809181838201528160a08201528160c082015260e0015273ffffffffffffffffffffffffffffffffffffffff809316845260018552818420948251926112908461280c565b8654906fffffffffffffffffffffffffffffffff94858316815283810192851c835260018901549367ffffffffffffffff83830190808716825260608401988188871c168a528a8986019d8e8a8c1c60ff166112eb91612961565b60a087019960881c60ff1615158a5260020154169c8d60c0870152519260058410156113ab576101009e50908083611385969594935116965116975116975115159951169961134c8387519e8f90611342826127ef565b8152019283612961565b858d0194855260608d01968752888d0197885260a08d01998a5260c08d019a8b5260e08d019b8c5285519c51168c5251908b0190612925565b5190880152516060870152519085015251151560a08401525160c08301525160e0820152f35b7f4e487b71000000000000000000000000000000000000000000000000000000008d5260218f5260248dfd5b83823461027657816003193601126102765760209073ffffffffffffffffffffffffffffffffffffffff7f9016d09d72d40fdae2fd8ceac6b6234c7706214fd39c1cd1e609a0528c19930054169051908152f35b8382346102765781600319360112610276576020906006549051908152f35b83823461027657816003193601126102765760207f62e78cea01bee320cd4e420270b5ea74000d11b0c9f74754ebdbfc544b05a25891611488612e1b565b6114906131dd565b7fcd5ed15c6e187e77e9aee88184c21f4f2182ab5827cb3b7e07fbedcd63f0330060017fffffffffffffffffffffffffffffffffffffffffffffffffffffffffffffff0082541617905551338152a180f35b83346102545780600319360112610254576114fb612e1b565b8073ffffffffffffffffffffffffffffffffffffffff7f9016d09d72d40fdae2fd8ceac6b6234c7706214fd39c1cd1e609a0528c1993008054907fffffffffffffffffffffffff000000000000000000000000000000000000000082169055167f8be0079c531659141344cd1fd0a4f28419497f9722a3daafe3b4186f6b6457e08280a380f35b9150346104b857806003193601126104b85761159c61270c565b602435906115a8612e1b565b73ffffffffffffffffffffffffffffffffffffffff809116938486526001602052838620916002830154161561164957509060ff60017f927b16480391adfa56777f7f3c966ac767580b78e8a9ff424363bd1c8b622ff194930167ffffffffffffffff83167fffffffffffffffffffffffffffffffffffffffffffffffff000000000000000082541617809155835192835260881c1615156020820152a280f35b83517fdee790fb000000000000000000000000000000000000000000000000000000008152fd5b9150346104b857806003193601126104b85761168a61270c565b611692612795565b9061169b612e1b565b73ffffffffffffffffffffffffffffffffffffffff8091169384865260016020528386209160028301541615611649575060010180547fffffffffffffffffffffffffffff00ffffffffffffffffffffffffffffffffff1682151560881b71ff0000000000000000000000000000000000161781557f927b16480391adfa56777f7f3c966ac767580b78e8a9ff424363bd1c8b622ff192919067ffffffffffffffff90541690825191825215156020820152a280f35b83823461027657806003193601126102765760209061177f61177161270c565b6117796126e4565b90613096565b9051908152f35b83823461027657816003193601126102765760209060ff6007541690519015158152f35b83823461027657816003193601126102765760209060ff7fcd5ed15c6e187e77e9aee88184c21f4f2182ab5827cb3b7e07fbedcd63f03300541690519015158152f35b833461025457602060031936011261025457826118319161180c61270c565b9373ffffffffffffffffffffffffffffffffffffffff85168252602052205491612bfc565b82519182526020820152f35b838234610276578160031936011261027657805161052b9161185e82612828565b600582527f332e302e30000000000000000000000000000000000000000000000000000000602083015251918291826128bf565b8382346102765760206003193601126102765760209061177f6118b361270c565b612bfc565b8382346102765760206003193601126102765760ff8160209373ffffffffffffffffffffffffffffffffffffffff6118ee61270c565b1681526008855220541690519015158152f35b9083346102545780600319360112610254575073ffffffffffffffffffffffffffffffffffffffff7f000000000000000000000000000000000000000000000000000000000000000016300361197a57602090517f360894a13ba1a3210667c828492db98dca3e2076cc3735a920a3ca505d382bbc8152f35b517fe07c8dba000000000000000000000000000000000000000000000000000000008152fd5b83823461027657816003193601126102765760209061177f612ad2565b9150806003193601126104b8576119d261270c565b90602493843567ffffffffffffffff81116102765736602382011215610276578085013593611a0085612885565b611a0c85519182612844565b85815260209586820193368a8383010111611c54578186928b8a930187378301015273ffffffffffffffffffffffffffffffffffffffff807f000000000000000000000000000000000000000000000000000000000000000016803014908115611c87575b50611c5f57611a7e612e1b565b8216958551907f52d1902d00000000000000000000000000000000000000000000000000000000825280828a818b5afa9182918793611c2b575b5050611aed57505050505051917f4c9c8ce3000000000000000000000000000000000000000000000000000000008352820152fd5b86899689927f360894a13ba1a3210667c828492db98dca3e2076cc3735a920a3ca505d382bbc90818103611bfd5750853b15611bcf5780547fffffffffffffffffffffffff0000000000000000000000000000000000000000168317905551869392917fbc7cd75a20ee27fd9adebab32041f755214dbc6bffa90cc0225b39da2e5c2d3b8580a2825115611b9a575050611b969382915190845af4611b906134d1565b91613501565b5080f35b93509350505034611baa57505080f35b7fb398979f000000000000000000000000000000000000000000000000000000008152fd5b5087935051917f4c9c8ce3000000000000000000000000000000000000000000000000000000008352820152fd5b848a918451917faa1d49a4000000000000000000000000000000000000000000000000000000008352820152fd5b9080929350813d8311611c58575b611c438183612844565b81010312611c545751903880611ab8565b8580fd5b503d611c39565b8786517fe07c8dba000000000000000000000000000000000000000000000000000000008152fd5b9050817f360894a13ba1a3210667c828492db98dca3e2076cc3735a920a3ca505d382bbc5416141538611a71565b838234610276578060031936011261027657611ccf61270c565b9073ffffffffffffffffffffffffffffffffffffffff611ced612795565b92611cf6612e1b565b168352600860205282209060ff7fffffffffffffffffffffffffffffffffffffffffffffffffffffffffffffff008354169115151617905580f35b9150346104b857826003193601126104b857611d4b612e8b565b60ff60075460081c161580611f1a575b80611f10575b6104725782903384526020836020528185205415611ee857845b600254811015611e3d5773ffffffffffffffffffffffffffffffffffffffff611da38261272f565b919054600392831b1c169033885283528387208188528352838720906fffffffffffffffffffffffffffffffff825416611de2575b5050600101611d7b565b611dec9033613096565b8015611dd857611e026001939296918492612ac5565b950180547fffffffffffffffffffffffffffffffff00000000000000000000000000000000164267ffffffffffffffff161790559038611dd8565b505090918215611ec15750611e6d8260209473ffffffffffffffffffffffffffffffffffffffff3391541661302d565b80518281527fc04825ba3f383b602255d2a13065a68e325c65c9e0ed5d031ea2b06f641873af843392a260017f9b779b17422d0df92223018b32b4d1fa46e071723d6817e2486d003becc55f005551908152f35b90517f2c5211c6000000000000000000000000000000000000000000000000000000008152fd5b8382517f3a6a68b1000000000000000000000000000000000000000000000000000000008152fd5b5033321415611d61565b50338352600860205260ff818420541615611d5b565b909150346104b857826003193601126104b857611f4b612e1b565b7fcd5ed15c6e187e77e9aee88184c21f4f2182ab5827cb3b7e07fbedcd63f033009081549060ff821615611fcb57507fffffffffffffffffffffffffffffffffffffffffffffffffffffffffffffff00169055513381527f5db9ee0a495bf2e6ff9c91a7834c1ba4fdd244a5e8aa4e537bd38aeae4b073aa90602090a180f35b83517f8dfc202b000000000000000000000000000000000000000000000000000000008152fd5b838234610276578060031936011261027657908160809261201161270c565b9261201a6126e4565b825194612026866127a4565b82865282606060209782898201528287820152015273ffffffffffffffffffffffffffffffffffffffff8091168352600386528383209116825284522090805161206f816127a4565b825493606060016fffffffffffffffffffffffffffffffff871696878552881c95868486015201549267ffffffffffffffff808516948587840152861c169182910152606084516120bf816127a4565b87815283810192835285810194855201948552835195865251908501525190830152516060820152f35b83823461027657816003193601126102765773ffffffffffffffffffffffffffffffffffffffff60209254169051908152f35b833461025457602092836003193601126102765782359161213b612e8b565b60ff60075460081c16158061233c575b80612332575b61230a578091338252848652808220549384156122e257806122dc575083915b8483116122b457805b6002548110156122165773ffffffffffffffffffffffffffffffffffffffff6121a28261272f565b919054600392831b1c169033845289528383208184528952866fffffffffffffffffffffffffffffffff8585205416806121e2575b50505060010161217a565b61220d9261220060019599936121fb612207948b61296d565b6129af565b9033612ee5565b90612ac5565b9490868a6121d7565b5086939286338352855282822061222e828254612ab8565b9055612252843373ffffffffffffffffffffffffffffffffffffffff85541661302d565b61225c8185612ab8565b8351918252858201527fa0b74f939fb29d54926019ff2505b0413dfadf71a0d6dad6e26bfd514fd86931833392a360017f9b779b17422d0df92223018b32b4d1fa46e071723d6817e2486d003becc55f005551908152f35b8582517f2c5211c6000000000000000000000000000000000000000000000000000000008152fd5b91612171565b8582517f3a6a68b1000000000000000000000000000000000000000000000000000000008152fd5b8382517ff073bef9000000000000000000000000000000000000000000000000000000008152fd5b5033321415612151565b503381526008855260ff82822054161561214b565b83823461027657806003193601126102765761236b61270c565b9160243593612378612e8b565b60ff60075460081c161580612505575b806124fb575b6124d45773ffffffffffffffffffffffffffffffffffffffff948585169283815260209660018852806002878420015416156124ac57338252600388528582208583528852858220928354976fffffffffffffffffffffffffffffffff91828a1615612484578061247e57508860801c985b60801c8911612456576122529493929161242d6124218b6124379433612ee5565b9a8b965492831661296d565b9060801c906129af565b94338352895286822061244b868254612ab8565b90553391541661302d565b8588517f2c5211c6000000000000000000000000000000000000000000000000000000008152fd5b98612400565b8689517f3a6a68b1000000000000000000000000000000000000000000000000000000008152fd5b8386517fdee790fb000000000000000000000000000000000000000000000000000000008152fd5b82517ff073bef9000000000000000000000000000000000000000000000000000000008152fd5b503332141561238e565b50338252600860205260ff838320541615612388565b5082346102545780600319360112610254579080519182906002549182855260208095018093600284527f405787fa12a823e0f2b7631cc41b3ba8828b3321ca811111fa75cd3aa3bb5ace90845b8181106125d0575050508161257f910382612844565b83519485948186019282875251809352850193925b8281106125a357505050500390f35b835173ffffffffffffffffffffffffffffffffffffffff1685528695509381019392810192600101612594565b825473ffffffffffffffffffffffffffffffffffffffff1684529288019260019283019201612569565b909150346104b85760206003193601126104b8573591600254831015610254575073ffffffffffffffffffffffffffffffffffffffff61263b60209361272f565b92905490519260031b1c168152f35b908334610254576060600319360112610254575061177f60209261266c6126e4565b60443591356129e8565b83823461027657816003193601126102765760209060ff60075460081c1690519015158152f35b83346102545780600319360112610254576126b6612e1b565b60017fffffffffffffffffffffffffffffffffffffffffffffffffffffffffffffff00600754161760075580f35b6024359073ffffffffffffffffffffffffffffffffffffffff8216820361270757565b600080fd5b6004359073ffffffffffffffffffffffffffffffffffffffff8216820361270757565b6002548110156127665760026000527f405787fa12a823e0f2b7631cc41b3ba8828b3321ca811111fa75cd3aa3bb5ace0190600090565b7f4e487b7100000000000000000000000000000000000000000000000000000000600052603260045260246000fd5b60243590811515820361270757565b6080810190811067ffffffffffffffff8211176127c057604052565b7f4e487b7100000000000000000000000000000000000000000000000000000000600052604160045260246000fd5b610100810190811067ffffffffffffffff8211176127c057604052565b60e0810190811067ffffffffffffffff8211176127c057604052565b6040810190811067ffffffffffffffff8211176127c057604052565b90601f7fffffffffffffffffffffffffffffffffffffffffffffffffffffffffffffffe0910116810190811067ffffffffffffffff8211176127c057604052565b67ffffffffffffffff81116127c057601f017fffffffffffffffffffffffffffffffffffffffffffffffffffffffffffffffe01660200190565b60208082528251818301819052939260005b858110612911575050507fffffffffffffffffffffffffffffffffffffffffffffffffffffffffffffffe0601f8460006040809697860101520116010190565b8181018301518482016040015282016128d1565b9060058210156129325752565b7f4e487b7100000000000000000000000000000000000000000000000000000000600052602160045260246000fd5b60058210156129325752565b8181029291811591840414171561298057565b7f4e487b7100000000000000000000000000000000000000000000000000000000600052601160045260246000fd5b81156129b9570490565b7f4e487b7100000000000000000000000000000000000000000000000000000000600052601260045260246000fd5b9173ffffffffffffffffffffffffffffffffffffffff809216600052600160205260406000209160c0604051612a1d8161280c565b84546fffffffffffffffffffffffffffffffff8116825260801c6020820152600185015492600267ffffffffffffffff9660ff60408501968981168852898160401c166060870152612a77828260801c1660808801612961565b60881c16151560a0850152015416918291015215612aaf5764496cebb80093612aab93612aa69251169061296d565b61296d565b0490565b50505050600090565b9190820391821161298057565b9190820180921161298057565b600554908115612bf657600091600060028054915b828110612afe57505050612afb91926129af565b90565b612b078161272f565b9073ffffffffffffffffffffffffffffffffffffffff918291549060031b1c166000526001602090808252604080600020815194612b448661280c565b878254946fffffffffffffffffffffffffffffffff968787168952608096871c908901528301549467ffffffffffffffff958681878b019782821689521c1660608a0152612b9b60ff928383821c16908b01612961565b60881c161515928360a089015201541660c086015280612bea575b612bc7575b50505050600101612ae7565b92600194999261220792612be09551169151169061296d565b9590388080612bbb565b50828451161515612bb6565b60009150565b90600091600090600254905b818310612c1457505050565b909193612c4c60019161220773ffffffffffffffffffffffffffffffffffffffff612c3e8961272f565b90549060031b1c1685613096565b94019190612c08565b60009060009060009160009060028054925b838110612c745750505050565b60c0612c7f8261272f565b9073ffffffffffffffffffffffffffffffffffffffff918291549060031b1c16855260016020918183526040918288209187845192612cbd8461280c565b8454966fffffffffffffffffffffffffffffffff88168552608097881c908501528401549567ffffffffffffffff968781888701988282168a521c166060860152612d1160ff928383821c16908701612961565b60881c161515938460a0850152015416948591015280612d4c575b612d3c575b505050600101612c67565b5191985016955060013880612d31565b50888282511611612d2c565b73ffffffffffffffffffffffffffffffffffffffff809116908115612dea577f9016d09d72d40fdae2fd8ceac6b6234c7706214fd39c1cd1e609a0528c199300805490837fffffffffffffffffffffffff00000000000000000000000000000000000000008316179055167f8be0079c531659141344cd1fd0a4f28419497f9722a3daafe3b4186f6b6457e0600080a3565b60246040517f1e4fbdf700000000000000000000000000000000000000000000000000000000815260006004820152fd5b73ffffffffffffffffffffffffffffffffffffffff7f9016d09d72d40fdae2fd8ceac6b6234c7706214fd39c1cd1e609a0528c19930054163303612e5b57565b60246040517f118cdaa7000000000000000000000000000000000000000000000000000000008152336004820152fd5b7f9b779b17422d0df92223018b32b4d1fa46e071723d6817e2486d003becc55f006002815414612ebb5760029055565b60046040517f3ee5aeb5000000000000000000000000000000000000000000000000000000008152fd5b9161302891939273ffffffffffffffffffffffffffffffffffffffff80821660005260036020526040600020908616600052602052612f3c612f366040600020966001602052604060002093613096565b83612ac5565b94805460016fffffffffffffffffffffffffffffffff92612ff884612fb881612f678a828916612ab8565b16612fb2817fffffffffffffffffffffffffffffffff000000000000000000000000000000008099161780875560801c91612fac8c612fa6818661296d565b92612ac5565b906129af565b90612ab8565b83546fffffffffffffffffffffffffffffffff16911660801b7fffffffffffffffffffffffffffffffff0000000000000000000000000000000016178255565b01805482164267ffffffffffffffff1617905582549161301a85828516612ab8565b169116179055600554612ab8565b600555565b6040517fa9059cbb00000000000000000000000000000000000000000000000000000000602082015273ffffffffffffffffffffffffffffffffffffffff9290921660248301526044808301939093529181526130949161308f606483612844565b6133cf565b565b9073ffffffffffffffffffffffffffffffffffffffff908160009316835260036020526040828185209216918285526020528084208151946130d7866127a4565b81549060016fffffffffffffffffffffffffffffffff9384841693848a5260801c60208a015201549567ffffffffffffffff958589019387891685528760608b0199881c168952156131d157825260016020528482209060c086519161313c8361280c565b8354878116845260801c6020840152600260ff60018601548b818c88019c8d83831690521c166060870152613179828260801c1660808801612961565b60881c161594851560a08601520154169101526131c7575094612aa664496cebb80093856131bd946131b182612afb9b511642612ab8565b9451169151169061296d565b0491511690612ac5565b9550505050505090565b50509550505050505090565b60ff7fcd5ed15c6e187e77e9aee88184c21f4f2182ab5827cb3b7e07fbedcd63f03300541661320857565b60046040517fd93c0665000000000000000000000000000000000000000000000000000000008152fd5b92909173ffffffffffffffffffffffffffffffffffffffff9260008481541691604092868451987f23b872dd0000000000000000000000000000000000000000000000000000000060208b015216918260248a01523060448a01528560648a01526064895260a089019167ffffffffffffffff928a8110848211176133a257996132c391613028999a9b88526133cf565b859883855260036020528585209116908185526020528484209081549260016fffffffffffffffffffffffffffffffff9361333a85612fb88c8261330982828d16612ac5565b167fffffffffffffffffffffffffffffffff00000000000000000000000000000000809b161780865560801c612ac5565b019042167fffffffffffffffffffffffffffffffffffffffffffffffff0000000000000000825416179055845260016020528484209182549161337f88828516612ac5565b1691161790558152600460205220613398828254612ac5565b9055600554612ac5565b6024867f4e487b710000000000000000000000000000000000000000000000000000000081526041600452fd5b73ffffffffffffffffffffffffffffffffffffffff1690613407600080836020829551910182875af16134006134d1565b9084613501565b908151918215159283613450575b50505061341f5750565b602490604051907f5274afe70000000000000000000000000000000000000000000000000000000082526004820152fd5b8192935090602091810103126102765760200151908115918215036102545750388080613415565b60ff7ff0c57e16840df040f15088dc2f81fe391c3923bec73e23a9662efc9c229c6a005460401c16156134a757565b60046040517fd7e6bcf8000000000000000000000000000000000000000000000000000000008152fd5b3d156134fc573d906134e282612885565b916134f06040519384612844565b82523d6000602084013e565b606090565b90613540575080511561351657805190602001fd5b60046040517f1425ea42000000000000000000000000000000000000000000000000000000008152fd5b81511580613598575b613551575090565b60249073ffffffffffffffffffffffffffffffffffffffff604051917f9996b315000000000000000000000000000000000000000000000000000000008352166004820152fd5b50803b1561354956fea2646970667358221220185105449ea85c71da2a10ba2c26dc37817445d4b8a652e40a49d70a58f7b43064736f6c63430008190033",
    "linkReferences": {}
  },
  "methodIdentifiers": {
    "MAX_VAULTS()": "b6eaea17",
    "MIN_DEPOSIT()": "e1e158a5",
    "MUSD_TOKEN()": "2e5a6e25",
    "UPGRADE_INTERFACE_VERSION()": "ad3cb1cc",
    "activeVaultsList(uint256)": "1f7bb1bb",
    "addVault(address,uint8,uint256)": "d57ad547",
    "authorizedCallers(address)": "536fff6c",
    "calculateExpectedYield(uint256,address,uint256)": "122cc1cc",
    "claimYield()": "406cf229",
    "compoundYields()": "e4484dc3",
    "deposit(uint256)": "b6b55f25",
    "depositToVault(address,uint256)": "a3d11158",
    "depositsPaused()": "60da3e83",
    "emergencyMode()": "0905f560",
    "emergencyWithdrawFromVault(address)": "a38afdab",
    "getActiveVaults()": "201933bf",
    "getAverageApr()": "5011ec7a",
    "getBestVault()": "db77519f",
    "getPendingYield(address)": "537bb137",
    "getPendingYieldInVault(address,address)": "64398676",
    "getTotalValueLocked()": "b26025aa",
    "getUserPosition(address)": "5b7c2dad",
    "getUserPositionInVault(address,address)": "39fda35f",
    "getVaultInfo(address)": "90229af7",
    "initialize(address)": "c4d66de8",
    "owner()": "8da5cb5b",
    "pause()": "8456cb59",
    "pauseDeposits()": "02191980",
    "paused()": "5c975abb",
    "proxiableUUID()": "52d1902d",
    "renounceOwnership()": "715018a6",
    "resumeDeposits()": "9ca0ac38",
    "setAuthorizedCaller(address,bool)": "454bbd29",
    "setEmergencyMode(bool)": "be32b3f8",
    "setVaultActive(address,bool)": "698b4c28",
    "totalValueLocked()": "ec18154e",
    "totalYieldGenerated()": "8c825056",
    "transferOwnership(address)": "f2fde38b",
    "unpause()": "3f4ba83a",
    "updateVaultApr(address,uint256)": "6b4eabef",
    "upgradeToAndCall(address,bytes)": "4f1ef286",
    "userTotalDeposited(address)": "aa80e8a2",
    "userVaultPositions(address,address)": "ce2df72d",
    "vaults(address)": "a622ee7c",
    "version()": "54fd4d50",
    "withdraw(uint256)": "2e1a7d4d",
    "withdrawFromVault(address,uint256)": "21116f4e"
  },
  "id": 51
}